:020000040000FA
:06000000020A540201DFB8
:03002B0002089F29
:030033000206BB07
:030043000207545D
:03004B00021EE5AD
:0300530002011097
:03006B000206A1E9
:100083000201740101FF01010503010F10FEFFF0DE
:1000930012F012F012F012A611A011F01242250074
:1000A300000000A425000000000C0000000C00016B
:1000B300FFFF0100414C442057534E2D7379737455
:1000C300656D000000000000010280402010102038
:1000D30040800101010005060000007A06E8036480
:1000E300006400B801020200000002050207051EB9
:1000F30002051E020A0A03B80B02803E010288169B
:1001030001141F00E00796511800020206C0E074B4
:10011300F21203F8A2AFE433FED2AFE5A7FFE5A1E5
:10012300F5085F54106006121A8E75A1EFE5085F9B
:1001330054086008121A9475A1F7802BEFA2E0C04F
:10014300D0E508A2E092F012097B158182F05017E6
:10015300906198E0F8900B55E0C398A2D265D03334
:100163005002E8F075A1FEEEA2E092AF7F01020417
:1001730057C0E074F21203F8A2AFE433FED2AF909B
:1001830061A4E0F8759B00E59158540860087591E7
:10019300F7121ADC802AE59158541060087591EF24
:1001A300121AE2801BE8A2E0C0D0E591A2E092F02F
:1001B30012097B158182F05007E0C2E0F0121C2681
:1001C3009061A3E0F8E5E9585404600E121BFC7536
:1001D300E9FB906193E0A2E640F2808BC0E074F209
:1001E3001203F8A2AFE433FED2AF9061A5E0F8E5C5
:1001F300BF585404600675BFFB121C3E02016AC35C
:10020300E498F8E499F91202438026C3E49AFAE4E5
:100213009BFBE920E7E9120243E498F8E499F92209
:10022300C3E498F8E499F9120243E498F8E499F9DD
:10023300C3E49AFAE49BFB22EB20E7CFE920E7E053
:10024300B90010BB0008E88AF084F8AAF022E4FBA6
:10025300C8FA22EB70227B10C833C8C933C93350A4
:1002630007C39AC3DBF280069A50012ADBEAC8333C
:10027300F4C8C933F4C9FA2275F008E4C833C8C90D
:1002830033C933C99AC99B5004C92AC93BD5F0EC79
:10029300FBC833F4C8E4C9FA22080808EAC0E0EB53
:1002A300C0E086F0E7A4FA180986F0E7A42AFA1852
:1002B3000986F0E7A42AFA180986F0E7A42AFA19AE
:1002C30086F0E7A4FBE5F02AFA190886F0E7A42BE9
:1002D300FBE5F03AFA190886F0E7A42BFBE5F03AC0
:1002E300FA18180986F0E7A4C5F02BFBE43AFA19CB
:1002F30008E7C5F0C6A426F6E5F03BFBE43AFA1896
:1003030086F0E7A4F6E5F00826F6E43B08F6E43ABF
:1003130008F6D0E0FBD0E0FA22E4CFC0E0E4CEC0A0
:10032300E0E4CDC0E0E4CCC0E075F020C3E633F6F2
:1003330008E633F608E633F608E633F6181818EC41
:1003430033FCED33FDEE33FEEF33FFC3EC9709EDE2
:100353009709EE9709EF97191919400FFFEC97FCCE
:1003630009ED97FD09EE97FE191906D5F0BEECF7D6
:1003730009EDF709EEF709EFF7191919D0E0FCD0E9
:10038300E0FDD0E0FED0E0FF222518C582C0E0E505
:100393001934FFC583C0E0E518C3958224F810AF74
:1003A300088583198582188008858319858218D268
:1003B300AFCEF0A3E520F0A37808E608F0A3DEFAB9
:1003C300EFF0A3E58124FAF8E608F0A3E608F0A32A
:1003D300E608F0A30808E608F0A3E608F0A31581F1
:1003E3001581D0E0FED0E0F8158115811581E8C0B4
:1003F300E0EEC0E022C0D02518C582C0E0E5193484
:10040300FFC583C0E0E518C3958224F310AF0885C8
:1004130083198582188008858319858218D2AFC80D
:10042300F0A3E9F0A3EAF0A3EBF0A37908E709F05E
:10043300A3D8FAECF0A3EDF0A3EEF0A3EFF0A3D072
:10044300E0F0A3D0E0F0A3D0E0F0A3E520F0A3E533
:10045300F0F0A322851983851882E0C0E0A3E0F9B8
:10046300A3E0FAA3E0FBA37808E0F608A3DFFAE031
:10047300FCA3E0FDA3E0FEA3E0FFA3E0C0E0A3E054
:10048300C0E0A3E0F5D0A3E0F520A3E0A3F5F010CE
:10049300AF0885831985821880088583198582189A
:1004A300D2AFD082D083D0E0F8D0E032120AB6B90E
:1004B30000030204F1E4900301781C790F8002F039
:1004C300A3D8FCD9FA90111CAA82AB83900086783A
:1004D3008B79018015E493A3AC82AD838A828B83ED
:1004E300F0A3AA82AB838C828D83D8E9D9E7758286
:1004F300C67583E274031208177582DE75831E7452
:10050300001208170975F0108E1A8F1B85821F853C
:10051300831E851882851983E0CEA3E0CF851F82D1
:10052300851E83EBC9EAC8EDCBECCAC3E833C8E93F
:1005330033C9EA33CAEB33CBC3EA9EF51DEB9FF510
:100543001CB35004AB1CAA1DEC33CCED33CDD5F05A
:10055300DAAE1AAF1B22D083D082ECC0E0EDC0E04C
:10056300E493A3FCE493A3FDED4C600D120631EC80
:1005730024FFFCED34FFFD80EFE493A3FCE493A39D
:10058300FDED4C600D1206FFEC24FFFCED34FFFD86
:1005930080EFD0E0FDD0E0FCE493A3C0E0E493C09F
:1005A300E022851983851882E0A3FEE0A3F5207875
:1005B30008E0A3F608DFFAE0A3FFE0A3C0E0E0A3AE
:1005C300C0E0E0A3C0E0E0A3C0E0E0A3C0E010AF60
:1005D300088582188583198008858218858319D236
:1005E300AFD083D08202081DD083D082E9C0E0E47B
:1005F30093A3C386F0C5F095F0F908E493A386F0BE
:10060300C5F095F0700BE493A3C3994005E904800A
:1006130002A3E475F002A42582F582E5F03583F5A3
:1006230083D0E0F9E493A3C0E0E493C0E022C0E008
:10063300C3E49396087401939618400FE49366708D
:100643000808740193661870007019A3A3C3E49398
:1006530096087401939618A3A3400DD0E0D0E0D080
:10066300E0020595A3A3A3A3A3A3D0E0227404806F
:100673000474028000CCC0E0EDC0E0E518C39CCC5C
:10068300AD1950011D10AF068C188D1980068C18FA
:100693008D19D2AF120799D0E0FDD0E0FC22C0E063
:1006A30074F21203F8E589A2E15003121944758923
:1006B30000C2C57F01020457C0E074F21203F8E5DB
:1006C3008BA2E05003121944758B00C2E880E474D6
:1006D300028000CCC0E0EDC0E0E518C39CCCAD19AE
:1006E30050011D10AF068C188D1980068C188D19BA
:1006F300D2AF120777D0E0FDD0E0FC22C0E0C0F01B
:1007030088F0E4936670080874019366187000A873
:10071300F0A3A3700BD0F0D0E0D0E0D0E0020595B9
:10072300A3A3D0F0D0E022D083D082CCC0E0E49366
:10073300A360061207D91470FAE493A360061208A3
:10074300E91470FAD0E0FCE493A3C0E0E493C0E0C2
:1007530022C0E074F21203F8A2AFE433FED2AFC2B8
:10076300C0E5D1A2E45003121A0AEEA2E092AF7FD1
:1007730001020457CAC0E0E493A3C582CCC582C575
:1007830083CDC583F0A3C582CCC582C583CDC58384
:10079300DAE5D0E0CA22CAC0E0E0A3C582CCC582B4
:1007A300C583CDC583F0A3C582CCC582C583CDC522
:1007B30083DAE6D0E0CA2270090808082260161816
:1007C3001818C6C333C608C633C608C633C608C618
:1007D30033C6D5E0EA22C0E0E493A3D39C5010E4EF
:1007E30093A3C39C400AD0E0D0E0D0E0020747A324
:1007F300A3A3D0E022C008C3E096F50808A3E096BF
:10080300420808A3E096420808A3E0964508700151
:10081300D3D00822C09FF59FE473D09F22D083D00A
:1008230082C09FE493C0E0740193C0E0740293F527
:100833009F222518F58210AF08F51840021519807C
:1008430008F51840021519D2AF8519832274048064
:100853000A74038006740280027401C0E0F4041277
:100863000835D0E0120A9122C0D0251810AF08F540
:1008730018500205198008F51850020519D2AFD097
:10088300D022BB0102E722C082C08389828A83BB54
:100893000003E08002E493D083D08222C0E0C0D082
:1008A300E8C0E0E5A8D2AFC2C7A2E792AFD0E0F8B4
:1008B300D0D0D0E0326016080808C6C313C618C6E5
:1008C30013C618C613C618C613C6D5E0EA22C3E07A
:1008D300C696F608A3E0C696F608A3E0C696F60801
:1008E300A3E0C696F622C0E0E493A36C7009D0E0BF
:1008F300D0E0D0E0020747A3A3D0E022251810AF31
:1009030008F518400215198008F51840021519D288
:10091300AF22E76670100809E766700A0809E76600
:1009230070040809E76622E066701008A3E06670A9
:100933000A08A3E066700408A3E06622C3E09608F1
:10094300A3E09608A3E09608A3E096A2D265D0336D
:1009530022C3E096F008A3E096F008A3E096F0081F
:10096300A3E096F022E026F008A3E036F008A3E027
:1009730036F008A3E036F022C0E0E8C0E0E58124C9
:10098300FCF8E6A2E7D0E0F8D0E022E647F6080953
:10099300E647F60809E647F60809E647F622E026A1
:1009A300F608A3E036F608A3E036F608A3E036F629
:1009B30022E627F60809E637F60809E637F60809B6
:1009C300E637F622E657F60809E657F60809E6572A
:1009D300F60809E657F622E056F608A3E056F608AD
:1009E300A3E056F608A3E056F622E056F008A3E08B
:1009F30056F008A3E056F008A3E056F02270042254
:100A0300600D18C6C333C608C633C6D5E0F4182232
:100A1300E4C396F608E496F608E496F608E496F638
:100A230022C6F4C608C6F4C608C6F4C608C6F4C689
:100A330022C3E7960809E7960809E7960809E796A7
:100A430022C3E09608A3E09608A3E09608A3E096E5
:100A53002275D000758140751801751903000204D1
:100A6300AFE0F608A3E0F608A3E0F608A3E0F62259
:100A7300600C08C6C313C618C613C6D5E0F422E635
:100A8300F008A3E6F008A3E6F008A3E6F022CAC044
:100A9300E0E6F0A308DAFAD0E0FA22E0FAA3E0FBFA
:100AA300A3E0FCA3E0FD22EAF0A3EBF0A3ECF0A3A8
:100AB300EDF022E5C754F84401F5C7790122251862
:100AC300F582E43519F58322C2AF75D69F02000083
:100AD300221208200CE4021208202AE40212082041
:100AE300442800120820562800120820A8280012C3
:100AF3000820092900120820932900120820372A08
:100B0300001208208B2A00120820A42A00120820B1
:100B1300CA2A00120820052B00120820492B0012B4
:100B23000820702B00120820C12B00120820712C02
:100B330000120820292D00120820F12D0012082090
:100B4300B12E00120820F52E001208201A2F0012D1
:100B530008205D2F00120820AA2F0012082002315E
:100B630000120820883100120820A6310012082044
:100B7300D03100120820EA3100120820F9310012A6
:100B83000820043200120820C432001208201D334A
:100B930000120820DF3300120820E7330012082078
:100BA300AB34001208201735001208204236001219
:100BB3000820533600120820C936001208205B377C
:100BC30000120820B33700120820733800120820DF
:100BD3009A3800120820AC3800120820FF3800129F
:100BE30008203C3900120820493900120820CC3A69
:100BF30000120820213C00120820533C0012082058
:100C0300E63C001208201F3D001208206B3D001235
:100C13000820873E00120820D04000120820DB4045
:100C230000120820E64000120820F04000120820BD
:100C3300FB40001208201541001208201F4100123A
:100C430008202941001208203441001208205C4189
:100C530000120820B74100120820DB4100120820CF
:100C6300FF41001208205D4200120820A142001239
:100C73000820BD42001208203443001208206C43B0
:100C830000120820B843001208201544001208205F
:100C9300CF4400120820B346001208200C4700126C
:100CA30008203C4800120820624800120820EB4943
:100CB30000120820674D00120820394F0012082047
:100CC300025100120820AF51001208201A530012DB
:100CD3000820B95300120820FE530012082068545C
:100CE30000120820775400120820FE560012082034
:100CF300B058001208201D5900120820FC59001298
:100D03000820155B00120820925C00120820B15CD9
:100D130000120820065D001208200B5E0012082056
:100D2300335E001208208B5E001208206A5F0012F7
:100D33000820AE5F00120820F95F001208206460EB
:100D430000120820A5610012082009620012082081
:100D5300576300120820B76500120820E8650012E7
:100D63000820A06700120820F56700120820F96820
:100D730000120820966900120820EF69001208206B
:100D8300A26A00120820446B00120820E46B0012D0
:100D93000820896C00120820AC8601120820EB861B
:100DA300011208203289011208207C8901120820CF
:100DB300978A01120820078B011208203C8B01122D
:100DC3000820B08C01120820338F011208205C9098
:100DD30001120820F29001120820FA99011208204A
:100DE3008F9A01120820769D01120820699E011234
:100DF3000820CA9E01120820E69F01120820CBA1F9
:100E030001120820DCA30112082046A401120820C5
:100E130018A501120820CFA501120820D9A5011297
:100E2300082007A601120820C4A6011208209BA7C8
:100E33000112082062A80112082014A90112082037
:100E43003DA9011208205FA901120820B5AB0112C8
:100E530008208DAC01120820D1AC0112082039AD55
:100E630001120820F1AD0112082023AE011208205F
:100E730067AE011208209DAE01120820E9AE0112EF
:100E830008203EAF0112082043AF0112082096AF9D
:100E930001120820BBAF01120820CAB001120820BA
:100EA3002EB1011208209EB1011208202AB20112AC
:100EB3000820F7B401120820DBB5011208205EB741
:100EC3000112082094B90112082042BA0112082025
:100ED300F2BA0112082033BD01120820D6BD011257
:100EE30008201DBE01120820C9BF01120820DDBF62
:100EF30001120820E7BF011208200FC001120820C9
:100F03001BC0011208203AC0011208201FC201129F
:100F1300082056C20112082060C20112082096C29E
:100F230001120820E5C30112082029C40112082078
:100F3300D1C401120820B4C5011208205FC60112F2
:100F43000820ABC701120820A9C8011208204FC905
:100F530001120820DFC901120820F6C90112082076
:100F63002DCA0112082037CA0112082042CA0112F1
:100F7300082060CA01120820A4CA0112082001CB6C
:100F83000112082026CB0112082040CB01120820B1
:100F9300CCCB01120820E9CC0112082056CD011256
:100FA30008203DCE0112082064CE01120820D8CEBD
:100FB3000112082053CF0112082057D00112082034
:100FC3004DD101120820FCD1011208200FD30112C8
:100FD3000820ABD30112082038D40112082016D5FB
:100FE300011208204ED501120820A6D501120820AF
:100FF3006FD60112082090D60112082017D70112CC
:1010030008203BD7011208205DD701120820A6D77C
:1010130001120820BCD901120820A3DA011208200A
:1010230054DB011208208ADD01120820DADD0112E7
:1010330008201ADE011208205CDE01120820B8DE47
:1010430001120820E6DE011208200ADF011208203F
:101053005DDF011208208BDF01120820C4DF0112BB
:10106300082019E0011208207FE001120820D3E1D3
:1010730001120820F6E30112082063E4011208209C
:101083008CE40112082017E5011208207EE5011205
:101093000820C9E501120820EDE50112082011E638
:1010A300011208206CE60112082087E601120820CD
:1010B30040E7011208202F81041208206E810412D8
:1010C3000820788002120820BE80021208209E8128
:1010D30002120820A08202120820A3830212082011
:1010E3002F85021208208D85021208204A860212DB
:1010F3000820688702120820D98702120820158861
:10110300021208206388021208206D880212082048
:10111300B188021208200D8902120820A889021240
:101123000820258A02120820F48A021208208D8BD7
:1011330002120820AD8B02120820E38B0212082052
:10114300148C02120820D58C02120820E58C02129E
:101153000820398D02120820548D02120820668D52
:10116300021208206F8D02120820C98D0212082076
:10117300258E02120820718E021208208C8E021214
:101183000820BD8E02120820DA8E02120820E68E95
:10119300021208205A9002120820739002120820AB
:1011A300DA9002120820ED9002120820FB9002123E
:1011B3000820AF91021208209392021208209993FB
:1011C300021208202394021208202D9402120820F0
:1011D3009A9402120820B19402120820E394021296
:1011E30008201C9502120820469502120820A79594
:1011F30002120820C79502120820E5950212082062
:101203002B96021208205197021208209E97021271
:101213000820CD97021208204398021208206B98E9
:1012230002120820A49802120820B2980212082081
:101233000A99021208205999021208209899021259
:101243000820C89902120820F49902120820FF9975
:10125300021208201D9A02120820DF9A02120820A7
:10126300E99A02120820249B021208203A9B0212D8
:1012730008208F9B02120820A39B02120820B19C16
:1012830002120820C49C02120820D99C02120820D2
:101293007B9D02120820FE9D02120820BC9E0212B2
:1012A3000820C79E02120820F39F021208200FA0F5
:1012B3000212082061A002120820A0A00212082036
:1012C300B5A00212082017A102120820A6A102123B
:1012D3000820F1A10212082042A402120820C0A48F
:1012E3000212082035A50212082057A7021208206F
:1012F3006FA70212082072A7021208207EA702120B
:10130300082092A7021208209AA702120820CDA74C
:10131300021208207DA802120820F3A80212082056
:1013230066A9021208201AAA02120820CFAA0212E2
:101333000820EEAA021208208EAB021208209AABF4
:1013430002120820C5AB02120820C8AB0212082003
:1013530032AC021208205AAD0212082032AE021239
:101363000820BDAE02120820D6AF0212082093B0A7
:1013730002120820CCB002120820FDB0021208208D
:10138300BBB102120820EBB102120820C6B202124E
:1013930008205FB302120820EAB3021208209BB4AC
:1013A300021208201EB50212082050B502120820AE
:1013B30091B50212082033F50212082098F50212A3
:1013C3000820D5F50212082024F6021208203AF864
:1013D300021208201DFA0212082087FD02120820BB
:1013E300C2FD02120820E4FD0212082047FE021289
:1013F30008207BFE021208209EFE02120820CBFE6C
:101403000212082027FF02120820898D03120820E8
:10141300078E031208203D8E03120820A98E0312A3
:1014230008201C9003120820389003120820A2D72A
:10143300021208200B910312082064910312082062
:10144300919203120820A39303120820009403121D
:1014530008206C9403120820CD94031208200E95E3
:1014630003120820BB9503120820CD96031208200F
:10147300F896031208204397031208208A97031251
:101483000820D8E202120820D79803120820C2F5D8
:1014930003120820F2F50312082047F6031208206E
:1014A30083A3031208208DA303120820D9A30312D8
:1014B300082047A40312082068A40312082018A5D3
:1014C30003120820ACA703120820B5A703120820B3
:1014D30008A80312082031A80312082098A80312B1
:1014E300082029A9031208206BA903120820B5A913
:1014F3000312082014AA0312082040AA031208208A
:10150300D1AA0312082010AB031208204FAB031219
:10151300082084AB0312082096AB03120820A8AB63
:1015230003120820C7AB03120820D0AB0312082014
:1015330086AC03120820C6AC0312082064FE031213
:101543000820F7EF031208202DF00312082076F08D
:1015530003120820C6F1031208207AE701120820BB
:10156300B9E801120820F5E801120820B4EA0112D3
:101573000820DDEA0112082070ED01120820B4ED05
:10158300011208203DEF01120820D5EF01120820B7
:101593003DF001120820DEF00112082020F10112B3
:1015A300082060F101120820EBF2011208205BF41D
:1015B3000112082080F601120820AEF6011208205D
:1015C300D5F601120820DEF60112082065F7011294
:1015D300082083FA011208203F8204120820558252
:1015E30004120820E4800412082061DF031208209B
:1015F30074DF0312082011E0031208204CE00312E9
:10160300082067E0031208208CE003120820D1E0D1
:101613000312082002E10312082033E10312082019
:10162300B9E203120820ACF803120820E2F803120F
:101633000820FEF80312082040F90312082050F98D
:1016430003120820E5F903120820EFF9031208201A
:1016530007FA031208204E9903120820229B031253
:101663000820189D031208203A9F0312082020A087
:1016730003120820D2A103120820ECA103120820B0
:10168300FCA20312082026A30312082041A303127D
:10169300082055A30312082051E402120820A6E4EF
:1016A300021208208FE50212082028E60212082001
:1016B30072E602120820D4E602120820E8E60212BB
:1016C3000820CAE80212082045E9021208206FE93F
:1016D3000212082048EB0212082063EB02120820D2
:1016E300B2EB02120820C8EB02120820D5EB02125B
:1016F300082009EC0212082022EC02120820C2EC96
:10170300021208201CED021208206AED02120820C2
:101713007DEE02120820EEF00212082023F10212DD
:101723000820B1F10212082012F20212082017F267
:101733000212082053F202120820B5F20212082006
:1017430085F302120820AAF302120820B4F302124E
:101753000820B7F30212082026F40212082041F4ED
:101763000212082054F40212082080F40212082006
:10177300BBF402120820BEF402120820FAF402128B
:101783000820968004120820AE8004120820DDBED3
:10179300031208202CBF03120820CEC00312082016
:1017A3008CC203120820D4C203120820F6C303120A
:1017B300082027C50312082049C503120820A5C520
:1017C3000312082027C603120820D56C0012082034
:1017D300006D00120820ED6D00120820726E0012D9
:1017E3000820DB6E00120820276F00120820A66F66
:1017F30000120820387000120820C470001208205C
:10180300067100120820727500120820F276001289
:101813000820C27700120820E977001208204A7ACC
:1018230000120820D67A00120820F07B001208204C
:10183300CF7C00120820517D001208200080031283
:101843000820BA80031208202C8103120820C881C3
:1018530003120820388203120820F184031208209F
:10186300C88503120820358603120820B2870312A5
:1018730008207C8803120820C38903120820D68A13
:10188300031208206F8B03120820358C03120820E3
:1018930003E60312082057E603120820AFE60312FB
:1018A3000820FAE6031208205CE703120820F5E794
:1018B300031208205DE80312082069E803120820D8
:1018C30029F2031208205AF20312082014F3031218
:1018D30008207AF30312082048E303120820D4E413
:1018E30003120820F2810412082003820412082044
:1018F30003F40312082011F403120820E5FF011278
:1019030008200080041208201080041208202B8075
:10191300041208208C800412082062FD03120820A0
:10192300E7FD031208204BFE0312082050FC0312AC
:10193300082072FC03120820DCFC03120820E7FCD9
:10194300031208202BFD031208202BB603120820D4
:1019530039B6031208207AB6031208209BB6031285
:10196300082018B70312082018B8031208203AB841
:1019730003120820A6B803120820C1B803120820D6
:10198300DCB803120820E6B803120820F0B80312EB
:10199300082003B9031208201CB903120820B8B9A0
:1019A3000312082074BA03120820EBBA03120820AA
:1019B30065BB03120820B1BB0312082057BC0312F6
:1019C300082033BD0312082057D80312082065D816
:1019D30003120820DFD803120820C3D903120820FA
:1019E3007CDB031208201D820412082004FB011271
:1019F300082070FB011208202FFC0112082039FD7A
:101A03000112082092FE01120820EDFE01120820A7
:101A130042FF011208204BFF011208205DFF011253
:101A23000820C7FF01120820DBFF0112082018CB92
:101A3300031208206DCB0312082069CD031208207E
:101A43009BCD03120820BDCD03120820D6CD03126F
:101A53000820EFCD03120820F9CE0312082094CFFB
:101A6300031208204BF7031208206FF70312082014
:101A730088F703120820BBF703120820ECF70312C0
:101A830008201AF8031208207CF8031208208BF8A8
:101A93000312082095F803120820A2F80312082065
:101AA300A4E803120820CAE80312082007E9031276
:101AB300082016E90312082035E9031208209DE9DE
:101AC30003120820A6E90312082005EA03120820DE
:101AD30029EA03120820E8EA03120820F5EA0312B0
:101AE300082006EB03120820C4FF02120820E1FFBE
:101AF300021208200BD00312082069D10312082018
:101B030076D10312082089D103120820A8D1031229
:101B13000820BED103120820D2D10312082047D2D5
:101B230003120820ACD2031208205CD3031208204E
:101B330031D40312082041D40312082050D40312D5
:101B430008203EFF0312082062FF031208208AFFC9
:101B530003120820B2FF0312082034EB03120820FB
:101B63005BEB031208207CEB03120820E1EB03126A
:101B730008209AED03120820B3ED03120820BFEDED
:101B830003120820D3ED03120820F1ED03120820FD
:101B9300FBED0312082005EE0312082018EE0312D2
:101BA30008206BEE03120820A4EE03120820D3EEE4
:101BB3000312082021EF0312082070EF03120820FC
:101BC3008BEF0312082095EF03120820A6EF0312F0
:101BD3000820ECEF0312082073FF02120820EFAC79
:101BE3000312082019AD0312082035AD0312082093
:101BF30048AD031208205EAD03120820BBAD0312EB
:101C03000820EEAD031208202AB20312082050B3B5
:101C13000312082083B303120820CFB30312082052
:101C2300FBB40312082023B50312082038B50312AE
:101C3300082048B5031208208CB503120820EDB51F
:101C430003120820FDB5031208200AFA0312082024
:101C530025FA031208204EFA0312082068FA031229
:101C630008208DFA03120820ACFA03120820C4FAE4
:101C730003120820F2FA031208200CFB03120820B7
:101C8300788104120820E1DB03120820E8DB031249
:101C93000820F4DC0312082024DD031208204ADDA7
:101CA300031208206DDD031208208FDD03120820C4
:101CB300C9DD031208202FDE0312082068DE031299
:101CC3000820B4DE03120820E1DE0312082001DF3E
:101CD30003120820E97D00120820017E001208206B
:101CE300EF7E00120820CE7F001208203DFB031276
:101CF3000820AFFB03120820EDFB031208202EFC83
:101D03000312082089D403120820A8D40312082040
:101D1300F7D40312082013D50312082044D5031265
:101D2300082054D50312082061D5031208206ED56C
:101D3300031208205AD60312082098D6031208204B
:101D4300A2D603120820B2D703120820BDD703126C
:101D53000820CFD703120820D8D703120820E2D7D0
:101D6300031208205BC603120820A0CA031208202E
:101D7300AECA03120820D17F00120820BC810412CE
:101D83000820D7FF031208205F82041208206BD6B5
:101D930002120820BFD50212082005D4021208201F
:101DA300B5D1021208203CD102120820E3D002125E
:101DB300082073D0021208204AD0021208202ACE2B
:101DC30002120820F6CD02120820C3CD0212082009
:101DD300A7CD02120820C0CC0212082078CC021230
:101DE3000820C3CA0212082043CA0212082040CAAC
:101DF3000212082041C9021208200FC9021208204A
:101E03004CC80212082077C60212082008C6021224
:101E1300082035E202120820E8E00212082093DECF
:101E23000212082029DE02120820E1DD0212082036
:101E3300DAC502120820D7C502120820C4C502124F
:101E4300082053DD021208206FC5021208205EC568
:101E53000212082050C4021208201AC402120820D9
:101E630046DD021208201C9803120820C8C3021280
:101E7300082069C30212082038C30212082000C0D8
:101E830002120820C0BF02120820B4BF02120820A9
:101E930014BF0212082054BE02120820D6BB02123D
:101EA300082067B90212082025B902120820F9B7E1
:101EB30002120820AEB702120820EDB60212082063
:101EC30030B602120820C6B50212082000B602126C
:101ED300082040DA021208207D900300000080FBF6
:101EE300E473320000000000000000000000000066
:101EF300000000101010101010000030300000001F
:101F03001428500000000000000000000000000042
:101F13002828FC284850FC5050000000001038547A
:101F230054301814545438100000000044A8A8B0CA
:101F3300541A2A2A44000000000020505060ACA824
:101F430098927C000000606020C000000000000048
:101F530000000000040808101010101010080804F6
:101F6300000000402010080408102040000000007A
:101F730000001010D63838D6101000000000000002
:101F8300101010FE101010000000000000000000F0
:101F93000000000000606020C0000000000000FCA2
:101FA300000000000000000000000000000000002E
:101FB30000606000000002040404080810102020E0
:101FC300204000000000304884848484844830002A
:101FD3000000000010701010101010107C000000A2
:101FE300000038444404081020447C000000000032
:101FF3003844441804044444380000000008081816
:10200300284848887C081C00000000007C40407879
:10201300440444443800000000003C4480B8C484B5
:1020230084847800000000007C44480810101010DD
:102033001000000000007884844878848484780049
:1020430000000000788484848C740488F00000000D
:1020530000000000303000000030300000000000BD
:102063000000001000000000101020000004081001
:102073002040201008040000000000000000FC00C5
:1020830000FC0000000000000040201008040810BD
:102093002040000000000078848484081010003081
:1020A30030000000000038449AAAAAAAB4423C00B7
:1020B300000000001010282828384444EE000000D7
:1020C3000000F844447844444444F800000000000D
:1020D3003C44848080808044380000000000F04845
:1020E300444444444448F00000000000FC44404899
:1020F30078484044FC0000000000FC424048784817
:102103004040E000000000003C448480808E844412
:10211300380000000000EE4444447C444444EE0094
:10212300000000007C101010101010107C00000044
:1021330000007C101010101010101090E000000030
:10214300EE44485070484844EE0000000000E04070
:10215300404040404044FC0000000000EE6C6C6CCA
:1021630054545454D60000000000EE646454545494
:102173004C4CE4000000000030488484848484488C
:10218300300000000000F844444478404040E00040
:1021930000000000304884848484B448380C000074
:1021A3000000F844447850484844E600000000002A
:1021B3003C44402018040444780000000000FE92D0
:1021C300101010101010380000000000EE444444BA
:1021D30044444444380000000000EE4444282828C6
:1021E3002810100000000000D6545454546C2828C2
:1021F300280000000000EE44282810282844EE00A0
:1022030000000000EE4428281010101038000000D1
:1022130000007C88081020204044FC0000001C10B3
:102223001010101010101010101C0000701010105F
:1022330010101010101010700000701010101010FB
:102243001010101010700000102800000000000093
:10225300000000000000000000000000000000007B
:102263000000FE00606020C00000000000000000CD
:102273000000000000000038441C24443E0000001D
:102283000000C0404078444444447800000000000B
:102293000000003C444040443800000000000C04AF
:1022A300043C444444443E00000000000000003865
:1022B300447C40443800000000001C2420F8202007
:1022C30020207800000000000000003C4848304017
:1022D300784438000000C040405864444444EE0051
:1022E3000000000010000070101010107C000000AF
:1022F30000000800003808080808080870000000FB
:10230300C040405C48507048EC0000000000701072
:102313001010101010107C0000000000000000F8E6
:1023230054545454D60000000000000000D8644404
:102333004444EE00000000000000003844444444DC
:10234300380000000000000000F844444444784092
:10235300E00000000000003C444444443C040E0000
:102363000000000000EC30202020F80000000000F6
:102373000000003C443008447800000000000010D6
:10238300107C101010100C0000000000000000CCA6
:10239300444444443E0000000000000000EE442892
:1023A3002828100000000000000000D654545428D0
:1023B300280000000000000000DC48303048EC003A
:1023C30000000000000000EE442828101020E00068
:1023D30000000000007C481010247C000010101046
:1023E30010101010101010101010100001363601CC
:1023F30001000102010001030100010401060605B9
:10240300020000070100340801000F090401010D57
:102413000100FF0E08000017020000190100FF1A57
:102423000100011B0100FE1C0100081D0200001F2A
:1024330001000120010001210200002301000F24FB
:102443000200002601000127010008280200FF2ADC
:102453000100072B0102402C0100002D0100012E79
:102463000100012F0100FF30010B1C310800003A6D
:102473000100083B01000F2F010000010171010160
:10248300010101110101013101010101018001106B
:102493000161013B00140063017301720162014396
:1024A300010001130106013D013500040112010081
:1024B3000100010001000104010401330133013C67
:1024C30001440132013600000100016501000135BC
:1024D30000810100010501820183010001030271F2
:1024E3000230016002110270020102020202028044
:1024F30002100261023A0041006302730272026237
:102503000243020002130238000002000204021216
:102513000200020002000200020402040237003734
:10252300003C02440200023900000200026502007E
:1025330002350281020002050282028302000203C5
:10254300007100300160001100700031022003505F
:102553000480001000610000001400630073007227
:1025630000620043000000130006000000000004A6
:102573000012000000000000000000040004003707
:102583000037003C0244000000000000000000652A
:1025930000000035008100000005000000830000FA
:1025A300000103710301030103010301030103227A
:1025B30003020301031003000300030003000300ED
:1025C3000300030003420300032403060300030084
:1025D3000304031203250323032503230304030432
:1025E3000300030003000344030003000323030069
:1025F3000365032100350381030003050300030082
:102603000300030304710402046004110470040250
:1026130004020401040204100461040004140463AA
:1026230004730472046204430400041304060400E4
:102633000400040404120400040004000400045110
:1026430004640000040004000444040004000400C3
:1026530004000465040004350481046400050400D7
:102663000483040004CEF7C4CFBFC6BCBCB4F3D10B
:10267300A7D6C7C4DCBCD2BED3BFD8D6C6CFB5CDD0
:10268300B3C3DCC2EBC8B7B6A8C8A1CFFBD7A8D2E7
:10269300B5D7A8D7A2CEDECFDFCDA8D1B6B3CFD0E2
:1026A300C5C1A2D7E3B4B4D0C2D6C2D4B6C7BFB4EF
:1026B300F3D4ADA3BA0036000100060000000F00FA
:1026C30000000000000000000000000003FFFF0006
:1026D300000403FFFF0000FFFF0FF4010005C40423
:1026E3000320000100000B000000000000000003B5
:1026F300010F0000541813001818010054180200A9
:10270300E2170300E8170400EE170500F4170600AC
:102713000018FFFF000001E00D060A0E08040E0B6F
:10272300220E105C0D02E60D05F80D07EC0D0CC230
:102733000D0DD40DFF000003EAF5E5D5D5C5B5A50C
:1027430095958585757565655555454535352525B6
:102753001515050012301206120C122A121E121839
:102763001236123C1242124E121212FA11F41100D6
:10277300160F00000B150B020002220F3200000699
:10278300F01202130813CA110E13C411D0115013FF
:102793006E137413561362135C130411FE103A1173
:1027A30040113411EC100C0E020B040B0A07080045
:1027B3000F00383C3E363B3B352B432C00011916AA
:1027C3001816161523030000034948424D18172510
:1027D3000502303017181921301B1D1F30303016F9
:1027E300181920231A1C1E30441314131A1326130A
:1027F300201324124812681354125A1202040201BD
:102803000101010902101116110A114611000000FD
:102813000000001C112E1100BE040A15000E000456
:10282300007F00E8030C00280000000000030810EC
:102833000C0A03080900040001FF1E1E0C0504080E
:102843000FC082C0838A828B83E0D2E7F012174CD9
:102853000238F8C082C0837900122D10125C61C067
:1028630082C0839003341249E7D083D082C3E09CB3
:10287300A3E09D500C126335FAA3E0122887600190
:10288300090238F8FBEA75F00BA4FAA8F075F00B0F
:10289300EBA428FB900336E02AF8A3E03B8882F5FB
:1028A30083E0540F2274F712038C8908122D10123F
:1028B3002DB6ACF075F00BE9A42CF9900336E028A3
:1028C300FEA3E039FF7401650860067402650870B1
:1028D300208A828B83122DA2123CD8740265087061
:1028E3001B122C61122DE970138E828F83E4F0800A
:1028F3000BEA2403FCEB122D84122D90EEFAEFFB6E
:10290300120AE0023C3574F412038C126C5C7900F9
:102913008E828F83E06076890A890B8065E50A756C
:10292300F00BA4FAA8F075F00BE50B12289470468F
:10293300E50A75F00BA4F8AAF075F00BE50B122D60
:10294300C88E828F83E0850882850983122EAA852B
:102953000882850983A3123CD8EE2403FCEF122DD1
:102963008D123AB61256DBAA08AB09120AE07901B6
:102973009003341250F0E50A2401F50AE50B340004
:10298300F50B122C69E50A9AE50B9B4090023E82F7
:1029930074F512038CEAFEEBFF740B120AC1123AB0
:1029A300BB750A01EC4D602BEC126C78ED125C6187
:1029B300123CD07901120AECE5084509606F8508DD
:1029C30082850983A3126C667902AA08AB09120AED
:1029D300EC805AE5084509602B125C6512432F12FF
:1029E3003AB7122DD3700CEEFAEFFB120AF2E9F5A7
:1029F3000A80CBEE2403FA122D0B70317903EEFA21
:102A0300EFFB80CA8E828F83A3E064FE7003A3E092
:102A1300F4700BEE24030A0A0A122D0B700CEEFA63
:102A2300EFFB120AF2E9F50A8003750A00A90A7F8F
:102A3300030205A574F712038C900334123C45EA94
:102A43004B602FEA75F00BA4FAA8F075F00BEBA41A
:102A530028FBEAFEEBFF12154E900336123C45901D
:102A63000336124F356012EEFCEFFD79001214B2FB
:102A73008007900336E4F0A3F0023C359003341250
:102A8300469FC3EE98EF9922C082C083EC4D600548
:102A9300121CFE80097C087D0079001214B20238F2
:102AA300F874F612038C7900EA4B601878008808F2
:102AB300125FA8EB12633160047901780808E8C358
:102AC300940840EA023CE174F712038C74F3120891
:102AD300FFECFEEDFF851882851983E4F004120AEA
:102AE300C1EAF0A3EB1254617403120AC1AC82ADC4
:102AF30083EEFAEFFB120B04EEFAEFFB120B0A0262
:102B03003C3074F712038C74F31208FFECFEEDFFF4
:102B1300851882851983E4F0EAFCEBFD7403120A3D
:102B2300C1122EA37401120AC1123CCC8E828F8370
:102B3300123CD874FE68700374FF696004790180E5
:102B4300027900023C3074F712038CEAFEEBFF12A9
:102B53002BA77014122BB28E828F83E0F4F88A8233
:102B63008B83E058F0120AE0A908023C3574F7128F
:102B7300038CEAFEEBFF7508008E828F83E06022F0
:102B8300122BA7701D122BB28A828B83E08F838E48
:102B930082F8E058700CE0F88A828B83E048F012E8
:102BA3000AE080C4120AE6E9F508740165082212F6
:102BB3006C71122DBA122CFCFAA3E039FB2274F4C7
:102BC30012038C8A088B097C007D00122C61122D64
:102BD30090122D21126C637900850882850983A3E5
:102BE300E064FE7003A3E0F460717E007F00806206
:102BF300EEFAEF1228876057EEFAEFFBEA75F00B57
:102C0300A4FAA8F075F00BEBA428FB900336E02A96
:102C1300F50AA3E03BF50B850882850983A31253CC
:102C2300AF850A82850B83A3E06A7003A3E06B7010
:102C33001EE50A2403FAE50B122D0C700AE50A249B
:102C430003FCE50B122D8D122D157901125C771201
:102C53003600122C69EE9AEF9B4095023E82EA24DD
:102C6300030A0A0AEB2290033412584EC32274F368
:102C730012038C8A088B098A828B83A3126C6612D7
:102C83002D10126C63750C00122C61122D0C7054F4
:102C93007E007F008049122CEEFAA3E0398A82F588
:102CA30083E0540F6036122CEEF50AA3E039F50BDE
:102CB300E50A2403FCE50B122D973400FB121CF8E4
:102CC300E964017017850A82850B83A312590FA348
:102CD300123CD8122D15750C01125C7712360012B6
:102CE3002A7F40B2A90C7F050205A5EEF8EFF9E8AB
:102CF30075F00BA4F8122CFC22AAF075F00BE9A4D2
:102D03002AF9900336E02822EF122DE322126C7782
:102D1300EB22122D21125C72EEF0A3EFF022E508F4
:102D2300126C78E5092274F512038CEAFEEBFF8E30
:102D3300828F83A3126C667C007D00EE24030A0A53
:102D43000AEF122D90EEFAEFFB120AE6E9F50A7488
:102D530001650A7029126C71122DB6AAF075F00B79
:102D6300E9122DC8850882F583122DA2122DD37086
:102D73000DE5082403FCE509122D84122D90022A87
:102D8300303400FDEE2403FAEF22122D973400FBBA
:102D9300120B04223400FDE5082403FAE50922A3FB
:102DA300122DA722122DAB22E0F8A3E0F98E828F19
:102DB30083A322122DBA223400F5831246A3E875A9
:102DC300F00BA4F822122D02F508A3E039F509222D
:102DD300E8F0A3E9F0E5082403FAE509122DE3225C
:102DE300122DE96401223400FB120B0AE92274F369
:102DF30012038C74E61208FF126C5C750C017508E3
:102E030000750900750A00750B0085188285198302
:102E1300E4F0EE2403FCEF3400FD7403120AC11244
:102E23002EA3E964017023740B120AC1123CD074FF
:102E330001120AC11253B37003A3E06960518518EC
:102E430082851983858208858309740D120AC1E47A
:102E5300122EAA740E120AC1123CD8740D120AC1A2
:102E6300AA82AB83120B28E96401700B740D120A5A
:102E7300C185820A85830B780A120858AC08AD090C
:102E8300EEFAEFFB120AF8740212086BE9F50CEE86
:102E9300FAEFFB120B22A90C741A12086B022CE92D
:102EA300123176120B2E22123C4012469F22C08210
:102EB300C083780079008003122FA1122C69E89A4D
:102EC300E99B5029E8FAE9FBEA75F00BA4FAACF0A8
:102ED30075F00BEBA42CFB900336E02AFCA3E03B3C
:102EE3008C82F583E0540F70CF7900800279010260
:102EF30038F8C082C08390281E1246F5EC75F01294
:102F0300A4FCA8F075F012EDA428FD79FF7AC47B28
:102F13000B1214B20238F874F712038CE9FEEAFFBD
:102F23007A007B00780079008028E8FCE9FDEC75E5
:102F3300F012A4FC85F00875F012EDA425081233F5
:102F4300B6C39E400AE0FCEFC39C40031234D51283
:102F53002FA11233AA40D3023C35C082C08378002C
:102F630079008003122FA1122F95501F1233BAF448
:102F730070F2E875F012A4F8AAF075F012E9A42A29
:102F8300F974C428FA740B39FB80047A007B0002BD
:102F930038F890281E12346BC3E89AE99B22E82480
:102FA3000108E93400F92274F012038C74F3120857
:102FB300FF8A0A8B0B8C0C8D0D8908EC450D60166E
:102FC300AA0CAB0D120B7C8A0E8B0FAE0EAF0FEE5D
:102FD3004F6003023068120B528A0E8B0FA80EA9A2
:102FE3000FE8FEE9FFE849607C90282E1230CA60A2
:102FF300227403650860067404650870167A047900
:1030030003120B4C90282E1230E140077A007B000C
:103013000230C790282C1230CA601B740165086007
:103023000674026508700F7A027901120B4C90281E
:103033002C1230E150D68518828519837401F01261
:103043000AC11256DBAC0CAD0D7403120AC1123166
:103053006F740B120AC1123AC31240B8E41256C37A
:103063001210448004EE4F604A780074FF2508C3B1
:103073009404500278048E828F831256DB8E828FE3
:1030830083A3A3A3A3E508F0E88E828F83A3A3A35E
:10309300A3A31256E312023B1234828E828F83A3C0
:1030A300A3A3A3A3A3A3F0123479120A9E125C5B19
:1030B300120AAA1230CF4005901120E4F0120F1E1D
:1030C300EEFAEFFB0246A91257FD49227A04790072
:1030D300120B4C90281E126317EA98EB99221230B8
:1030E300FA75832875821EE493C398F8A3E4939931
:1030F300F9C3EA98EB9922E493F8740193F92274E3
:10310300F212038C74F31208FF8A088B09ECFEEDAC
:10311300FF750A00EEFAEFFB120B7C8A0C8B0DA8ED
:103123000CA90DE849603E88828983E06508700434
:10313300A3E06509602F88828983A3A3A3A3E0C3C7
:1031430094055021125B098518828519837401F057
:10315300120AC1125B0DEEFCEFFD7403120AC112D9
:10316300316F750A01A90A740D0251A71231761243
:103173000B3A22AA82AB83120B048518828519832A
:10318300AA82AB832274F612038C1231C4600FA39C
:10319300A3A3A3E014C3940450047901800279002B
:1031A300023CE174F612038C1231C4600FA3A3A393
:1031B300A3E014C394025004790180027900023C15
:1031C300E1120B768A828B83E58245832274F612A1
:1031D300038C1231C4600BA3A3A3A3E07004790191
:1031E30080027900023CE1C082C083EAFCEBFD7AF5
:1031F300007B000238F5C082C0837C007D0002386A
:10320300F574F412038C74F31208FFEAFEEBFF8CDF
:103213000A8D0BC3EC94F8ED94FF4007EE4F700357
:103223000232BD750800750900802E851882851944
:10323300837401F0123628120AC1123636601374F1
:1032430003120AC1AC82AD83EEFAEFFB121CF8E95C
:103253007049E508240112345690281EE4125805DB
:10326300E50898E509995052E50875F012A4F8AA03
:10327300F075F012E509A42AF912634A60D4EE4FFF
:1032830070A974FF650A700474FF650B60C412367D
:1032930018650A7004A3E0650B70B7E50875F012B2
:1032A300A4F508A8F075F012E509A428F50974C47B
:1032B3002508FA740B3509FB80047A007B00023E73
:1032C3007D74F412038C74F31208FF750800120B5B
:1032D3007C8A0A8B0BAE0AAF0BEE4F602A851882ED
:1032E3008519837401123C3AF8A3E0F9740B120AAE
:1032F300C1123D5B120B1C7C127D0079FFEEFAEFCD
:10330300FB1214B27508011230CF500990112074CA
:1033130001F0120F1EA908023E7D74F712038CE917
:10332300FE74FE6A700374FF6B7800790070058089
:1033330052122FA11233AA504AE8FCE9FDEC75F0B2
:1033430012A4FCAFF075F012EDA42F1233B6F460A3
:10335300E0E8FCE9FDEC75F012A4FC75F012EDA4B5
:103363002FFD74C42CF582740B3DF583E06A700362
:10337300A3E06B70BC80091233BA14C394044017E2
:10338300122FA1122F955018EE70EC1233BA64016C
:103393006005E0640370E9123609FAA3E0FB8004D8
:1033A3007AFE7BFF023C3590281E1246F9C3E89C47
:1033B300E99D2212350A22E8FAE9FBEA75F012A424
:1033C300FAACF075F012EBA42CFB74C82AF58274E6
:1033D3000B3BF583E022120B8E0238F8C082C083C8
:1033E300790180F274F012038C8A0A8B0B7A0479C8
:1033F30001120B4C8A0C8B0DEA450D603EEAC33378
:10340300FAEB33FB12154E8A088B09AE08AF09EEAF
:103413004F60237AFE7BFF120B9474FE6A70037471
:10342300FF6B601B850882850983123C45E50824F0
:103433000212345680E1750C0080047E007F008503
:103443000A82850B83E50CF0EEFAEFFB0246AEE54C
:10345300082407F508E5093400F5092290281E120F
:1034630046F9C3EA9CEB9D22E493FA740193FB2291
:103473001214A6740322125C6CE4F090868622E890
:103483008E828F83A3A3A3A3A3A3A3A31234A474A1
:10349300011234A4A3F0EE2410125C6FE4F0A3F045
:1034A300221240C4A3A3A322C082C0837A007B005C
:1034B3008004191234D512345F50101234F4C394BB
:1034C3000550F0E970EC1234DE80047A007B0002D0
:1034D30038F8EA24010AEB3400FB22EA75F012A45F
:1034E300FA75F012EBA428FB74C42AFA740B3BFBA5
:1034F30022EAFCEBFDEC75F012A4FCA8F075F012C7
:10350300EDA42812350A22FD74C82CF582740B3DF4
:10351300F583E02274F712038C74F31208FF7E0024
:103523007F000235BCE50875F017A4F8A9F0126511
:10353300ABFAA3E0FBEEF8EFF9E875F012A4F8ACF0
:10354300F075F012E9A42C1236176A7003A3E06B2E
:10355300603FE50875F017A4F8AAF0EA1265AAF827
:10356300A3E0F97401120AC1E0687003A3E0696083
:1035730020E50875F017A4F8EAF9744028FC740DE7
:1035830039FD7403120AC1AA82AB83121CF8E960E5
:1035930014E50875F017A4F8A9F0743E28FA740D21
:1035A30039FB1210500508902832E493F8E508C35C
:1035B30098500302352812360090281E1268F150E5
:1035C30039EEF8EFF9123609F47003A3E0F460E67C
:1035D3008518828519837401F0EEF8EFF9E875F028
:1035E30012A4F875F012E9A42AF9123628120AC1B6
:1035F30012363660C175080080AD023C30EE2401FE
:103603000EEF3400FF22E875F012A4F8AAF075F06B
:1036130012E9A42AF912361C2274C428F582740B09
:1036230039F583E02274C628F582740B3912469D5E
:10363300740B22E8F0A3E9123D63120B34E922C0B4
:1036430082C08390034174F2F0A3740DF00238F842
:1036530074F712038CEAFEEBFF900377E0640860D3
:103663001BE0640460168E828F83E0540364017050
:1036730048123AB61241AEE06406703D8E828F83E3
:10368300A3A3E064FE7003A3E0F4602D8E828F8316
:10369300A3A3123CCC900368E0687003A3E06970B5
:1036A3000BEE2415F582EF1263316008120EACE9BC
:1036B300F5088008120EB280F67508C2EEFAEFFB29
:1036C300121554022B6B74F412038C8A088B098A2B
:1036D300828B83E0F8A3E0FAE82AFAE43400FB12D1
:1036E300154E8A0A8B0BAE0AAF0BEE4F606385084B
:1036F30082850983E0FC7D0079001214B28E828FEB
:1037030083A3A3126C66120EEE8E828F83A3A3A3F0
:10371300A3123C45850882850983E0F8EE28F8EF7B
:103723003400123CD4850882850983A3E0C0E0EE0F
:10373300240D125C5ED0E0F0120F00EE240E125C3A
:103743005EE9125310E0C0E0EE2411125C5ED0E09B
:10375300F0EEFAEFFB023E8274F412038C74EB1268
:1037630008FF8A088B098C0A8D0BE9FE900377E02A
:1037730064046005E06408700479C2802EA37808AD
:10378300120A82EE90037E123936120A82740512EF
:103793000AC1E9F07404120AC17401F07407120A31
:1037A300C1E4F090037774021238937415023E7FDC
:1037B30074F612038C74EB1208FFEAFEEBFF124F50
:1037C3003260030238577A077B0012154E90033993
:1037D300123C45124F3260788E828F83120A9E907C
:1037E300033A1241B1120AAA126B2AC0E0123863DB
:1037F300D0E0F0EE2405FAEF3400FB8A088B098A47
:1038030082F583E0C0E012385ED0E0123E79E0C07A
:10381300E012385EA3D0E0123CB9120A9E851882EA
:10382300851983120AAA88828983E0C0E07405128D
:103833000AC1D0E0F0850882850983E0C0E0740402
:10384300120AC1D0E0F07407120AC112389280063E
:103853007910800279017415023CDE123863A322C9
:10386300900339E0FAA3E0F5838A82A3A3A3A322FA
:10387300C082C083124F32600D90033912583C90BE
:103883000339E4F0A3F0120E1C120FF00238F8E42F
:10389300123D63121D2E22C082C083900338E07054
:1038A30003121812120BD6804CC082C083900338C7
:1038B300E090111F7004E4F0802D7401F090033840
:1038C300E0F460237C41E0C394415002E0FCECF857
:1038D300E0C398F0EC75F0E8A4CCA8F075F003A46D
:1038E30028FD7A801247017A1F7B117941121D1638
:1038F3008003120B82D083D08202081D74F412035A
:103903008C74EB1208FF8A088B098C0A8D0B9003C9
:10391300777401123936120A827405120AC1E9F06A
:103923007404120AC17403F07407120AC1123892A4
:103933000237AE123CC478082274F712038C7C0160
:10394300120BE8023C3574F212038C74FC1208FF6C
:10395300E9851882851983F0EAFEEBFF8C0A900350
:10396300751249E7120E108A088B09EA450970059A
:1039730079CA023AB18A828B83A3A3A3A3A3A3A385
:10398300E064FE7003A3E0F4700579C3023AB190DA
:1039930003751253AF121056850882850983A3A3BA
:1039A300A3A3A3A3A3A3A3A3E004900388123C149B
:1039B3007402120AC17402F014120AC1AA82AB8300
:1039C300120F5A8A0C8B0DAE0CAF0DEE4F70030223
:1039D3003AA8123AB61243237406F0A3A882A98325
:1039E30090036212587912467CF0EE2413125C5E47
:1039F30074011256BB7440F0A3E4125309A3A3123B
:103A03003AC3123CD8EE2411125C5EE50AF0EEFADA
:103A1300EFFB120BB2E9FE6003023AAA900377743C
:103A230009F0123452AA08FB794B121D168508823D
:103A3300850983123C06123CD890036AE0F8851886
:103A430082851983E068600CE090036A123D5F7918
:103A5300E1121D1690117A123CCC90117CE0687033
:103A630003A3E069601A90033B123CD890117C12C7
:103A730053AF120F1890117C1249E77A01124701D4
:103A83007A007B049003C2E0F912160E90117C12A7
:103A93003ABB74027808120A00AC08AD09FA7B0439
:103AA30012470380027E109005EEE4F0EEF97404F1
:103AB3000251A7EE125C6D22E0F508A3E0F509229E
:103AC300123AC722122DABA32274F512038C74E2AF
:103AD3001208FF851882851983ECF0A3EDF0EAFE46
:103AE300EBFF89087429120AC1E0F509742C120A44
:103AF300C1E0F50A900377E064046005E0640870B0
:103B03000579C2023BFE742A120AC1E064FE700307
:103B1300A3E0F4700579C3023BFE900377740312AC
:103B23003D5F7950121D16742A120AC1AA82AB8313
:103B3300794B121D16851882851983123C0D123C90
:103B4300D8E50890036AF0742A120AC1123C0612DF
:103B53003CD8E509900362123C1474CE55094480A5
:103B6300C0E07412120AC1D0E0F07401250A900378
:103B730088F0740F120AC17402F0742A120AC11277
:103B83003CCC7407120AC1E8F0A3E9123C4B741051
:103B9300120AC1123CD87405120AC1E508F0741B5D
:103BA300120AC1E4F090037D740FF07A7D7B0379F0
:103BB30054121D1690037C740FF07A7C7B037947B3
:103BC300121D1690037CE0C3940F50237405120A50
:103BD300C1E0C0E07402120AC1D0E0F07404120A1A
:103BE300C17401F004120AC1AA82AB83121D3A7494
:103BF30005120AC1AA82AB83121D1C741E12086B24
:103C0300022A3212469F90036B2212469F9003753D
:103C130022F0EEFCEFFD7A897B03121CFE2274F77F
:103C230012038CEB90037FF0120DFE8005740D12CE
:103C3300086B7F010205A5123C40A3E022123CB9A8
:103C4300A322EAF0A3EBF022123CBFF8A3E0F9228F
:103C530074F712038C74F81208FFEAFEEBFF790085
:103C6300900377E06408704485188285198374FD96
:103C7300F0A374FFF0120EE87402120AC1123C455D
:103C83007405120AC1E4123C40E0C0E07404120A55
:103C9300C1D0E0123CB4C0E07406120AC1D0E0F017
:103CA3007407120AC1E4123D5F120F3C7408023C10
:103CB30032123CB9E022F08E828F8322123CC4E0A0
:103CC30022F08518828519832212469F22E0F8A3E9
:103CD300E0F9125C6CE8F0A3E9F02212086B7F02B2
:103CE3000205A5C082C08390034974A2F0A3740C9B
:103CF300F09003EF7496F0A3740FF090034D74D813
:103D0300F0A3740CF090034F74A2F0A3740CF09022
:103D1300035174DEF0A3740CF00238F874F4120348
:103D23008C74F91208FF8A088B098C0A8D0B85188D
:103D3300828519837808120A827404120AC1E9F091
:103D43007405120AC1E4F07406120AC1E4123D5F5D
:103D5300120BC47407023E7FE8F0A3E9123D63220D
:103D6300123CC4AA82AB832274F412038C8A088B9C
:103D7300098A828B83125C7AEE4F7003023E77903E
:103D83000312124F3560158A828B83A3A3E0F9EEE9
:103D9300FAEFFB9003131241B1121EE38E828F835D
:103DA300A3A3A3A3A3A3A3A3A3E0640270748E821B
:103DB3008F83A3A3A3A3A3A3E054027003023E49EA
:103DC300850882850983A3A3E064E960798E828FE5
:103DD30083A3A3A3A3A3A3A3A3A3A3E070149011FA
:103DE3008FE0048E828F83A3A3A3A3A3A3A3A3A380
:103DF300A3F08E828F83A3A3A3A3A3A3A3A3A3A3AD
:103E0300E014123E79A3A3A37404F0901190125608
:103E1300B5E8F0A3E912678E8B0BEA450B7003122A
:103E2300616C8E828F83A3A3A3A3A3A3A3A3A3E005
:103E3300640260128E828F83A3A3A3A3A3A3A3A36D
:103E4300A3E06406702E8E828F83A3A3A3A3A3A3F0
:103E5300E0A2E0501F850882850983A3A3E0F9EE61
:103E6300FAEFFB121DCA8E828F83A3A3A3A3A3A37E
:103E7300E054FEF080091240C022740D12086B7FDB
:103E8300040205A574EC12038C74DD1208FFEAFE2C
:103E9300EBFF8C088D097437120AC1780C120A647F
:103EA300750A007405120AC1AC82AD83121E1E741A
:103EB30012120AC1E070087415120AC1E06020747E
:103EC30005120AC1E0A2E6501E8E828F83A3A3A32C
:103ED300A3A3A3A3A3A31253AF120F72E96008799C
:103EE30003121CE60240A67405120AC1E0540C64D6
:103EF300047005750B018003750B00E0A2E55035D6
:103F0300750A01E50BA2E0402C120EEE8A108B110C
:103F1300A810A911123AB6E0687003A3E06960150E
:103F23007405120AC1126C6D1253AB121DD6E960EF
:103F330004790480AC7405120AC1E0A2E65022742D
:103F430006120AC1E0540370187405120AC1E05442
:103F53000C640C600CE0540C64086005751001805F
:103F6300037510007405120AC1E05403F874026863
:103F7300700C126C6D1253AB1214820240A67401C2
:103F830068703AE510A2E050031240AE7405120ABD
:103F9300C1A882A9837403120AC1E8F0A3E91246F7
:103FA300938518828519831240B8E0C0E074021229
:103FB3000AC1D0E0123D5F121EBA0240A6E86003B8
:103FC3000240A690035FE0640170108E828F83A38A
:103FD300A3A3A3A3A3E07003023F347422120AC174
:103FE3007402124693741A120AC1123CD8E510A245
:103FF300E050087405120AC11240AEE50BA2E0506E
:104003006AEE240FF582EF126331C0E07417120ACF
:10401300C1D0E0F0900314124F3570030240A61292
:104023000EEE8A128B13A812A913741A120AC1E096
:10403300687003A3E069706B780C120850780A1259
:10404300085C7808120858A910740C120AC1AC82D3
:10405300AD837421120AC1AA82AB83900314124167
:10406300AE121EE3740712086B8038780C120850E6
:10407300780A12085C7808120858900375120674BF
:10408300EE2412F582EF12605F7423120AC1AC8230
:10409300AD83740E120AC1AA82AB83121DBE7409CA
:1040A30012086B742312086B026759126C6D125855
:1040B3004A121E1822E8F0A3E91240C0221240C49B
:1040C30022F08E828F83A3A3A3A3A3A32274F71248
:1040D300038C121704023C3574F712038C12171663
:1040E300023C35C082C0831217100238F874F712ED
:1040F300038C12171C023C3574F712038C740912DB
:104103000AC1E0F508780812085C12172874010246
:104113003C32C082C0831217340238F8C082C08395
:1041230012173A0238F874F712038C121740023C44
:104133003574F712038CEAFEEBFF890874016508F6
:1041430070147900120D1A90283DE493FC7900EE67
:10415300FAEFFB120C90023C3574F412038C74F9E1
:104163001208FFE9FE8A088B098C0A8D0B7413125F
:104173000AC11253AF90063A124F356027EE8518E5
:1041830082851983F07401120AC17808120A82EA3F
:10419300F8EBF97405120AC1123D5B90063A12411D
:1041A300AE121EE3023D56FB90034BE0F8A3E0F58D
:1041B3008388822274F712038C901122E0F97E0027
:1041C300800B12631D540D64017001190E1243B16B
:1041D3005003E970ED023C3574F712038C90112300
:1041E300E0F97E00800B12631D548D648170011908
:1041F3000E1243B15003E970ED023C3574F2120321
:104203008C890BE975F006A4240CF508E5F012344B
:104213005A8A0CE508250CFAE5093400FB12154E01
:104223008A0C8B0DAE0CAF0DEE4F6027AC08AD09B9
:1042330079001214B2123AB6E50BF0EE2508F8EF46
:104243003509F98E828F83A3A3A3A3A3A3A3A3A357
:10425300123CD8EEFAEFFB0251AA74F612038CEA71
:10426300FEEBFF120C6C901121E0F8E9C3984009B2
:104273009003451253AF120C72EE2402F8EF125959
:10428300BF900347125879900347E004F0EEFAEF2A
:10429300FB120C78850882850983E0025E75C08273
:1042A300C08379009003458001091253AF8A828B42
:1042B30083E582458370F20238F874F712038CEABF
:1042C300FEEBFFEE4F6056900345124F35604E886C
:1042D3008289837A007B00EE65827003EF658360D9
:1042E3000FAA82AB83124323E5824583602F80E7C5
:1042F30090034512432F687002EF698E828F83709B
:1043030008123CCC900345800312676B123CD8EE35
:10431300FAEFFB121E8AEEFAEFFB121554023C353C
:10432300124327221246A3888289832212469FEED4
:1043330022C082C083900345800488828983124F00
:1043430035600B888289831249E7EC4D70EC8A82D1
:104353008B83E4F0A3F0E8496006888289838003B5
:10436300900345123C450238F874F712038C90030E
:104373004580048A828B831243AC4B60257E008088
:10438300010E1243B150ECEE75F006A4FCADF0EA59
:104393002CFCEB3DFDEC2410F582ED12440170E1A1
:1043A30080047A007B00023C3512584EEA22124404
:1043B3000AEEC3982274F712038C7D0080010D125C
:1043C3004406EDC3985034ED75F006A4FEA8F0E85A
:1043D300FFEA2EFEEB3FFFEE2410F582EF124401BD
:1043E30070DCED75F006A4FEE8FFEA2EFAEB3FFB66
:1043F300EA2411F582EB1263314CF0023C3512636F
:104403003D692212440A22126C77EB3400F583E0F3
:10441300F82274F612038C120D927A007B00802529
:10442300EAF8EBF9E875F006A4F8ACF075F006E9E4
:10443300A42C125823126B38A3E4125919F0A312B7
:104443006B3E126CB59028281230D940D37A007B8A
:1044530000801C8A088B0974037808120A00125220
:10446300D7A374FEF0A3041256F9A3E4126CB5901B
:1044730028311244B440DC7A007B00801D8A088B0B
:104483000974037808120A007466125FA974101283
:1044930067F074FEF0A304126CB59028371244B48D
:1044A30040DB90283BE493900353F01244BE023C5C
:1044B300E1E493F8C3EA98EB9400227CE87D037A65
:1044C300107B009003C2E0F91216082274F0120365
:1044D3008C74F51208FF8A088B09890A8C0BE9A2F0
:1044E300E050147508FC7509FFA2E15005D2E402FF
:1044F3004591D2E30245911251967003A3E069708E
:1045030005790002465EAC0A7902AA08AB09120DCE
:104513006EE960EDE50AF50C780C12085C79027C13
:10452300FE7DFFAA08AB09124F1112086BE9600365
:1045330002465CE50AC2E5F50A9003B5E07051E571
:104543000AA2E6404B7403120AC1AC82AD83AA08E7
:10455300AB09120B10E970321248328A0C8B0DA88A
:104563000CA90DE8FEE9FFE8496025EE24020A0ADA
:10457300EF122DE9601AEE2402FCEF3400FD740300
:10458300120AC1AA82AB83121CFEE50AD2E5F50A20
:10459300900348E0F50C900368E0F50EA3E0F50FF7
:1045A300780E1208587D017C00900348E0F9AA0EAA
:1045B300AB0F120D26740212086BE9F8900348E062
:1045C30004F0E8600302465CE50AA2E55004740EB9
:1045D30080027406C0E07401120AC1D0E0125C8B41
:1045E3008A0E8B0FAE0EAF0FEE4F606912467C1230
:1045F3004693888289837401F07478550AA3126CF8
:104603007DE50C126C7DA3E508F0E50912466BE429
:10461300F0E50AA2E5500F7403120AC1AC82AD8320
:10462300E824061246628E828F83A3A374FDF0A34F
:1046330074FFF0E50B601590283EE493F8E50BC397
:10464300985009EE2413125C5EE50BF0EEFAEFFBD3
:10465300120BB280067910800279C7740B8049FA75
:10466300E93400FB121CFE2288828983A3A3A3A33F
:10467300124677221259F2A322EE2417125C6F74AA
:1046830001F0120EE8EE241A125C6FEAF0A3EB229B
:10469300F0126C71340012469D22F5831246A32258
:1046A300E0F8A3E0F922740D12086B7F080205A558
:1046B30074F612038C7A007B101261796008900300
:1046C300D47401F080299006D9E0640190118D70B3
:1046D30006E0FC79018004E0FC79037A007B001298
:1046E3000C909028261246F57A007B10124703029D
:1046F3003CE11246F922E493FC740193FD227B0012
:104703009003C2E0F91216022274EC12038C8A0899
:104713008B098C0C8D0D890E7414120AC11250F082
:104723007416120AC1E0F510A3E0F511120F72E935
:1047330060077AFF7BFF02482F90118CE0640260D0
:10474300030248227900AA08AB09120D74A90E12BC
:104753000D688A128B13AE12AF13EE4F700302482B
:104763000A8E828F83A3A3A3A3A3E064018E828F07
:1047730083A3A370691253AF8E828F83A3A3A3A3D2
:10478300A3A3E05418604390283CE4938E828F8364
:10479300A3A3A3A3F0EA650C7003EB650D6014EA11
:1047A300650A7003EB650B600AEA65107003EB653D
:1047B30011701F7810120858AC0AAD0BAA0CAB0D80
:1047C30012106E740212086B800890036712616303
:1047D300A3F074FE6A700374FF6B601D804EA3A385
:1047E300A3E0640360298E828F83A3A3A3A3A3E022
:1047F300640470057AFE0247378E828F83A3A3A3D6
:10480300A3A3E0640270089003B4E0640270101282
:1048130048328B0BEA450B6006AA08AB09800DAA48
:1048230008AB099003491241AE121EE30267599087
:104833000375124F171210322274F712038CEAFE1B
:10484300EBFF120B64E9700AEEFAEFFB120B70E94F
:104853006006EEFAEFFB80047AFE7BFF023C3574C0
:10486300F012038C8A0A8B0B8C0E8D0F8909750845
:1048730000120F72E9790060030249D9AA0AAB0B4F
:10488300120D74A909120D688A0C8B0DAE0CAF0DB5
:10489300EE4F60198E828F83A3A3A3A3A3E06402C8
:1048A30070559003B4E0640270030249D7AA0AABBF
:1048B3000B90034F1241AE121EE3120B768A0C8B40
:1048C3000DA80CA90DE84970030249D78882898392
:1048D300A3A3A3A3A3E0A2E040030249D7750C015D
:1048E300A2E150687901AC0AAD0BAA0EAB0F120C12
:1048F300C0E970640249D78E828F83A3A3A3A3A3C5
:10490300E064037005750C0280528E828F83A3A32B
:10491300A3A3A3E0640160030249D790037512497E
:10492300E78E828F83124D3C8A0C8B0DA80CA90D48
:10493300E84960D1902835E493FA88828983E0C3FB
:104943009A50C2A3E060030249D780B98882898361
:10495300A3A3A3A3A3D2E1F0EE4F603A8E828F8389
:10496300A3A3A3A3A3A3E05418602B7508018E820D
:104973008F83A3A3120674750CFE750DFF780C12BA
:1049830008587900AC0AAD0BAA0EAB0F120D867452
:104993000412086B803E900368E0650E7004A3E088
:1049A300650F701490283DE493FCA909AA0AAB0B88
:1049B300120C90750801801CA90CAC0AAD0BAA0E51
:1049C300AB0F120CC0E9700C750801A909AA0AAB58
:1049D3000B120D1AA9080246AEE50C2415F582E563
:1049E3000D125C721256CF2274EA12038C74F01209
:1049F30008FF8A0C8B0D8C088D097426120AC1E0FE
:104A0300F514A3E0F5157512069003F5124F356002
:104A1300239003751249E7AA08AB0912105C8A10A8
:104A23008B11EA4511600D8A828B83A3E0700579AF
:104A330000024D24E50C241DF50EE50D3400F50FA1
:104A4300850E82124F21F51388828983A3A3A3E0E5
:104A5300FA88828983A3A3A3A3E0F9EA2400FEE4EE
:104A630039FFAA08AB09120D20850E82850F831228
:104A73004D5FE029F50BE50AA2E5500375120E74AC
:104A830087550A70177418550A6418600FE50C24CB
:104A930017F582E50D126331651260077901121C67
:104AA300E6808C530A78C3EE94F8EF94FF501D7997
:104AB30000EEFAEFFB124D2E601288828983A3A3C6
:104AC300A3A3A3A3E054186003024A327808120890
:104AD300587D00124D5212086BE9F8740368700395
:104AE300024A32E86003024B9D7418550A700302B0
:104AF3004C52E50AD2E0F50AA2E45004D2E1F50AE9
:104B0300A90A1253A8124D2E605388828983A3A346
:104B1300A3A3A3A3E05418604488828983A3A3A317
:104B2300A3A3E064017036E510451160309003756E
:104B33001249E788828983124D3C8A0E8B0FA80E97
:104B4300A90FE849601788828983A3E0600F851065
:104B530082851183A3125E805003024A32E50AF56F
:104B63000E780E12085C124D4512086BE9702B7C0F
:104B7300007D0085148285158374FFF0A3F0850CF6
:104B830082850D83A3A3A3A3A3A3A3A3E06003121E
:104B930049DCA90B1253A812172E8514828515839D
:104BA300E0F47003A3E0F460399003B4E0640270AE
:104BB30003024A321250E1E0FAA3E01241AA121EA4
:104BC300E3EA65087003EB65096003024A32EEFA13
:104BD300EF1241AA121EE3851482851583EAF0A31E
:104BE300EBF078081208587D01124D5212086BA998
:104BF3000AEEFAEFFB120D748A088B09A808A909BB
:104C0300900368E0687003A3E0696003024D15EE4A
:104C1300FAEFFB120B768A088B09A808A909E84961
:104C2300606E88828983A3A3A3A3E06401600D88D7
:104C3300828983A3A3A3A3E06402705485188285A9
:104C43001983AC82AD83EEFAEFFB120B1080559003
:104C53000361E0600FE50AF50E780E12085C124D51
:104C63004512086BE50AF50E780E12085C79027C92
:104C7300FE7DFFEEFAEFFB124F1112086BE96003A2
:104C8300024B9D85148285158374FFF0A3024BE4C8
:104C9300120EE8EAFCEBFD851882851983AA82AB24
:104CA30083121CFE850C82850D83A3A3A3A3A3A358
:104CB300A3A3E06401700F1249DC7408120AC1AAAD
:104CC30082AB83121CFE124EEB125AF74430F508E6
:104CD300780812085C7401120AC185820885830969
:104CE3007808120858740B120AC185820885830953
:104CF3007808120858E513F508780812085C79005B
:104D0300EEFCEFFD1253A8120CBA740612086B02E4
:104D13004A32124EEB125C61124D5FE50BF0120F3B
:104D230000741012086B7F0E0205A5120D688A0E1F
:104D33008B0FA80EA90FE84922A3A312584E1210F5
:104D43005C227901AC08AD09125843124F1122AC11
:104D53000BA913125843120D26740222125AFFA3F1
:104D6300A3A3A32274F012038C74F01208FF8A0C1D
:104D73008B0DECFAEDFB750F089003F5124F3560C0
:104D830014125E798A828B83E58245836007A3E0F0
:104D93007003024EE6124EEB3400124F21F50B88DE
:104DA300828983124EF4E0FBEC2400FEE43BFF888F
:104DB300828983A3A3124EF4A3A3E0FBECF508E4DA
:104DC3003BF50988828983A3A3A3A3A3A3A3E0F547
:104DD3000EE50AA2E45003750F10A2E5500674080D
:104DE300250FF50F748F550A700FE50C2417F58204
:104DF300E50D126331650F60087901121CE6024E5E
:104E0300E6530A707800E50AA2E45022124EEB1230
:104E130063312408FCA3E03400FD7408120AC1AA1C
:104E230082AB83121CFE7808E50AC2E4F50AE50AA0
:104E3300A2E55028124EEB12633128F8A3E03400A8
:104E4300F9E82408FCE93400FD851882851983AA52
:104E530082AB83121CFEE50AC2E5F50AAC0EA90B70
:104E6300EEFAEFFB120D2CE9F874036860759003FA
:104E730068E06E7003A3E06F605EE87054E50AF5C6
:104E83000F780F12085C124F0212086BE970547806
:104E93000A12085C7401120AC185820C85830D789D
:104EA3000C120858740B120AC185820C85830D7885
:104EB3000C120858E50BF50A780A12085CA90EAC27
:104EC30008AD09EEFAEFFB120CBA740612086B80F8
:104ED30012740468700D80B7780A12085C124F02CE
:104EE30012086B74100246ABE50C241DF582E50D28
:104EF30022A3A3A3E0FC88828983A3A3A3A322798B
:104F0300011250E8125C72124F17124F1122120C49
:104F1300E4740122E0FCA3E0FDAA08AB0922F583B7
:104F2300124327A3E0F50A88828983A3A3E0229092
:104F330003391258AA2274E812038C74F51208FF7D
:104F4300EAFEEBFF8C088D0989147423120AC1E071
:104F5300F50F7424120AC1E0F512A3E0F5137426C9
:104F6300120AC1E0F516A3E0F5177428120AC1E08E
:104F7300F50EA90F120D328A108B117401120AC19A
:104F83007408F0E50EA2E450037410F0E50EA2E5F8
:104F93005004E02408F0851882851983AA82AB8324
:104FA300120F5A8A0C8B0DEA450D70030250C8EAA2
:104FB3002417F582EB1250DA120EE8E50C241AF5E9
:104FC30082E50D125C61123C457403120AC1AC8286
:104FD300AD83AA10AB11120B10E9601D1250D274ED
:104FE30003120AC1A882A983E50C2418F582E50DF2
:104FF300125C61E8F0A3E98024E50EA2E4501FE50A
:10500300106E7003E5116F70151250D2E50C241861
:10501300F582E50D125C61E512F0A3E513F0125081
:10502300E11250F0850A82F5837402F0A3E50E12B3
:1050330050F8E50FF0EE850A82850B83A3A3A3F056
:10504300EF850A82850B83A3A3A3A31250F8A3A31E
:10505300A3E508F0E509850A82850B83A3A3A3A32F
:10506300A3A3F0AA10AB11120D20E92514850A821F
:10507300850B83A3A3A3A3A3A3A3F0750800E50E45
:10508300A2E45011AC12AD13E50A2408FAE50B12A1
:105093004664750808E50EA2E55014AC16AD17E595
:1050A3000A2508F8E50B3400F9E82408124662855E
:1050B3000C82850D83A3A3E510F0A3E511F0AA0CE0
:1050C300AB0D120BB2740B12086B7F100205A5E532
:1050D3000C2416F582E50D125C727401F022125055
:1050E300E8125C7222E50C126C78E50D22E0F50AF9
:1050F300A3E0F50B22F0850A82850B83A3A3227418
:10510300F212038C8A088B09ECFEEDFF890A790001
:105113001251967003A3E069700479018073750BD3
:1051230001900368E065087004A3E06509601F75DA
:105133000B00780B12085CA90AEEFCEFFDAA08AB82
:1051430009120FAE740112086BE9F50B8041790067
:10515300EEFAEFFB120D68EA4B602B8A828B83A376
:10516300A3A3A3A3A3E05418601C7508FE7509FF4D
:1051730078081208588A828B83A3A3120674126AD2
:105183008D12086B80097901EEFAEFFB120C48A926
:105193000B8014120D748A0C8B0DA80CA90D9003AF
:1051A30068E0682212086B7F060205A574F41203F7
:1051B3008C7508AE75090E7A101267958B0BEA454C
:1051C3000B70031244BE900353E014F0700C90284C
:1051D3003BE493900353F0120D807E007F00806CBC
:1051E300850882850983A3A3A3A3E06059F46056CD
:1051F300E5082404F582E50912615D70498508829A
:10520300850983A3A3A3A3A3E0640370197902858B
:1052130008828509831249E7850882850983A3A348
:105223001253AF120CC0850882850983A3A3A3A3DD
:10523300A3E06401601085088285098374FEF0A3EE
:1052430004125309E4F012360012345290282A1241
:1052530068F1408C7E007F008039120E8E8E088F9D
:105263000974037808120A0074262508FC741035A3
:1052730009FD7ACC7B0C120E7CEA4B70DD8E088F15
:105283000974037808120A001252D7126B38E4F03B
:10529300123600902831E493F8C3EE98EF9400504F
:1052A3001B8E088F0974037808120A001252DFE874
:1052B3002407F582E912615D70D680A17E007F002C
:1052C300800A1252EA600214F01236001268EE40AD
:1052D300F1023E821252DF888289832274262508D6
:1052E300F874103509F922EEF8EFF9E875F006A421
:1052F300F8AAF075F006E9A42AF974C628F58274B1
:105303000F39F583E022125310A3A3A322F08508DB
:1053130082850983A3A32274F712038C74E1120814
:10532300FFECFEEDFF750800EE4F60728A828B83FF
:10533300E0241C12618E124F3560638A828B8312C4
:1053430053AF851882851983AC82AD83EA241BF59C
:1053530082EB12605FEA241CF582EB1253AB120E50
:10536300D0740B120AC11253B37003A3E069702EF9
:105373007402120AC1E064017024741D120AC1127E
:1053830041AEE064017017741D120AC11241B0A34B
:10539300A3E0F88E828F83E0687003750801A90883
:1053A300741F023C321250E83400F58312584E2227
:1053B300122DA7E0682274F412038CE9702479009B
:1053C30090034D1241AE121EE38A0A8B0BAE0AAF55
:1053D3000B74FE6E700374FF6F701A902838E49399
:1053E3006013790190034D1241AE121EE38A0A8BBA
:1053F3000BAE0AAF0B120F1E02375474F612038C56
:1054030074F31208FF1214C48A088B09AE08AF099B
:10541300900368E06E7003A3E06F60E9120EF4EA94
:105423006E7002EB6F60DEEEFAEFFB120F72E97043
:10543300D4EE4F60D0851882851983E4F004120AF4
:10544300C1EEF0A3EF125461E970BA74FE6E7003FB
:1054530074FF6F60B0EEFAEFFB740D023CDE123D99
:1054630063120B2822C082C083120F1E0238F87FFA
:105473000A0205A574F212038CEAFEEBFF8C0A8D77
:105483000B8908740E120AC1E0F50974FC6E7003EF
:1054930074FF6F700579000251AA7900120D748AA6
:1054A3000C8B0DAE0CAF0D900368E06E7003A3E0A0
:1054B3006F7006E509A2E650DCA90912697B7061E9
:1054C30079007AFE7BFF12697B7056741855097058
:1054D300030255AE780079008003122FA190282A89
:1054E300122F9840030255AEE8FAE9FBEA75F0077C
:1054F300A4FAACF075F007EBA42CFB74B42AF58284
:10550300740E3BF583E0541870D0E875F007A4F8E7
:10551300AAF075F007E9A42AF974AE28F8740E39D5
:10552300F988828983A3A3A3A3A3A3E054186009E2
:1055330074185509700302549888828983EEF0A386
:10554300EFF074FE650A700474FF650B6003125676
:10555300D588828983A3A3A3A3A3A3E509F0A2E02B
:10556300500D88828983A3A3A3A3A3A3D2E2F074DB
:1055730001650888828983A3A3A3A3A37038740158
:105583001256F9E05418602890283CE493888289E5
:1055930083A3A3A3A31256C312105C8B0DEA450D7C
:1055A3006003025498780079008039790202549A92
:1055B300900367E080D7E064017003025498888207
:1055C3008983A3A3A3A3A3A3E05418600790283C53
:1055D300E4938004900366E012466BE508F00254FE
:1055E30098122FA1902832E493FAC3E89AE9940021
:1055F30040030254987A007B00804BEAFCEBFDECFD
:1056030075F007A4FCAEF075F007EDA42EFD74B0A1
:105613002CF582740E3DF583125C7AE8FCE9FDEC0F
:1056230075F017A4FC85F00975F017EDA42509FDA5
:10563300743E2CF582740D3DF583E06E7003A3E098
:105643006F609E1234D590282A12346240AD124600
:10565300F5EC6A7002ED6B7088E875F017A4F8AA90
:10566300F075F017E9A42AF9743E28FE740D39FF8A
:105673007C177D007900EEFAEFFB1214B28E828F55
:10568300831256DB9003751256B5A3A3A3A3A3A35A
:10569300E8F0A3E91256BB7401F0EE240E125C5E2F
:1056A30074011256E312023BEE240D125C5EE80213
:1056B30055E0123AC7A3A322F0EE240F125C6F2227
:1056C300F01256CCAA0AAB0B22900375E0FCA3E0C0
:1056D300FD2288828983A3A3E50AF0A3E50BF022C8
:1056E300F01256E822902835E4932401F8E43400BC
:1056F300F97A027B0022124677A32274ED12038CFF
:105703008A088B09890E12582C400579050257FA2D
:10571300121776AA08AB091258FE9028281257FDD3
:10572300650A7003E9650B70077AFE7BFF1258FE6A
:10573300902828E4125805E50A98E50B99400302DE
:1057430057F81258096012E50A75F006A4F875F0C7
:1057530006E50B125854121554E50E6018E50A7548
:10576300F006A4F8AAF075F006E50B125880701A3B
:1057730079010257FAE50A75F006A4F8AAF075F064
:1057830006E50B125861E4F0A3F0E50A75F006A4F0
:10579300F8AAF075F006E50B125821A3125B0D88E9
:1057A300828983A3AA82AB8312586F8A828B83E098
:1057B300603F125809603A8E108F117512007810ED
:1057C300120854E50EC333FCE433FDE50A75F00615
:1057D300A4F50AA8F075F006E50BA428F50B74CA26
:1057E300250AF582740F350B1253AD123473120868
:1057F3006B7900800279070269911230FAE82290EE
:10580300281E12631822E50A75F006A4F8AAF0759B
:10581300F006E50B12585CF8A3E0F9E84922A42A44
:105823001259B588828983A322ECFEEDFF902833B9
:10583300E493F8E9C39822F58312584E12155422C3
:10584300E50C126C78E50D3400F583E0FAA3E0FB78
:105853002212585CFAA3E0FB22125861E022A42A28
:10586300F974CA28F582740F39F58322E50EF09096
:10587300118E12587922E088828983F0221259D935
:10588300F50CE93400F50DE50EC333FAE433FB12EE
:10589300154E850C82850D83EAF0A3EBF0850C820F
:1058A300850D831258AA221246A3E8492274F412E2
:1058B300038CECFEEDFF740C120AC1123CCC880879
:1058C30089091258FEAC0AAD0BECF8EDF9902828C3
:1058D3001259065021E875F006A4F8AAF075F006EF
:1058E300E9125821E08E828F8312591912590F122F
:1058F3003CD8790080027904023E82120CF68A0AAF
:105903008B0B2212346BC3EC9AED9B2212469F85BC
:105913000882850983221259EE2274F612038C7EC3
:10592300007F008028EEF8EFF9E875F006A4F8ACE4
:10593300F075F006E9A42CF974C828F582740F12E7
:10594300659C6A7003A3E06B60571236001268EE21
:1059530040D31268E97002E96F704674FE6A7003FF
:1059630074FF6B703C7E007F008003123600126868
:10597300EE502E1252EA70F3EEF8EFF9E875F006E6
:10598300A4F81259AB1259E060171259C7F8E9127B
:1059930059BF888212583A850882850983E4F0A3A7
:1059A300F0EEFAEFFB023CE175F006E91259B3227F
:1059B300A42AF974C628F8740F39F9223400F98837
:1059C30008890922EEF8EFF9E875F006A4F875F0F6
:1059D30006E91259D9221259B3E8240422A3A37465
:1059E300FE1259EB1258AA22F0A3041259F222F024
:1059F30088828983A3A3A3A32274F612038CEA24C7
:105A03001DF582EB125AF7F9604BEA241DF582EB80
:105A13001263312402FCA3E03400FD12583040032A
:105A2300025AEA780080298C828D83E0F508A3E08E
:105A3300FFE5082400E43FF509E833FEE433FF748F
:105A43000E2EF58274103FF583125B0D125AED088A
:105A5300E8C39940D28A828B83A3A3A3A3A3A3A35E
:105A6300A3A31249E7900368E06C7003A3E06D7091
:105A73000F7C0E7D10122D101253AB120CEA8067AF
:105A8300EA2411F582EB126331605CFC74FF2CF0A5
:105A9300750801780812085C75080E7509107808F6
:105AA300120858E9F508780812085CEA2412F5820E
:105AB300EB126331F508780812085CEA2415F582C5
:105AC300EB125C61120674ECF9122D101249E48A90
:105AD300828B83A3A3A3A3A3A3A3A3A31253AF1252
:105AE3000D02740712086B023CE1EC24020C0CED6E
:105AF3003400FD22125C72125AFFE022E0F8A3E0A8
:105B0300F5838882A32288828983E508F0A3E509C7
:105B1300F02274EA12038C74FD1208FF8A148B15A9
:105B23008C0E8D0F890D7419120AC1125C7A741BC5
