:020000040000FA
:06000000020A440201CDDA
:03002B0002088F39
:030033000206AB17
:030043000207446D
:03004B00021ECFC3
:030053000200FEAA
:03006B00020691F9
:100083000201620101FF01010503010F10FEFFBC24
:1000930012BC12BC12BC1278117211BC122C2500B6
:1000A3000000008E25000000000C0000000C000181
:1000B300FFFF02004648502057534E2D7379737447
:1000C300656D00000000000001020005060000004D
:1000D30078066400020200000002050207051E0202
:1000E300051E020A0A03B80B02803E010288161499
:1000F3001F00E00796511800020206C0E074F212D6
:1001030003E6A2AFE433FED2AFE5A7FFE5A1F5080E
:100113005F54106006121A8475A1EFE5085F540856
:100123006008121A8A75A1F7802BEFA2E0C0D0E510
:1001330008A2E092F012096B158182F050179061CA
:1001430098E0F8900B56E0C398A2D265D0335002E2
:10015300E8F075A1FEEEA2E092AF7F01020445C074
:10016300E074F21203E6A2AFE433FED2AF9061A4CF
:10017300E0F8759B00E59158540860087591F712F3
:100183001AD2802AE59158541060087591EF121A1B
:10019300D8801BE8A2E0C0D0E591A2E092F012095A
:1001A3006B158182F05007E0C2E0F0121C1C9061D5
:1001B300A3E0F8E5E9585404600E121BF275E9FB5D
:1001C300906193E0A2E640F2808BC0E074F21203E8
:1001D300E6A2AFE433FED2AF9061A5E0F8E5BF58E5
:1001E3005404600675BFFB121C34020158C3E49823
:1001F300F8E499F91202318026C3E49AFAE49BFBEE
:10020300E920E7E9120231E498F8E499F922C3E41A
:1002130098F8E499F9120231E498F8E499F9C3E4FF
:100223009AFAE49BFB22EB20E7CFE920E7E0B90051
:1002330010BB0008E88AF084F8AAF022E4FBC8FAAD
:1002430022EB70227B10C833C8C933C9335007C3AC
:100253009AC3DBF280069A50012ADBEAC833F4C85A
:10026300C933F4C9FA2275F008E4C833C8C933C9DD
:1002730033C99AC99B5004C92AC93BD5F0ECFBC8C2
:1002830033F4C8E4C9FA22080808EAC0E0EBC0E086
:1002930086F0E7A4FA180986F0E7A42AFA18098673
:1002A300F0E7A42AFA180986F0E7A42AFA1986F0D7
:1002B300E7A4FBE5F02AFA190886F0E7A42BFBE58F
:1002C300F03AFA190886F0E7A42BFBE5F03AFA189E
:1002D300180986F0E7A4C5F02BFBE43AFA1908E7FE
:1002E300C5F0C6A426F6E5F03BFBE43AFA1886F01F
:1002F300E7A4F6E5F00826F6E43B08F6E43A08F648
:10030300D0E0FBD0E0FA22E4CFC0E0E4CEC0E0E4EA
:10031300CDC0E0E4CCC0E075F020C3E633F608E6D8
:1003230033F608E633F608E633F6181818EC33FC10
:10033300ED33FDEE33FEEF33FFC3EC9709ED970981
:10034300EE9709EF97191919400FFFEC97FC09ED88
:1003530097FD09EE97FE191906D5F0BEECF709EDE6
:10036300F709EEF709EFF7191919D0E0FCD0E0FD12
:10037300D0E0FED0E0FF222518C582C0E0E51934A5
:10038300FFC583C0E0E518C3958224F810AF088544
:1003930083198582188008858319858218D2AFCE88
:1003A300F0A3E520F0A37808E608F0A3DEFAEFF067
:1003B300A3E58124FAF8E608F0A3E608F0A3E6082B
:1003C300F0A30808E608F0A3E608F0A31581158159
:1003D300D0E0FED0E0F8158115811581E8C0E0EE8C
:1003E300C0E022C0D02518C582C0E0E51934FFC59E
:1003F30083C0E0E518C3958224F310AF0885831901
:100403008582188008858319858218D2AFC8F0A326
:10041300E9F0A3EAF0A3EBF0A37908E709F0A3D886
:10042300FAECF0A3EDF0A3EEF0A3EFF0A3D0E0F02D
:10043300A3D0E0F0A3D0E0F0A3E520F0A3E5F0F033
:10044300A322851983851882E0C0E0A3E0F9A3E025
:10045300FAA3E0FBA37808E0F608A3DFFAE0FCA325
:10046300E0FDA3E0FEA3E0FFA3E0C0E0A3E0C0E063
:10047300A3E0F5D0A3E0F520A3E0A3F5F010AF08C7
:100483008583198582188008858319858218D2AFE0
:10049300D082D083D0E0F8D0E032120AA6B90003AC
:1004A3000204DFE4900301781D790F8002F0A3D8E2
:1004B300FCD9FA90111DAA82AB83900086787979D2
:1004C300018015E493A3AC82AD838A828B83F0A36E
:1004D300AA82AB838C828D83D8E9D9E775822C7588
:1004E30083EA74031208077582C875831E740012A9
:1004F300080715000975F0108E1A8F1B85821F855A
:10050300831E851882851983E0CEA3E0CF851F82E1
:10051300851E83EBC9EAC8EDCBECCAC3E833C8E94F
:1005230033C9EA33CAEB33CBC3EA9EF51DEB9FF520
:100533001CB35004AB1CAA1DEC33CCED33CDD5F06A
:10054300DAAE1AAF1B22D083D082ECC0E0EDC0E05C
:10055300E493A3FCE493A3FDED4C600D120621ECA0
:1005630024FFFCED34FFFD80EFE493A3FCE493A3AD
:10057300FDED4C600D1206EFEC24FFFCED34FFFDA6
:1005830080EFD0E0FDD0E0FCE493A3C0E0E493C0AF
:10059300E022851983851882E0A3FEE0A3F5207885
:1005A30008E0A3F608DFFAE0A3FFE0A3C0E0E0A3BE
:1005B300C0E0E0A3C0E0E0A3C0E0E0A3C0E010AF70
:1005C300088582188583198008858218858319D246
:1005D300AFD083D08202080DD083D082E9C0E0E49B
:1005E30093A3C386F0C5F095F0F908E493A386F0CE
:1005F300C5F095F0700BE493A3C3994005E904801B
:1006030002A3E475F002A42582F582E5F03583F5B3
:1006130083D0E0F9E493A3C0E0E493C0E022C0E018
:10062300C3E49396087401939618400FE49366709D
:100633000808740193661870007019A3A3C3E493A8
:1006430096087401939618A3A3400DD0E0D0E0D090
:10065300E0020585A3A3A3A3A3A3D0E0227404808F
:100663000474028000CCC0E0EDC0E0E518C39CCC6C
:10067300AD1950011D10AF068C188D1980068C180A
:100683008D19D2AF120789D0E0FDD0E0FC22C0E083
:1006930074F21203E6E589A2E1500312193A75894F
:1006A30000C2C57F01020445C0E074F21203E6E50F
:1006B3008BA2E0500312193A758B00C2E880E474F0
:1006C300028000CCC0E0EDC0E0E518C39CCCAD19BE
:1006D30050011D10AF068C188D1980068C188D19CA
:1006E300D2AF120767D0E0FDD0E0FC22C0E0C0F03B
:1006F30088F0E4936670080874019366187000A884
:10070300F0A3A3700BD0F0D0E0D0E0D0E0020585D9
:10071300A3A3D0F0D0E022D083D082CCC0E0E49376
:10072300A360061207C91470FAE493A360061208C3
:10073300D91470FAD0E0FCE493A3C0E0E493C0E0E2
:1007430022C0E074F21203E6A2AFE433FED2AFC2DA
:10075300C0E5D1A2E45003121A00EEA2E092AF7FEB
:1007630001020445CAC0E0E493A3C582CCC582C597
:1007730083CDC583F0A3C582CCC582C583CDC58394
:10078300DAE5D0E0CA22CAC0E0E0A3C582CCC582C4
:10079300C583CDC583F0A3C582CCC582C583CDC532
:1007A30083DAE6D0E0CA2270090808082260161826
:1007B3001818C6C333C608C633C608C633C608C628
:1007C30033C6D5E0EA22C0E0E493A3D39C5010E4FF
:1007D30093A3C39C400AD0E0D0E0D0E0020737A344
:1007E300A3A3D0E022C008C3E096F50808A3E096CF
:1007F300420808A3E096420808A3E0964508700162
:10080300D3D00822C09FF59FE473D09F22D083D01A
:1008130082C09FE493C0E0740193C0E0740293F537
:100823009F222518F58210AF08F51840021519808C
:1008330008F51840021519D2AF8519832274048074
:100843000A74038006740280027401C0E0F4041287
:100853000825D0E0120A8122C0D0251810AF08F570
:1008630018500205198008F51850020519D2AFD0A7
:10087300D022BB0102E722C082C08389828A83BB64
:100883000003E08002E493D083D08222C0E0C0D092
:10089300E8C0E0E5A8D2AFC2C7A2E792AFD0E0F8C4
:1008A300D0D0D0E0326016080808C6C313C618C6F5
:1008B30013C618C613C618C613C6D5E0EA22C3E08A
:1008C300C696F608A3E0C696F608A3E0C696F60811
:1008D300A3E0C696F622C0E0E493A36C7009D0E0CF
:1008E300D0E0D0E0020737A3A3D0E022251810AF51
:1008F30008F518400215198008F51840021519D299
:10090300AF22E76670100809E766700A0809E76610
:1009130070040809E76622E066701008A3E06670B9
:100923000A08A3E066700408A3E06622C3E0960801
:10093300A3E09608A3E09608A3E096A2D265D0337D
:1009430022C3E096F008A3E096F008A3E096F0082F
:10095300A3E096F022E026F008A3E036F008A3E037
:1009630036F008A3E036F022C0E0E8C0E0E58124D9
:10097300FCF8E6A2E7D0E0F8D0E022E647F6080963
:10098300E647F60809E647F60809E647F622E026B1
:10099300F608A3E036F608A3E036F608A3E036F639
:1009A30022E627F60809E637F60809E637F60809C6
:1009B300E637F622E657F60809E657F60809E6573A
:1009C300F60809E657F622E056F608A3E056F608BD
:1009D300A3E056F608A3E056F622E056F008A3E09B
:1009E30056F008A3E056F008A3E056F02270042264
:1009F300600D18C6C333C608C633C6D5E0F4182243
:100A0300E4C396F608E496F608E496F608E496F648
:100A130022C6F4C608C6F4C608C6F4C608C6F4C699
:100A230022C3E7960809E7960809E7960809E796B7
:100A330022C3E09608A3E09608A3E09608A3E096F5
:100A43002275D000758140751801751903000204E1
:100A53009DE0F608A3E0F608A3E0F608A3E0F6227B
:100A6300600C08C6C313C618C613C6D5E0F422E645
:100A7300F008A3E6F008A3E6F008A3E6F022CAC054
:100A8300E0E6F0A308DAFAD0E0FA22E0FAA3E0FB0A
:100A9300A3E0FCA3E0FD22EAF0A3EBF0A3ECF0A3B8
:100AA300EDF022E5C754F84401F5C7790122251872
:100AB300F582E43519F58322C2AF75D69F02000093
:100AC30022120810EFE20212081023E402120810A7
:100AD30041E4021208102C28001208103E280012CC
:100AE3000810902800120810F128001208107B2922
:100AF300001208101F2A00120810732A001208108F
:100B03008C2A00120810B22A00120810ED2A0012D3
:100B13000810312B00120810582B00120810A92BB3
:100B230000120810592C00120810112D0012081081
:100B3300D92D00120810992E00120810DD2E001274
:100B43000810022F00120810452F00120810922FD0
:100B530000120810EA300012081070310012081059
:100B63008E3100120810B83100120810D231001271
:100B73000810E13100120810EC3100120810AC32F9
:100B830000120810053300120810C73300120810B2
:100B9300CF3300120810933400120810FF340012F0
:100BA30008102A36001208104F3600120810C536F6
:100BB30000120810573700120810173800120810D7
:100BC3003638001208104539001208105739001240
:100BD3000810C73900120810F139001208107F3AC3
:100BE30000120810B83A00120810043B0012081053
:100BF300203C00120810693E00120810743E0012D7
:100C030008107F3E001208108A3E00120810943E1E
:100C1300001208109F3E00120810B93E001208107F
:100C2300C33E00120810CD3E00120810D83E001239
:100C33000810003F001208105B3F00120810653FC8
:100C430000120810893F00120810AD3F001208106F
:100C53000B40001208104F40001208106B400012A6
:100C63000810E240001208101A41001208106641F1
:100C730000120810C341001208107D420012081030
:100C8300614400120810BA4400120810EA45001229
:100C93000810104600120810994700120810154B4F
:100CA30000120810E74C00120810B04E0012081092
:100CB3005D4F00120810C85000120810675100124F
:100CC3000810AC51001208101652001208102552D9
:100CD30000120810AC54001208105E5600120810DF
:100CE300CB5600120810AA5700120810C35800125E
:100CF3000810405A001208105F5A00120810B45A24
:100D030000120810B95B00120810E15B0012081012
:100D1300395C00120810185D001208105C5D0012A7
:100D23000810A75D00120810125E00120810535F2E
:100D330000120810B75F00120810056100120810B6
:100D43006563001208109663001208104E650012C6
:100D53000810A36500120810A76600120810446764
:100D6300001208109D670012081050680012081046
:100D7300F26800120810926900120810376A001214
:100D83000810998601120810D886011208101F89CD
:100D930001120810698901120810848A01120810CF
:100DA300EC8A01120810218B01120810958C011294
:100DB3000810188F01120810419001120810D790E3
:100DC30001120810DF9901120810749A0112081019
:100DD3005B9D011208104E9E01120810BC9E011269
:100DE300081002A001120810E4A001120810C9A201
:100DF30001120810DAA40112081044A50112081008
:100E030016A60112081044A60112081001A7011228
:100E13000810D8A7011208109FA80112081043A9AF
:100E2300011208106CA9011208108EA901120810F2
:100E3300E4AB01120810BCAC0112081000AD0112A2
:100E4300081068AD0112081020AE0112081052AE4E
:100E53000112081096AE01120810CCAE0112081050
:100E630018AF011208106DAF0112081072AF011212
:100E73000810C5AF01120810EAAF01120810F9B04B
:100E8300011208105DB101120810CDB10112081052
:100E930059B20112081026B5011208100AB6011240
:100EA30008108DB701120810C3B90112081071BAE6
:100EB3000112081021BB0112081062BD01120810B3
:100EC30005BE011208104CBE01120810F8BF011232
:100ED30008100CC00112081016C0011208103EC001
:100EE300011208104AC00112081069C0011208104B
:100EF30089C201120810D8C3011208101CC40112C0
:100F03000810C4C401120810A7C50112081052C664
:100F1300011208109EC7011208109CC80112081084
:100F230042C901120810D2C901120810E9C90112FD
:100F3300081020CA011208102ACA0112081035CA63
:100F43000112081053CA0112081097CA011208109F
:100F5300F4CA0112081019CB0112081033CB011285
:100F63000810BFCB01120810DCCC0112081049CDC8
:100F73000112081030CE0112081057CE01120810CA
:100F8300CBCE0112081046CF011208104AD001122D
:100F9300081040D101120810EFD10112081002D33A
:100FA300011208109ED3011208102BD4011208104D
:100FB30009D50112081041D50112081099D5011263
:100FC300081062D60112081083D6011208100AD73E
:100FD300011208102ED70112081050D70112081061
:100FE30099D701120810AFD90112081096DA01122D
:100FF300081047DB011208107DDD01120810CDDD5A
:10100300011208100DDE011208104FDE0112081044
:10101300ABDE01120810D9DE01120810FDDE011249
:10102300081050DF011208107EDF01120810B7DF2D
:10103300011208100CE00112081072E001120810EE
:10104300C6E101120810E9E30112081056E4011287
:1010530008107FE4011208100AE50112081071E577
:1010630001120810BCE501120810E0E50112081096
:1010730004E6011208105FE6011208107AE6011275
:10108300081033E701120810158404120810548461
:1010930004120810788002120810BE800212081091
:1010A3009E8102120810A08202120810A38302126A
:1010B30008102F85021208108D85021208104A8627
:1010C30002120810688702120810D987021208104A
:1010D3001588021208106388021208106D88021224
:1010E3000810B188021208100D8902120810A8898D
:1010F30002120810258A02120810F48A021208103C
:101103008D8B02120810AD8B02120810E38B0212B2
:101113000810148C02120810D58C02120810E58CEA
:1011230002120810398D02120810548D0212081091
:10113300668D021208106F8D02120810C98D0212FB
:101143000810258E02120810718E021208108C8E60
:1011530002120810BD8E02120810DA8E0212081055
:10116300E68E021208105A900212081073900212AF
:101173000810DA9002120810ED9002120810FB908A
:1011830002120810AF910212081093920212081073
:101193009993021208102394021208102D9402123C
:1011A30008109A9402120810B19402120810E394E2
:1011B300021208101C95021208104695021208101C
:1011C300A79502120810C79502120810E59502129E
:1011D30008102B96021208105197021208109E97BE
:1011E30002120810CD970212081043980212081039
:1011F3006B9802120810A49802120810B2980212F7
:1012030008100A99021208105999021208109899A5
:1012130002120810C89902120810F4990212081059
:10122300FF99021208101D9A02120810DF9A021287
:101233000810E99A021208102A9B021208107F9BD9
:1012430002120810939B02120810A19C02120810AC
:10125300B49C02120810C99C021208106B9D021262
:101263000810EE9D02120810AC9E02120810B79EE1
:1012730002120810E39F02120810FF9F02120810C7
:1012830051A00212081090A002120810A5A0021289
:10129300081007A10212081096A102120810E1A17A
:1012A3000212081032A402120810B0A4021208108D
:1012B30025A50212081047A7021208105FA7021201
:1012C300081062A7021208106EA70212081082A764
:1012D300021208108AA702120810BDA702120810F2
:1012E3006DA802120810E3A80212081056A90212F0
:1012F30008100AAA02120810BFAA02120810DEAAD6
:101303000212081084AB02120810AFAB02120810CD
:10131300B2AB021208101CAC0212081044AD021248
:1013230008101CAE02120810A7AE02120810C0AFBC
:10133300021208107DB002120810B6B00212081093
:10134300E7B002120810A5B102120810D5B10212BB
:101353000810B0B20212081049B302120810D4B335
:101363000212081085B40212081008B50212081000
:101373003AB5021208107BB502120810EC9803125A
:1013830008105199031208108E9903120810DD9961
:1013930003120810F39B03120810D69D03120810C2
:1013A30040A1031208107BA1031208109DA1031290
:1013B300081000A20312081034A20312081057A247
:1013C3000312081084A203120810E0A203120810EB
:1013D300278D03120810A58D03120810DB8D03124D
:1013E3000810478E03120810BA8F03120810D68F05
:1013F300031208101B9003120810A990031208107F
:101403000291031208102F92031208104193031242
:1014130008109E930312081082D6021208106B94D0
:1014230003120810AC940312081059950312081004
:101433006B9603120810969603120810E196031296
:101443000810289703120810BA970312081075980A
:101453000312081069FE0212081099FE0212081006
:10146300EEFE02120810E8F501120810F2F501125F
:1014730008104CE202120810ACF601120810CDF667
:10148300011208107DF70112081011FA0112081059
:101493001AFA011208106DFA0112081096FA0112D5
:1014A3000810FDFA011208108EFB01120810D0FB80
:1014B300011208101AFC0112081079FC011208101D
:1014C300A5FC0112081036FD0112081075FD01126A
:1014D3000810B4FD01120810E9FD01120810FBFD0C
:1014E300011208100DFE011208102CFE0112081043
:1014F30035FE01120810EBFE011208102BFF01123A
:101503000810148204120810B9F403120810EFF43F
:101513000312081038F50312081088F60312081096
:10152300836A00120810C26B00120810FE6B0012CF
:101533000810BD6D00120810E66D001208107970D6
:1015430000120810BD700012081046720012081035
:10155300DE7200120810467300120810E7730012BF
:101563000810297400120810697400120810F47529
:10157300001208106477001208108979001208100D
:10158300B77900120810DE7900120810E77900120B
:1015930008106E7A001208108C7D001208108985DD
:1015A300041208109F8504120810CA83041208103D
:1015B300C7E603120810DAE60312081077E70312EE
:1015C3000810B2E703120810CDE703120810F2E780
:1015D3000312081037E80312081068E80312081012
:1015E30099E8031208101FEA03120810DEFB031226
:1015F300081014FC0312081030FC0312081072FCCC
:101603000312081082FC0312081017FD03120810BE
:1016130021FD0312081039FD0312081068AC0312F0
:10162300081042AE03120810A8AF031208101BB132
:101633000312081001B203120810B3B30312081007
:10164300CDB303120810D9B40312081008B503125E
:1016530008100080031208105580031208103E8101
:1016630003120810D78103120810218203120810F5
:101673007E8203120810928203120810C48203129E
:101683000810C28303120810068403120810218471
:1016930003120810708403120810868403120810C2
:1016A300938403120810C78403120810E084031202
:1016B3000810AA8503120810048603120810528624
:1016C30003120810748603120810EB880312081023
:1016D300208903120810B08903120810258A031207
:1016E30008102A8A03120810668A03120810BC8A9B
:1016F30003120810808B03120810A58B0312081025
:10170300AF8B03120810B28B031208103B8C031229
:101713000810568C03120810698C03120810A48C4D
:1017230003120810A78C03120810B28C03120810BE
:10173300EE8C031208107D830412081095830412A3
:101743000810D5BD0312081024BE03120810C6BF2B
:101753000312081084C103120810CCC1031208102D
:10176300EEC2031208101FC40312081041C403126F
:1017730008109DC4031208101FC50312081068E463
:101783000212081089E40212081013E5021208106D
:1017930098E50212081014E6021208107DE6021200
:1017A3000810C9E60212081048E702120810DAE727
:1017B3000212081066E802120810A8E802120810C4
:1017C30014ED0212081094EE021208106AEF0212CE
:1017D300081099EF0212081084F10212081004F4A1
:1017E30002120810BDF402120810DAF502120810F2
:1017F30031F90212081041F902120810A2FA02127A
:1018030008102EFB0212081057FC0212081048FDA4
:1018130002120810CAFD021208106DE70112081027
:1018230027E80112081099E80112081035E901129E
:101833000810A5E9011208105EEC0112081035ED3D
:1018430001120810A2ED011208101FEF0112081077
:10185300E9EF0112081059F00112081022F20112E7
:10186300081035F301120810CEF30112081094F496
:101873000112081023DC0312081077DC031208108E
:10188300CFDC031208101ADD031208107CDD0312EB
:101893000810E8DD031208109BDE03120810DCDEDB
:1018A30003120810F2DE031208104EDF03120810B1
:1018B3008CDF03120810EBF6031208101CF7031257
:1018C3000810D6F7031208103CF803120810AEEA0A
:1018D300031208103AEC03120810148504120810BE
:1018E300258504120810C5F803120810D3F8031253
:1018F3000810C78504120810E78204120810F78243
:1019030004120810128304120810738304120810BF
:10191300128104120810978104120810FB8104122B
:1019230008100080041208102280041208108C8012
:1019330004120810978004120810DB8004120810A8
:1019430023B50312081031B50312081072B5031240
:10195300081093B50312081010B60312081010B73D
:101963000312081032B7031208109EB703120810AF
:10197300B9B703120810D4B703120810DEB7031265
:101983000810E8B703120810FBB70312081014B8C5
:1019930003120810B0B8031208106CB90312081030
:1019A300E3B9031208105DBA03120810A9BA0312AF
:1019B30008104FBB031208102BBC03120810BDDF25
:1019C30003120810CBDF0312081045E003120810BE
:1019D30029E103120810E2E20312081067850412DA
:1019E300081053C503120810BFC5031208107EC6A2
:1019F3000312081088C703120810E1C80312081065
:101A03003CC90312081091C9031208109AC90312A2
:101A13000810ACC90312081016CA031208102ACA08
:101A230003120810F1CE0312081046CF0312081058
:101A330042D10312081074D10312081096D1031275
:101A43000810AFD103120810C8D103120810D2D264
:101A5300031208106DD3031208107DFA0312081045
:101A6300A1FA03120810BAFA03120810EDFA0312CE
:101A730008101EFB031208104CFB03120810AEFBE8
:101A830003120810BDFB03120810C7FB0312081052
:101A9300D4FB0312081066ED031208108CED031239
:101AA3000810C9ED03120810D8ED03120810F7ED62
:101AB300031208105FEE0312081068EE03120810F9
:101AC300C7EE03120810EBEE03120810AAEF03127D
:101AD3000810B7EF03120810C8EF03120810A2840E
:101AE30004120810BF8404120810E4D30312081070
:101AF30042D5031208104FD50312081062D5031202
:101B0300081081D50312081097D503120810ABD51E
:101B13000312081020D60312081085D603120810EA
:101B230035D7031208100AD8031208101AD8031263
:101B3300081029D8031208105BFF011208107FFF59
:101B430001120810A7FF01120810CFFF011208109D
:101B5300F6EF031208101DF0031208103EF00312F3
:101B63000810A3F0031208105CF20312081075F2B8
:101B73000312081081F20312081095F203120810E1
:101B8300B3F203120810BDF203120810C7F20312D6
:101B93000810DAF2031208102DF30312081066F38B
:101BA3000312081095F303120810E3F3031208104D
:101BB30032F4031208104DF40312081057F4031201
:101BC300081068F403120810AEF40312081082FF21
:101BD300031208102CA30312081056A303120810B3
:101BE30072A30312081085A3031208109BA3031208
:101BF3000810F8A3031208102BA40312081067A8F7
:101C0300031208108DA903120810C0A903120810AB
:101C13000CAA0312081038AB0312081060AB0312AE
:101C2300081075AB0312081085AB03120810C9AB7B
:101C3300031208102AAC031208103AAC031208105E
:101C43003CFD0312081057FD0312081080FD031218
:101C530008109AFD03120810BFFD03120810DEFDE1
:101C630003120810F6FD0312081024FE03120810D5
:101C73003EFE031208105E840412081047E30312A9
:101C830008104EE3031208105AE4031208108AE402
:101C930003120810B0E403120810D3E4031208106F
:101CA300F5E4031208102FE50312081095E503125B
:101CB3000810CEE5031208101AE60312081047E6CF
:101CC3000312081067E6031208100D7E00120810B5
:101CD300257E00120810137F00120810F27F0012F5
:101CE30008106FFE03120810E1FE031208101FFF15
:101CF3000312081060FF0312081062D803120810C1
:101D030081D803120810D0D803120810ECD803129C
:101D130008101DD9031208102AD90312081037D945
:101D23000312081023DA0312081061DA03120810F1
:101D330071DB031208107CDB031208108EDB031225
:101D4300081097DB03120810A1DB0312081034CA32
:101D53000312081079CE0312081087CE031208105D
:101D6300D3FF03120810DE84041208103F85041207
:101D73000810A98504120810D6D5021208101CD425
:101D830002120810CCD10212081053D1021208100B
:101D9300FAD0021208108AD00212081061D002127F
:101DA300081041CE021208100DCE02120810DACD2F
:101DB30002120810BECD02120810D7CC021208106E
:101DC3008FCC02120810DACA021208105ACA021281
:101DD300081057CA0212081058C90212081026C95F
:101DE3000212081063C8021208108EC602120810ED
:101DF3001FC602120810F1C502120810FFE00212FA
:101E03000810AADE0212081040DE02120810F8DDE4
:101E1300021208106ADD02120810EEC50212081041
:101E2300DBC50212081086C5021208105DDD02121E
:101E3300081075C50212081067C40212081031C4D5
:101E430002120810DFC30212081057DA0212081038
:101E53003EF60112081080C3021208104FC302128B
:101E6300081017C002120810D7BF02120810CBBF08
:101E7300021208102BBF021208106BBE02120810C8
:101E8300EDBB021208107EB9021208103CB902120F
:101E9300081010B802120810C5B70212081004B7D0
:101EA30002120810D7B6021208101AB6021208104E
:101EB300B0B502120810EAB502120810B9D702121F
:101EC30008100A940300000080FBE4733200000052
:101ED30000000000000000000000000000101010CF
:101EE30010101000003030000000142850000000D3
:101EF300000000000000000000002828FC284850D3
:101F0300FC5050000000001038545430181454543E
:101F130038100000000044A8A8B0541A2A2A44002C
:101F23000000000020505060ACA898927C00000094
:101F3300606020C0000000000000000000000408F2
:101F430008101010101010080804000000402010A2
:101F53000804081020400000000000001010D638CC
:101F630038D61010000000000000101010FE1010F2
:101F730010000000000000000000000000000060EE
:101F83006020C0000000000000FC00000000000012
:101F9300000000000000000000000060600000007E
:101FA3000204040408081010202020400000000050
:101FB300304884848484844830000000000010701A
:101FC3001010101010107C0000000000384444046E
:101FD300081020447C000000000038444418040426
:101FE30044443800000000080818284848887C0842
:101FF3001C00000000007C40407844044444380046
:10200300000000003C4480B8C4848484780000004D
:1020130000007C444808101010101000000000005D
:10202300788484487884848478000000000078846D
:1020330084848C740488F0000000000000003030B9
:10204300000000303000000000000000001000001D
:102053000000101020000004081020402010080485
:102063000000000000000000FC0000FC0000000075
:102073000000004020100804081020400000000069
:1020830000788484840810100030300000000000C1
:1020930038449AAAAAAAB4423C00000000001010D7
:1020A300282828384444EE0000000000F84444780F
:1020B30044444444F800000000003C448480808091
:1020C3008044380000000000F0484444444444483D
:1020D300F00000000000FC44404878484044FC0005
:1020E30000000000FC42404878484040E000000007
:1020F30000003C448480808E84443800000000004B
:10210300EE4444447C444444EE00000000007C1050
:102113001010101010107C00000000007C10101034
:10212300101010101090E0000000EE44485070486A
:102133004844EE0000000000E0404040404040447E
:10214300FC0000000000EE6C6C6C54545454D60038
:1021530000000000EE64645454544C4CE40000004E
:1021630000003048848484848448300000000000E8
:10217300F844444478404040E00000000000304808
:1021830084848484B448380C00000000F844447804
:1021930050484844E600000000003C444020180436
:1021A3000444780000000000FE921010101010107C
:1021B300380000000000EE444444444444443800E2
:1021C30000000000EE4444282828281010000000D6
:1021D3000000D6545454546C2828280000000000F2
:1021E300EE44282810282844EE0000000000EE44A6
:1021F3002828101010103800000000007C880810F8
:1022030020204044FC0000001C101010101010107F
:102213001010101C0000701010101010101010106F
:1022230010700000701010101010101010101070AB
:102233000000102800000000000000000000000063
:10224300000000000000000000000000FE006060CD
:1022530020C000000000000000000000000000009B
:102263000038441C24443E0000000000C040407875
:10227300444444447800000000000000003C444013
:1022830040443800000000000C04043C444444442F
:102293003E000000000000000038447C4044380049
:1022A300000000001C2420F82020202078000000DB
:1022B30000000000003C48483040784438000000EB
:1022C300C040405864444444EE0000000000100045
:1022D3000070101010107C0000000000080000388F
:1022E30008080808080870000000C040405C485017
:1022F3007048EC0000000000701010101010101057
:102303007C0000000000000000F854545454D60030
:1023130000000000000000D864444444EE000000C4
:10232300000000000038444444443800000000002A
:10233300000000F8444444447840E00000000000FA
:10234300003C444444443C040E000000000000EC04
:1023530030202020F800000000000000003C443042
:1023630008447800000000000010107C10101010CA
:102373000C0000000000000000CC444444443E0034
:1023830000000000000000EE442828281000000090
:102393000000000000D65454542828000000000018
:1023A300000000DC48303048EC0000000000000072
:1023B30000EE442828101020E00000000000007CFC
:1023C300481010247C000010101010101010101072
:1023D3001010101010000136360101000102010037
:1023E30001030100010401060605020000070100C4
:1023F300340801000F090401010D0100FF0E08005C
:102403000017020000190100FF1A0100011B01005F
:10241300FE1C0100081D0200001F01000120010035
:1024230001210200002301000F2402000026010005
:102433000127010008280200FF2A0100072B0102DF
:10244300402C0100002D0100012E0100012F01008D
:10245300FF30010B1C310800003A0100083B01006A
:102463000F2F01000001017101010101011101019F
:10247300013101010101018001100161013B0014DF
:10248300006301730172016201430100011301063C
:10249300013D0135000401120100010001000100AA
:1024A3000104010401330133013C014401320136CB
:1024B30000000100016501000135008101000105F3
:1024C30001820183010001030271023001600211E4
:1024D3000270020102020202028002100261023A49
:1024E300004100630273027202620243020002139C
:1024F300023800000200020402120200020002007D
:1025030002000204020402370037003C02440200C6
:102513000239000002000265020002350281020056
:10252300020502820283020002030071003001608F
:10253300001100700031022003500480001000617C
:102543000000001400630073007200620043000087
:102553000013000600000000000400120000000049
:10256300000000000004000400370037003C024470
:10257300000000000000000000650000003500813D
:102583000000000500000083000000010371030147
:1025930003010301030103010322030203010310E7
:1025A30003000300030003000300030003000342CE
:1025B300030003240306030003000304031203259B
:1025C300032303250323030403040300030003007D
:1025D30003440300030003230300036503210035C1
:1025E30003810300030503000300030003030471D5
:1025F30004020460041104700402040204010402CE
:102603000410046104000414046304730472046278
:102613000443040004130406040004000404041225
:1026230004000400040004000451046400000400D6
:1026330004000444040004000400040004650400CE
:10264300043504810464000504000483040004CEFB
:10265300F7C4CFBFC6BCBCB4F3D1A7D6C7C4DCBCD8
:10266300D2BED3BFD8D6C6CFB5CDB3C3DCC2EBC8B9
:10267300B7B6A8C8A1CFFBD7A8D2B5D7A8D7A2CE43
:10268300DECFDFCDA8D1B6B3CFD0C5C1A2D7E3B4D7
:10269300B4D0C2D6C2D4B6C7BFB4F3D4ADA3BA00C4
:1026A30036000100060000000F00000000000000DB
:1026B30000000000000003FFFF00000403FFFF0011
:1026C30000FFFF0FF4010005C40403200001000014
:1026D3000B000000000000000003010F000032188F
:1026E3001300D2170100321802009C170300A2172F
:1026F3000400A8170500AE170600BA17FFFF000075
:1027030001CA0D06FA0D08F40D0B060E10460D0254
:10271300D00D05E80D07D60D0CAC0D0DBE0DFF0059
:102723000003EAF5E5D5D5C5B5A5959585857575F8
:1027330065655555454535352525151505D21102D0
:1027430012D811DE11FC11F011EA1108120E121445
:10275300122012E411CC11C61100160F00000B1544
:102763000B020002220F32000006BC12CE12D4125A
:102773009C11DA129611A211161334133A131C1377
:1027830028132213D610D0100C1112110611BE10EB
:102793000C0E020B040B0A0708000F00383C3E36F0
:1027A3003B3B352B432C0001191618161615230332
:1027B3000000034948424D18172505023030171809
:1027C3001921301B1D1F30303016181920231A1CF5
:1027D3001E300A13E012E612F212EC12F6111A126C
:1027E3002E1326122C12020402010101010902E236
:1027F30010E810DC101811000000000000EE1000BB
:102803001100BE040A0E0004007F00E8030C002838
:1028130000000000000308100C0A0308090004006C
:1028230001FF1E1E0C0504080FC082C0838A828B21
:1028330083E0D2E7F01217000239A3C082C0837984
:1028430000122CF8125A0FC082C08390033412472F
:1028530095D083D082C3E09CA3E09D500C1260E32B
:10286300FAA3E012286F6001090239A3FBEA75F0AD
:102873000BA4FAA8F075F00BEBA428FB900336E049
:102883002AF8A3E03B8882F583E0540F2274F71201
:10289300037A8908122CF8122D9EACF075F00BE91F
:1028A300A42CF9900336E028FEA3E039FF740165F8
:1028B3000860067402650870208A828B83122D8A51
:1028C300123A7174026508701B122C49122DD170D3
:1028D300138E828F83E4F0800BEA2403FCEB122D2A
:1028E3006C122D78EEFAEFFB120AD60239DB74F480
:1028F30012037A126A0A79008E828F83E0607689E6
:102903000A890B8065E50A75F00BA4FAA8F075F047
:102913000BE50B12287C7046E50A75F00BA4F8AAA8
:10292300F075F00BE50B122DB08E828F83E08508D6
:1029330082850983122E92850882850983A3123A20
:1029430071EE2403FCEF122D751239AA125489AAD1
:1029530008AB09120AD67901900334124E9EE50A98
:102963002401F50AE50B3400F50B122C51E50A9A04
:10297300E50B9B4090023C1B74F512037AEAFEEBD5
:10298300FF740B120AB11239AF750A01EC4D602BBB
:10299300EC126A26ED125A0F123A697901120AE211
:1029A300E5084509606F850882850983A3126A14C7
:1029B3007902AA08AB09120AE2805AE508450960C0
:1029C3002B125A131240DD1239AB122DBB700CEED1
:1029D300FAEFFB120AE8E9F50A80CBEE2403FA12B8
:1029E3002CF370317903EEFAEFFB80CA8E828F836A
:1029F300A3E064FE7003A3E0F4700BEE24030A0A61
:102A03000A122CF3700CEEFAEFFB120AE8E9F50A4E
:102A13008003750A00A90A7F0302059574F7120360
:102A23007A9003341239EBEA4B602FEA75F00BA46A
:102A3300FAA8F075F00BEBA428FBEAFEEBFF1215E6
:102A4300149003361239EB900336124CE36012EE06
:102A5300FCEFFD79001214788007900336E4F0A3AD
:102A6300F00239DB90033412444DC3EE98EF992200
:102A7300C082C083EC4D6005121CF480097C087D84
:102A83000079001214780239A374F612037A7900DC
:102A9300EA4B601878008808125D56EB1260DF601D
:102AA300047901780808E8C3940840EA023A7A7482
:102AB300F712037A74F31208EFECFEEDFF85188228
:102AC300851983E4F004120AB1EAF0A3EB12520F62
:102AD3007403120AB1AC82AD83EEFAEFFB120AFA69
:102AE300EEFAEFFB120B000239D674F712037A7475
:102AF300F31208EFECFEEDFF851882851983E4F0ED
:102B0300EAFCEBFD7403120AB1122E8B7401120A54
:102B1300B1123A658E828F83123A7174FE68700324
:102B230074FF6960047901800279000239D674F771
:102B330012037AEAFEEBFF122B8F7014122B9A8E7C
:102B4300828F83E0F4F88A828B83E058F0120AD6EE
:102B5300A9080239DB74F712037AEAFEEBFF750862
:102B6300008E828F83E06022122B8F701D122B9AAE
:102B73008A828B83E08F838E82F8E058700CE0F8B2
:102B83008A828B83E048F0120AD680C4120ADCE9F9
:102B9300F5087401650822126A1F122DA2122CE493
:102BA300FAA3E039FB2274F412037A8A088B097CB6
:102BB300007D00122C49122D78122D09126A117909
:102BC30000850882850983A3E064FE7003A3E0F413
:102BD30060717E007F008062EEFAEF12286F60570B
:102BE300EEFAEFFBEA75F00BA4FAA8F075F00BEB25
:102BF300A428FB900336E02AF50AA3E03BF50B85F6
:102C03000882850983A312515D850A82850B83A3FC
:102C1300E06A7003A3E06B701EE50A2403FAE50B78
:102C2300122CF4700AE50A2403FCE50B122D75122D
:102C33002CFD7901125A251235E8122C51EE9AEF28
:102C43009B4095023C1BEA24030A0A0AEB229003E9
:102C5300341255FCC32274F312037A8A088B098A4F
:102C6300828B83A3126A14122CF8126A11750C005A
:102C7300122C49122CF470547E007F008049122CD0
:102C8300D6FAA3E0398A82F583E0540F6036122C1A
:102C9300D6F50AA3E039F50BE50A2403FCE50B128C
:102CA3002D7F3400FB121CEEE964017017850A8244
:102CB300850B83A31256BDA3123A71122CFD750C1A
:102CC30001125A251235E8122A6740B2A90C7F0572
:102CD300020595EEF8EFF9E875F00BA4F8122CE471
:102CE30022AAF075F00BE9A42AF9900336E0282212
:102CF300EF122DCB22126A25EB22122D09125A2034
:102D0300EEF0A3EFF022E508126A26E5092274F536
:102D130012037AEAFEEBFF8E828F83A3126A147C7E
:102D2300007D00EE24030A0A0AEF122D78EEFAEF73
:102D3300FB120ADCE9F50A7401650A7029126A1F9D
:102D4300122D9EAAF075F00BE9122DB0850882F5BD
:102D530083122D8A122DBB700DE5082403FCE509AF
:102D6300122D6C122D78022A183400FDEE2403FA7A
:102D7300EF22122D7F3400FB120AFA223400FDE504
:102D8300082403FAE50922A3122D8F22122D932280
:102D9300E0F8A3E0F98E828F83A322122DA22234BE
:102DA30000F583124451E875F00BA4F822122CEAC3
:102DB300F508A3E039F50922E8F0A3E9F0E50824D2
:102DC30003FAE509122DCB22122DD164012234001E
:102DD300FB120B00E92274F312037A74E61208EF74
:102DE300126A0A750C01750800750900750A0075E9
:102DF3000B00851882851983E4F0EE2403FCEF347D
:102E030000FD7403120AB1122E8BE964017023745E
:102E13000B120AB1123A697401120AB112516170AC
:102E230003A3E0696051851882851983858208852B
:102E33008309740D120AB1E4122E92740E120AB1B0
:102E4300123A71740D120AB1AA82AB83120B1EE9F6
:102E53006401700B740D120AB185820A85830B78A5
:102E63000A120848AC08AD09EEFAEFFB120AEE7439
:102E73000212085BE9F50CEEFAEFFB120B18A90C32
:102E8300741A12085B022CD112315E120B24221227
:102E930039E612444D22C082C08378007900800352
:102EA300122F89122C51E89AE99B5029E8FAE9FB81
:102EB300EA75F00BA4FAACF075F00BEBA42CFB90C5
:102EC3000336E02AFCA3E03B8C82F583E0540F70C9
:102ED300CF7900800279010239A3C082C0839004B4
:102EE300F51244A3EC75F012A4FCA8F075F012EDF2
:102EF300A428FD79FF7AC57B0B1214780239A374D9
:102F0300F712037AE9FEEAFF7A007B007800790082
:102F13008028E8FCE9FDEC75F012A4FC85F0087547
:102F2300F012EDA4250812339EC39E400AE0FCEF85
:102F3300C39C40031234BD122F8912339240D30233
:102F430039DBC082C083780079008003122F891295
:102F53002F7D501F1233A2F470F2E875F012A4F81B
:102F6300AAF075F012E9A42AF974C528FA740B398A
:102F7300FB80047A007B000239A39004F5123453DA
:102F8300C3E89AE99B22E8240108E93400F9227492
:102F9300F012037A74F31208EF8A0A8B0B8C0C8DF0
:102FA3000D8908EC450D6016AA0CAB0D120B728A45
:102FB3000E8B0FAE0EAF0FEE4F6003023050120BAD
:102FC300488A0E8B0FA80EA90FE8FEE9FFE84960B7
:102FD3007C9028161230B260227403650860067470
:102FE30004650870167A047903120B4290281612AE
:102FF30030C940077A007B000230AF9028141230AA
:10300300B2601B74016508600674026508700F7A6C
:10301300027901120B429028141230C950D6851838
:10302300828519837401F0120AB1125489AC0CAD74
:103033000D7403120AB1123157740B120AB112390B
:10304300B7123E51E41254711210168004EE4F6011
:103053004A780074FF2508C39404500278048E82D2
:103063008F831254898E828F83A3A3A3A3E508F0D1
:10307300E88E828F83A3A3A3A3A3125491120229E0
:1030830012346A8E828F83A3A3A3A3A3A3A3F012F4
:103093003461120A8E125A09120A9A1230B7400585
:1030A300901121E4F0120EF0EEFAEFFB02445712F6
:1030B30055AB49227A047900120B429004F5126051
:1030C300C5EA98EB99221230E27583047582F5E420
:1030D30093C398F8A3E49399F9C3EA98EB9922E48C
:1030E30093F8740193F92274F212037A74F31208B9
:1030F300EF8A088B09ECFEEDFF750A00EEFAEFFB91
:10310300120B728A0C8B0DA80CA90DE849603E883E
:10311300828983E065087004A3E06509602F8882D3
:103123008983A3A3A3A3E0C3940550211258B785B1
:1031330018828519837401F0120AB11258BBEEFC90
:10314300EFFD7403120AB1123157750A01A90A740B
:103153000D024F5512315E120B3022AA82AB83123D
:103163000AFA851882851983AA82AB832274F61220
:10317300037A1231AC600FA3A3A3A3E014C3940496
:103183005004790180027900023A7A74F612037AC4
:103193001231AC600FA3A3A3A3E014C394025004A1
:1031A300790180027900023A7A120B6C8A828B834E
:1031B300E58245832274F612037A1231AC600BA3C5
:1031C300A3A3A3E07004790180027900023A7AC0D4
:1031D30082C083EAFCEBFD7A007B000239A0C08247
:1031E300C0837C007D000239A074F412037A74F367
:1031F3001208EFEAFEEBFF8C0A8D0BC3EC94F8ED9B
:1032030094FF4007EE4F70030232A575080075095D
:1032130000802E8518828519837401F012361012EE
:103223000AB112361E60137403120AB1AC82AD8365
:10323300EEFAEFFB121CEEE97049E50824011234A3
:103243003E9004F5E41255B3E50898E50999505208
:10325300E50875F012A4F8AAF075F012E509A42A9E
:10326300F91260F860D4EE4F70A974FF650A700418
:1032730074FF650B60C4123600650A7004A3E06531
:103283000B70B7E50875F012A4F508A8F075F012F5
:10329300E509A428F50974C52508FA740B3509FB5B
:1032A30080047A007B00023C1674F412037A74F3F0
:1032B3001208EF750800120B728A0A8B0BAE0AAF65
:1032C3000BEE4F602A85188285198374011239E049
:1032D300F8A3E0F9740B120AB1123AF4120B127C40
:1032E300127D0079FFEEFAEFFB12147875080112D4
:1032F30030B750099011217401F0120EF0A90802A1
:103303003C1674F712037AE9FE74FE6A700374FFC5
:103313006B7800790070058052122F891233925016
:103323004AE8FCE9FDEC75F012A4FCAFF075F0126D
:10333300EDA42F12339EF460E0E8FCE9FDEC75F098
:1033430012A4FC75F012EDA42FFD74C52CF5827444
:103353000B3DF583E06A7003A3E06B70BC80091238
:1033630033A214C394044017122F89122F7D5018CF
:10337300EE70EC1233A264016005E0640370E9129D
:1033830035F1FAA3E0FB80047AFE7BFF0239DB9080
:1033930004F51244A7C3E89CE99D221234F222E803
:1033A300FAE9FBEA75F012A4FAACF075F012EBA49B
:1033B3002CFB74C92AF582740B3BF583E022120BB4
:1033C300840239A3C082C083790180F274F01203AE
:1033D3007A8A0A8B0B7A047901120B428A0C8B0DC1
:1033E300EA450D603EEAC333FAEB33FB1215148A48
:1033F300088B09AE08AF09EE4F60237AFE7BFF12FC
:103403000B8A74FE6A700374FF6B601B85088285E8
:1034130009831239EBE508240212343E80E1750C6E
:103423000080047E007F00850A82850B83E50CF013
:10343300EEFAEFFB02445CE5082407F508E50934DE
:1034430000F509229004F51244A7C3EA9CEB9D22E0
:10345300E493FA740193FB2212146C740322125A3C
:103463001AE4F090866B22E88E828F83A3A3A3A332
:10347300A3A3A3A312348C740112348CA3F0EE24FF
:1034830010125A1DE4F0A3F022123E5DA3A3A3225F
:10349300C082C0837A007B008004191234BD1234C9
:1034A3004750101234DCC3940550F0E970EC123429
:1034B300C680047A007B000239A3EA24010AEB34B4
:1034C30000FB22EA75F012A4FA75F012EBA428FBB4
:1034D30074C52AFA740B3BFB22EAFCEBFDEC75F096
:1034E30012A4FCA8F075F012EDA4281234F222FD08
:1034F30074C92CF582740B3DF583E02274F7120333
:103503007A74F31208EF7E007F000235A4E5087594
:10351300F017A4F8A9F0126359FAA3E0FBEEF8EF51
:10352300F9E875F012A4F8ACF075F012E9A42C12C6
:1035330035FF6A7003A3E06B603FE50875F017A4DD
:10354300F8AAF0EA126358F8A3E0F97401120AB179
:10355300E0687003A3E0696020E50875F017A4F83C
:10356300EAF9744128FC740D39FD7403120AB1AAF7
:1035730082AB83121CEEE96014E50875F017A4F81A
:10358300A9F0743F28FA740D39FB12102205089034
:10359300281AE493F8E508C398500302351012354E
:1035A300E89004F512669F5039EEF8EFF91235F101
:1035B300F47003A3E0F460E685188285198374012F
:1035C300F0EEF8EFF9E875F012A4F875F012E9A43B
:1035D3002AF9123610120AB112361E60C17508009C
:1035E30080AD0239D6EE24010EEF3400FF22E875D8
:1035F300F012A4F8AAF075F012E9A42AF91236041D
:103603002274C528F582740B39F583E02274C72828
:10361300F582740B3912444B740B22E8F0A3E912C0
:103623003AFC120B2AE922C082C08390033D74E264
:10363300F0A3740DF090033F74DCF0A3740DF090CD
:10364300034374FCF0A3740BF00239A374F7120361
:103653007AEAFEEBFF900377E06408601BE0640402
:1036630060168E828F83E05403640170481239AA76
:10367300123F52E06406703D8E828F83A3A3E06401
:10368300FE7003A3E0F4602D8E828F83A3A3123A0E
:1036930065900368E0687003A3E069700BEE24157E
:1036A300F582EF1260DF6008120E90E9F5088008DA
:1036B300120E9680F67508C2EEFAEFFB12151A0287
:1036C3002B5374F412037A8A088B098A828B83E062
:1036D300F8A3E0FAE82AFAE43400FB1215148A0A84
:1036E3008B0BAE0AAF0BEE4F6063850882850983AF
:1036F300E0FC7D0079001214788E828F83A3A312DD
:103703006A14120ED28E828F83A3A3A3A31239EB62
:10371300850882850983E0F8EE28F8EF3400123A31
:103723006D850882850983A3E0C0E0EE240D125A5B
:103733000CD0E0F0120EE4EE240E125A0CE91250F3
:10374300BEE0C0E0EE2411125A0CD0E0F0EEFAEF26
:10375300FB023C1B74F612037A74EB1208EFEAFEC9
:10376300EBFF124CE060030237FB7A077B00121574
:10377300149003391239EB124CE060788E828F83F8
:10378300120A8E90033A123F55120A9A1268D8C051
:10379300E0123807D0E0F0EE2405FAEF3400FB8A9C
:1037A300088B098A82F583E0C0E0123802D0E01268
:1037B3003C12E0C0E0123802A3D0E0123A57120ADA
:1037C3008E851882851983120A9A88828983E0C0BC
:1037D300E07405120AB1D0E0F0850882850983E020
:1037E300C0E07404120AB1D0E0F07407120AB112F7
:1037F300393D80067910800279017415023A7712F7
:103803003807A322900339E0FAA3E0F5838A82A361
:10381300A3A3A322C082C083124CE0600D9003399E
:103823001255EA900339E4F0A3F0120E00120FC20E
:103833000239A374F012037A74EB1208EFECFEED75
:10384300FF89087425120AB1780C120A54742912DC
:103853000AB1E0F9742A120AB1E0FC742B120AB11E
:10386300E0FD740F697005740F6C601290117CE0B9
:103873006402700579C1023938E9C39C40F69003AC
:1038830078780C120A72E50890037EF0E990037CC5
:10389300F0ECA3F0ED90037FF074FF6A700374FF04
:1038A3006B701D901187E0F47003A3E0F4700512B0
:1038B300148A800C9011871239C0E8F0A3E98007BD
:1038C300900375EAF0A3EBF0EE4F6017EEFAEFFB0F
:1038D300121082E96401700BEEFCEFFD7A897B0321
:1038E300121CF4900368E4F0A3F090036BF0A3F0D0
:1038F300900388F090117CE06402700890037C745C
:103903000FF0A3F09003777405F014120AB1E4F0FA
:10391300900378120A8E851882851983120A9A9069
:10392300037EE0C0E07405120AB1D0E0F074071220
:103933000AB112393D7415024459E4123AFC121DBE
:103943001E22C082C083900338E070031217CC128A
:103953000BCC804CC082C083900338E09011207060
:1039630004E4F0802D7401F0900338E0F460237CCC
:1039730041E0C394415002E0FCECF8E0C398F0EC62
:1039830075F0E8A4CCA8F075F003A428FD7A8012A2
:1039930044AF7A207B117941121D0C8003120B78FE
:1039A300D083D08202080DEE125A1B22E0F508A341
:1039B300E0F509221239BB22122D93A32212444DA2
:1039C3009003752274F712037AEB90037FF0120DC4
:1039D300EE8005740D12085B7F010205951239E62E
:1039E300A3E022123A57A322EAF0A3EBF02274F7E2
:1039F30012037A74F81208EFEAFEEBFF79009003E2
:103A030077E06408704485188285198374FDF0A3F8
:103A130074FFF0120ECC7402120AB11239EB740562
:103A2300120AB1E41239E6E0C0E07404120AB1D01C
:103A3300E0123A52C0E07406120AB1D0E0F0740703
:103A4300120AB1E4123AF8120F0E74080239D812AE
:103A53003A57E022F08E828F8322F08518828519EF
:103A6300832212444D22E0F8A3E0F9125A1AE8F037
:103A7300A3E9F02212085B7F02020595C082C0838E
:103A8300900349748CF0A3740CF09003EF7468F006
:103A9300A3740FF090034D74C2F0A3740CF0900361
:103AA3004F748CF0A3740CF090035174C8F0A3749A
:103AB3000CF00239A374F412037A74F91208EF8A32
:103AC300088B098C0A8D0B85188285198378081257
:103AD3000A727404120AB1E9F07405120AB1E4F02F
:103AE3007406120AB1E4123AF8120BB47407023CDA
:103AF30018E8F0A3E9123AFC22123A5DAA82AB83DA
:103B03002274F412037A8A088B098A828B83125AED
:103B130028EE4F7003023C10900312124CE3601521
:103B23008A828B83A3A3E0F9EEFAEFFB90031312CF
:103B33003F55121ECD8E828F83A3A3A3A3A3A3A35A
:103B4300A3A3E0640270748E828F83A3A3A3A3A3B1
:103B5300A3E054027003023BE2850882850983A334
:103B6300A3E064E960798E828F83A3A3A3A3A3A3B5
:103B7300A3A3A3A3E0701490117FE0048E828F832C
:103B8300A3A3A3A3A3A3A3A3A3A3F08E828F83A31F
:103B9300A3A3A3A3A3A3A3A3A3E014123C12A3A3CD
:103BA300A37404F0901180125463E8F0A3E9126542
:103BB3003C8B0BEA450B7003125F1A8E828F83A333
:103BC300A3A3A3A3A3A3A3A3E0640260128E828F83
:103BD30083A3A3A3A3A3A3A3A3A3E06406702E8E2E
:103BE300828F83A3A3A3A3A3A3E0A2E0501F85080E
:103BF30082850983A3A3E0F9EEFAEFFB121DAE8ED3
:103C0300828F83A3A3A3A3A3A3E054FEF08009128E
:103C13003E5922740D12085B7F0402059574EC1261
:103C2300037A74DD1208EFEAFEEBFF8C088D09744A
:103C330037120AB1780C120A54750A007405120A75
:103C4300B1AC82AD83121E027412120AB1E0700885
:103C53007415120AB1E060207405120AB1E0A2E6FD
:103C6300501E8E828F83A3A3A3A3A3A3A3A3A312F4
:103C7300515D120F44E960087903121CDC023E3FD8
:103C83007405120AB1E0540C64047005750B0180CD
:103C930003750B00E0A2E55035750A01E50BA2E0C0
:103CA300402C120ED28A108B11A810A9111239AA16
:103CB300E0687003A3E06960157405120AB1126A23
:103CC3001B125159121DBAE96004790480AC7405C2
:103CD300120AB1E0A2E650227406120AB1E05403BC
:103CE30070187405120AB1E0540C640C600CE054B3
:103CF3000C640860057510018003751000740512CB
:103D03000AB1E05403F8740268700C126A1B125172
:103D130059120AC4023E3F740168703AE510A2E0EA
:103D23005003123E477405120AB1A882A983740393
:103D3300120AB1E8F0A3E912444185188285198378
:103D4300123E51E0C0E07402120AB1D0E0123AF818
:103D5300121E9E023E3FE86003023E3F90035FE077
:103D6300640170108E828F83A3A3A3A3A3A3E07027
:103D730003023CCD7422120AB17402124441741A34
:103D8300120AB1123A71E510A2E050087405120A42
:103D9300B1123E47E50BA2E0506AEE240FF582EF25
:103DA3001260DFC0E07417120AB1D0E0F090031480
:103DB300124CE37003023E3F120ED28A128B13A8F9
:103DC30012A913741A120AB1E0687003A3E06970B0
:103DD3006B780C120840780A12084C7808120848CD
:103DE300A910740C120AB1AC82AD837421120AB10A
:103DF300AA82AB83900314123F52121ECD74071292
:103E0300085B8038780C120840780A12084C78084E
:103E1300120848900375120664EE2412F582EF121D
:103E23005E0D7423120AB1AC82AD83740E120AB113
:103E3300AA82AB83121DA2740912085B74231208B1
:103E43005B026507126A1B1255F8121DFC22E8F08B
:103E5300A3E9123E5922123E5D22F08E828F83A384
:103E6300A3A3A3A3A32274F712037A1216B80239E9
:103E7300DB74F712037A1216BE0239DB74F71203EE
:103E83007A1216CA0239DBC082C0831216C4023901
:103E9300A374F712037A1216D00239DB74F71203F4
:103EA3007A7409120AB1E0F508780812084C121660
:103EB300DC74010239D8C082C0831216E80239A328
:103EC300C082C0831216EE0239A374F712037A126A
:103ED30016F40239DB74F712037AEAFEEBFF890862
:103EE3007401650870147900120D04902825E49379
:103EF300FC7900EEFAEFFB120C7A0239DB74F41250
:103F0300037A74F91208EFE9FE8A088B098C0A8D8B
:103F13000B7413120AB112515D900638124CE36010
:103F230027EE851882851983F07401120AB1780887
:103F3300120A72EAF8EBF97405120AB1123AF49014
:103F43000638123F52121ECD023AEFFB90034BE0AC
:103F5300F8A3E0F583888222C082C083121724026B
:103F630039A374F712037A901123E0F97E00800BD2
:103F73001260CB540D64017001190E12415F50039E
:103F8300E970ED0239DB74F712037A901124E0F93A
:103F93007E00800B1260CB548D64817001190E1268
:103FA300415F5003E970ED0239DB74F212037A8941
:103FB3000BE975F006A4240CF508E5F01234428AE7
:103FC3000CE508250CFAE5093400FB1215148A0CDC
:103FD3008B0DAE0CAF0DEE4F6027AC08AD09790029
:103FE3001214781239AAE50BF0EE2508F8EF35091B
:103FF300F98E828F83A3A3A3A3A3A3A3A3A3123A9C
:1040030071EEFAEFFB024F5874F612037AEAFEEBF5
:10401300FF120C56901122E0F8E9C398400990036F
:104023004512515D120C5CEE2402F8EF12576D90AD
:104033000347125627900347E004F0EEFAEFFB1212
:104043000C62850882850983E0025C23C082C083F9
:10405300790090034580010912515D8A828B83E5C3
:1040630082458370F20239A374F712037AEAFEEBF6
:10407300FFEE4F6056900345124CE3604E888289F1
:10408300837A007B00EE65827003EF6583600FAA7D
:1040930082AB831240D1E5824583602F80E7900392
:1040A300451240DD687002EF698E828F83700812BB
:1040B3003A659003458003126519123A71EEFAEFDF
:1040C300FB121E6EEEFAEFFB12151A0239DB1240D9
:1040D300D522124451888289832212444DEE22C094
:1040E30082C083900345800488828983124CE360F5
:1040F3000B88828983124795EC4D70EC8A828B83FF
:10410300E4F0A3F0E8496006888289838003900382
:10411300451239EB0239A374F712037A90034580F1
:10412300048A828B8312415A4B60257E0080010EE4
:1041330012415F50ECEE75F006A4FCADF0EA2CFCE6
:10414300EB3DFDEC2410F582ED1241AF70E18004EC
:104153007A007B000239DB1255FCEA221241B8EEE9
:10416300C3982274F712037A7D0080010D1241B4C3
:10417300EDC3985034ED75F006A4FEA8F0E8FFEA0D
:104183002EFEEB3FFFEE2410F582EF1241AF70DC01
:10419300ED75F006A4FEE8FFEA2EFAEB3FFBEA24F6
:1041A30011F582EB1260DF4CF00239DB1260EB6930
:1041B300221241B822126A25EB3400F583E0F8227B
:1041C30074F612037A120D7C7A007B008025EAF8DC
:1041D300EBF9E875F006A4F8ACF075F006E9A42C49
:1041E3001255D11268E6A3E41256C7F0A31268EC85
:1041F300126A639028101230C140D37A007B00808A
:104203001C8A088B09740378081209F0125085A3DD
:1042130074FEF0A3041254A7A3E4126A639028194E
:1042230012426240DC7A007B00801D8A088B09748D
:104233000378081209F07467125D57741012659EB3
:1042430074FEF0A304126A6390281F12426240DBDB
:10425300902823E493900353F012426C023A7AE4D9
:1042630093F8C3EA98EB9400227CE87D037A107BF1
:10427300009003C2E0F91215CE2274F012037A748F
:10428300F51208EF8A088B09890A8C0BE9A2E05022
:10429300147508FC7509FFA2E15005D2E402433FFF
:1042A300D2E302433F124F447003A3E069700579E0
:1042B3000002440CAC0A7902AA08AB09120D58E9B2
:1042C30060EDE50AF50C780C12084C79027CFE7D52
:1042D300FFAA08AB09124CBF12085BE96003024452
:1042E3000AE50AC2E5F50A9003B5E07051E50AA2B2
:1042F300E6404B7403120AB1AC82AD83AA08AB0942
:10430300120B06E970321245E08A0C8B0DA80CA93A
:104313000DE8FEE9FFE8496025EE24020A0AEF12E0
:104323002DD1601AEE2402FCEF3400FD7403120A4F
:10433300B1AA82AB83121CF4E50AD2E5F50A900315
:1043430048E0F50C900368E0F50EA3E0F50F780E56
:104353001208487D017C00900348E0F9AA0EAB0FD8
:10436300120D10740212085BE9F8900348E004F0A0
:10437300E8600302440AE50AA2E55004740E8002D1
:104383007406C0E07401120AB1D0E0125A398A0EE1
:104393008B0FAE0EAF0FEE4F606912442A124441E9
:1043A300888289837401F07478550AA3126A2BE515
:1043B3000C126A2BA3E508F0E509124419E4F0E5B1
:1043C3000AA2E5500F7403120AB1AC82AD83E8244C
:1043D300061244108E828F83A3A374FDF0A374FF8F
:1043E300F0E50B6015902826E493F8E50BC398508D
:1043F30009EE2413125A0CE50BF0EEFAEFFB120B45
:10440300A880067910800279C7740B8049FAE934D1
:1044130000FB121CF42288828983A3A3A3A3124462
:1044230025221257A0A322EE2417125A1D7401F05D
:10443300120ECCEE241A125A1DEAF0A3EB22F0124C
:104443006A1F340012444B22F58312445122E0F8D0
:10445300A3E0F922740D12085B7F0802059574F638
:1044630012037A7A007B10125F2760089003D474DA
:1044730001F080299006D9E0640190117D7006E077
:10448300FC79018004E0FC79037A007B00120C7A4A
:1044930090280E1244A37A007B101244B1023A7A98
:1044A3001244A722E493FC740193FD227B00900342
:1044B300C2E0F91215C82274EC12037A8A088B0938
:1044C3008C0C8D0D890E7414120AB1124E9E741643
:1044D300120AB1E0F510A3E0F511120F44E96007E9
:1044E3007AFF7BFF0245DD90117CE06402600302EA
:1044F30045D07900AA08AB09120D5EA90E120D5220
:104503008A128B13AE12AF13EE4F70030245B88EAF
:10451300828F83A3A3A3A3A3E064018E828F83A3CB
:10452300A3706912515D8E828F83A3A3A3A3A3A358
:10453300E054186043902824E4938E828F83A3A3CE
:10454300A3A3F0EA650C7003EB650D6014EA650A3A
:104553007003EB650B600AEA65107003EB6511707D
:104563001F7810120848AC0AAD0BAA0CAB0D121041
:1045730040740212085B8008900367125F11A3F076
:1045830074FE6A700374FF6B601D804EA3A3A3E0E7
:10459300640360298E828F83A3A3A3A3A3E064048F
:1045A30070057AFE0244E58E828F83A3A3A3A3A39F
:1045B300E0640270089003B4E0640270101245E0F6
:1045C3008B0BEA450B6006AA08AB09800DAA08AB62
:1045D30009900349123F52121ECD026507900375DD
:1045E300124CC51210042274F712037AEAFEEBFF91
:1045F300120B5AE9700AEEFAEFFB120B66E960063A
:10460300EEFAEFFB80047AFE7BFF0239DB74F012D3
:10461300037A8A0A8B0B8C0E8D0F89097508001299
:104623000F44E979006003024787AA0AAB0B120D16
:104633005EA909120D528A0C8B0DAE0CAF0DEE4F15
:1046430060198E828F83A3A3A3A3A3E06402705592
:104653009003B4E064027003024785AA0AAB0B908F
:10466300034F123F52121ECD120B6C8A0C8B0DA8F6
:104673000CA90DE849700302478588828983A3A3A7
:10468300A3A3A3E0A2E04003024785750C01A2E1C6
:1046930050687901AC0AAD0BAA0EAB0F120CAAE954
:1046A30070640247858E828F83A3A3A3A3A3E064D0
:1046B300037005750C0280528E828F83A3A3A3A37C
:1046C300A3E0640160030247859003751247958E4A
:1046D300828F83124AEA8A0C8B0DA80CA90DE84934
:1046E30060D190281DE493FA88828983E0C39A50AD
:1046F300C2A3E0600302478580B988828983A3A3AC
:10470300A3A3A3D2E1F0EE4F603A8E828F83A3A3DB
:10471300A3A3A3A3E05418602B7508018E828F8393
:10472300A3A3120664750CFE750DFF780C120848DE
:104733007900AC0AAD0BAA0EAB0F120D7074041204
:10474300085B803E900368E0650E7004A3E0650F8C
:104753007014902825E493FCA909AA0AAB0B120C48
:104763007A750801801CA90CAC0AAD0BAA0EAB0F1D
:10477300120CAAE9700C750801A909AA0AAB0B125D
:104783000D04A90802445CE50C2415F582E50D121D
:104793005A2012547D2274EA12037A74F01208EF3D
:1047A3008A0C8B0D8C088D097426120AB1E0F5145E
:1047B300A3E0F5157512069003F5124CE360239000
:1047C3000375124795AA08AB0912102E8A108B1194
:1047D300EA4511600D8A828B83A3E070057900029C
:1047E3004AD2E50C241DF50EE50D3400F50F850EB8
:1047F30082124CCFF51388828983A3A3A3E0FA889E
:10480300828983A3A3A3A3E0F9EA2400FEE439FF8A
:10481300AA08AB09120D0A850E82850F83124B0D70
:10482300E029F50BE50AA2E5500375120E748755CE
:104833000A70177418550A6418600FE50C2417F5ED
:1048430082E50D1260DF651260077901121CDC80BE
:104853008C530A78C3EE94F8EF94FF501D7900EE61
:10486300FAEFFB124ADC601288828983A3A3A3A315
:10487300A3A3E0541860030247E078081208487DB8
:1048830000124B0012085BE9F874036870030247D7
:10489300E0E8600302494B7418550A7003024A00AA
:1048A300E50AD2E0F50AA2E45004D2E1F50AA90A26
:1048B300125156124ADC605388828983A3A3A3A3AF
:1048C300A3A3E05418604488828983A3A3A3A3A36A
:1048D300E064017036E510451160309003751247AE
:1048E3009588828983124AEA8A0E8B0FA80EA90F34
:1048F300E849601788828983A3E0600F8510828569
:104903001183A3125C2E50030247E0E50AF50E78EB
:104913000E12084C124AF312085BE9702B7C007DDF
:104923000085148285158374FFF0A3F0850C8285BE
:104933000D83A3A3A3A3A3A3A3A3E0600312478AA6
:10494300A90B1251561216E2851482851583E0F4E1
:104953007003A3E0F460399003B4E06402700302CF
:1049630047E0124E8FE0FAA3E0123F4E121ECDEA4B
:1049730065087003EB650960030247E0EEFAEF1286
:104983003F4E121ECD851482851583EAF0A3EBF00A
:1049930078081208487D01124B0012085BA90AEE41
:1049A300FAEFFB120D5E8A088B09A808A909900388
:1049B30068E0687003A3E0696003024AC3EEFAEF9C
:1049C300FB120B6C8A088B09A808A909E849606ED9
:1049D30088828983A3A3A3A3E06401600D888289ED
:1049E30083A3A3A3A3E0640270548518828519836B
:1049F300AC82AD83EEFAEFFB120B06805590036198
:104A0300E0600FE50AF50E780E12084C124AF31215
:104A1300085BE50AF50E780E12084C79027CFE7DE0
:104A2300FFEEFAEFFB124CBF12085BE96003024989
:104A33004B85148285158374FFF0A3024992120EED
:104A4300CCEAFCEBFD851882851983AA82AB83121D
:104A53001CF4850C82850D83A3A3A3A3A3A3A3A303
:104A6300E06401700F12478A7408120AB1AA82AB7C
:104A730083121CF4124C991258A54430F508780897
:104A830012084C7401120AB18582088583097808DB
:104A9300120848740B120AB18582088583097808C5
:104AA300120848E513F508780812084C7900EEFC63
:104AB300EFFD125156120CA4740612085B0247E074
:104AC300124C99125A0F124B0DE50BF0120EE474AF
:104AD3001012085B7F0E020595120D528A0E8B0F82
:104AE300A80EA90FE84922A3A31255FC12102E22E7
:104AF3007901AC08AD091255F1124CBF22AC0BA9D8
:104B0300131255F1120D107402221258ADA3A3A370
:104B1300A32274F012037A74F01208EF8A0C8B0D3F
:104B2300ECFAEDFB750F089003F5124CE3601412D9
:104B33005C278A828B83E58245836007A3E0700349
:104B4300024C94124C993400124CCFF50B88828995
:104B530083124CA2E0FBEC2400FEE43BFF88828935
:104B630083A3A3124CA2A3A3E0FBECF508E43BF55B
:104B73000988828983A3A3A3A3A3A3A3E0F50EE5D6
:104B83000AA2E45003750F10A2E550067408250F1E
:104B9300F50F748F550A700FE50C2417F582E50D98
:104BA3001260DF650F60087901121CDC024C94531C
:104BB3000A707800E50AA2E45022124C991260DFD1
:104BC3002408FCA3E03400FD7408120AB1AA82ABE6
:104BD30083121CF47808E50AC2E4F50AE50AA2E5A3
:104BE3005028124C991260DF28F8A3E03400F9E84A
:104BF3002408FCE93400FD851882851983AA82AB59
:104C030083121CF4E50AC2E5F50AAC0EA90BEEFA11
:104C1300EFFB120D16E9F87403686075900368E002
:104C23006E7003A3E06F605EE87054E50AF50F78D9
:104C33000F12084C124CB012085BE97054780A1238
:104C4300084C7401120AB185820C85830D780C120D
:104C53000848740B120AB185820C85830D780C12F7
:104C63000848E50BF50A780A12084CA90EAC08AD02
:104C730009EEFAEFFB120CA4740612085B8012749F
:104C83000468700D80B7780A12084C124CB01208F1
:104C93005B7410024459E50C241DF582E50D22A333
:104CA300A3A3E0FC88828983A3A3A3A3227901128F
:104CB3004E96125A20124CC5124CBF22120CCE74BF
:104CC3000122E0FCA3E0FDAA08AB0922F583124010
:104CD300D5A3E0F50A88828983A3A3E02290033950
:104CE3001256582274E812037A74F51208EFEAFE9A
:104CF300EBFF8C088D0989147423120AB1E0F50FB8
:104D03007424120AB1E0F512A3E0F5137426120A13
:104D1300B1E0F516A3E0F5177428120AB1E0F50E19
:104D2300A90F120D1C8A108B117401120AB1740899
:104D3300F0E50EA2E450037410F0E50EA2E5500472
:104D4300E02408F0851882851983AA82AB83120FA9
:104D53002C8A0C8B0DEA450D7003024E76EA24175C
:104D6300F582EB124E88120ECCE50C241AF582E57F
:104D73000D125A0F1239EB7403120AB1AC82AD83D0
:104D8300AA10AB11120B06E9601D124E80740312B8
:104D93000AB1A882A983E50C2418F582E50D125AFD
:104DA3000FE8F0A3E98024E50EA2E4501FE5106E9E
:104DB3007003E5116F7015124E80E50C2418F5820F
:104DC300E50D125A0FE512F0A3E513F0124E8F1200
:104DD3004E9E850A82F5837402F0A3E50E124EA659
:104DE300E50FF0EE850A82850B83A3A3A3F0EF857D
:104DF3000A82850B83A3A3A3A3124EA6A3A3A3E5B1
:104E030008F0E509850A82850B83A3A3A3A3A3A3C3
:104E1300F0AA10AB11120D0AE92514850A82850B3D
:104E230083A3A3A3A3A3A3A3F0750800E50EA2E4A1
:104E33005011AC12AD13E50A2408FAE50B12441223
:104E4300750808E50EA2E55014AC16AD17E50A2562
:104E530008F8E50B3400F9E82408124410850C82A5
:104E6300850D83A3A3E510F0A3E511F0AA0CAB0D08
:104E7300120BA8740B12085B7F10020595E50C2436
:104E830016F582E50D125A207401F022124E961285
:104E93005A2022E50C126A26E50D22E0F50AA3E06A
:104EA300F50B22F0850A82850B83A3A32274F212E9
:104EB300037A8A088B09ECFEEDFF890A7900124F09
:104EC300447003A3E069700479018073750B01904A
:104ED3000368E065087004A3E06509601F750B00B3
:104EE300780B12084CA90AEEFCEFFDAA08AB0912D5
:104EF3000F80740112085BE9F50B80417900EEFA2B
:104F0300EFFB120D52EA4B602B8A828B83A3A3A380
:104F1300A3A3A3E05418601C7508FE7509FF780865
:104F23001208488A828B83A3A312066412683B1279
:104F3300085B80097901EEFAEFFB120C2CA90B80B8
:104F430014120D5E8A0C8B0DA80CA90D900368E05A
:104F5300682212085B7F0602059574F412037A75C2
:104F630008AF75090E7A101265438B0BEA450B7077
:104F73000312426C900353E014F0700C902823E466
:104F830093900353F0120D6A7E007F00806C8508B6
:104F930082850983A3A3A3A3E06059F46056E508BF
:104FA3002404F582E509125F0B704985088285099F
:104FB30083A3A3A3A3A3E0640370197902850882E2
:104FC300850983124795850882850983A3A3125116
:104FD3005D120CAA850882850983A3A3A3A3A3E07A
:104FE3006401601085088285098374FEF0A30412AE
:104FF30050B7E4F01235E812343A90281212669F43
:10500300408C7E007F008039120E728E088F0974E7
:105013000378081209F074272508FC74103509FD7C
:105023007AB67B0C120E60EA4B70DD8E088F097422
:105033000378081209F01250851268E6E4F012357D
:10504300E8902819E493F8C3EE98EF9400501B8E70
:10505300088F09740378081209F012508DE82407A9
:10506300F582E9125F0B70D680A17E007F00800A73
:10507300125098600214F01235E812669C40F10257
:105083003C1B12508D888289832274272508F8746B
:10509300103509F922EEF8EFF9E875F006A4F8AA3D
:1050A300F075F006E9A42AF974C728F582740F395C
:1050B300F583E0221250BEA3A3A322F085088285C4
:1050C3000983A3A32274F712037A74E11208EFECA5
:1050D300FEEDFF750800EE4F60728A828B83E02439
:1050E3001C125F3C124CE360638A828B8312515D16
:1050F300851882851983AC82AD83EA241BF582EB84
:10510300125E0DEA241CF582EB125159120EB4748F
:105113000B120AB11251617003A3E069702E74027D
:10512300120AB1E064017024741D120AB1123F52D5
:10513300E064017017741D120AB1123F54A3A3E077
:10514300F88E828F83E0687003750801A908741FC5
:105153000239D8124E963400F5831255FC22122DD3
:105163008FE0682274F412037AE9702479009003C3
:105173004D123F52121ECD8A0A8B0BAE0AAF0B742F
:10518300FE6E700374FF6F701A902820E49360130F
:10519300790190034D123F52121ECD8A0A8B0BAE3A
:1051A3000AAF0B120EF002375074F612037A74F33F
:1051B3001208EF12148A8A088B09AE08AF0990030C
:1051C30068E06E7003A3E06F60E9120ED8EA6E70B8
:1051D30002EB6F60DEEEFAEFFB120F44E970D4EEE0
:1051E3004F60D0851882851983E4F004120AB1EE6A
:1051F300F0A3EF12520FE970BA74FE6E700374FFDE
:105203006F60B0EEFAEFFB740D023A77123AFC12BC
:105213000B1E22C082C083120EF00239A37F0A0242
:10522300059574F212037AEAFEEBFF8C0A8D0B8963
:1052330008740E120AB1E0F50974FC6E700374FF72
:105243006F70057900024F587900120D5E8A0C8B3E
:105253000DAE0CAF0D900368E06E7003A3E06F70AA
:1052630006E509A2E650DCA90912672970617900F5
:105273007AFE7BFF12672970567418550970030272
:10528300535C780079008003122F89902812122F23
:1052930080400302535CE8FAE9FBEA75F007A4FADD
:1052A300ACF075F007EBA42CFB74B52AF582740EF1
:1052B3003BF583E0541870D0E875F007A4F8AAF022
:1052C30075F007E9A42AF974AF28F8740E39F98840
:1052D300828983A3A3A3A3A3A3E05418600974182A
:1052E3005509700302524688828983EEF0A3EFF0DA
:1052F30074FE650A700474FF650B6003125483889F
:10530300828983A3A3A3A3A3A3E509F0A2E0500D7D
:1053130088828983A3A3A3A3A3A3D2E2F074016524
:105323000888828983A3A3A3A3A3703874011254AA
:10533300A7E054186028902824E49388828983A3E3
:10534300A3A3A312547112102E8B0DEA450D600313
:10535300025246780079008039790202524890035C
:1053630067E080D7E0640170030252468882898334
:10537300A3A3A3A3A3A3E054186007902824E49352
:105383008004900366E0124419E508F002524612C5
:105393002F8990281AE493FAC3E89AE9940040030A
:1053A3000252467A007B00804BEAFCEBFDEC75F081
:1053B30007A4FCAEF075F007EDA42EFD74B12CF537
:1053C30082740E3DF583125A28E8FCE9FDEC75F072
:1053D30017A4FC85F00975F017EDA42509FD743FAA
:1053E3002CF582740D3DF583E06E7003A3E06F60CE
:1053F3009E1234BD90281212344A40AD1244A3ECDD
:105403006A7002ED6B7088E875F017A4F8AAF0755E
:10541300F017E9A42AF9743F28FE740D39FF7C17AD
:105423007D007900EEFAEFFB1214788E828F8312DF
:105433005489900375125463A3A3A3A3A3A3E8F011
:10544300A3E91254697401F0EE240E125A0C74018C
:10545300125491120229EE240D125A0CE802538EB3
:105463001239BBA3A322F0EE240F125A1D22F0120D
:10547300547AAA0AAB0B22900375E0FCA3E0FD2249
:1054830088828983A3A3E50AF0A3E50BF022F01237
:1054930054962290281DE4932401F8E43400F97A09
:1054A300027B0022124425A32274ED12037A8A0898
:1054B3008B09890E1255DA400579050255A8121792
:1054C3002AAA08AB091256AC9028101255AB650AEC
:1054D3007003E9650B70077AFE7BFF1256AC9028C8
:1054E30010E41255B3E50A98E50B9940030255A65B
:1054F3001255B76012E50A75F006A4F875F006E5D3
:105503000B12560212151AE50E6018E50A75F0061D
:10551300A4F8AAF075F006E50B12562E701A79015D
:105523000255A8E50A75F006A4F8AAF075F006E599
:105533000B12560FE4F0A3F0E50A75F006A4F8AADF
:10554300F075F006E50B1255CFA31258BB8882897C
:1055530083A3AA82AB8312561D8A828B83E0603FAA
:105563001255B7603A8E108F117512007810120819
:1055730044E50EC333FCE433FDE50A75F006A4F5F8
:105583000AA8F075F006E50BA428F50B74CB250AE1
:10559300F582740F350B12515B12345B12085B7981
:1055A300008002790702673F1230E2E8229004F597
:1055B3001260C622E50A75F006A4F8AAF075F00693
:1055C300E50B12560AF8A3E0F9E84922A42A125778
:1055D3006388828983A322ECFEEDFF90281BE4936A
:1055E300F8E9C39822F5831255FC12151A22E50C2B
:1055F300126A26E50D3400F583E0FAA3E0FB2212DC
:10560300560AFAA3E0FB2212560FE022A42AF974E9
:10561300CB28F582740F39F58322E50EF090117EC5
:1056230012562722E088828983F022125787F50CCD
:10563300E93400F50DE50EC333FAE433FB12151418
:10564300850C82850D83EAF0A3EBF0850C82850D32
:105653008312565822124451E8492274F412037AF1
:10566300ECFEEDFF740C120AB1123A658808890941
:105673001256ACAC0AAD0BECF8EDF99028101256AB
:10568300B45021E875F006A4F8AAF075F006E91203
:1056930055CFE08E828F831256C71256BD123A71D0
:1056A300790080027904023C1B120CE08A0A8B0BFE
:1056B30022123453C3EC9AED9B2212444D85088287
:1056C3008509832212579C2274F612037A7E007F87
:1056D300008028EEF8EFF9E875F006A4F8ACF07551
:1056E300F006E9A42CF974C928F582740F12634AF1
:1056F3006A7003A3E06B60571235E812669C40D3CF
:105703001266977002E96F704674FE6A700374FF45
:105713006B703C7E007F0080031235E812669C505C
:105723002E12509870F3EEF8EFF9E875F006A4F82E
:1057330012575912578E6017125775F8E912576DA1
:1057430088821255E8850882850983E4F0A3F0EE88
:10575300FAEFFB023A7A75F006E912576122A42A9E
:10576300F974C728F8740F39F9223400F9880889C5
:105773000922EEF8EFF9E875F006A4F875F006E9EA
:1057830012578722125761E8240422A3A374FE123E
:10579300579912565822F0A3041257A022F0888278
:1057A3008983A3A3A3A32274F612037AEA241DF523
:1057B30082EB1258A5F9604BEA241DF582EB1260C7
:1057C300DF2402FCA3E03400FD1255DE400302583F
:1057D30098780080298C828D83E0F508A3E0FFE5AB
:1057E300082400E43FF509E833FEE433FF740F2E89
:1057F300F58274103FF5831258BB12589B08E8C317
:105803009940D28A828B83A3A3A3A3A3A3A3A3A315
:10581300124795900368E06C7003A3E06D700F7CF2
:105823000F7D10122CF8125159120CD48067EA2400
:1058330011F582EB1260DF605CFC74FF2CF07508DD
:1058430001780812084C75080F75091078081208BA
:1058530048E9F508780812084CEA2412F582EB129D
:1058630060DFF508780812084CEA2415F582EB127C
:105873005A0F120664ECF9122CF81247928A828BA3
:1058830083A3A3A3A3A3A3A3A3A312515D120CEC0D
:10589300740712085B023A7AEC24020C0CED340014
:1058A300FD22125A201258ADE022E0F8A3E0F5835E
:1058B3008882A32288828983E508F0A3E509F02280
:1058C30074EA12037A74FD1208EF8A148B158C0E96
:1058D3008D0F890D7419120AB1125A28741B120AFA
:1058E300B1E0F511741C120AB1E0F50C741D120A33
:1058F300B1124E9E741F120AB1E0F5106008E50C58
:10590300C333240480027402C0E07401120AB1D0CC
:10591300E0125A398A088B09EA45097003025A04CE
:105923008A828B83A3A3E514F0A3E515126532E500
:105933000EF0A3E50FF0EA2413F582EB125A0FE5FC
:105943000DF0EA2414F582EB125A0FE511F0EA2464
:1059530017F582EB1260DF64017040120ED28A0EDB
:105963008B0FA80EA90F850882850983A3A3A3A380
:10597300E0687003A3E0696022EE4F6011E508243C
:105983001AF582E509125A0FEEF0A3EF800CE50831
:105993002417F582E509125A0FE4F0125A13125A2A
:1059A300288E828F837405F0A3E5107004E50C80C4
:1059B300487401250C125A327A008028850A8285A0
:1059C3000B83E0125A2E850A82850B83A3E08E8215
:1059D3008F83F0E50A2402F50AE50B3400F50BA3E7
:1059E3000EAF830AEAC3950C40D2120ED2EA125AC2
:1059F3002E120ED2EB8E828F83F0AA08AB09120B04
:105A0300A87403024AD4EE240CF582EF125A202222
:105A1300122D09125A2022EE240BF582EF3400F5E1
:105A23008322900334E0FEA3E0FF228E828F83F073
:105A3300A3AE82AF8322123AFC120F2C22C082C083
:105A430083E9C333FCE433FDEA2CFAEB3DFBEA24A0
:105A5300FEF582EB34FF12515B0239A374F2120399
:105A63007A89098A0A1255DA400479008040750858
:105A73000080020508E508C39509502AE508C333E9
:105A8300F8E433F9EE28F582EF39F583C082C08359
:105A9300120ED28A0C8B0DD083D082E0650C700479
:105AA300A3E0650D70CDE50A650870BE7901024F6C
:105AB3005874F012037A74F31208EF8A088B098C76
:105AC3000A8D0B890C750D00120F44E979006003F0
:105AD300025BB6AA08AB09120D5EA90C120D528A1D
:105AE3000E8B0FAE0EAF0FEE4F7003025BB48E82C0
:105AF3008F83A3A3A3A3A3A3E0A2E24003025BB407
:105B0300120ED2EA650A7003EB650B7011780D1261
:105B1300084CE4F50EF50F780E1208488044AA0AE3
:105B2300AB0B120B60E964017068851882851983D9
