:020000040000FA
:060000000209ED0201D52A
:03002B0002084E7A
:0300330002068240
:030043000207228F
:03004B00021AD6C0
:03005300020106A1
:03006B0002066822
:1000830002016A0101FF050301B90FB90FB90FB9E5
:100093000F750E6F0EB90F3321000000009521007C
:1000A3000000000C0000000C0001FFFF0400414CA5
:1000B300442057534E2D73797374656D000000000F
:1000C3000000010280402010102040800101010047
:1000D300A805000000F905E80364006400B8010204
:1000E3000200000002050207051E02051E0A03B8EE
:1000F3000B0201028816021F00E007965118000246
:10010300020612C0E074F21203EEA2AFE433FED291
:10011300AFE5A7FFE5A1F5085F541060061216A925
:1001230075A1EFE5085F540860081216AF75A1F7D3
:10013300802BEFA2E0C0D0E508A2E092F012093ACA
:10014300158182F05017906198E0F8900AD3E0C3CC
:1001530098A2D265D0335002E8F075A1FEEEA2E07A
:1001630092AF7F010204A5C0E074F21203EEA2AFC6
:10017300E433FED2AF9061A4E0F8759B00E591589B
:10018300540860087591F71216F7802AE5915854C0
:100193001060087591EF1216FD801BE8A2E0C0D035
:1001A300E591A2E092F012093A158182F05007E03E
:1001B300C2E0F01218419061A3E0F8E5E958540455
:1001C300600E12181775E9FB906193E0A2E640F206
:1001D300808BC0E074F21203EEA2AFE433FED2AF21
:1001E3009061A5E0F8E5BF585404600675BFFB12A3
:1001F3001859020160C3E498F8E499F912023980AE
:1002030026C3E49AFAE49BFBE920E7E9120239E406
:1002130098F8E499F922C3E498F8E499F9120239B9
:10022300E498F8E499F9C3E49AFAE49BFB22EB20FF
:10023300E7CFE920E7E0B90010BB0008E88AF084C3
:10024300F8AAF022E4FBC8FA22EB70227B10C83331
:10025300C8C933C9335007C39AC3DBF280069A5027
:10026300012ADBEAC833F4C8C933F4C9FA2275F0AA
:1002730008E4C833C8C933C933C99AC99B5004C9F0
:100283002AC93BD5F0ECFBC833F4C8E4C9FA220809
:100293000808EAC0E0EBC0E086F0E7A4FA18098694
:1002A300F0E7A42AFA180986F0E7A42AFA180986BF
:1002B300F0E7A42AFA1986F0E7A4FBE5F02AFA1975
:1002C3000886F0E7A42BFBE5F03AFA190886F0E775
:1002D300A42BFBE5F03AFA18180986F0E7A4C5F059
:1002E3002BFBE43AFA1908E7C5F0C6A426F6E5F0B5
:1002F3003BFBE43AFA1886F0E7A4F6E5F00826F6A5
:10030300E43B08F6E43A08F6D0E0FBD0E0FA22E456
:10031300CFC0E0E4CEC0E0E4CDC0E0E4CCC0E07503
:10032300F020C3E633F608E633F608E633F608E6CC
:1003330033F6181818EC33FCED33FDEE33FEEF33D0
:10034300FFC3EC9709ED9709EE9709EF9719191970
:10035300400FFFEC97FC09ED97FD09EE97FE191985
:1003630006D5F0BEECF709EDF709EEF709EFF7193B
:100373001919D0E0FCD0E0FDD0E0FED0E0FF22254B
:1003830018C582C0E0E51934FFC583C0E0E518C392
:10039300958224F810AF0885831985821880088513
:1003A3008319858218D2AFCEF0A3E520F0A3780895
:1003B300E608F0A3DEFAEFF0A3E58124FAF8E608F5
:1003C300F0A3E608F0A3E608F0A30808E608F0A304
:1003D300E608F0A315811581D0E0FED0E0F8158181
:1003E30015811581E8C0E0EEC0E022C0D02518C514
:1003F30082C0E0E51934FFC583C0E0E518C39582E8
:1004030024F310AF08858319858218800885831922
:10041300858218D2AFC8F0A3E9F0A3EAF0A3EBF00A
:10042300A37908E709F0A3D8FAECF0A3EDF0A3EE63
:10043300F0A3EFF0A3D0E0F0A3D0E0F0A3D0E0F07E
:10044300A3E520F0A3E5F0F0A322120A4FB90003BD
:1004530002048FE4900301782A790D8002F0A3D877
:10046300FCD9FA900F2AAA82AB839000867881790F
:10047300018015E493A3AC82AD838A828B83F0A3BE
:10048300AA82AB838C828D83D8E9D9E77582B37551
:1004930083EC74021207C67582CF75831A74001237
:1004A30007C6851983851882E0C0E0A3E0F9A3E0BD
:1004B300FAA3E0FBA37808E0F608A3DFFAE0FCA3C5
:1004C300E0FDA3E0FEA3E0FFA3E0C0E0A3E0C0E003
:1004D300A3E0F5D0A3E0F520A3E0A3F5F010AF0867
:1004E3008583198582188008858319858218D2AF80
:1004F300D082D083D0E0F8D0E032E8030875F01062
:100503008E1A8F1B85821F85831E8518828519830A
:10051300E0CEA3E0CF851F82851E83EBC9EAC8ED39
:10052300CBECCAC3E833C8E933C9EA33CAEB33CBEC
:10053300C3EA9EF51DEB9FF51CB35004AB1CAA1D2B
:10054300EC33CCED33CDD5F0DAAE1AAF1B22D0832A
:10055300D082ECC0E0EDC0E0E493A3FCE493A3FD00
:10056300ED4C600D120629EC24FFFCED34FFFD80F9
:10057300EFE493A3FCE493A3FDED4C600D1206F7A7
:10058300EC24FFFCED34FFFD80EFD0E0FDD0E0FC78
:10059300E493A3C0E0E493C0E02285198385188225
:1005A300E0A3FEE0A3F5207808E0A3F608DFFAE075
:1005B300A3FFE0A3C0E0E0A3C0E0E0A3C0E0E0A3AA
:1005C300C0E0E0A3C0E010AF0885821885831980DE
:1005D30008858218858319D2AFD083D0820207CCD5
:1005E300D083D082E9C0E0E493A3C386F0C5F0953D
:1005F300F0F908E493A386F0C5F095F0700BE4934B
:10060300A3C3994005E9048002A3E475F002A4257D
:1006130082F582E5F03583F583D0E0F9E493A3C056
:10062300E0E493C0E022C0E0C3E49396087401932E
:100633009618400FE4936670080874019366187067
:10064300007019A3A3C3E49396087401939618A3A7
:10065300A3400DD0E0D0E0D0E002058DA3A3A3A377
:10066300A3A3D0E022C0E074F21203EEE589A2E175
:100673005003121565758900C2C57F010204A5C028
:10068300E074F21203EEE58BA2E0500312156575D8
:100693008B00C2E880E47404800474028000CCC040
:1006A300E0EDC0E0E518C39CCCAD1950011D10AFBF
:1006B300068C188D1980068C188D19D2AF12076716
:1006C300D0E0FDD0E0FC2274028000CCC0E0EDC09D
:1006D300E0E518C39CCCAD1950011D10AF068C1872
:1006E3008D1980068C188D19D2AF120745D0E0FD05
:1006F300D0E0FC22C0E0C0F088F0E4936670080804
:1007030074019366187000A8F0A3A3700BD0F0D007
:10071300E0D0E0D0E002058DA3A3D0F0D0E022C06A
:10072300E074F21203EEA2AFE433FED2AFC2C0E52F
:10073300D1A2E45003121625EEA2E092AF7F01028C
:1007430004A5CAC0E0E493A3C582CCC582C583CD0A
:10075300C583F0A3C582CCC582C583CDC583DAE545
:10076300D0E0CA22CAC0E0E0A3C582CCC582C5835B
:10077300CDC583F0A3C582CCC582C583CDC583DA3D
:10078300E6D0E0CA22700908080822601618181873
:10079300C6C333C608C633C608C633C608C633C67F
:1007A300D5E0EA22C008C3E096F50808A3E0964224
:1007B3000808A3E096420808A3E09645087001D311
:1007C300D00822C09FF59FE473D09F22D083D082AC
:1007D300C09FE493C0E0740193C0E0740293F59F5B
:1007E300227404800A74038006740280027401C0B8
:1007F300E0F4041207FFD0E0120A2A222518F5823A
:1008030010AF08F518400215198008F518400215B5
:1008130019D2AF85198322BB0102E722C082C083AC
:1008230089828A83BB0003E08002E493D083D08271
:1008330022C0D0251810AF08F518500205198008FA
:10084300F51850020519D2AFD0D022C0E0C0D0E8CD
:10085300C0E0E5A8D2AFC2C7A2E792AFD0E0F8D01C
:10086300D0D0E0326016080808C6C313C618C613F2
:10087300C618C613C618C613C6D5E0EA22C3E0C617
:1008830096F608A3E0C696F608A3E0C696F608A374
:10089300E0C696F622251810AF08F5184002151980
:1008A3008008F51840021519D2AF22E066701008CF
:1008B300A3E066700A08A3E066700408A3E066225A
:1008C300C3E09608A3E09608A3E09608A3E096A2E7
:1008D300D265D03322E76670100809E766700A080C
:1008E30009E76670040809E76622C3E096F008A3E7
:1008F300E096F008A3E096F008A3E096F022E02645
:10090300F008A3E036F008A3E036F008A3E036F0E1
:1009130022E627F60809E637F60809E637F6080956
:10092300E637F622700422600D18C6C333C608C624
:1009330033C6D5E0F41822C0E0E8C0E0E58124FC2A
:10094300F8E6A2E7D0E0F8D0E022E657F60809E699
:1009530057F60809E657F60809E657F622E056F671
:1009630008A3E056F608A3E056F608A3E056F622DD
:10097300E056F008A3E056F008A3E056F008A3E021
:1009830056F022E647F60809E647F60809E647F671
:100993000809E647F622E026F608A3E036F608A3A0
:1009A300E036F608A3E036F622E4C396F608E496AA
:1009B300F608E496F608E496F622C6F4C608C6F4EA
:1009C300C608C6F4C608C6F4C622C3E7960809E7F4
:1009D300960809E7960809E79622C3E09608A3E07C
:1009E3009608A3E09608A3E0962275D0007581408F
:1009F3007518017519030002044DE0F608A3E0F62B
:100A030008A3E0F608A3E0F622600C08C6C313C6E9
:100A130018C613C6D5E0F422E6F008A3E6F008A34F
:100A2300E6F008A3E6F022CAC0E0E6F0A308DAFA8B
:100A3300D0E0FA22E0FAA3E0FBA3E0FCA3E0FD226E
:100A4300EAF0A3EBF0A3ECF0A3EDF022E5C754F832
:100A53004401F5C77901222518F582E43519F58398
:100A630022C2AF75D69F020000221207CFBBAF018F
:100A73001207CF03B0011207CF72B0011207CFC123
:100A8300B2011207CF14B4011207CFB7B401120792
:100A9300CFEFB5011207CF0DB6011207CF4B5B00A5
:100AA3001207CF5D5B001207CFAF5B001207CF10B9
:100AB3005C001207CF9A5C001207CF3E5D0012075D
:100AC300CF925D001207CFAB5D001207CFD15D005F
:100AD3001207CF0C5E001207CF505E001207CF77CC
:100AE3005E001207CFC85E001207CF785F001207BF
:100AF300CF3060001207CFF860001207CFD5610036
:100B03001207CF5B62001207CF6A62001207CF752C
:100B130062001207CF7E63001207CF8F63001207B4
:100B2300CF0564001207CF9764001207CFEF64006C
:100B33001207CFB565001207CFE665001207CF2B6A
:100B430066001207CF3866001207CFCC6700120782
:100B5300CF2F69001207CF4B6A001207CFB56C0085
:100B63001207CFC06C001207CFCA6C001207CFD593
:100B73006C001207CFDF6C001207CFE96C0012077D
:100B8300CFF46C001207CFFF6C001207CF306D005B
:100B93001207CF546D001207CF786D001207CFDD17
:100BA3006D001207CF216E001207CF3D6E001207B2
:100BB300CFB46E001207CFEC6E001207CF386F0070
:100BC3001207CF956F001207CF7771001207CFFD81
:100BD30071001207CFCE72001207CFDE7500120725
:100BE300CF3376001207CF5F76001207CFAB7700C3
:100BF3001207CFFB77001207CF5078001207CF51AF
:100C030079001207CFE979001207CF6B7A00120738
:100C1300CF0B7B001207CF9623001207CFCF230001
:100C23001207CFA925001207CFE825001207CF32FC
:100C330026001207CFD726001207CF362700120748
:100C4300CF6A27001207CFD727001207CFF4280057
:100C53001207CFFC29001207CF922A001207CFD91F
:100C63002D001207CF822E001207CF5E2F0012072E
:100C7300CFBF2F001207CFDC30001207CF0633009F
:100C83001207CFBD33001207CFC733001207CFFAC5
:100C930033001207CFC134001207CF5C35001207AF
:100CA300CFC135001207CFEA35001207CF0C36004B
:100CB3001207CF3B38001207CF1239001207CF5665
:100CC30039001207CFC339001207CF7E3A0012074B
:100CD300CFB03A001207CFF43A001207CF273B00F8
:100CE3001207CF7C3B001207CFD13B001207CF6521
:100CF3003C001207CFC73C001207CF2F3D0012075D
:100D0300CFD83E001207CFC03F001207CF024100E9
:100D13001207CF3043001207CFF043001207CF1F53
:100D230046001207CFC246001207CF004700120742
:100D3300CFAC48001207CFC048001207CFCA480003
:100D43001207CFF448001207CF0049001207CF1F44
:100D530049001207CFD649001207CF154A001207E0
:100D6300CF1F4A001207CFD34A001207CFD24B003E
:100D73001207CFCB4C001207CF684D001207CF0AE2
:100D83004E001207CF214E001207CF584E00120714
:100D9300CF764E001207CFBA4E001207CFDF4E00B8
:100DA3001207CFC54F001207CF3150001207CFAB48
:100DB30050001207CFBA51001207CFF952001207A1
:100DC300CF5B53001207CF1554001207CF385400DE
:100DD3001207CF0C55001207CF5755001207CF99B2
:100DE30055001207CFF055001207CF275600120700
:100DF300CF5556001207CF8E56001207CFB35600B9
:100E03001207CF3B57001207CF5E59001207CFBD21
:100E130059001207CF515A001207CFBD5A001207CB
:100E2300CF115B001207CF9F8D031207CFDE8D0317
:100E33001207CF52B7011207CFACB7011207CF0881
:100E4300B8011207CF54B8011207CF6FB8011207C8
:100E5300CFA0B8011207CFBDB8011207CFC9B8019F
:100E63001207CF3DBA011207CF56BA011207CFBD01
:100E7300BA011207CFD0BA011207CFDEBA011207A7
:100E8300CF92BB011207CF76BC011207CF7CBD0105
:100E93001207CF02BE011207CF0CBE011207CF7992
:100EA300BE011207CF90BE011207CFC2BE011207C7
:100EB300CFFBBE011207CF25BF011207CF86BF01AB
:100EC3001207CFA6BF011207CFC4BF011207CF0A73
:100ED300C0011207CF30C1011207CF7DC101120734
:100EE300CFACC1011207CF22C2011207CF4AC20100
:100EF3001207CF83C2011207CF91C2011207CFE9B4
:100F0300C2011207CF38C3011207CF77C3011207FB
:100F1300CFA7C3011207CFD3C3011207CFDEC3018B
:100F23001207CFFCC3011207CFBEC4011207CFC8FB
:100F3300C4011207CF03C5011207CF19C501120758
:100F4300CF22C5011207CF77C5011207CF8BC50189
:100F53001207CF99C6011207CFACC6011207CFC142
:100F6300C6011207CF63C7011207CFE6C7011207F5
:100F7300CFA4C8011207CFAFC8011207CFD5C9014B
:100F83001207CFF1C9011207CF43CA011207CF825B
:100F9300CA011207CF97CA011207CFD9CA01120794
:100FA300CF26CD011207CFA4CD011207CF17CE0153
:100FB3001207CF39D0011207CF51D0011207CF54F6
:100FC300D0011207CF60D0011207CF74D0011207EE
:100FD300CF7CD0011207CFAFD0011207CF5FD10171
:100FE3001207CFD5D1011207CF48D2011207CFFC88
:100FF300D2011207CFB1D3011207CFD0D301120709
:10100300CF70D4011207CF7CD4011207CFA7D4012C
:101013001207CFAAD4011207CF14D5011207CF3C70
:10102300D6011207CF14D7011207CF9FD70112079A
:10103300CFB8D8011207CF75D9011207CFAED901A6
:101043001207CFDFD9011207CF7FDA011207CFAF23
:10105300DA011207CF8ADB011207CF23DC01120763
:10106300CFAEDC011207CF5FDD011207CFE1DD0157
:101073001207CF13DE011207CF54DE011207CF048C
:10108300A5021207CF69A5021207CFA6A502120770
:10109300CFF5A5021207CF0BA8021207CFEEA902C4
:1010A3001207CF58AD021207CF93AD021207CFB587
:1010B300AD021207CF18AE021207CF4CAE021207D1
:1010C300CF6FAE021207CF9CAE021207CFF8AE026B
:1010D3001207CF7F8E021207CFFD8E021207CF3386
:1010E3008F021207CF9F8F021207CF1291021207AE
:1010F300CF2E91021207CF7391021207CF019202F2
:101103001207CF5A92021207CF8793021207CF9981
:1011130094021207CFF694021207CF6295021207C8
:10112300CFC395021207CF0496021207CFB19602DE
:101133001207CFC397021207CFEE97021207CF39D8
:1011430098021207CF8098021207CF129902120752
:10115300CFCD99021207CFF7C1021207CF01C20206
:101163001207CF4DC2021207CFBBC2021207CFDC58
:10117300C2021207CF8CC3021207CF20C602120786
:10118300CF29C6021207CF7CC6021207CFA5C6021B
:101193001207CF0CC7021207CF9DC7021207CFDF7A
:1011A300C7021207CF29C8021207CF88C802120745
:1011B300CF19C9021207CF58C9021207CF97C90224
:1011C3001207CFCCC9021207CFDEC9021207CFF034
:1011D300C9021207CF0FCA021207CF18CA02120799
:1011E300CFE0CA021207CF29FF021207CFF7FC0292
:1011F3001207CF2DFD021207CFD3A2011207CFC6CC
:10120300FE021207CF89DE011207CFC8DF011207E2
:10121300CF04E0011207CFC3E1011207CFECE101D4
:101223001207CF7FE4011207CFC3E4011207CF4CAB
:10123300E6011207CFE4E6011207CF4CE7011207DC
:10124300CFEDE7011207CF2FE8011207CF6FE801B7
:101253001207CF1EAF011207CF6AEB011207CF8F20
:10126300ED011207CFBDED011207CFE4ED01120727
:10127300CFEDED011207CF74EE011207CF92F1010A
:101283001207CFE87F001207CFE88D031207CF4E76
:10129300E9021207CF61E9021207CFFEE902120742
:1012A300CF39EA021207CF54EA021207CF79EA02D2
:1012B3001207CFBEEA021207CFEFEA021207CF20CE
:1012C300EB021207CFA6EC021207CF8086031207A8
:1012D300CFB686031207CFD286031207CF14870334
:1012E3001207CF2487031207CFB987031207CFC38F
:1012F30087031207CF44AF021207CF1EB1021207B2
:10130300CF30B3021207CF52B5021207CF38B6025D
:101313001207CFEAB7021207CF04B8021207CF3180
:10132300B8021207CF4CB8021207CF60B8021207F7
:10133300CF8EB8021207CF9AB8021207CF008002ED
:101343001207CF5580021207CFFF80021207CFA7E3
:1013530081021207CF0482021207CF1882021207FA
:10136300CFE283021207CF5D84021207CF87840284
:101373001207CF2486021207CF3F86021207CF8EB1
:1013830086021207CFA486021207CFB18602120784
:10139300CFE586021207CFFB86021207CF868702AC
:1013A3001207CFE087021207CF2E88021207CF3829
:1013B30089021207CFBA8B021207CF548C0212078D
:1013C300CF968C021207CF2B8D021207CF488D02C6
:1013D3001207CF4B8D021207CF4E8D021207CFC1DA
:1013E3008D021207CFDC8D021207CF088E0212077F
:1013F300CF438E021207CF468E021207CFCB8C0348
:101403001207CFD78C031207CF118D031207CF1307
:10141300F2011207CF3EF2011207CF0AF3011207BE
:10142300CF8FF3011207CFF8F3011207CF44F40172
:101433001207CFC3F4011207CF55F5011207CFE10D
:10144300F5011207CF23F6011207CF8FFA01120716
:10145300CF0FFC011207CF66FD011207CFF2FD018A
:101463001207CF449A021207CFFE9A021207CF70D7
:101473009B021207CF0C9C021207CF7C9C0212071F
:10148300CFB09D021207CF8C9E021207CFFD9E02A2
:101493001207CF7AA0021207CF3CA1021207CF5343
:1014A300A2021207CFF2A2021207CFAFA3021207C2
:1014B300CF03F3021207CF57F3021207CFAFF302A2
:1014C3001207CFFAF3021207CF5CF4021207CFF52B
:1014D300F4021207CF5DF5021207CF69F502120776
:1014E300CF0080031207CF3180031207CFEB8003B5
:1014F3001207CF5181031207CF35ED021207CFC177
:10150300EE021207CFD58E031207CFE68E03120722
:10151300CFDA81031207CFE881031207CF688F0365
:101523001207CF358C031207CF458C031207CF6008
:101533008C031207CFC18C031207CF338B0312071F
:10154300CFB88B031207CF1C8C031207CF218A035A
:101553001207CF438A031207CFAD8A031207CFB80E
:101563008A031207CFFC8A031207CF09CB021207A3
:10157300CF17CB021207CF58CB021207CF79CB027A
:101583001207CF03CC021207CF25CC021207CF914B
:10159300CC021207CFACCC021207CFC7CC02120782
:1015A300CFD1CC021207CFDBCC021207CFEECC0295
:1015B3001207CF07CD021207CFA3CD021207CF5FC9
:1015C300CE021207CFD6CE021207CF50CF02120798
:1015D300CF9CCF021207CF42D0021207CF1ED102F7
:1015E3001207CFBE7B001207CFCC7B001207CF467A
:1015F3007C001207CF2A7D001207CFE37E0012077B
:10160300CF288F031207CFC8D2021207CF34D302D9
:101613001207CFF3D3021207CFFDD4021207CF561E
:10162300D6021207CFB1D6021207CF06D70212078E
:10163300CF0FD7021207CF21D7021207CF8BD702C2
:101643001207CF9FD7021207CFA9D7021207CFFEE7
:10165300D7021207CFFAD9021207CF2CDA021207E8
:10166300CF4EDA021207CF67DA021207CF80DA020F
:101673001207CF8ADB021207CF25DC021207CF1F26
:1016830085031207CF4385031207CF5C8503120737
:10169300CF8F85031207CFC085031207CFEE8503D3
:1016A3001207CF5086031207CF5F86031207CF6955
:1016B30086031207CF7686031207CFA4F50212071B
:1016C300CFCAF5021207CF07F6021207CF16F602AA
:1016D3001207CF35F6021207CF9DF6021207CFA6E7
:1016E300F6021207CF05F7021207CF29F7021207F6
:1016F300CFE8F7021207CFF5F7021207CF06F80279
:101703001207CFC4FF011207CFE1FF011207CF9CDD
:10171300DC021207CFFADD021207CF07DE0212073F
:10172300CF1ADE021207CF39DE021207CF4FDE02D5
:101733001207CF63DE021207CFD8DE021207CF3DB6
:10174300DF021207CFEDDF021207CFC2E00212075A
:10175300CFD2E0021207CFE1E0021207CF4F7F00A2
:101763001207CF737F001207CF9B7F001207CFC3EF
:101773007F001207CF34F8021207CF5BF80212077B
:10178300CF7CF8021207CFE1F8021207CF9AFA02D0
:101793001207CFB3FA021207CFBFFA021207CFD351
:1017A300FA021207CFF1FA021207CFFBFA0212076D
:1017B300CF05FB021207CF18FB021207CF6BFB0208
:1017C3001207CFA4FB021207CFD3FB021207CF21CC
:1017D300FC021207CF70FC021207CF8BFC02120728
:1017E300CF95FC021207CFA6FC021207CFECFC0236
:1017F3001207CF4E8D031207CFBBB8021207CFE5F6
:10180300B8021207CF01B9021207CF14B9021207A7
:10181300CF2AB9021207CF87B9021207CFBAB9028A
:101823001207CFF6BD021207CF1CBF021207CF4F1C
:10183300BF021207CF9BBF021207CFC7C002120716
:10184300CFEFC0021207CF04C1021207CF14C102A7
:101853001207CF58C1021207CFB9C1021207CFC96D
:10186300C1021207CFDB87031207CFF687031207E4
:10187300CF1F88031207CF3988031207CF5E88036F
:101883001207CF7D88031207CF9588031207CFC3B2
:1018930088031207CFDD88031207CF2E8E031207AA
:1018A300CFCEE5021207CFD5E5021207CFE1E6025C
:1018B3001207CF11E7021207CF37E7021207CF5AF9
:1018C300E7021207CF7CE7021207CFB6E70212073F
:1018D300CF1CE8021207CF55E8021207CFA1E80296
:1018E3001207CFCEE8021207CFEEE8021207CF921B
:1018F30083031207CFA483031207CF8F8403120736
:10190300CF1C85031207CF0E89031207CF808903EB
:101913001207CFBE89031207CFFF89031207CFE354
:10192300EF021207CFFFEF021207CF4EF0021207AA
:10193300CF6AF0021207CF9BF0021207CFABF0027F
:101943001207CF97F1021207CFA1F1021207CFAE10
:10195300F1021207CFBEF2021207CFD2F202120730
:10196300CFDBF2021207CF1AE1021207CF5FE502C3
:101973001207CF64E5021207CFA88E031207CF72B6
:101983008E031207CF008F031207CF4A8F0312076C
:10199300CF67A2011207CF3EA2011207CF31A001E8
:1019A3001207CFFD9F011207CFCA9F011207CFAEC7
:1019B3009F011207CFD49E011207CF8C9E011207FD
:1019C300CFC19C011207CF419C011207CF3E9C015E
:1019D3001207CF499B011207CF179B011207CF5460
:1019E3009A011207CF7F98011207CF1098011207AF
:1019F300CFE297011207CFDF97011207CFCC9701F0
:101A03001207CF6497011207CF5397011207CF3400
:101A130096011207CF11AF011207CF1FAC011207B6
:101A2300CF71A9011207CF45A8011207CF99A701CA
:101A33001207CFFE95011207CFC195011207CF629E
:101A430095011207CFEAA5011207CF3195011207BD
:101A5300CFEC91011207CFDD90011207CF6C9001FB
:101A63001207CFA5A3011207CFFAE9011207CF315D
:101A730090011207CFFC8F011207CFF08F011207DD
:101A8300CF508F011207CF978E011207CF6A8C01B7
:101A93001207CFF689011207CFB489011207CF7F4E
:101AA30088011207CF3488011207CF668701120716
:101AB300CFBD86011207CF5986011207CF93860146
:101AC3001207CF2CA3011207CF76FD02000000807E
:101AD300FBE473320000000000000000000000007F
:101AE3000000000010101010101000003030000033
:101AF3000014285000000000000000000000000057
:101B0300002828FC284850FC5050000000001038E2
:101B13005454301814545438100000000044A8A83A
:101B2300B0541A2A2A44000000000020505060AC30
:101B3300A898927C000000606020C00000000000B4
:101B4300000000000004080810101010101008080E
:101B5300040000004020100804081020400000008A
:101B63000000001010D63838D61010000000000016
:101B730000101010FE101010000000000000000004
:101B8300000000000000606020C0000000000000B2
:101B9300FC00000000000000000000000000000046
:101BA3000000606000000002040404080810102014
:101BB300202040000000003048848484848448301E
:101BC300000000000010701010101010107C0000B6
:101BD30000000038444404081020447C0000000046
:101BE3000038444418040444443800000000080842
:101BF30018284848887C081C00000000007C4040EE
:101C030078440444443800000000003C4480B8C4D5
:101C13008484847800000000007C4448081010107D
:101C2300101000000000007884844878848484784D
:101C33000000000000788484848C740488F0000021
:101C430000000000003030000000303000000000D1
:101C53000000000010000000001010200000040825
:101C6300102040201008040000000000000000FCC9
:101C73000000FC00000000000000402010080408E1
:101C830010204000000000007884848408101000B5
:101C93003030000000000038449AAAAAAAB4423C9B
:101CA30000000000001010282828384444EE0000EB
:101CB300000000F844447844444444F80000000021
:101CC300003C44848080808044380000000000F0A1
:101CD30048444444444448F00000000000FC4440AD
:101CE3004878484044FC0000000000FC424048782B
:101CF300484040E000000000003C448480808E8423
:101D030044380000000000EE4444447C444444EE64
:101D130000000000007C101010101010107C000058
:101D23000000007C101010101010101090E0000044
:101D330000EE44485070484844EE0000000000E0C4
:101D430040404040404044FC0000000000EE6C6C0A
:101D53006C54545454D60000000000EE6464545490
:101D6300544C4CE400000000003048848484848494
:101D730048300000000000F844444478404040E00C
:101D83000000000000304884848484B448380C0088
:101D9300000000F844447850484844E6000000003E
:101DA300003C44402018040444780000000000FE76
:101DB30092101010101010380000000000EE444480
:101DC3004444444444380000000000EE44442828BE
:101DD300282810100000000000D6545454546C28D6
:101DE30028280000000000EE44282810282844EE8C
:101DF3000000000000EE44282810101010380000E6
:101E03000000007C88081020204044FC0000001CD7
:101E1300101010101010101010101C000070101073
:101E2300101010101010101070000070101010100F
:101E33001010101010107000001028000000000097
:101E4300000000000000000000000000000000008F
:101E5300000000FE00606020C000000000000000E1
:101E6300000000000000000038441C24443E000031
:101E7300000000C04040784444444478000000001F
:101E8300000000003C444040443800000000000CC7
:101E930004043C444444443E0000000000000000AD
:101EA30038447C40443800000000001C2420F82003
:101EB3002020207800000000000000003C4848304B
:101EC30040784438000000C040405864444444EE25
:101ED300000000000010000070101010107C0000C3
:101EE300000000080000380808080808087000000F
:101EF30000C040405C48507048EC00000000007097
:101F0300101010101010107C0000000000000000E2
:101F1300F854545454D60000000000000000D86464
:101F2300444444EE000000000000000038444444F0
:101F330044380000000000000000F84444444478A2
:101F430040E00000000000003C444444443C040ED4
:101F5300000000000000EC30202020F8000000000A
:101F6300000000003C4430084478000000000000FA
:101F730010107C101010100C000000000000000076
:101F8300CC444444443E0000000000000000EE4402
:101F9300282828100000000000000000D6545454E4
:101FA30028280000000000000000DC48303048EC26
:101FB3000000000000000000EE442828101020E07C
:101FC3000000000000007C481010247C000010106A
:101FD30010101010101010101010101000013636D1
:101FE30001010001020100010301000104010606D1
:101FF30005020000070100340801000F0904010174
:102003000D0100FF0E08000017020000190100FF78
:102013001A0100011B0100FE1C0100081D02000043
:102023001F01000120010001210200002301000F14
:10203300240200002601000127010008280200FFF6
:102043002A0100072B0102402C0100002D01000191
:102053002E0100012F0100FF30010B1C310800008D
:102063003A0100083B01000F2F010000010171013B
:10207300010101011101010131010101010180018E
:10208300100161013B0014006301730172016201DD
:1020930043010001130106013D0135000401120152
:1020A30000010001000100010401040133013301B7
:1020B3003C014401320136000001000165010001C9
:1020C3003500810100010501820183010001030242
:1020D3007102300160021102700201020202020267
:1020E3008002100261023A0041006302730272022D
:1020F30062024302000213023800000200020402DB
:10210300120200020002000200020402040237006D
:1021130037003C024402000239000002000265025B
:1021230000023502810200020502820283020002DC
:1021330003007100300160001100700031022003C0
:10214300500480001000610000001400630073005D
:10215300720062004300000013000600000000004C
:10216300040012000000000000000000040004004E
:10217300370037003C02440000000000000000006C
:1021830065000000350081000000050000008300A9
:1021930000000103710301030103010301030103B0
:1021A30022030203010310030003000300030003DF
:1021B3000003000300034203000324030603000398
:1021C300000304031203250323032503230304034A
:1021D3000403000300030003440300030003230379
:1021E3000003650321003503810300030503000396
:1021F30000030003C9EEDBDACAD0B0B2C1AAB5C28C
:10220300BFC6BCBCD3C3BBA7B5C7C2BCD5CABAC5BE
:10221300C3DCC2EBC8B7B6A8C8A1CFFBD7A8D2B559
:10222300D7A8D7A2CEDECFDFCDA8D1B6B3CFD0C546
:10223300C1A2D7E3B4B4D0C2D6C2D4B6C7BFB4F335
:10224300D4ADA3BA0036000100060000000F000061
:10225300000000000000000000000003FFFF00007A
:102263000403FFFF0000FFFF0FF4010005C4040394
:1022730020000100000B000000000000000003012B
:102283000F01007B140200271403002D14040033F4
:10229300140500391406004514FFFF000003EAF596
:1022A300E5D5D5C5B5A595958585757565655555EB
:1022B300454535352525151505CF0EFF0ED50EDB06
:1022C3000EF90EED0EE70E050F0B0F110F1D0FE1AB
:1022D3000EC90EC30E0A9B0C02650C05770C076B27
:1022E3000C0C470C0D590CFF000000160F00000BDF
:1022F300150B020002220F32000006B90FCB0FD1DB
:102303000F990ED70F930E9F0E191037103D101F04
:10231300102B10251000011916181616152303008B
:102323000C0E020B040B0A0708000F000349484276
:102333004D181725050200383C3E363B3B352B43F1
:102343002C303016181920231A1C1E303030171861
:102353001921301B1D1F300D10DD0FE30FEF0FE9A7
:102363000FF30E170F3110230F290F02040201017F
:102373000101090200000000000000BE040A04007D
:1023830015000E0028000C0C0A030908FF1E1E0F7F
:1023930004040574F7120382E99003B0F090036517
:1023A300E4F01218EF9003B5E4F0A3F09003B1F05A
:1023B300A3F0120DD31218F5900334E4F0A3F090B8
:1023C300239293FA790212195502502C74F21203D4
:1023D30082EAFEEBFF548060699003B0E0F91211CA
:1023E300938A088B09EA4509604F7C0080010CEC55
:1023F30075F003A4F8A9F074D828F582742239F58E
:1024030083E493F4602CE493F88508828B83E0687B
:1024130070DCAA08EC75F003A4F874D928F582746B
:102423002239F583E493C0E0740193F583D08212DB
:102433001AD4AA08AB09121187EEFAEF6480FB02E3
:10244300259CEF5420601D120CF58A088B09EA4580
:1024530009600A120C59AA08AB09121187EEFAEFA8
:10246300642080DAEEA2E0501A90036AE0640F70F1
:102473000B7900120C23E9600312259FEE6401FA25
:10248300EF80BB5420700302256A750C00123A7169
:102493008B09EA450970107C027D007A207B00904D
:1024A30003B0E0F91212AD7C0079047A007B0012CC
:1024B3000CD18A088B098018850882850983A3A318
:1024C300A3A3A3A3A3A3A37401F0850A08850B09FF
:1024D300E5084509606D7C007904AA08AB09120C74
:1024E300D18A0A8B0B750C01E5082404F8E509125F
:1024F300381524FFF0A3E034FF125B0870CC850885
:1025030082850983A3A3A3A3A3A3A3A3A3A3E06493
:102513000170A5850882850983A3A3A3A3A3A3E0D0
:1025230054047094850882850983A3A3A3A3A3A35A
:10253300A3A3A37406F07AB78508828509831226BC
:10254300CB8087120CA17C0079017A007B00120CEE
:10255300D18B09EA45097009E50C70057A20124907
:10256300CBEE6420022482EF5402600B120DCDEEF9
:10257300FAEF6402022441EF54046019124B621211
:102583004A827901900363124DE6120B69EEFAEF6A
:1025930064040224417A007B000227D2900F7E124A
:1025A3002E69120C3B22C082C08374EA12089885FC
:1025B3001882851983AA82AB83794B12192B74086D
:1025C300120A5A7402F07409120A5AAA82AB837966
:1025D3005012192B7413120A5AE4124FB5121949E7
:1025E3007416023F8F74F712038274E1120898EA9B
:1025F300FEEBFFEE4F6033851882851983AC82AD05
:1026030083120D197406120A5AE0601E7417120A17
:102613005AE0FD7401120A5AE0FCEEFAEFFB79006E
:10262300120A91E9600479A48002790002502774A8
:10263300F6120382EAFEEBFF8E828F83A3A3A3A38A
:10264300A3A3E05440601B1254A412279960067A96
:10265300FF7BFF801A8E828F83123C1BFAA3E0FB61
:102663008003120D3D74FE6A700374FF6B604112A8
:1026730054A4124A0F120D91E98E828F83600612C1
:1026830026C4E480051226C47401F07C297D0C8ED7
:10269300828F83124DE612194FE9F5087015EE4F3C
:1026A30060097901EEFAEFFB120CADA908024A406A
:1026B3007508CDAA088E828F831226CBE960DF804E
:1026C300EAE0240D1240EA22E0240C1240EAE0F989
:1026D300120C352274F6120382E9FEEAFF7A0F7BAD
:1026E30000121181EA4B60198A828B83740CF0EE1D
:1026F300A3A3F0EF8A828B83A3F0124A6B79008045
:102703002FEEF9120CD78A088B09A808A909E84902
:10271300601C88828983A3A3A3A3A3A3A3A3A374F5
:102723000612572FE0F9120BEDEEF9120CB37910E4
:10273300024A40C082C08390036AE0640F7014EAC7
:102743004B6010900365E064086005E06404700367
:10275300122759023FB9EAFCEBFD7A017B00900393
:10276300B0E0F91212A722C082C0837900EA241DC7
:10277300F582EB123C1824FD600B14600824FD6005
:102783000424FD700109023FB98E828F83A3A3A3A2
:10279300A3A3A3A3A3A312279D22123C60FB120DA4
:1027A30091E9228E828F83A3A3A3A3A3A3A3A3A3AD
:1027B30012279D6402228E828F83A3A3A3A3A3A3C4
:1027C300A3A3A3123FB0900356E068221208347FFC
:1027D3000602059D74F412038274FD1208988A0898
:1027E3008B098A828B83A3A3E0F9120CD78A0A8B05
:1027F3000BAE0AAF0BEE4F70030228DE850882850D
:102803000983A3E064F16030850882850983A3E02E
:1028130064CD6024850882850983A3E0641A601867
:10282300850882850983A3E064E9600C85088285B5
:102833000983A3E064E170087900120CADE9706CC0
:10284300850882850983A3E0C0E07402120A5AD086
:10285300E0123F94EEF0A3EF1232BF851882851980
:1028630083AA82AB837005120B518003120D797416
:1028730002120A5AE064E970338E828F831228EAC7
:10288300750A01780A1207F0750AE9780A1207F047
:10289300E508240CF582E509122DB112329CFCA344
:1028A300E0FD8A828B831232B61208348E828F83C4
:1028B300A3A3A3A3A3A3A3A3A3E0640270108E8284
:1028C3008F83A3A3A3A3A3A3A3A3A37406F0850841
:1028D30082850983A3A3E0F9120CB3120CA1900F14
:1028E300821225A2022E6EE0F8A3E0F9E8FAE9FBD2
:1028F3002274F4120382EAFEEBFF7508008E828FC6
:1029030083A3A3A3A3A3E060427508088E828F83E9
:10291300A3A3A3A3A3A3A3A3123EC38B0BEA450BB9
:10292300601075082C8E828F83A3A3A3A3A3E0D288
:10293300E0F08E828F83A3A3A3A3A3E054036401D7
:1029430060030229DD4308110229DDEE2418122E4B
:102953007B6033EE241A122E7B700F1227B970039B
:10296300A3E06970757508228070EE241BF582EF71
:102973001229E2241AF582EF1232C7EE24191254F7
:10298300D8120BDB80541227A67003750801122797
:10299300B97003A3E0697006E508D2E1F508E5081C
:1029A30060158E828F83A3A3E07006E508D2E580CD
:1029B30004E508D2E6F50812278C64017006E508E1
:1029C300D2E0F5088E828F83A3A3E0600D1229F075
:1029D30064016006E508C2E0F508A908022E731237
:1029E3003C061229E922E0FCA3E0FDEE22123C00A2
:1029F300123C38F9120D7FE922C082C08379018A23
:102A0300828B83A3A3E0C394024001198A828B8340
:102A1300A3A3A3A3E0C39402400279008A828B8319
:102A2300A3A3A3A3A3A3A3A3A3E064F87003A3E0B6
:102A3300F460458A828B83A3A3A3A3A3A3A3A3A325
:102A4300E064F97003A3E0F4602E8A828B83A3A36E
:102A5300A3A3A3A3A3A3A3E064FA7003A3E0F46076
:102A6300178A828B83A3A3A3A3A3A3A3A3A3E06433
:102A7300FB7003A3E0F4700279008A828B83A3A323
:102A8300A3E0F8900353E06860027900023FB97451
:102A9300F012038274DE120898EAFEEBFF8E828F37
:102AA30083A3A3A3A3E0600E900F80124A376006AE
:102AB300900F801225A27403120A5AAC82AD838E42
:102AC300828F83A3A3A3124AB91252F2E9600F744F
:102AD30003120A5AAA82AB83120C53E970087901D4
:102AE300121901022DA6EE241B123C0B7410120ABC
:102AF3005A124A827409120A5AE06021741A120A9D
:102B03005AE0FD7404120A5AE0FC8E828F83124D40
:102B1300E47901120A91E96004790280C374031213
:102B23000A5AAA82AB83120C4DE9F50A7409120AF8
:102B33005AE0702A90034DE060247422550A6422FF
:102B4300601C7442550A644270CF7420120A5A12F0
:102B53002DC4600A7420120A5A122DBD70BBE9A25B
:102B6300E650417403120A5AAA82AB83120C41E95C
:102B73007003022AE17420120A5A123C1B64037088
:102B83000F7420120A5AA3124A29A3E0640D601499
:102B93007403120A5AAA82AB83120DA3E96401706B
:102BA30003022DA6EE242C122DAE1230D27003A3F5
:102BB300E069701C75080078081207F0780812079E
:102BC300F0EE242E1254D8122DCA1232B612083443
:102BD3007409120A5AE07003022C83122DCA124D93
:102BE300E6120DF78A088B09EA45097003022D20C6
:102BF3007404120A5AE0F88E828F83A3A3E028F8A4
:102C0300A3E03400F9E8240D122DB58A828B83A347
:102C1300A3A3E068601CE88A828B83A3A3A3F0903C
:102C2300862A120A37850882850983A3A3A3A312E0
:102C33000A437904E9120A5A1252CF2AF8A3E0345C
:102C4300008882F583A3AA82AB8312116F8A0C8B4F
:102C53000D8C0E8D0F850882850983A3A3A3A3780A
:102C63000C1207A74003022DA6908642780C120986
:102C730099850882850983A3A3A3A3780C120A1B51
:102C8300900365E064046008E064096003022DA614
:102C9300E50AA2E54003022D5EEE242E122E7B856B
:102CA3001882851983F0EE242F122E7BC0E0740165
:102CB300120A5AD0E0F0EE2430122E7BC0E07402E8
:102CC300120A5AD0E0F07414120A5AE06401702711
:102CD300740E120A5A123C11EE2412122E7B6870E3
:102CE30003A3E0697011740C120A5A1227B3700718
:102CF3007414120A5AE4F0EE2424122DAE1206992B
:102D03007404120A5AAC82AD837407120A5AAA8257
:102D1300AB83120B577404120834022DA69003AA36
:102D2300E064016003022C837420120A5A122DC43A
:102D33007009E50AA2E65003022C837410120A5AA2
:102D4300E0F47003A3E0F4605AEEFCEFFD740312A9
:102D53000A5AAA82AB83120C5F8048A2E6504474DD
:102D630020120A5A124DF5701A741A120A5AE064A4
:102D73000270307403120A5AAA82AB837900120DCF
:102D83006D80207420120A5A122DBD7016741A1207
:102D93000A5AE06404700C7403120A5AAA82AB83C1
:102DA300120D6774220251A1EE240BF582EF123C3F
:102DB3000622F582E9124A9BF8221254B6E0640710
:102DC30022123C38640622EE242A123C031229E91B
:102DD3002412123C032274F4120382EAFEEBFF8CEA
:102DE300088D09900656E0600F1227B97003A3E01F
:102DF300697005120BC9804F7900124DD9120BF976
:102E03008A828B83E58245836035A3A3A3A3A3A30F
:102E1300E05418602AE508241BF582E509122DB158
:102E230012069D1234AF122DB112069DEE24181214
:102E330054D8122E4C120C0B7404120834800879E7
:102E430000122E4C120BCF80278E828F83A3A3A355
:102E5300A3A3A3A3A3A31229E9240BF582EF122EA4
:102E630065223400F583123C60FB2274031208349C
:102E73007F0402059DEE2417F582EF124A9B22740C
:102E8300F712038274F7120898EAFEEBFF900365CA
:102E9300E06403600DE064016008E064096003021C
:102EA3002F4C8E828F83A3E0707E7C007D007A029C
:102EB3007B001218FBEE2402FAEF12381C123C11AD
:102EC300900356124A8279531219317900122F5105
:102ED300E0640960031232E4851882851983740162
:102EE300124A589003657404F07401120A5AAA82B4
:102EF300AB83794A12192B7401120A5AAC82AD833F
:102F03007A5B7B031219199003561252E87A031263
:102F130032EE900350E0A2E35004D2F08002C2F0FC
:102F2300124A4512259F801E8E828F83A3AE82AFE5
:102F330083FC7D007A037B101218FB8E828F83E063
:102F4300F9122F51E4F0120C8974090250299003ED
:102F530063122E69120B6990036522C082C08390AD
:102F63000334124A37701F900365E014600924FC90
:102F7300600A14600C800F90033C80329003388009
:102F83002D90033A8028E849600890033512329661
:102F9300700C8A828B83A3E0F9120B5D801B900374
:102FA3003512354B7005120DC1800E9003D2124AB3
:102FB300376006124A29121AD4023FB974F4120375
:102FC3008274FB1208988A088B097A0F7B0012110E
:102FD300818A0A8B0BAE0AAF0BEE4F70030230C629
:102FE3008E828F83124FB3795012192B85088285F5
:102FF3000983A3E060030230AE900363E0F470033F
:10300300A3E0F46034900363E064FE7003A3E0F490
:1030130060278518828519831230D27003A3E06973
:103023006017850882850983A374EA1232CC7A6318
:103033007B037950121931807285188285198312A6
:103043005497124A827A567B03795312192B9003B1
:1030530056124AB3124A827A597B03794B12192BBF
:103063007A587B0379E112192B90036AE0C3940F1A
:103073005021900358E0C0E07402120A5AD0E0F0E5
:103083007404120A5A7401F004120A5AAA82AB8316
:10309300121943750A00780A1207F0780A1207F02A
:1030A300900FA8E0F91232AD120834850882850921
:1030B300831230CBA3F09003657403F0EEFAEFFBB9
:1030C300124A6B7405022E70A3E08E828F83221244
:1030D300549BE068221240F12274F512038274D8E3
:1030E3001208988A088B098A828B83A3A3A3123CB4
:1030F3003D7415120A5AAC82AD838A828B83A3A3D3
:10310300A3A3A3A3A3A312329CFAA3E0FB120C8FE5
:103113007415120A5AE0706B850882850983A3A38C
:10312300A3A3A3A3A3A3E0C3940B40578E828F83CF
:10313300A3A3A3A3A3A3A3A3E064027046EE240B5B
:10314300122E7BF4703D900365E06402603AE06404
:10315300066035900334124A376005123296604F89
:10316300900365E064086005E06404701674171248
:103173000A5AE0F9741C120A5AAC82AD83124DD973
:10318300120C9574280259B5900334124A37701FF4
:1031930075080078081207F078081207F0EE24107B
:1031A300122DAE1254F01239041232B61208348EB4
:1031B300828F83124D5512382E123C117402120A5B
:1031C3005A124A82EE240D122E7BC0E07404120AB6
:1031D3005AD0E01232BFF508A3E0F509740F78085E
:1031E300120A0C7405120A5AE508F07419120A5AE5
:1031F300E0C0E07406120A5AD0E0F0741B120A5AB7
:10320300E0C0E07407120A5AD0E0F07416120A5AAA
:10321300E0C0E07409120A5AD0E0F07417120A5A97
:10322300E0C0E07408120A5AD0E0F0EE2410122E27
:103233007BC0E0740A120A5AD0E0F0741A120A5AD8
:10324300E0C0E0740B120A5AD0E0F07427120A5A55
:10325300E0C0E0740C120A5AD0E0F0741C120A5A4F
:10326300A982AA8389088A09750A0078081207E8DF
:103273007C087D007410120A5AAA82AB831245E6B9
:10328300120834851882851983AA82AB83120B63D3
:10329300023186123551640122E0F98A828B83A3BD
:1032A300A3A3A3A3A3A3A3A3E0229003631252ECBB
:1032B300900359122E69120D4F740222F0EE240B63
:1032C300124A9822124A9BFA22F07A567B037953C8
:1032D3001232D7221219317A597B03794B121931E1
:1032E30022900363122E69120DF1227B001218FB48
:1032F3009003591252EC7A047B001218FB22F0124D
:1033030054FB2274F212038274F8120898EAFEEB5B
:10331300FF8C0A8D0B890C851882851983AC82ADCD
:10332300837583857582F67408120767F50DEEFCC5
:10333300EFFD851882851983AA82AB83124CB67080
:1033430003750D019003B1803BEEFCEFFDE508240E
:103353000BFAE5093400124CB5601E850882850915
:1033630083A3A3E0650C7011850882850983E0655A
:103373000A7004A3E0650B6038E5082414F582E5C0
:1033830009122DB1123826E50845096024E50DA27E
:10339300E040B6850882850983E0650A7004A3E0EE
:1033A300650B70D5850882850983A3A3E0650C703E
:1033B300C8AA08AB0974080227CFC082C083900350
:1033C300B1023FB674F71203829003B1123C6080DE
:1033D30012EA2414F582EB122DB1123C3D1211FFB7
:1033E300EEFAEFFBEA4B70E99003B1E4F0A3F002CD
:1033F300502C7F0702059D74F1120382EAFEEBFF56
:10340300890A8C088D098E828F83E08C828D8312CA
:103413003ECDAE82AF83E01246A6124617C41246D3
:10342300A61234B8E054038C828D83124615A2E2AF
:10343300E4338C828D83124614131313541F1246E4
:10344300A6124613A2E7E4338C828D83A3A3A3A31E
:103453001234B88E0C8F0D750E00780C1207E87CB1
:10346300087D00E508240712525B1208341252C685
:103473008E0C8F0D780C1207E87C037D00E5082481
:103483000F12525B120834E50AC3940F40148E8264
:103493008F83A3A3A3E0C0E01234AF122DB1D0E019
:1034A30080061234AF125723F00233F5E5082412D5
:1034B300F582E50922A3A3123ED10EAF832274F451
:1034C30012038274F9120898EAFEEBFF890890034D
:1034D30034124A37600E12354B7009EEFAEFFB12C5
:1034E3000DBB805F900363E06E7003A3E06F7053C6
:1034F3007401650860097A777B03124CB670447ACD
:10350300007B02123A758B0BEA450B70369003660B
:10351300120A37851882851983120A4390036CE0D7
:10352300C0E07404120A5AD0E0F07405120A5A7407
:1035330001F07406120A5A124FB3120B2DE9609B65
:10354300120B337407022E70123551640222125487
:10355300B7A3A3A3A3A3A3E02274F51203828A084B
:103563008B098A828B83A3AE82AF83E0F9120B812E
:103573008E828F83E064EB600C850882850983A3C8
:10358300E064E17009850882850983A3E4F01225CC
:103593009F750A01780A1207F0850882850983A3BB
:1035A300E0F50878081207F079001232AD120834FA
:1035B300120CA10259B8EAF0A3EBF0023FB974F67A
:1035C3001203829003B4E0701B7C0079017A007BC4
:1035D30000120CD1EA4B600C8A828B83124A37604B
:1035E30003120C2F024A40C082C083123A5D40107E
:1035F30079FF120CCBE9F8902389E493C398500424
:10360300790180027900023FB974F01203828A08BB
:103613008B09890B750C008A828B83A3A3A3A3A3B5
:10362300A3A3A3E0F9120CD78A0E8B0FAE0EAF0F34
:10363300750A01EE4F60030236EA85088285098325
:10364300A3A3A3A3A3A31252E8850882850983A396
:10365300A3A3A3A3A3A31243E6124DE6120CBF8AAE
:103663000C8B0DAE0CAF0DEE4F700302380D8E8236
:103673008F83A3A3A3A3E4F0A3F0E508240B1238DC
:1036830019E0C0E0122DABD0E0F0120D97EE240C40
:10369300F582EF124A0BE508240EF582E509123C88
:1036A3000EEE240EF582EF124A7F750C01EE24060E
:1036B300F8EF123815547FF0A3E054FC12554DE097
:1036C30054046003023770900F861243D77407784F
:1036D300081209278E828F83A3A3A3A3A3A3E04584
:1036E30008F0A3E04509F08E828F83A3A3A3A3125E
:1036F300382474077808120A0CE5085407F508E51E
:103703000B607A8E828F83A3A3A3A3A3A3A3A3A3F4
:103713007402124618240D1240E6E0A2E2500B9008
:103723000351124AB3A3A3124A82E5087003023776
:10373300E2EE2406F8EF3400F9E8FAE9FB8A828B1B
:1037430083E0547FFCA3E054FCFDE50824FFF50867
:10375300E434FFF50974077808120927EC4508F8E3
:10376300ED4509F98A828B83124A8280728E828F99
:1037730083A3A3A3A3A3A3E044800236E9E50870CF
:1037830005750A0080598E828F83A3A3A3A3A3A3E5
:10379300E05420601212117BEA547F245F8E828FE3
:1037A30083A3A3A3A380238E828F83A3A3A3A3A313
:1037B300A3E05410600A12117BEA540F240A80DD3F
:1037C3008E828F83A3A3A3A37401F0A3E412382EE4
:1037D3007404123A6C8B09EA450970031249FEE539
:1037E3000CA2E050288E828F83A3A3A3A3125019A7
:1037F300F9EEFAEFFB120CC5E96012124A2D6003D1
:10380300123BF6EEFAEFFB1211FF750A00A90A024A
:1038130051A4124B7622FAE5093400FB8A828B838A
:1038230022A3A3E0F508A3E0F509221238322212FD
:103833005277A3A3A3A3A32274F412038274F712EF
:1038430008987E00120CD7EA4B70030238FD8A8277
:103853008B83A3A3A3A3A3A3A3A3A3E064066003EF
:103863000238FD8A828B83A3A3A3A3A3A3A3E0FFB0
:103873008A828B831240F9E0C0E07408120A5AD09E
:10388300E0123C31124CBC124A82120CE9EF54088C
:1038930060668518828519831252E87A007B0012CC
:1038A3000CB98B0BEA450B704F900363123D211249
:1038B300195B7C007D007A007B0080288E828F83D9
:1038C300123C1BF47003A3E0F4602D9003631239E0
:1038D30004124DE612164FE9641A601C7C007D0049
:1038E300EEFAEFFB120CB98A0A8B0BAE0AAF0BEEA2
:1038F3004F70C979001219617E01EEF97409022E25
:103903007012390822E0FCA3E0FD8E828F8322C06F
:1039130082C083EA4B70059003B580068A828B834D
:10392300A3A3123B2160258A828B83A3A3A3A3A312
:10393300A3A3E0540860E5EC4D60158A828B8312E3
:103943003C1B6C7003A3E06D70D280047A007B0093
:10395300023FB974F2120382EAFEEBFF890A8C0874
:103963008D097A107B00121AC9EA4B603F8A828B59
:1039730083A3A3A3A3A3A3A3A3A3E4123C1FA3E52D
:103983000A1254BDA31239B98A828B83A3A3A3A3BA
:10399300E4F0A3123C2BA3F0125351EA240CF5825A
:1039A300EB123EBD1239B2A3A3F0A3F00227D2A3B8
:1039B300F08A828B8322A3A3E508F0A3E509F02212
:1039C30074F4120382EAFEEBFF89088C0A8D0BEE76
:1039D3004F60557401650870147901120CCBE9F836
:1039E30090238EE493C398500F7911806A74046511
:1039F30008702F123A5D40F18E828F83A3A3A3A395
:103A0300A3A3A3A3A3E508123ECDA3125A428E8219
:103A13008F83A3A3E4F0A3F09003B5124A37602188
:103A2300800D7402650860D079C1802BE0F8A31281
:103A33004AACA3A3123B2188828983A3A370ED80A0
:103A4300039003B5EEF0A3EF123A6C8B0BEA450B30
:103A530070031249FE7900022E737904120CCBE92C
:103A6300F8902395E493C39822F0123A71227A20B6
:103A73007B009003B0E0F91212B922C082C083E93F
:103A8300F879009003B5801D8A828B83A3A3A3A337
:103A9300A3A3A3A3A3E068600574FF687001098A68
:103AA300828B83A3A3123B2170DE023FB974F7120A
:103AB3000382EA4B70059003B580068A828B83A349
:103AC300A3123B2160248A828B83A3A3A3A3A3A372
:103AD300A3A3A3E06970E4EC60148A828B83E024DF
:103AE3000D1252D9A2E240D380047A007B00025027
:103AF3002CC082C0839003B580068A828B83A3A3E4
:103B0300123B2160128A828B83A3A3A3A3A3A3A343
:103B1300A3E06970E580047A007B00023FB9122EAE
:103B230069EA4B2274F21203828A0A8B0B8C0C8D86
:103B33000D750800750900EA450B602E9003B580EA
:103B4300068E828F83A3A3123B74601EAC0CAD0D53
:103B5300EEFAEFFB850A82850B83121AD4E964011E
:103B630070DFEEF8EFF988088909AA08AB09022784
:103B7300D2E0FEA3E0FFEE4F2274F712038290031C
:103B8300B5123C117C007D00800DE8FCE9FD8882C4
:103B93008983A3A3123C11E8496030EA687002EB01
:103BA3006970E79003B5124DE6E86A7002E96B8825
:103BB300828983A3A37008123C119003B580091274
:103BC3003C118C828D83A3A3124A8202502C74F77A
:103BD300120382EAFEEBFFEE4F6015120CE3123C78
:103BE30043124A2D6003123BF6EEFAEFFB1211FF6C
:103BF30002502CEE240C123C03123C5822EE241DDE
:103C0300F582EF3400F58322F582EF123C06123F72
:103C1300B022F582EF123C06123C3822123C2322DA
:103C23001254C5A3A3A3A322123C23A3A322123994
:103C3300B3123C38221254B0E022E0FEA3E0FF228C
:103C43008E828F83E0241C1240EA123C588E828FAE
:103C530083123C5822123C60FB1211FF22E0FAA3AC
:103C6300E022C082C083EAFCEBFDEC4D70047905D1
:103C73008044EC24FBF582ED34FF124A35700712C1
:103C83003CBCE0F4600512118780E39003B0E0C010
:103C9300E0123CBCD0E0F090238BE493F97AB77B3D
:103CA300031211B1E96401700B7A007B20124A02FE
:103CB300790080027904023FB9EC24FFF582ED34E8
:103CC300FFF5832274F4120382A2AFE433F508C232
:103CD300AF9003B7123B746038EE24FBF582EF34E8
:103CE300FF124A357A007B209003B06005124A0523
:103CF3008005E0F91211BDE4F50AF50B780A120705
:103D0300ECEEFCEFFD7AB77B031211AB74021208E1
:103D130034E508A2E092AFEEFAEFFB022E731252E3
:103D2300EC851882851983AA82AB832274F212036D
:103D33008274FC120898EAFEEBFF750AFE750BFF0E
:103D4300120CA7E960057911023EB2EE2415122E7A
:103D53007B6037900F9AE0C43354E0F8E033335478
:103D6300FC48C0E0EE2415122DAED0E0123ECD1279
:103D73003EC38B09EA45096011750AFFEE240F1251
:103D83002E7B4404124A90D2E0F08E828F83122756
:103D9300976006EE2412123EBAEE2413122E7B70A5
:103DA30010902391E493C0E0EE2413122DAED0E0E3
:103DB300F08E828F83E0A2E750045403801CEE242C
:103DC30014122E7B7015900342E0C0E0EE2414120F
:103DD3002DAED0E0F0900342E004F0EE2411122E59
:103DE3007B6401701690064DE0600D90034DE0700A
:103DF3000A8E828F83E07003123EB78E828F83E038
:103E030064017013EE240B123C1564027009EE2456
:103E13000F122E7B4440F0851882851983AC82AD46
:103E230083EEFAEFFB120D0D8A088B0974FE650A07
:103E3300700374FFF470098E828F83A3A3125267F9
:103E4300EA450960668E828F83E0C0E07401120A3E
:103E53005AD0E0F07402120A5A1253557401120A2E
:103E63005A85820C85830D780C1207ECEE240F1211
:103E73002DAE12069DEE240E122E7BF50C780C123D
:103E830007F090035612069D7407120A5AE0F9AC24
:103E93000AAD0B120D077407120834E9FE74106E95
:103EA300700BAA08AB091211FF80027E10EEF974A1
:103EB300040227CFEE2411F582EF123C06E4F02230
:103EC300A3122E6979FF120A6D22123ED122F08EBF
:103ED300828F83A322C082C08374DE1208988A82F1
:103EE3008B83A3A3A3A3123C11740E120A5AE8F006
:103EF300A3E9123FA7740C120A5A123FA0240DF52E
:103F030082EB122E7EC0E0741A120A5AD0E0F0122D
:103F130051B4EB123C0E7420120A5A123FA024151E
:103F2300F582EB122E7EC0E07408120A5AD0E0F03C
:103F3300EA241CF582EB123C0E7412120A5A123F49
:103F4300A02411F582EB122E7EC0E07409120A5AE6
:103F5300D0E0123F9474FFF07401120A5A74FFF018
:103F63007402120A5A74FFF090862A120699740496
:103F7300120A5AAC82AD837407120A5AAA82AB831F
:103F8300120B577404120834790074221208348017
:103F930025123F9822F085188285198322E8F0A321
:103FA300E9F0EA221239B3A3123FAF22A3E0F8A348
:103FB300E0F922124DE6D083D0820207CC74EC12D2
:103FC300038274EE1208988A128B13ECFEEDFF89BC
:103FD300097426120A5A1252677428120A5AE0F513
:103FE300107429120A5A1240DB742B120A5AE0F594
:103FF3000EA3E0F50F7508107A1E7B00121AC97420
:1040030002120A5A124A0F7402120A5A124A3770DB
:10401300030240D4851882851983AA82AB83795021
:104023001248EA124DE67402120A5A1240F9A31218
:104033004A0F7410120A5A125A447402120A5AE0AE
:10404300240B1240E67402F0120A5A1240F9740269
:10405300F0120A5A1254A81253557402120A5A1231
:104063004DFBE509F07402120A5AE0240C1240E6F3
:10407300E510F07402120A5A1240E3E512F0A3E5C8
:1040830013F07408120A5AE50CF0A3E50DF0740A54
:10409300120A5AE510F0850E82850F83C082C08311
:1040A300740D120A5AAC82AD83D083D0827403128A
:1040B3000767F97402120A5AAA82AB83120CADE99C
:1040C3006401700575080080087402120A5A123BD5
:1040D300FCA908741202527EE0F50CA3E0F50D2250
:1040E300E0241C1240EA22F8A3E01240F12234003B
:1040F300F98882898322124DEEA3A3A3A3A322747A
:10410300EE120382EAFEEBFF8C088D098E828F8309
:10411300A37408124ACBE060088E828F83A37410C5
:10412300F0122E7860098E828F83A3E02408F0EECC
:104133002415122E7B60088E828F83A3E004F08EF9
:10414300828F83A3A3A3A3A3A3E060198E828F838B
:10415300A3A3A3A3A3A3A3E0C3332402F88E828F54
:1041630083A3E028F0EE2411122E7B6005750B0E5D
:104173008003750B008E828F83A3C082C083EE24DD
:104183000D122E7BD083D082F8E028250B8C828DF4
:1041930083F0EE2411122E7B60051245F628F0857C
:1041A3000882850983E0C394754009750800750981
:1041B300000242E4E0FA7B0012540370030242E47B
:1041C300EEFAEFFB120D13EA850882850983124A82
:1041D30010EE2402F8EF1230D81243DE124320F01F
:1041E300EE24040808EF1230D8124820A31243200B
:1041F300A3A3F0EE2413124306F0EE241412430695
:10420300A3F0750A08EE2416122E7B6010EE241814
:104213001252E5E50824081254E6750A10122E78A6
:104223006016EE241A1252E5850A0CE508250C12D5
:1042330054E67408250AF50A8E828F83A3A3A3A3E9
:10424300A3A3E06059EE2407F510EF3400F51185C0
:104253001082F583E0C0E01242ED122DB1D0E012DE
:104263004310E0C0E01242ED122DB1D0E012431032
:10427300A31242F91207E8851082851183E0C33344
:10428300FCE433FD850A0CE508250C12525B120889
:1042930034851082851183E0C333250AF50AEE24A1
:1042A30015122E7B600BC0E01242ED122DB1D0E04F
:1042B300F0122DAB1242F91207E8EE240D122E7BF9
:1042C300FC7D00850B0A8E828F83A3E0F8E5082826
:1042D300F8E5093400F9E8250AFAE912525E1208F2
:1042E30034AA08AB097F0A02059D850A0CE5082557
:1042F3000CF582E50922E0F50CA3E0F50D750E003F
:10430300780C22123C0312432AA3A3A322F0050A2A
:104313008E828F83A3A3A3A3A3A3A3A322A3A312E6
:104323005551A312432A22124824A3A32274F6123E
:1043330003828A828B83E0FC9003531243D7740277
:104343007808120927EC4508FCAD09EA2412124348
:10435300D174067808120927EC4508FCED4509FDE0
:10436300EA2415F582EB122E7E6004780180027830
:1043730000E4C8F9ED49FDEA2411F582EB122E7E23
:10438300F508880974097808120927ED4509FDEA3B
:1043930024161243D1740B7808120927ED4509FD41
:1043A300EA24171243D1740C7808120927ED450942
:1043B300FD8A828B83A3A3A3A3A3A31243D7740A67
:1043C3007808120927ECFAED4509FB024A40F58209
:1043D300EB123C06E0F50875090022E085088285AA
:1043E300098322A3E0F98508828509832274EE12EA
:1043F30003828A0A8B0BECFEEDFF750F01E9C39470
:1044030008500579000245E38E828F83E9F0124854
:1044130049E96003750F0012482D8E828F8312487D
:1044230077EE1251B5EF12486CC0E0EE2411122D55
:10443300AED0E0124864C0E0EE2412122DAED0E0FC
:10444300123ECD740812526FA3A3A3E06015124865
:1044530015EE2413F582EF124A7F8E828F83A3E039
:104463002408F08E828F83A3A3A3A3A3A3A3A3E013
:1044730060218E828F83A385820885830912485821
:10448300EE2415F582EF124A7F850882850983E0C1
:104493002408F08E828F83A3A3A3A3A3E0601A8EC4
:1044A300828F83A385820885830912483C8E828F7D
:1044B30083A3A3A3A3A3124608EE2419123EBAEEC4
:1044C300241B123EBAA3124AC3E07003024577EEDF
:1044D3002419F8EF3400F98E828F83A3858208852F
:1044E3008309E0FAE50A2AF582E50B122E7E88821B
:1044F3008983124608FAE50A2AF582E50B122E7E15
:10450300C0E0EE241A122DAED0E01246088882894C
:1045130083E06059F890238AE493C398500575119A
:104523000C8008EE2419122E7BF5118E828F83A343
:10453300E0F8E50A28F50CE50B1245EC1207E8E56F
:1045430011C333FCE433FD7A2E7B0E1245E61208C9
:1045530034EE241B122DAE742EF0A3740EF0E5116D
:10456300C333F8850882850983E0288006EE241882
:10457300125720F08E828F83A3E0F88E828F83E020
:10458300C3985003024406A3E0FA8A08E50A250803
:10459300F8E50B3400F9EE241DF582EF124B8B1274
:1045A3004618C39AC0E0EE2417122DAED0E0124A8B
:1045B30088602BEE2417F8EF3400F98808890988FE
:1045C30082F583E024F2124B6C240EFAA3E034004C
:1045D300FB88828983124A0F1245F6C398F0A90F0C
:1045E3000242E812115D7403223400F50D750E00CA
:1045F300780C2290034EE0F9120A97E9F8850882B5
:10460300850983E022F0850882850983E004F0228E
:10461300A3A3A3A3A3F08E828F83E02274F41203D7
:10462300828A088B09EA1246ADF0EA1313543F124B
:1046330046A6A3A3A3F0EAC413131246ADA3A3F0A3
:10464300EB12469F1246B77409780A120A0C1246F7
:104653009D1246B6740A780A120A0CE50A5401C080
:10466300E0EC2418F582ED122DB1D0E01246BC74B3
:104673000B780A120A0C12469DA31246B6740C78E4
:104683000A120A0C12469DA3A3A3A3A3A3A3A3F0F8
:10469300740D7808120A0C0229DDE50A54018C8294
:1046A3008D8322540F8C828D832254038C828D83BD
:1046B300A3A322A3A3A3A3A3A3F08A0A8B0B22C0C1
:1046C30082C08379008A828B83A3A3A3A3A3A3E0DD
:1046D30090034D600FE070228A828B83A3A3E07066
:1046E30019098016E060138A828B83124DDD9003D3
:1046F30056E06A7003A3E06B70E7023FB974F012EF
:1047030003828A0A8B0B890C8C088D091248491283
:10471300482D850882850983124877E5081251B52B
:10472300E50912486CC0E0E5082411F582E5091299
:104733002DB1D0E0124864C0E01234AF122DB1D0D5
:10474300E0124B937408124BAC6011124815E50844
:104753002413124B87124B93E02408F085088285BB
:104763000983A3A3A3A3A3A3A3A3E060178508823C
:10477300850983A3124854E5082415124B87124672
:10478300182408F0850882850983A3A3A3A3A3E0C3
:104793006019850882850983A3AE82AF8312483CE2
:1047A30085088285098312461304F0AA08AB09120F
:1047B3000D25E9F50D7056850882850983A3A3A30A
:1047C300A3A3A31248207014E0FA8A0EE50A250E6B
:1047D300F8E50B124A74E50CC39A8021124854E899
:1047E300240EF8E9124A7490034EE0F9120A978EE8
:1047F300828F83E0F8E50CC39824F2C399C0E0E507
:10480300082417F582E509122DB1D0E0F0A90D02B5
:1048130051A4E50A2408F8E50B3400F922124824D0
:1048230022E0850882850983A322850A82850B837A
:10483300A3A312488DE0F9EA22E0F8E50A28F582FD
:10484300E50B124A9B228A828B831251A9120D1FF8
:1048530022AE82AF83E0F8E50A28F8E50B3400F9CD
:10486300221248A0A3A3A3E022123C06E81248990F
:10487300A3A3E022A3A3A3A3A3A3A3A3A31248993F
:1048830012488DA3A3E0F9EAF822E0FA850A8285AB
:104893000B83A3A3A322F0A3E91248A022F0850A65
:1048A30082850B83A3A3A3A322C082C0837AC57B83
:1048B3000379E212192B7AC57B03023FB9C082C088
:1048C30083900356023FB6C082C08374FE120898D9
:1048D300851882851983AA82AB83794B1248EA1221
:1048E3004DE67402023F8F12192B851882851983B6
:1048F30022C082C083794A12192B023FB974F6127F
:1049030003829003CDE0FE04F0EEF9120CD78B097D
:10491300EA450970EDEE60EAF9024A4074F01203C9
:1049230082EAFEEBFF8C088D09890A7410120A5A79
:10493300E0F50B7411120A5AE0F50C120DF7EA4B6D
:104943007013E50C7042A90AAC08AD09EEFAEFFB4F
:10495300120E0F806EE50A6021EA2402F582EB1243
:104963002E7E850A082508F8E4340013E813F07056
:10497300098A828B83A3A37401F0E50C6045E50BE0
:1049830070068A828B83E4F07401650C7035E50B45
:104993009003D47004E4F0802AE004F0900F87E0E1
:1049A300F89003D4E0C398401AE4F0900359E06E02
:1049B3007003A3E06F700CEEFAEFFB7901120B7B2F
:1049C3001249C90251A47A017B009003B0E0F912A5
:1049D30012B322C082C08374016A7001EB70077A3C
:1049E30001124A008012900F7E124A0FEA4B6005B3
:1049F30012275980031249C9023FB97A207B0090DC
:104A030003B0E0F91211B7223400F583EAF0A3EB07
:104A1300F022C082C083900F800235B9C082C08368
:104A2300900F820235B91254B722EE240CF582EFAF
:104A33003400F583123FB0E849221208347F0202A2
:104A4300059DA2F0E433851882851983124A6179A2
:104A53005212193122124A61794212193122F0AAF3
:104A630082AB8322AA08AB099003B0E0F912118D3F
:104A7300223400F9E508241DF582E509123C06E815
:104A8300F0A3E9F022125273A3A3E022A3F0EE24D1
:104A930015124A9822F582EF3400F583E022124A78
:104AA300A5223400F583E0F8A3E0F9888289832204
:104AB300E0F8124AB922A3E0F98E828F83A3A322DE
:104AC300F0EE2418123C0322F0EE2416123C0322CB
:104AD30074F4120382EAFEEBFF7A007B041249CDE1
:104AE300124B62124A829003657409F0120D318AE7
:104AF300088B09AC08AD09EE2413122DAE124DE656
:104B0300124CB6640170487A0F124B5560418A8289
:104B13008B837402124B6CFAA3E0FB8A828B83A310
:104B2300E0FC8A828B83A3A3E0FBEC8508828509E2
:104B330083A3A3124A1088828983124DEA1243DEAB
:104B4300124A8FFAA3E0FB794A121931124A67021B
:104B53002E737B001211818A088B09EA4509229082
:104B63000336123FB0900F8222F0EE241DF8EF12AD
:104B73004B76221240F1E022124B7F223400F58360
:104B83007401F022F582E509123C06E8F0A3E9225C
:104B9300124B9722124B9B22F0850882850983A32F
:104BA30022124B9BA3A3A3A322124BA4A3A3E022F1
:104BB300124FBD120D8522EE2417F582EF124B7FA3
:104BC300120D31EE241A123C03EAF0A3EBF0227427
:104BD300F412038274F31208988908EAFEEBFF7C4F
:104BE3000D7D007900851882851983AA82AB831213
:104BF3001169EE241D122DAE1254A8A3E0F8741F00
:104C030058600A79011219017900024CADE8A2E556
:104C13005008740C120A5A7401F0E8A2E7500874A1
:104C23000B120A5A7401F0E8A2E6740A5008120A39
:104C33005A7401F08008120A5AE064017005EE24E8
:104C4300138003EE24151252E57402120A5AAA8243
:104C5300AB83121919122DAB124CBB124A82740A80
:104C6300120A5AE06401703312278C703B120D3D17
:104C73008A0A8B0BA80AA90BEE240B122E7B6870F1
:104C830003A3E0697022120D31EAFCEBFD740212FA
:104C93000A5AAA82AB83124CB6600D851882851915
:104CA30083AA82AB83120B75A908740D022E70EED2
:104CB300FAEFFB121913E922E0124CC022F8A3E029
:104CC300F98518828519832274F612038274F3120C
:104CD30008988A088B09ECFEEDFF7C0D7D007900B6
:104CE300851882851983AA82AB8312564DA3A3A389
:104CF300A3A3A3A3A3A3124D55124D5EF8A2E5509F
:104D030008740B120A5A7401F0E8A2E75008740AF7
:104D1300120A5A7401F0E8A2E6EE5004241380024A
:104D230024151252E57402120A5A124D47A3A3E046
:104D3300C0E0740C120A5AD0E0124FB5120B6F7414
:104D43000D024A3DAA82AB8312191985088285098F
:104D53008322E0124CC0E8F0A3E922F0123C0012D7
:104D630054ACA3E02274F712038274E1120898EAA8
:104D7300FEEBFF8E828F83124DEAA3A3A3E0A2E092
:104D830050518E828F831228EC8A828B83A3A3A334
:104D9300A3A3A3E054FE124E028A828B83124DFB1F
:104DA300E0F98A828B83E0241CFAA3E012381C12F8
:104DB3004DE6120D2BE9701B741D120A5A124DF5A4
:104DC3007011851882851983AC82AD83EEFAEFFBEF
:104DD300120D730250278E828F83A3A3A3A3A3A3D1
:104DE300A3A3A3122E6922124DEE221254B0A3A341
:104DF300A322123C38640422E0241B1240EA22124C
:104E03003F98AC82AD8322E9F87900740468600AA4
:104E1300740A6860057403687001090207CC74F6AC
:104E23001203828A828B837420F0A3A37401F0128D
:104E33000B218A088B09AE08AF09EE4F60108E82F2
:104E43008F837401F09003A3E07003124BBAEEFA60
:104E5300EFFB024A40C082C0839003B97401F0E9BA
:104E6300A2E350037403F0E9A2E15004E0D2E2F0BC
:104E7300023FB974F612038279007C008A088B0919
:104E830078081205E3F8FF07A94EA74EA74EA74ED1
:104E9300A74EA04EA44EA94E9D4E0C80097C0480C3
:104EA300050C80F67C089003B9E05C60030980037D
:104EB300EC600109024A4074F61203828A828B83F2
:104EC300E07012A3124A37600C8A828B83124DE57D
:104ED300121A0F80047A007B00024A4074F5120311
:104EE3008274F31208988A088B09ECFEEDFF750AA9
:104EF30012EA450970057900024FAE900356E0654A
:104F0300087004A3E065097014120D31EAFCEBFD8F
:104F1300124CB27005750A018003750A0085188268
:104F2300851983E4F004120A5AE508F0A3E509128F
:104F33004FB5120AE5E960277403120A5AAA82AB35
:104F430083120AC7E964017016750A017403120A11
:104F53005AAC82AD83124CB26021750A00801C7476
:104F630012650A70169003A2E06402700EEEFCEF65
:104F7300FDAA08AB09120AFDE970DFEEFCEFFDAAFA
:104F830008AB09120DFDE9F8740A687005750A018A
:104F9300801774A0687012EEFCEFFDAA08AB09122B
:104FA3000E09AA08AB09120E1BA90A740D0259B502
:104FB3007402124FB922124FBD22123F98AA82AB3C
:104FC300832274F7120382EAFEEBFF8E828F83A3A0
:104FD300A3A3A3A3A3A3A3E06015EE2415122DAEF0
:104FE300122E59120D9DE964017004790180258EFA
:104FF300828F83A3A3A3A3A3A3A3E06015EE24132B
:10500300122DAE125019FAA3E0FB120D9DE96401B3
:1050130060D979008013123908A3A3A3A3A3A3A380
:10502300A3A3E022741F1208347F0102059D74F0CC
:1050330012038274FD1208988A088B09ECFEEDFFB7
:10504300890B7413120A5AE0F50C750A01740112E4
:105053000A5A74041254E06048E50C601DEA2417F0
:10506300F582EB1257231254CE8A828B83E0D2E768
:10507300F0EA2414F582EB123EBD1251B4EB124A4E
:10508300A17403125A46EE88828983A3A3F0EF88A2
:10509300828983A3A31239B21239B9120B1BE9F522
:1050A3000AA90A74030251A174EC12038274F51263
:1050B30008988A0A8B0B890C8C0E8D0F741F120AA9
:1050C3005AE0F50D7420120A5AE0F510A3E0F51129
:1050D3007E01EE120A5A740AF0E97007E50DC33334
:1050E300240AF0125286700302518812529B7409EB
:1050F300F0A3E50CC43354E0450D1252ADE50C703A
:105103002D7C008023ECC333F8E433F9E51028F851
:10511300E51139F98882898312519588828983122E
:1051230030CBF0A30EAF830CECC3950D40D7E5084D
:105133002417F582E509124B7B120D31E508241A79
:10514300F582E509124A0B7403120A5AAC82AD8345
:10515300AA0AAB0B120ACDE96019E5082416F582F9
:10516300E50912518F120A5AA882A983E508241867
:10517300124A7B850882850983125A42AA08AB0921
:10518300120B1BE9FEEEF9740B02527E124B7F7475
:105193000322E08E828F83F0A3AE82AF83221208B4
:1051A300347F0802059D123C60F9EA2400E439FBD0
:1051B30022EA240BF5822274EE1203828A0C8B0DF1
:1051C300890E8C088D097412120A5AE0F50F7413B4
:1051D300120A5A1252679005BC124A376077E50FDC
:1051E300C333F8E433F9E8240EFAE93400FB12116F
:1051F300818A108B11AE10AF11EE4F60588E828FE3
:105203008374D4F0A3A3E50CF0A3E50D12526FE56C
:105213000EF0AC08AD09EE2405FAEF1254E9EE24C2
:105223000D122DAEE50FF0850A08850B09750A00EE
:1052330078081207E8E50FC333FCE433FDEE240ED0
:10524300FAEF12525E120834EEFAEFFB9005BC122D
:1052530054A8121AD40242E8FAE5093400FB1211E9
:105263005D740322E0F50AA3E0F50B2212527322C8
:1052730012527722123ED1A3A3A3221208347F0C29
:1052830002059D851882851983AA82AB83120D8539
:105293008A088B09EA450922EA240BF582EB124AB4
:1052A3009BFEA3E0FF8E828F8322F0A3AE82AF83A7
:1052B300AC0EAD0FEEFAEFFB1252BF221219191208
:1052C30052C622EE2408FEEF3400FF22E0FA8E825B
:1052D3008F83A3A3E022FEA3E03400FF8E828F839B
:1052E300E022123C031252EC22E0FCA3E0FD221266
:1052F3002E69120D192274F6120382EAFEEBFF9057
:1053030003BA801388828983E06E7003A3E06F6021
:105313003A88828983A3A3124A3770E87A047B0010
:10532300121AC98A088B09A808A909E849601C88C8
:105333008289831253559003BA124DE6888289837A
:10534300A3A3124A0F9003BA124A82024A408A82E6
:105353008B83EEF0A3EFF02274F41203827E0090AD
:1053630003BA80070E88828983A3A3124A3770F495
:10537300EEC333FAE433FB125403607E7F009003E1
:10538300BA8024888289831252E8EFC333FAE43364
:10539300FBE5082AF582E5093BF583ECF0A3EDF084
:1053A3000F88828983A3A3124A3770D79003AB1265
:1053B30027C67003A3E069780870191207ECEEF5AD
:1053C3000A780A1207F07C777D0379009003AB1209
:1053D300540E801A1207ECEEF50A780A1207F07CD5
:1053E300777D0379009003AB124DE6120DAF740382
:1053F300120834AA08AB091211FF120B33022E73E1
:10540300121AC98A088B09EA450922122E69120D5C
:10541300B522C082C08380128A828B83A3A3123CED
:10542300119003BA124A821211FF9003BA123B2160
:1054330070E6023FB974F6120382900363123C3D97
:105443009003CE125497124A827ACE7B037950127C
:1054530019319003CE1229E5FAEFFB120E159003D2
:10546300CE123C3D9005BE124A3760257A067B007A
:10547300121181EA4B601A8A828B8374D5F0A3A33D
:10548300E41254BD041254CE9005BE1254A8121A4D
:10549300D4024A4012549B22E0F8A3E0F99003633C
:1054A300228E828F831254AC221254B022E0F8125F
:1054B30054B622A3E0F5838882221254C1221254E7
:1054C300C522F08A828B83A3A3A3221254C1A3EE25
:1054D300F0A3EFF022F582EF124A9BF922124BB3AD
:1054E300EA4B22FAE5093400FB12191922124ABACF
:1054F300A3A3A3A3A3A3A32290238CE4932401F83F
:10550300E43400F97A027B002274F71203827E00EE
:105513008004125AF90E12561D40F77E00EE125502
:105523003874FEF0A30412554DE4F00EEEC3940359
:1055330040EB02502C75F003A4F8A9F074BC28F8D2
:10554300740339F988828983A32212555122F08882
:105553008289832274F71203827F0080010F9023D4
:1055630094E493F8EFC3985026EF1257096A700337
:10557300A3E06B70E8125AA66C7003A3E06D600A97
:1055830074FF6C700374FF6D70D312561480047A29
:10559300007B0002502C74F61203827CFF7DFF7A9D
:1055A300FE7BFF120DD9EA4B70407508008036E58B
:1055B3000875F017A4F8A9F074C928F582740C12C1
:1055C300571B600C74C828F582740C12571B701398
:1055D30074BA28FE740C39FF8E828F83125728EE1B
:1055E300FAEFFB050812568340C5024A4074F412D1
:1055F30003828A088B09ECFEEDFF800B120DEBEEA4
:10560300FCEFFDAA08AB09120DD9EA4B70EE022E8E
:105613007374BA28FA740C39FB22902394E493F838
:10562300EEC3982274F7120382EAFEEBFFEE4F609B
:105633001012564774FEF0A304125A4C14F0A3043C
:10564300F002502C7C177D0079001211698E828F35
:10565300832274F7120382EAFEEBFF7508008018B9
:10566300E50875F017A4F8A9F0125AB17003A3E086
:105673006F6003125B01050812568340E302502C4E
:10568300902394E493F8E508C3982274F6120382F6
:10569300120DD98A088B09A808A909E849600AE804
:1056A300240DFAE93400FB80047A007B00024A40AF
:1056B30074F41203828A0A8B0BECFEEDFF7508006B
:1056C300750900802EE50975F017A4F8A9F0125AA0
:1056D300EC601EE509125709650A7004A3E0650B27
:1056E300700375080AEEFCEFFD1259A86003430826
:1056F300A00509902394E493F8E509C3985004E5C1
:105703000860C20229DD75F017A4F8A9F012571436
:105713002274BA28F582740C39F583E022F582EFFE
:10572300123C06E422122E69120C1122125551A3C7
:10573300A3A3A3A3A3A3A32274F21203828A088BB5
:1057430009ECFEEDFF740E120A5A125267750C0033
:105753007C007D01801012117BE50CF5F0EA84AC2E
:10576300F0750C007D007800790080031258E51273
:1057730059414003025807E8FAE9FBEA75F017A418
:10578300FA85F00D75F017EBA4250D12591D700362
:10579300A3E0F460D71258FB65087004A3E0650921
:1057A30060CA1258FB6E7003A3E06F60BF1258FB10
:1057B300650A7004A3E0650B60B2E8FAE9FBEA75D9
:1057C300F017A4FA75F017EBA4250DFB74C82AF59E
:1057D30082740C1258DC509474016D050C608DE5D5
:1057E3000CC39C4087E875F017A4F8AAF075F0176E
:1057F300E9A42AF974BA28F582740C39F583124D99
:10580300E60258D97800790080031258E512594E00
:1058130040030258C0E8FAE9FBEA75F012A4FA85DE
:10582300F00D12592D64FE7003A3E0F460DC1259ED
:105833002365087004A3E0650960CF1259236E70D5
:1058430003A3E06F60C4125923650A7004A3E065E3
:105853000B60B7E8FAE9FBEA75F012A4FA75F012E7
:10586300EBA4250DFB74492AF582740B1258DC5006
:1058730099E8FAE9FBEA75F012A4FA75F012EBA4C1
:10588300250D1258EE64016081E064027003025832
:105893000D74016D050C700302580DE50CC39C508B
:1058A3000302580DE875F012A4F8AAF075F012E996
:1058B300A42AF9744028F582740B0257FEE50C60A4
:1058C30011EC700E7401650C60030257597C0102E0
:1058D30057647AFE7BFF0227D23BF583E014C3941F
:1058E3000622E8240108E93400F922FB74442AF56E
:1058F30082740B3BF583E022E8FAE9FBEA75F017C3
:10590300A4FA75F017EBA4250D12591022FB74BAF3
:105913002AF582740C3BF583E02212591064FE22AF
:10592300E8FAE9FBEA75F012A4FA75F012EBA42584
:105933000DFB74402AF582740B3BF583E022902320
:1059430094E493FAC3E89AE9940022902383E493BE
:10595300FA740193FBC3E89AE99B2274F51203825C
:105963008A088B09ECFEEDFF750A008002050A9098
:105973002394E493F8E50AC3985028EEFCEFFDE581
:105983000A75F017A4F8A9F01259A860E0E50A75A2
:10599300F017A4F8A9F074BA28F582740C39F583CA
:1059A3001239BB801074BC28FA740C39FB1219131A
:1059B300E9221208347F0302059D74F01203828AE0
:1059C300088B098C0A8D0B890C120DDF8A0E8B0F45
:1059D300AE0EAF0FEE4F6055125647E508F0A3E544
:1059E30009125A4C125A44E50C600AEE240F122D88
:1059F300AEE50C8006EE240F125A3CF09003D01251
:105A03004A37601A9003AAE064017008EE240E126C
:105A130057208010EE240E122DAE74078006EE245C
:105A23000E125A3C123301120231125A330251A49C
:105A3300EE240D123C03E8F022123C03740122A36E
:105A4300A3E50AF0A3E50BF022123832A32274F582
:105A53001203828A088B09ECFEEDFF750A00800FA2
:105A6300125AB17003A3E06F6003125B01050A9041
:105A73002394E493F8E50AC3985025E50A75F017D3
:105A8300A4F8A9F0125AA665087004A3E06509708A
:105A9300CF74C428F582740C39F58312535580CD25
:105AA3000259B874C428F582740C12571B2274C4AB
:105AB30028F582740C12571B6E2274F7120382EAC4
:105AC300FEEBFF7508008019E5081257096E700395
:105AD300A3E06F700A125AEC7005E508125AFA0532
:105AE3000812568340E202502C74BC28FA740C3915
:105AF300FB120AC7E922EE75F017A4F8A9F01256B3
:105B030014120DEB22125551123FB0E84922C08204
:105B1300C08374F8120898851882851983AC82AD06
:105B2300837583857582EE740812076785188285ED
