:020000040000FA
:060000000209ED0201D52A
:03002B0002084E7A
:0300330002068240
:030043000207228F
:03004B00021AE2B4
:03005300020106A1
:03006B0002066822
:1000830002016A0101FF050301B90FB90FB90FB9E5
:100093000F750E6F0EB90F3F2100000000A1210064
:1000A3000000000C0000000C0001FFFF01004648A7
:1000B300502057534E2D73797374656D0000000003
:1000C3000000010280402010102040800101010047
:1000D300B8050000000906E80364006400B80102E3
:1000E3000200000002050207051E02051E0A03B8EE
:1000F3000B0201028816021F00E007965118000246
:10010300020612C0E074F21203EEA2AFE433FED291
:10011300AFE5A7FFE5A1F5085F541060061216B519
:1001230075A1EFE5085F540860081216BB75A1F7C7
:10013300802BEFA2E0C0D0E508A2E092F012093ACA
:10014300158182F05017906198E0F8900AE3E0C3BC
:1001530098A2D265D0335002E8F075A1FEEEA2E07A
:1001630092AF7F010204A5C0E074F21203EEA2AFC6
:10017300E433FED2AF9061A4E0F8759B00E591589B
:10018300540860087591F7121703802AE5915854B3
:100193001060087591EF121709801BE8A2E0C0D028
:1001A300E591A2E092F012093A158182F05007E03E
:1001B300C2E0F012184D9061A3E0F8E5E958540449
:1001C300600E12182375E9FB906193E0A2E640F2FA
:1001D300808BC0E074F21203EEA2AFE433FED2AF21
:1001E3009061A5E0F8E5BF585404600675BFFB12A3
:1001F3001865020160C3E498F8E499F912023980A2
:1002030026C3E49AFAE49BFBE920E7E9120239E406
:1002130098F8E499F922C3E498F8E499F9120239B9
:10022300E498F8E499F9C3E49AFAE49BFB22EB20FF
:10023300E7CFE920E7E0B90010BB0008E88AF084C3
:10024300F8AAF022E4FBC8FA22EB70227B10C83331
:10025300C8C933C9335007C39AC3DBF280069A5027
:10026300012ADBEAC833F4C8C933F4C9FA2275F0AA
:1002730008E4C833C8C933C933C99AC99B5004C9F0
:100283002AC93BD5F0ECFBC833F4C8E4C9FA220809
:100293000808EAC0E0EBC0E086F0E7A4FA18098694
:1002A300F0E7A42AFA180986F0E7A42AFA180986BF
:1002B300F0E7A42AFA1986F0E7A4FBE5F02AFA1975
:1002C3000886F0E7A42BFBE5F03AFA190886F0E775
:1002D300A42BFBE5F03AFA18180986F0E7A4C5F059
:1002E3002BFBE43AFA1908E7C5F0C6A426F6E5F0B5
:1002F3003BFBE43AFA1886F0E7A4F6E5F00826F6A5
:10030300E43B08F6E43A08F6D0E0FBD0E0FA22E456
:10031300CFC0E0E4CEC0E0E4CDC0E0E4CCC0E07503
:10032300F020C3E633F608E633F608E633F608E6CC
:1003330033F6181818EC33FCED33FDEE33FEEF33D0
:10034300FFC3EC9709ED9709EE9709EF9719191970
:10035300400FFFEC97FC09ED97FD09EE97FE191985
:1003630006D5F0BEECF709EDF709EEF709EFF7193B
:100373001919D0E0FCD0E0FDD0E0FED0E0FF22254B
:1003830018C582C0E0E51934FFC583C0E0E518C392
:10039300958224F810AF0885831985821880088513
:1003A3008319858218D2AFCEF0A3E520F0A3780895
:1003B300E608F0A3DEFAEFF0A3E58124FAF8E608F5
:1003C300F0A3E608F0A3E608F0A30808E608F0A304
:1003D300E608F0A315811581D0E0FED0E0F8158181
:1003E30015811581E8C0E0EEC0E022C0D02518C514
:1003F30082C0E0E51934FFC583C0E0E518C39582E8
:1004030024F310AF08858319858218800885831922
:10041300858218D2AFC8F0A3E9F0A3EAF0A3EBF00A
:10042300A37908E709F0A3D8FAECF0A3EDF0A3EE63
:10043300F0A3EFF0A3D0E0F0A3D0E0F0A3D0E0F07E
:10044300A3E520F0A3E5F0F0A322120A4FB90003BD
:1004530002048FE4900301783A790D8002F0A3D867
:10046300FCD9FA900F3AAA82AB83900086788179FF
:10047300018015E493A3AC82AD838A828B83F0A3BE
:10048300AA82AB838C828D83D8E9D9E77582717593
:1004930083ED74021207C67582DB75831A7400122A
:1004A30007C6851983851882E0C0E0A3E0F9A3E0BD
:1004B300FAA3E0FBA37808E0F608A3DFFAE0FCA3C5
:1004C300E0FDA3E0FEA3E0FFA3E0C0E0A3E0C0E003
:1004D300A3E0F5D0A3E0F520A3E0A3F5F010AF0867
:1004E3008583198582188008858319858218D2AF80
:1004F300D082D083D0E0F8D0E032E8030875F01062
:100503008E1A8F1B85821F85831E8518828519830A
:10051300E0CEA3E0CF851F82851E83EBC9EAC8ED39
:10052300CBECCAC3E833C8E933C9EA33CAEB33CBEC
:10053300C3EA9EF51DEB9FF51CB35004AB1CAA1D2B
:10054300EC33CCED33CDD5F0DAAE1AAF1B22D0832A
:10055300D082ECC0E0EDC0E0E493A3FCE493A3FD00
:10056300ED4C600D120629EC24FFFCED34FFFD80F9
:10057300EFE493A3FCE493A3FDED4C600D1206F7A7
:10058300EC24FFFCED34FFFD80EFD0E0FDD0E0FC78
:10059300E493A3C0E0E493C0E02285198385188225
:1005A300E0A3FEE0A3F5207808E0A3F608DFFAE075
:1005B300A3FFE0A3C0E0E0A3C0E0E0A3C0E0E0A3AA
:1005C300C0E0E0A3C0E010AF0885821885831980DE
:1005D30008858218858319D2AFD083D0820207CCD5
:1005E300D083D082E9C0E0E493A3C386F0C5F0953D
:1005F300F0F908E493A386F0C5F095F0700BE4934B
:10060300A3C3994005E9048002A3E475F002A4257D
:1006130082F582E5F03583F583D0E0F9E493A3C056
:10062300E0E493C0E022C0E0C3E49396087401932E
:100633009618400FE4936670080874019366187067
:10064300007019A3A3C3E49396087401939618A3A7
:10065300A3400DD0E0D0E0D0E002058DA3A3A3A377
:10066300A3A3D0E022C0E074F21203EEE589A2E175
:100673005003121571758900C2C57F010204A5C01C
:10068300E074F21203EEE58BA2E0500312157175CC
:100693008B00C2E880E47404800474028000CCC040
:1006A300E0EDC0E0E518C39CCCAD1950011D10AFBF
:1006B300068C188D1980068C188D19D2AF12076716
:1006C300D0E0FDD0E0FC2274028000CCC0E0EDC09D
:1006D300E0E518C39CCCAD1950011D10AF068C1872
:1006E3008D1980068C188D19D2AF120745D0E0FD05
:1006F300D0E0FC22C0E0C0F088F0E4936670080804
:1007030074019366187000A8F0A3A3700BD0F0D007
:10071300E0D0E0D0E002058DA3A3D0F0D0E022C06A
:10072300E074F21203EEA2AFE433FED2AFC2C0E52F
:10073300D1A2E45003121631EEA2E092AF7F010280
:1007430004A5CAC0E0E493A3C582CCC582C583CD0A
:10075300C583F0A3C582CCC582C583CDC583DAE545
:10076300D0E0CA22CAC0E0E0A3C582CCC582C5835B
:10077300CDC583F0A3C582CCC582C583CDC583DA3D
:10078300E6D0E0CA22700908080822601618181873
:10079300C6C333C608C633C608C633C608C633C67F
:1007A300D5E0EA22C008C3E096F50808A3E0964224
:1007B3000808A3E096420808A3E09645087001D311
:1007C300D00822C09FF59FE473D09F22D083D082AC
:1007D300C09FE493C0E0740193C0E0740293F59F5B
:1007E300227404800A74038006740280027401C0B8
:1007F300E0F4041207FFD0E0120A2A222518F5823A
:1008030010AF08F518400215198008F518400215B5
:1008130019D2AF85198322BB0102E722C082C083AC
:1008230089828A83BB0003E08002E493D083D08271
:1008330022C0D0251810AF08F518500205198008FA
:10084300F51850020519D2AFD0D022C0E0C0D0E8CD
:10085300C0E0E5A8D2AFC2C7A2E792AFD0E0F8D01C
:10086300D0D0E0326016080808C6C313C618C613F2
:10087300C618C613C618C613C6D5E0EA22C3E0C617
:1008830096F608A3E0C696F608A3E0C696F608A374
:10089300E0C696F622251810AF08F5184002151980
:1008A3008008F51840021519D2AF22E066701008CF
:1008B300A3E066700A08A3E066700408A3E066225A
:1008C300C3E09608A3E09608A3E09608A3E096A2E7
:1008D300D265D03322E76670100809E766700A080C
:1008E30009E76670040809E76622C3E096F008A3E7
:1008F300E096F008A3E096F008A3E096F022E02645
:10090300F008A3E036F008A3E036F008A3E036F0E1
:1009130022E627F60809E637F60809E637F6080956
:10092300E637F622700422600D18C6C333C608C624
:1009330033C6D5E0F41822C0E0E8C0E0E58124FC2A
:10094300F8E6A2E7D0E0F8D0E022E657F60809E699
:1009530057F60809E657F60809E657F622E056F671
:1009630008A3E056F608A3E056F608A3E056F622DD
:10097300E056F008A3E056F008A3E056F008A3E021
:1009830056F022E647F60809E647F60809E647F671
:100993000809E647F622E026F608A3E036F608A3A0
:1009A300E036F608A3E036F622E4C396F608E496AA
:1009B300F608E496F608E496F622C6F4C608C6F4EA
:1009C300C608C6F4C608C6F4C622C3E7960809E7F4
:1009D300960809E7960809E79622C3E09608A3E07C
:1009E3009608A3E09608A3E0962275D0007581408F
:1009F3007518017519030002044DE0F608A3E0F62B
:100A030008A3E0F608A3E0F622600C08C6C313C6E9
:100A130018C613C6D5E0F422E6F008A3E6F008A34F
:100A2300E6F008A3E6F022CAC0E0E6F0A308DAFA8B
:100A3300D0E0FA22E0FAA3E0FBA3E0FCA3E0FD226E
:100A4300EAF0A3EBF0A3ECF0A3EDF022E5C754F832
:100A53004401F5C77901222518F582E43519F58398
:100A630022C2AF75D69F020000221207CFB7AF0193
:100A73001207CFFFAF011207CF6EB0011207CFBD30
:100A8300B2011207CF10B4011207CFB3B40112079A
:100A9300CFEBB5011207CF09B6011207CF575B00A1
:100AA3001207CF695B001207CFBB5B001207CF1C95
:100AB3005C001207CFA65C001207CF4A5D00120745
:100AC300CF9E5D001207CFB75D001207CFDD5D003B
:100AD3001207CF185E001207CF5C5E001207CF83A8
:100AE3005E001207CFD45E001207CF845F001207A7
:100AF300CF3C60001207CF0461001207CFE1610011
:100B03001207CF6762001207CF7662001207CF8108
:100B130062001207CF8A63001207CF9B630012079C
:100B2300CF1164001207CFA364001207CFFB640048
:100B33001207CFC165001207CFF265001207CF3746
:100B430066001207CF4466001207CFD8670012076A
:100B5300CF3B69001207CF576A001207CFC16C0061
:100B63001207CFCC6C001207CFD66C001207CFE16F
:100B73006C001207CFEB6C001207CFF56C00120765
:100B8300CF006D001207CF0B6D001207CF3C6D0035
:100B93001207CF606D001207CF846D001207CFE9F3
:100BA3006D001207CF2D6E001207CF496E0012079A
:100BB300CFC06E001207CFF86E001207CF446F004C
:100BC3001207CFA16F001207CF8371001207CF095D
:100BD30072001207CFDA72001207CFEA750012070C
:100BE300CF3F76001207CF6B76001207CFB777009F
:100BF3001207CF0778001207CF5C78001207CF5D8A
:100C030079001207CFF579001207CF777A00120720
:100C1300CF177B001207CFA223001207CFDB2300DD
:100C23001207CFB525001207CFF425001207CF3ED8
:100C330026001207CFE326001207CF422700120730
:100C4300CF7627001207CFE327001207CF00290032
:100C53001207CF082A001207CF9E2A001207CFE5FA
:100C63002D001207CF8E2E001207CF6A2F00120716
:100C7300CFCB2F001207CFE830001207CF1233007B
:100C83001207CFC933001207CFD333001207CF06A1
:100C930034001207CFCD34001207CF683500120796
:100CA300CFCD35001207CFF635001207CF18360027
:100CB3001207CF4738001207CF1E39001207CF6241
:100CC30039001207CFCF39001207CF8A3A00120733
:100CD300CFBC3A001207CF003B001207CF333B00D3
:100CE3001207CF883B001207CFDD3B001207CF71FD
:100CF3003C001207CFD33C001207CF3B3D00120745
:100D0300CFE43E001207CFCC3F001207CF0E4100C5
:100D13001207CF3C43001207CFFC43001207CF2B2F
:100D230046001207CFCE46001207CF0C470012072A
:100D3300CFB848001207CFCC48001207CFD64800DF
:100D43001207CF0049001207CF0C49001207CF2B1F
:100D530049001207CFE249001207CF214A001207C8
:100D6300CF2B4A001207CFDF4A001207CFDE4B001A
:100D73001207CFD74C001207CF744D001207CF16BE
:100D83004E001207CF2D4E001207CF644E001207FC
:100D9300CF824E001207CFC64E001207CFEB4E0094
:100DA3001207CFD14F001207CF3D50001207CFB724
:100DB30050001207CFC651001207CF055300120788
:100DC300CF6753001207CF2154001207CF445400BA
:100DD3001207CF1855001207CF6355001207CFA58E
:100DE30055001207CFFC55001207CF3356001207E8
:100DF300CF6156001207CF9A56001207CFBF560095
:100E03001207CF4757001207CF6A59001207CFC9FD
:100E130059001207CF5D5A001207CFC95A001207B3
:100E2300CF1D5B001207CF0290031207CF4190033F
:100E33001207CF4EB7011207CFA8B7011207CF048D
:100E4300B8011207CF50B8011207CF6BB8011207D0
:100E5300CF9CB8011207CFB9B8011207CFC5B801AB
:100E63001207CF39BA011207CF52BA011207CFB90D
:100E7300BA011207CFCCBA011207CFDABA011207AF
:100E8300CF8EBB011207CF72BC011207CF78BD0111
:100E93001207CFFEBD011207CF08BE011207CF759F
:100EA300BE011207CF8CBE011207CFBEBE011207CF
:100EB300CFF7BE011207CF21BF011207CF82BF01B7
:100EC3001207CFA2BF011207CFC0BF011207CF067F
:100ED300C0011207CF2CC1011207CF79C10112073C
:100EE300CFA8C1011207CF1EC2011207CF46C2010C
:100EF3001207CF7FC2011207CF8DC2011207CFE5C0
:100F0300C2011207CF34C3011207CF73C301120703
:100F1300CFA3C3011207CFCFC3011207CFDAC30197
:100F23001207CFF8C3011207CFBAC4011207CFC407
:100F3300C4011207CFFFC4011207CF15C501120761
:100F4300CF1EC5011207CF73C5011207CF87C50195
:100F53001207CF95C6011207CFA8C6011207CFBD4E
:100F6300C6011207CF5FC7011207CFE2C7011207FD
:100F7300CFA0C8011207CFABC8011207CFD1C90157
:100F83001207CFEDC9011207CF3FCA011207CF7E67
:100F9300CA011207CF93CA011207CFD5CA0112079C
:100FA300CF22CD011207CFA0CD011207CF13CE015F
:100FB3001207CF35D0011207CF4DD0011207CF5002
:100FC300D0011207CF5CD0011207CF70D0011207F6
:100FD300CF78D0011207CFABD0011207CF5BD1017D
:100FE3001207CFD1D1011207CF44D2011207CFF894
:100FF300D2011207CFADD3011207CFCCD301120711
:10100300CF6CD4011207CF78D4011207CFA3D40138
:101013001207CFA6D4011207CF10D5011207CF387C
:10102300D6011207CF10D7011207CF9BD7011207A2
:10103300CFB4D8011207CF71D9011207CFAAD901B2
:101043001207CFDBD9011207CF7BDA011207CFAB2F
:10105300DA011207CF86DB011207CF1FDC0112076B
:10106300CFAADC011207CF5BDD011207CFDDDD0163
:101073001207CF0FDE011207CF50DE011207CF0494
:10108300A5021207CF69A5021207CFA6A502120770
:10109300CFF5A5021207CF0BA8021207CFEEA902C4
:1010A3001207CF58AD021207CF93AD021207CFB587
:1010B300AD021207CF18AE021207CF4CAE021207D1
:1010C300CF6FAE021207CF9CAE021207CFF8AE026B
:1010D3001207CF7F8E021207CFFD8E021207CF3386
:1010E3008F021207CF9F8F021207CF1291021207AE
:1010F300CF2E91021207CF7391021207CF019202F2
:101103001207CF5A92021207CF8793021207CF9981
:1011130094021207CFF694021207CF6295021207C8
:10112300CFC395021207CF0496021207CFB19602DE
:101133001207CFC397021207CFEE97021207CF39D8
:1011430098021207CF8098021207CF129902120752
:10115300CFCD99021207CF9983031207CFC9830317
:101163001207CF1E84031207CFB5C2021207CFBFE7
:10117300C2021207CF0BC3021207CF79C3021207B1
:10118300CF9AC3021207CF4AC4021207CFDEC602A8
:101193001207CFE7C6021207CF3AC7021207CF637F
:1011A300C7021207CFCAC7021207CF5BC8021207D2
:1011B300CF9DC8021207CFE7C8021207CF46C90264
:1011C3001207CFD7C9021207CF16CA021207CF558B
:1011D300CA021207CF8ACA021207CF9CCA02120799
:1011E300CFAECA021207CFCDCA021207CFD6CA02A8
:1011F3001207CF9ECB021207CFC58D031207CFCFA5
:10120300A2011207CFEBFD021207CF34FE02120731
:10121300CF84FF021207CF85DE011207CFC4DF019F
:101223001207CF00E0011207CFBFE1011207CFE899
:10123300E1011207CF7BE4011207CFBFE4011207DC
:10124300CF48E6011207CFE0E6011207CF48E701D6
:101253001207CFE9E7011207CF1AAF011207CF6BCD
:10126300E8011207CFF6E9011207CF66EB01120777
:10127300CF8BED011207CFB9ED011207CFE0ED01DE
:101283001207CFE9ED011207CF70EE011207CF8EDF
:10129300F1011207CFE7FF021207CF4B90031207AA
:1012A300CF0CEA021207CF1FEA021207CFBCEA02F1
:1012B3001207CFF7EA021207CF12EB021207CF375A
:1012C300EB021207CF7CEB021207CFADEB02120742
:1012D300CFDEEB021207CF64ED021207CF108803B3
:1012E3001207CF4688031207CF6288031207CFA4E1
:1012F30088031207CFB488031207CF498903120763
:10130300CF5389031207CF44AF021207CF18B1029C
:101313001207CF0EB3021207CF30B5021207CF1652
:10132300B6021207CFC8B7021207CFE2B7021207FD
:10133300CFF2B8021207CF1CB9021207CF37B90296
:101343001207CF4BB9021207CF0080021207CF5505
:1013530080021207CFFF80021207CFA78102120774
:10136300CF0482021207CF1882021207CFE2830250
:101373001207CF5D84021207CF8784021207CF249E
:1013830086021207CF3F86021207CF8E860212070C
:10139300CFA486021207CFB186021207CFE58602D9
:1013A3001207CFFB86021207CF8687021207CFE010
:1013B30087021207CF2E88021207CF38890212073D
:1013C300CFBA8B021207CF548C021207CF968C022E
:1013D3001207CF2B8D021207CF488D021207CF4B76
:1013E3008D021207CF4E8D021207CFC18D02120755
:1013F300CFDC8D021207CF088E021207CF438E0275
:101403001207CF468E021207CF2E8F031207CF3A51
:101413008F031207CF748F031207CF0FF201120746
:10142300CF3AF2011207CF06F3011207CF8BF30174
:101433001207CFF4F3011207CF40F4011207CFBF15
:10144300F4011207CF51F5011207CFDDF5011207A1
:10145300CF1FF6011207CF8BFA011207CF0BFC0146
:101463001207CF62FD011207CFEEFD011207CF4431
:101473009A021207CFFE9A021207CF709B0212073D
:10148300CF0C9C021207CF7C9C021207CFB09D02A7
:101493001207CF8C9E021207CFFD9E021207CF7A4E
:1014A300A0021207CF3CA1021207CF53A2021207D8
:1014B300CFF2A2021207CFAFA3021207CFC1F302EA
:1014C3001207CF15F4021207CF6DF4021207CFB83B
:1014D300F4021207CF1AF5021207CFB3F50212076F
:1014E300CF1BF6021207CF27F6021207CF008003A5
:1014F3001207CF3180031207CFEB80031207CF51BE
:1015030081031207CFF3ED021207CF7FEF02120719
:10151300CF3891031207CF4991031207CFDA810322
:101523001207CFE881031207CFCB91031207CF989D
:101533008E031207CFA88E031207CFC38E031207A1
:10154300CF248F031207CFC38C031207CF488D0319
:101553001207CFAC8D031207CFB18B031207CFD382
:101563008B031207CF3D8C031207CF488C0312075E
:10157300CF8C8C031207CFC7CB021207CFD5CB0278
:101583001207CF16CC021207CF37CC021207CFC1F6
:10159300CC021207CFE3CC021207CF4FCD021207C2
:1015A300CF6ACD021207CF85CD021207CF8FCD02AE
:1015B3001207CF99CD021207CFACCD021207CFC5C8
:1015C300CD021207CF61CE021207CF1DCF02120741
:1015D300CF94CF021207CF0ED0021207CF5AD002F8
:1015E3001207CF00D1021207CFDCD1021207CFCAF4
:1015F3007B001207CFD87B001207CF527C00120763
:10160300CF367D001207CFEF7E001207CF8B9103F9
:101613001207CF86D3021207CFF2D3021207CFB13C
:10162300D4021207CFBBD5021207CF14D702120779
:10163300CF6FD7021207CFC4D7021207CFCDD7027D
:101643001207CFDFD7021207CF49D8021207CF5DA7
:10165300D8021207CF67D8021207CFBCD8021207ED
:10166300CFB8DA021207CFEADA021207CF0CDB0295
:101673001207CF25DB021207CF3EDB021207CF484A
:10168300DC021207CFE3DC021207CFAF8603120797
:10169300CFD386031207CFEC86031207CF1F87032E
:1016A3001207CF5087031207CF7E87031207CFE0BD
:1016B30087031207CFEF87031207CFF987031207B8
:1016C300CF0688031207CF62F6021207CF88F6020D
:1016D3001207CFC5F6021207CFD4F6021207CFF3D3
:1016E300F6021207CF5BF7021207CF64F702120765
:1016F300CFC3F7021207CFE7F7021207CFA6F8020C
:101703001207CFB3F8021207CFC4F8021207CFC0F3
:10171300FF011207CFDDFF011207CF5ADD021207C7
:10172300CFB8DE021207CFC5DE021207CFD8DE0222
:101733001207CFF7DE021207CF0DDF021207CF2108
:10174300DF021207CF96DF021207CFFBDF02120779
:10175300CFABE0021207CF80E1021207CF90E10284
:101763001207CF9FE1021207CF5B7F001207CF7FE3
:101773007F001207CFA77F001207CFCF7F0012078A
:10178300CFF2F8021207CF19F9021207CF3AF90282
:101793001207CF9FF9021207CF58FB021207CF712E
:1017A300FB021207CF7DFB021207CF91FB02120748
:1017B300CFAFFB021207CFB9FB021207CFC3FB0265
:1017C3001207CFD6FB021207CF29FC021207CF6202
:1017D300FC021207CF91FC021207CFDFFC021207B3
:1017E300CF2EFD021207CF49FD021207CF53FD0290
:1017F3001207CF64FD021207CFAAFD021207CFB171
:101803008F031207CF79B9021207CFA3B9021207C8
:10181300CFBFB9021207CFD2B9021207CFE8B9027C
:101823001207CF45BA021207CF78BA021207CFB414
:10183300BE021207CFDABF021207CF0DC002120792
:10184300CF59C0021207CF85C1021207CFADC10223
:101853001207CFC2C1021207CFD2C1021207CF169D
:10186300C2021207CF77C2021207CF87C202120742
:10187300CF6B89031207CF8689031207CFAF890382
:101883001207CFC989031207CFEE89031207CF0DC1
:101893008A031207CF258A031207CF538A0312073D
:1018A300CF6D8A031207CF9190031207CF8CE60204
:1018B3001207CF93E6021207CF9FE7021207CFCF9B
:1018C300E7021207CFF5E7021207CF18E802120763
:1018D300CF3AE8021207CF74E8021207CFDAE80220
:1018E3001207CF13E9021207CF5FE9021207CF8C69
:1018F300E9021207CFACE9021207CF2285031207D0
:10190300CF3485031207CF1F86031207CFAC86039C
:101913001207CF9E8A031207CF108B031207CF4EF5
:101923008B031207CF8F8B031207CFA1F00212078D
:10193300CFBDF0021207CF0CF1021207CF28F1023C
:101943001207CF59F1021207CF69F1021207CF55DF
:10195300F2021207CF5FF2021207CF6CF2021207F4
:10196300CF7CF3021207CF90F3021207CF99F30251
:101973001207CFD8E1021207CF1DE6021207CF22CA
:10198300E6021207CF0B91031207CFD5900312077C
:10199300CF6391031207CFAD91031207CF63A20167
:1019A3001207CF3AA2011207CF2DA0011207CFF9D8
:1019B3009F011207CFC69F011207CFAA9F011207EB
:1019C300CFD09E011207CF889E011207CFBD9C0185
:1019D3001207CF3D9C011207CF3A9C011207CF4556
:1019E3009B011207CF139B011207CF509A011207D5
:1019F300CF7B98011207CF0C98011207CFDE970116
:101A03001207CFDB97011207CFC897011207CF60E8
:101A130097011207CF4F97011207CF309601120794
:101A2300CF0DAF011207CF1BAC011207CF6DA90178
:101A33001207CF41A8011207CF95A7011207CFFACA
:101A430095011207CFBD95011207CF5E95011207CD
:101A5300CFE6A5011207CF2D95011207CFE891011B
:101A63001207CFD990011207CF6890011207CFA1B7
:101A7300A3011207CF2BE8011207CF2D9001120704
:101A8300CFF88F011207CFEC8F011207CF4C8F01D4
:101A93001207CF938E011207CF668C011207CFF284
:101AA30089011207CFB089011207CF7B8801120782
:101AB300CF3088011207CF6287011207CFB98601A1
:101AC3001207CF5586011207CF8F86011207CF2841
:101AD300A3011207CFB5FD0200000080FBE47332BF
:101AE30000000000000000000000000000000000F3
:101AF3001010101010100000303000000014285097
:101B0300000000000000000000000000002828FC86
:101B1300284850FC5050000000001038545430182E
:101B230014545438100000000044A8A8B0541A2AD2
:101B33002A44000000000020505060ACA898927C1A
:101B4300000000606020C0000000000000000000F2
:101B530000040808101010101010080804000000FA
:101B6300402010080408102040000000000000106E
:101B730010D63838D61010000000000000101010E6
:101B8300FE10101000000000000000000000000024
:101B93000000606020C0000000000000FC000000A6
:101BA3000000000000000000000000000000606072
:101BB3000000000204040408081010202020400044
:101BC300000000304884848484844830000000008E
:101BD3000010701010101010107C0000000000386E
:101BE300444404081020447C0000000000384444AE
:101BF3001804044444380000000008081828484822
:101C0300887C081C00000000007C404078440444A9
:101C1300443800000000003C4480B8C484848478C5
:101C230000000000007C4448081010101010000051
:101C3300000000788484487884848478000000005D
:101C430000788484848C740488F000000000000011
:101C530000303000000030300000000000000000C1
:101C63001000000000101020000004081020402085
:101C73001008040000000000000000FC0000FC004D
:101C8300000000000000402010080408102040005D
:101C930000000000788484840810100030300000B5
:101CA30000000038449AAAAAAAB4423C00000000EB
:101CB300001010282828384444EE0000000000F8E3
:101CC30044447844444444F800000000003C448405
:101CD3008080808044380000000000F04844444481
:101CE300444448F00000000000FC44404878484069
:101CF30044FC0000000000FC42404878484040E0BB
:101D030000000000003C448480808E84443800003E
:101D1300000000EE4444447C444444EE00000000D0
:101D2300007C101010101010107C00000000007CCC
:101D3300101010101010101090E0000000EE444836
:101D43005070484844EE0000000000E0404040402E
:101D5300404044FC0000000000EE6C6C6C54545492
:101D630054D60000000000EE64645454544C4CE418
:101D730000000000003048848484848448300000DC
:101D8300000000F844444478404040E00000000074
:101D930000304884848484B448380C00000000F880
:101DA30044447850484844E600000000003C444066
:101DB3002018040444780000000000FE9210101064
:101DC300101010380000000000EE44444444444422
:101DD30044380000000000EE44442828282810104E
:101DE3000000000000D6545454546C2828280000E6
:101DF300000000EE44282810282844EE00000000CC
:101E030000EE442828101010103800000000007C59
:101E130088081020204044FC0000001C1010101003
:101E23001010101010101C00007010101010101063
:101E330010101010700000701010101010101010FF
:101E430010107000001028000000000000000000C7
:101E5300000000000000000000000000000000FE81
:101E630000606020C00000000000000000000000CF
:101E73000000000038441C24443E0000000000C061
:101E830040407844444444780000000000000000CF
:101E93003C444040443800000000000C04043C442F
:101EA3004444443E000000000000000038447C40ED
:101EB300443800000000001C2420F8202020207853
:101EC30000000000000000003C48483040784438DF
:101ED300000000C040405864444444EE0000000049
:101EE3000010000070101010107C000000000008AB
:101EF30000003808080808080870000000C04040C7
:101F03005C48507048EC0000000000701010101086
:101F13001010107C0000000000000000F85454541E
:101F230054D60000000000000000D864444444EE8E
:101F3300000000000000000038444444443800001E
:101F4300000000000000F8444444447840E00000EE
:101F5300000000003C444444443C040E00000000E4
:101F63000000EC30202020F80000000000000000FA
:101F73003C443008447800000000000010107C103E
:101F83001010100C0000000000000000CC4444447A
:101F9300443E0000000000000000EE442828281002
:101FA3000000000000000000D6545454282800000C
:101FB300000000000000DC48303048EC0000000066
:101FC30000000000EE442828101020E0000000006C
:101FD30000007C481010247C00001010101010101A
:101FE30010101010101010100001363601010001FE
:101FF30002010001030100010401060605020000BD
:10200300070100340801000F090401010D0100FF5D
:102013000E08000017020000190100FF1A01000159
:102023001B0100FE1C0100081D0200001F0100012E
:1020330020010001210200002301000F24020000FF
:102043002601000127010008280200FF2A010007DA
:102053002B0102402C0100002D0100012E01000183
:102063002F0100FF30010B1C310800003A0100086A
:102073003B01000F2F01000001017101010101016A
:10208300110101013101010101018001100161010F
:102093003B001400630173017201620143010001FB
:1020A300130106013D013500040112010001000185
:1020B3000001000104010401330133013C01440127
:1020C3003201360000010001650100013500810184
:1020D3000001050182018301000103027102300145
:1020E3006002110270020102020202028002100267
:1020F30061023A0041006302730272026202430208
:10210300000213023800000200020402120200025D
:1021130000020002000204020402370037003C02FE
:102123004402000239000002000265020002350287
:102133008102000205028202830200020300710091
:102143003001600011007000310220035004800050
:10215300100061000000140063007300720062004D
:1021630043000000130006000000000004001200FA
:1021730000000000000000000400040037003700E6
:102183003C02440000000000000000006500000065
:1021930035008100000005000000830000000103FA
:1021A300710301030103010301030103220302037A
:1021B30001031003000300030003000300030003F3
:1021C3000003420300032403060300030003040384
:1021D300120325032303250323030403040300033A
:1021E3000003000344030003000323030003650308
:1021F30021003503810300030503000300030003EB
:10220300CEF7C4CFBFC6BCBCB4F3D1A7D6C7C4DC1A
:10221300BCD2BED3BFD8D6C6CFB5CDB3C3DCC2EB19
:10222300C8B7B6A8C8A1CFFBD7A8D2B5D7A8D7A29D
:10223300CEDECFDFCDA8D1B6B3CFD0C5C1A2D7E311
:10224300B4B4D0C2D6C2D4B6C7BFB4F3D4ADA3BA64
:102253000036000100060000000F0000000000002F
:102263000000000000000003FFFF00000403FFFF65
:102273000000FFFF0FF4010005C404032000010068
:10228300000B000000000000000003010F010087A5
:1022930014020033140300391404003F14050045ED
:1022A3001406005114FFFF000003EAF5E5D5D5C578
:1022B300B5A595958585757565655555454535353B
:1022C3002525151505CF0EFF0ED50EDB0EF90EEDE8
:1022D3000EE70E050F0B0F110F1D0FE10EC90EC3F5
:1022E3000E0A9B0C02650C05770C076B0C0C470C54
:1022F3000D590CFF000000160F00000B150B020018
:1023030002220F32000006B90FCB0FD10F990ED75F
:102313000F930E9F0E191037103D101F102B102511
:102323001000011916181616152303000C0E020BC4
:10233300040B0A0708000F00034948424D181725EC
:10234300050200383C3E363B3B352B432C303016E0
:10235300181920231A1C1E30303017181921301B6E
:102363001D1F300D10DD0FE30FEF0FE90FF30E17F5
:102373000F3110230F290F02040201010101090289
:1023830000000000000000BE040A040015000E0057
:1023930028000C0C0A030908FF1E1E0F0404057411
:1023A300F7120382E99003B0F0900365E4F012188A
:1023B300FB9003B5E4F0A3F09003B1F0A3F0120D8A
:1023C300D3121901900334E4F0A3F090239E93FAFF
:1023D300790212196102503874F2120382EAFEEB99
:1023E300FF548060699003B0E0F91211A58A088B4D
:1023F30009EA4509604F7C0080010CEC75F003A4E9
:10240300F8A9F074E428F582742239F583E493F48F
:10241300602CE493F88508828B83E06870DCAA085B
:10242300EC75F003A4F874E528F582742239F5837A
:10243300E493C0E0740193F583D082121AE0AA08F2
:10244300AB09121199EEFAEF6480FB0225A8EF5451
:1024530020601D120CF58A088B09EA4509600A12EF
:102463000C59AA08AB09121199EEFAEF642080DA2D
:10247300EEA2E0501A90036AE0640F700B79001229
:102483000C23E960031225ABEE6401FAEF80BB5421
:10249300207003022576750C00123A7D8B09EA45FC
:1024A3000970107C027D007A207B009003B0E0F974
:1024B3001212BF7C0079047A007B00120CD18A08C7
:1024C3008B098018850882850983A3A3A3A3A3A3EB
:1024D300A3A3A37401F0850A08850B09E508450940
:1024E300606D7C007904AA08AB09120CD18A0A8BAF
:1024F3000B750C01E5082404F8E50912382124FFC3
:10250300F0A3E034FF125B1470CC85088285098345
:10251300A3A3A3A3A3A3A3A3A3A3E0640170A5857B
:102523000882850983A3A3A3A3A3A3E054047094FF
:10253300850882850983A3A3A3A3A3A3A3A3A37449
:1025430006F07AB78508828509831226D780871219
:102553000CA17C0079017A007B00120CD18B09EA73
:1025630045097009E50C70057A201249D7EE6420FD
:1025730002248EEF5402600B120DCDEEFAEF6402CB
:1025830002244DEF54046019124B6E124A8E7901E6
:10259300900363124DF2120B69EEFAEF6404022406
:1025A3004D7A007B000227DE900F8E122E75120CDF
:1025B3003B22C082C08374EA120898851882851969
:1025C30083AA82AB83794B1219377408120A5A749F
:1025D30002F07409120A5AAA82AB8379501219378E
:1025E3007413120A5AE4124FC11219557416023F9A
:1025F3009B74F712038274E1120898EAFEEBFFEE74
:102603004F6033851882851983AC82AD83120D190F
:102613007406120A5AE0601E7417120A5AE0FD7417
:1026230001120A5AE0FCEEFAEFFB7900120A91E973
:10263300600479A48002790002503374F612038295
:10264300EAFEEBFF8E828F83A3A3A3A3A3A3E0548D
:1026530040601B1254B01227A560067AFF7BFF80EF
:102663001A8E828F83123C27FAA3E0FB8003120D9C
:102673003D74FE6A700374FF6B60411254B0124ADA
:102683001B120D91E98E828F8360061226D0E4809F
:10269300051226D07401F07C297D0C8E828F831263
:1026A3004DF212195BE9F5087015EE4F60097901D7
:1026B300EEFAEFFB120CADA908024A4C7508CDAA3D
:1026C300088E828F831226D7E960DF80EAE0240D2B
:1026D3001240F622E0240C1240F6E0F9120C3522E7
:1026E30074F6120382E9FEEAFF7A0F7B001211935C
:1026F300EA4B60198A828B83740CF0EEA3A3F0EF8C
:102703008A828B83A3F0124A777900802FEEF91225
:102713000CD78A088B09A808A909E849601C888294
:102723008983A3A3A3A3A3A3A3A3A3740612573BC1
:10273300E0F9120BEDEEF9120CB37910024A4CC01A
:1027430082C08390036AE0640F7014EA4B601090B8
:102753000365E064086005E0640470031227650202
:102763003FC5EAFCEBFD7A017B009003B0E0F91270
:1027730012B922C082C0837900EA241DF582EB12CC
:102783003C2424FD600B14600824FD600424FD70C8
:102793000109023FC58E828F83A3A3A3A3A3A3A38F
:1027A300A3A31227A922123C6CFB120D91E9228EDE
:1027B300828F83A3A3A3A3A3A3A3A3A31227A96481
:1027C30002228E828F83A3A3A3A3A3A3A3A3A312F3
:1027D3003FBC900356E068221208347F0602059D31
:1027E30074F412038274FD1208988A088B098A8292
:1027F3008B83A3A3E0F9120CD78A0A8B0BAE0AAF23
:102803000BEE4F70030228EA850882850983A3E053
:1028130064F16030850882850983A3E064CD602478
:10282300850882850983A3E0641A60188508828578
:102833000983A3E064E9600C850882850983A3E02A
:1028430064E170087900120CADE9706C850882852B
:102853000983A3E0C0E07402120A5AD0E0123FA039
:10286300EEF0A3EF1232CB851882851983AA82ABCF
:10287300837005120B518003120D797402120A5AE8
:10288300E064E970338E828F831228F6750A01782B
:102893000A1207F0750AE9780A1207F0E508240C12
:1028A300F582E509122DBD1232A8FCA3E0FD8A8250
:1028B3008B831232C21208348E828F83A3A3A3A305
:1028C300A3A3A3A3A3E0640270108E828F83A3A3A8
:1028D300A3A3A3A3A3A3A37406F0850882850983F6
:1028E300A3A3E0F9120CB3120CA1900F921225AE20
:1028F300022E7AE0F8A3E0F9E8FAE9FB2274F41275
:102903000382EAFEEBFF7508008E828F83A3A3A3E5
:10291300A3A3E060427508088E828F83A3A3A3A3B9
:10292300A3A3A3A3123ECF8B0BEA450B601075083C
:102933002C8E828F83A3A3A3A3A3E0D2E0F08E8285
:102943008F83A3A3A3A3A3E0540364016003022919
:10295300E94308110229E9EE2418122E876033EEA9
:10296300241A122E87700F1227C57003A3E0697013
:10297300757508228070EE241BF582EF1229EE2470
:102983001AF582EF1232D3EE24191254E4120BDB40
:1029930080541227B270037508011227C57003A370
:1029A300E0697006E508D2E1F508E50860158E8256
:1029B3008F83A3A3E07006E508D2E58004E508D27F
:1029C300E6F50812279864017006E508D2E0F508D9
:1029D3008E828F83A3A3E0600D1229FC640160063D
:1029E300E508C2E0F508A908022E7F123C1212295D
:1029F300F522E0FCA3E0FDEE22123C0C123C44F96C
:102A0300120D7FE922C082C08379018A828B83A35E
:102A1300A3E0C394024001198A828B83A3A3A3A3D7
:102A2300E0C39402400279008A828B83A3A3A3A309
:102A3300A3A3A3A3A3E064F87003A3E0F460458A0F
:102A4300828B83A3A3A3A3A3A3A3A3A3E064F9708B
:102A530003A3E0F4602E8A828B83A3A3A3A3A3A37F
:102A6300A3A3A3E064FA7003A3E0F460178A828B44
:102A730083A3A3A3A3A3A3A3A3A3E064FB7003A3C0
:102A8300E0F4700279008A828B83A3A3A3E0F89019
:102A93000353E06860027900023FC574F0120382B9
:102AA30074DE120898EAFEEBFF8E828F83A3A3A342
:102AB300A3E0600E900F90124A436006900F9012AD
:102AC30025AE7403120A5AAC82AD838E828F83A320
:102AD300A3A3124AC51252FEE9600F7403120A5AE5
:102AE300AA82AB83120C53E97008790112190D0203
:102AF3002DB2EE241B123C177410120A5A124A8E7E
:102B03007409120A5AE06021741A120A5AE0FD7419
:102B130004120A5AE0FC8E828F83124DF07901125F
:102B23000A91E96004790280C37403120A5AAA82E3
:102B3300AB83120C4DE9F50A7409120A5AE0702AA4
:102B430090034DE060247422550A6422601C744291
:102B5300550A644270CF7420120A5A122DD0600AAB
:102B63007420120A5A122DC970BBE9A2E6504174AF
:102B730003120A5AAA82AB83120C41E97003022A98
:102B8300ED7420120A5A123C276403700F7420124A
:102B93000A5AA3124A35A3E0640D60147403120A9F
:102BA3005AAA82AB83120DA3E964017003022DB20A
:102BB300EE242C122DBA1230DE7003A3E069701CD0
:102BC30075080078081207F078081207F0EE242E33
:102BD3001254E4122DD61232C21208347409120AA6
:102BE3005AE07003022C8F122DD6124DF2120DF7FC
:102BF3008A088B09EA45097003022D2C7404120A12
:102C03005AE0F88E828F83A3A3E028F8A3E0340070
:102C1300F9E8240D122DC18A828B83A3A3A3E06854
:102C2300601CE88A828B83A3A3A3F0908626120AF2
:102C330037850882850983A3A3A3A3120A437904D2
:102C4300E9120A5A1252DB2AF8A3E034008882F50B
:102C530083A3AA82AB831211818A0C8B0D8C0E8DF8
:102C63000F850882850983A3A3A3A3780C1207A762
:102C73004003022DB290863E780C12099985088292
:102C8300850983A3A3A3A3780C120A1B900365E011
:102C930064046008E064096003022DB2E50AA2E55A
:102CA3004003022D6AEE242E122E87851882851981
:102CB30083F0EE242F122E87C0E07401120A5AD03B
:102CC300E0F0EE2430122E87C0E07402120A5AD0CC
:102CD300E0F07414120A5AE064017027740E120AA9
:102CE3005A123C1DEE2412122E87687003A3E0696A
:102CF3007011740C120A5A1227BF70077414120A47
:102D03005AE4F0EE2424122DBA1206997404120A1E
:102D13005AAC82AD837407120A5AAA82AB83120B90
:102D2300577404120834022DB29003AAE0640160C0
:102D330003022C8F7420120A5A122DD07009E50A4F
:102D4300A2E65003022C8F7410120A5AE0F47003A7
:102D5300A3E0F4605AEEFCEFFD7403120A5AAA8250
:102D6300AB83120C5F8048A2E650447420120A5AC7
:102D7300124E01701A741A120A5AE0640270307407
:102D830003120A5AAA82AB837900120D6D80207454
:102D930020120A5A122DC97016741A120A5AE064C4
:102DA30004700C7403120A5AAA82AB83120D67745F
:102DB300220251ADEE240BF582EF123C1222F58272
:102DC300E9124AA7F8221254C2E0640722123C44D3
:102DD300640622EE242A123C0F1229F52412123C17
:102DE3000F2274F4120382EAFEEBFF8C088D099024
:102DF3000666E0600F1227C57003A3E06970051231
:102E03000BC9804F7900124DE5120BF98A828B832F
:102E1300E58245836035A3A3A3A3A3A3E05418606D
:102E23002AE508241BF582E509122DBD12069D1221
:102E330034BB122DBD12069DEE24181254E4122E3B
:102E430058120C0B740412083480087900122E589F
:102E5300120BCF80278E828F83A3A3A3A3A3A3A345
:102E6300A3A31229F5240BF582EF122E712234004D
:102E7300F583123C6CFB2274031208347F040205B1
:102E83009DEE2417F582EF124AA72274F7120382EC
:102E930074F7120898EAFEEBFF900365E0640360A1
:102EA3000DE064016008E064096003022F588E821C
:102EB3008F83A3E0707E7C007D007A027B00121971
:102EC30007EE2402FAEF123828123C1D9003561223
:102ED3004A8E795312193D7900122F5DE06409601F
:102EE300031232F08518828519837401124A6490A3
:102EF30003657404F07401120A5AAA82AB83794AF7
:102F03001219377401120A5AAC82AD837A5B7B03C0
:102F13001219259003561252F47A031232FA9003CF
:102F230050E0A2E35004D2F08002C2F0124A5112E0
:102F330025AB801E8E828F83A3AE82AF83FC7D0080
:102F43007A037B101219078E828F83E0F9122F5DAB
:102F5300E4F0120C897409025035900363122E7544
:102F6300120B6990036522C082C083900334124A16
:102F730043701F900365E014600924FC600A146029
:102F83000C800F90033C8032900338802D90033ADD
:102F93008028E84960089003351232A2700C8A82B7
:102FA3008B83A3E0F9120B5D801B90033512355719
:102FB3007005120DC1800E9003D2124A43600612AF
:102FC3004A35121AE0023FC574F412038274FB12ED
:102FD30008988A088B097A0F7B001211938A0A8B4F
:102FE3000BAE0AAF0BEE4F70030230D28E828F838B
:102FF300124FBF7950121937850882850983A3E0E0
:1030030060030230BA900363E0F47003A3E0F4605A
:1030130034900363E064FE7003A3E0F46027851833
:10302300828519831230DE7003A3E0696017850877
:1030330082850983A374EA1232D87A637B037950B9
:1030430012193D80728518828519831254A3124A7E
:103053008E7A567B037953121937900356124ABF5F
:10306300124A8E7A597B03794B1219377A587B03AC
:1030730079E112193790036AE0C3940F502190034A
:1030830058E0C0E07402120A5AD0E0F07404120A45
:103093005A7401F004120A5AAA82AB8312194F75AB
:1030A3000A00780A1207F0780A1207F0900FB8E0C6
:1030B300F91232B91208348508828509831230D790
:1030C300A3F09003657403F0EEFAEFFB124A7774F2
:1030D30005022E7CA3E08E828F83221254A7E06820
:1030E300221240FD2274F512038274D81208988AC2
:1030F300088B098A828B83A3A3A3123C49741512FC
:103103000A5AAC82AD838A828B83A3A3A3A3A3A30E
:10311300A3A31232A8FAA3E0FB120C8F7415120AB0
:103123005AE0706B850882850983A3A3A3A3A3A395
:10313300A3A3E0C3940B40578E828F83A3A3A3A3BF
:10314300A3A3A3A3E064027046EE240B122E87F41C
:10315300703D900365E06402603AE0640660359078
:103163000334124A4360051232A2604F900365E0B4
:1031730064086005E0640470167417120A5AE0F9D3
:10318300741C120A5AAC82AD83124DE5120C95746D
:10319300280259C1900334124A43701F75080078FE
:1031A300081207F078081207F0EE2410122DBA1255
:1031B30054FC1239101232C21208348E828F8312D9
:1031C3004D6112383A123C1D7402120A5A124A8E89
:1031D300EE240D122E87C0E07404120A5AD0E012B6
:1031E30032CBF508A3E0F509740F7808120A0C74C2
:1031F30005120A5AE508F07419120A5AE0C0E0747D
:1032030006120A5AD0E0F0741B120A5AE0C0E074A6
:1032130007120A5AD0E0F07416120A5AE0C0E0749A
:1032230009120A5AD0E0F07417120A5AE0C0E07487
:1032330008120A5AD0E0F0EE2410122E87C0E07470
:103243000A120A5AD0E0F0741A120A5AE0C0E07463
:103253000B120A5AD0E0F07427120A5AE0C0E07445
:103263000C120A5AD0E0F0741C120A5AA982AA83DB
:1032730089088A09750A0078081207E87C087D0026
:103283007410120A5AAA82AB831245F212083485CB
:103293001882851983AA82AB83120B6302319212BF
:1032A300355D640122E0F98A828B83A3A3A3A3A3E0
:1032B300A3A3A3A3E0229003631252F8900359122D
:1032C3002E75120D4F740222F0EE240B124AA42223
:1032D300124AA7FA22F07A567B0379531232E32279
:1032E30012193D7A597B03794B12193D22900363DE
:1032F300122E75120DF1227B001219079003591239
:1033030052F87A047B0012190722F012550722742F
:10331300F212038274F8120898EAFEEBFF8C0A8D0E
:103323000B890C851882851983AC82AD83758385DF
:103333007582F27408120767F50DEEFCEFFD851830
:1033430082851983AA82AB83124CC27003750D0167
:103353009003B1803BEEFCEFFDE508240BFAE50991
:103363003400124CC1601E850882850983A3A3E043
:10337300650C7011850882850983E0650A7004A3D2
:10338300E0650B6038E5082414F582E509122DBDCC
:10339300123832E50845096024E50DA2E040B68500
:1033A3000882850983E0650A7004A3E0650B70D584
:1033B300850882850983A3A3E0650C70C8AA08ABBE
:1033C3000974080227DBC082C0839003B1023FC2A5
:1033D30074F71203829003B1123C6C8012EA241436
:1033E300F582EB122DBD123C49121211EEFAEFFBDE
:1033F300EA4B70E99003B1E4F0A3F00250387F0781
:1034030002059D74F1120382EAFEEBFF890A8C0820
:103413008D098E828F83E08C828D83123ED9AE829A
:10342300AF83E01246B2124623C41246B21234C42A
:10343300E054038C828D83124621A2E2E4338C8212
:103443008D83124620131313541F1246B212461FC4
:10345300A2E7E4338C828D83A3A3A3A31234C48E87
:103463000C8F0D750E00780C1207E87C087D00E5C3
:103473000824071252671208341252D28E0C8F0D91
:10348300780C1207E87C037D00E508240F125267CD
:10349300120834E50AC3940F40148E828F83A3A3CA
:1034A300A3E0C0E01234BB122DBDD0E0800612347D
:1034B300BB12572FF0023401E5082412F582E50907
:1034C30022A3A3123EDD0EAF832274F4120382748F
:1034D300F9120898EAFEEBFF8908900334124A4375
:1034E300600E1235577009EEFAEFFB120DBB805FC9
:1034F300900363E06E7003A3E06F7053740165087B
:1035030060097A777B03124CC270447A007B021203
:103513003A818B0BEA450B7036900366120A3785A6
:103523001882851983120A4390036CE0C0E0740487
:10353300120A5AD0E0F07405120A5A7401F07406A4
:10354300120A5A124FBF120B2DE9609B120B3374F0
:1035530007022E7C12355D6402221254C3A3A3A377
:10356300A3A3A3E02274F51203828A088B098A823B
:103573008B83A3AE82AF83E0F9120B818E828F839C
:10358300E064EB600C850882850983A3E064E17045
:1035930009850882850983A3E4F01225AB750A0126
:1035A300780A1207F0850882850983A3E0F5087875
:1035B300081207F079001232B9120834120CA10272
:1035C30059C4EAF0A3EBF0023FC574F612038290EC
:1035D30003B4E0701B7C0079017A007B00120CD1EC
:1035E300EA4B600C8A828B83124A436003120C2FCE
:1035F300024A4CC082C083123A69401079FF120C10
:10360300CBE9F8902395E493C398500479018002A1
:103613007900023FC574F01203828A088B09890B73
:10362300750C008A828B83A3A3A3A3A3A3A3A3E004
:10363300F9120CD78A0E8B0FAE0EAF0F750A01EE7F
:103643004F60030236F6850882850983A3A3A3A3EB
:10365300A3A31252F4850882850983A3A3A3A3A37A
:10366300A3A31243F2124DF2120CBF8A0C8B0DAEC0
:103673000CAF0DEE4F70030238198E828F83A3A314
:10368300A3A3E4F0A3F0E508240B123825E0C0E07F
:10369300122DB7D0E0F0120D97EE240CF582EF1245
:1036A3004A17E508240EF582E509123C1AEE240EAA
:1036B300F582EF124A8B750C01EE2406F8EF1238EF
:1036C30021547FF0A3E054FC125559E054046003E5
:1036D30002377C900F961243E37407780812092788
:1036E3008E828F83A3A3A3A3A3A3E04508F0A3E043
:1036F3004509F08E828F83A3A3A3A31238307407E6
:103703007808120A0CE5085407F508E50B607A8E71
:10371300828F83A3A3A3A3A3A3A3A3A37402124689
:1037230024240D1240F2E0A2E2500B900351124AFE
:10373300BFA3A3124A8EE50870030237EEEE2406F8
:10374300F8EF3400F9E8FAE9FB8A828B83E0547FCF
:10375300FCA3E054FCFDE50824FFF508E434FFF581
:103763000974077808120927EC4508F8ED4509F9AB
:103773008A828B83124A8E80728E828F83A3A3A345
:10378300A3A3A3E044800236F5E5087005750A009B
:1037930080598E828F83A3A3A3A3A3A3E0542060A5
:1037A3001212118DEA547F245F8E828F83A3A3A309
:1037B300A380238E828F83A3A3A3A3A3A3E0541088
:1037C300600A12118DEA540F240A80DD8E828F83E2
:1037D300A3A3A3A37401F0A3E412383A7404123A26
:1037E300788B09EA45097003124A0AE50CA2E050F6
:1037F300288E828F83A3A3A3A3125025F9EEFAEF99
:10380300FB120CC5E96012124A396003123C02EE46
:10381300FAEFFB121211750A00A90A0251B0124BFA
:103823008222FAE5093400FB8A828B8322A3A3E078
:10383300F508A3E0F5092212383E22125283A3A30E
:10384300A3A3A32274F412038274F71208987E00D0
:10385300120CD7EA4B70030239098A828B83A3A324
:10386300A3A3A3A3A3A3A3E0640660030239098A65
:10387300828B83A3A3A3A3A3A3A3E0FF8A828B8347
:10388300124105E0C0E07408120A5AD0E0123C3D30
:10389300124CC8124A8E120CE9EF54086066851860
:1038A300828519831252F47A007B00120CB98B0BB8
:1038B300EA450B704F900363123D2D1219677C008C
:1038C3007D007A007B0080288E828F83123C27F450
:1038D3007003A3E0F4602D900363123910124DF2CC
:1038E30012165BE9641A601C7C007D00EEFAEFFBA4
:1038F300120CB98A0A8B0BAE0AAF0BEE4F70C97963
:103903000012196D7E01EEF97409022E7C1239142E
:1039130022E0FCA3E0FD8E828F8322C082C083EA73
:103923004B70059003B580068A828B83A3A3123B59
:103933002D60258A828B83A3A3A3A3A3A3A3E0540F
:103943000860E5EC4D60158A828B83123C276C700E
:1039530003A3E06D70D280047A007B00023FC5743C
:10396300F2120382EAFEEBFF890A8C088D097A10B2
:103973007B0012120BEA4B603F8A828B83A3A3A3C3
:10398300A3A3A3A3A3A3E4123C2BA3E50A1254C944
:10399300A31239C58A828B83A3A3A3A3E4F0A31242
:1039A3003C37A3F012535DEA240CF582EB123EC9B7
:1039B3001239BEA3A3F0A3F00227DEA3F08A828B01
:1039C3008322A3A3E508F0A3E509F02274F412030C
:1039D30082EAFEEBFF89088C0A8D0BEE4F6055746B
:1039E30001650870147901120CCBE9F890239AE46D
:1039F30093C398500F7911806A74046508702F126D
:103A03003A6940F18E828F83A3A3A3A3A3A3A3A3A5
:103A1300A3E508123ED9A3125A4E8E828F83A3A325
:103A2300E4F0A3F09003B5124A436021800D7402C1
:103A3300650860D079C1802BE0F8A3124AB8A3A32C
:103A4300123B2D88828983A3A370ED80039003B575
:103A5300EEF0A3EF123A788B0BEA450B7003124A90
:103A63000A7900022E7F7904120CCBE9F89023A186
:103A7300E493C39822F0123A7D227A207B009003CC
:103A8300B0E0F91212CB22C082C083E9F87900902A
:103A930003B5801D8A828B83A3A3A3A3A3A3A3A39C
:103AA300A3E068600574FF687001098A828B83A3B1
:103AB300A3123B2D70DE023FC574F7120382EA4B5B
:103AC30070059003B580068A828B83A3A3123B2DD6
:103AD30060248A828B83A3A3A3A3A3A3A3A3A3E0AA
:103AE3006970E4EC60148A828B83E0240D1252E542
:103AF300A2E240D380047A007B00025038C082C027
:103B0300839003B580068A828B83A3A3123B2D6027
:103B1300128A828B83A3A3A3A3A3A3A3A3E06970A5
:103B2300E580047A007B00023FC5122E75EA4B2222
:103B330074F21203828A0A8B0B8C0C8D0D750800AC
:103B4300750900EA450B602E9003B580068E828FBF
:103B530083A3A3123B80601EAC0CAD0DEEFAEFFB0A
:103B6300850A82850B83121AE0E9640170DFEEF89F
:103B7300EFF988088909AA08AB090227DEE0FEA34A
:103B8300E0FFEE4F2274F71203829003B5123C1D3F
:103B93007C007D00800DE8FCE9FD88828983A3A376
:103BA300123C1DE8496030EA687002EB6970E790E7
:103BB30003B5124DF2E86A7002E96B88828983A328
:103BC300A37008123C1D9003B58009123C1D8C8222
:103BD3008D83A3A3124A8E02503874F7120382EA2C
:103BE300FEEBFFEE4F6015120CE3123C4F124A3905
:103BF3006003123C02EEFAEFFB121211025038EE90
:103C0300240C123C0F123C6422EE241DF582EF3487
:103C130000F58322F582EF123C12123FBC22F5829B
:103C2300EF123C12123C4422123C2F221254D1A315
:103C3300A3A3A322123C2FA3A3221239BF123C44F5
:103C4300221254BCE022E0FEA3E0FF228E828F8387
:103C5300E0241C1240F6123C648E828F83123C6473
:103C630022123C6CFB12121122E0FAA3E022C08262
:103C7300C083EAFCEBFDEC4D700479058044EC2431
:103C8300FBF582ED34FF124A417007123CC8E0F4A1
:103C9300600512119980E39003B0E0C0E0123CC8C4
:103CA300D0E0F0902397E493F97AB77B031211C322
:103CB300E96401700B7A007B20124A0E79008002BE
:103CC3007904023FC5EC24FFF582ED34FFF583222E
:103CD30074F4120382A2AFE433F508C2AF9003B7C2
:103CE300123B806038EE24FBF582EF34FF124A4129
:103CF3007A007B209003B06005124A118005E0F939
:103D03001211CFE4F50AF50B780A1207ECEEFCEF7B
:103D1300FD7AB77B031211BD7402120834E508A2C1
:103D2300E092AFEEFAEFFB022E7F1252F885188273
:103D3300851983AA82AB832274F212038274FC1264
:103D43000898EAFEEBFF750AFE750BFF120CA7E954
:103D530060057911023EBEEE2415122E876037905E
:103D63000FAAE0C43354E0F8E0333354FC48C0E016
:103D7300EE2415122DBAD0E0123ED9123ECF8B0994
:103D8300EA45096011750AFFEE240F122E874404D9
:103D9300124A9CD2E0F08E828F831227A36006EE34
:103DA3002412123EC6EE2413122E87701090239D08
:103DB300E493C0E0EE2413122DBAD0E0F08E828F8C
:103DC30083E0A2E750045403801CEE2414122E87D0
:103DD3007015900342E0C0E0EE2414122DBAD0E037
:103DE300F0900342E004F0EE2411122E8764017078
:103DF3001690065DE0600D90034DE0700A8E828F91
:103E030083E07003123EC38E828F83E064017013DC
:103E1300EE240B123C2164027009EE240F122E874C
:103E23004440F0851882851983AC82AD83EEFAEFA6
:103E3300FB120D0D8A088B0974FE650A700374FF6B
:103E4300F470098E828F83A3A3125273EA4509602B
:103E5300668E828F83E0C0E07401120A5AD0E0F0CC
:103E63007402120A5A1253617401120A5A85820C9F
:103E730085830D780C1207ECEE240F122DBA12066F
:103E83009DEE240E122E87F50C780C1207F090038A
:103E93005612069D7407120A5AE0F9AC0AAD0B12CA
:103EA3000D077407120834E9FE74106E700BAA082C
:103EB300AB0912121180027E10EEF974040227DBA3
:103EC300EE2411F582EF123C12E4F022A3122E75B8
:103ED30079FF120A6D22123EDD22F08E828F83A3B8
:103EE30022C082C08374DE1208988A828B83A3A3C4
:103EF300A3A3123C1D740E120A5AE8F0A3E9123F61
:103F0300B3740C120A5A123FAC240DF582EB122E35
:103F13008AC0E0741A120A5AD0E0F01251C0EB12B0
:103F23003C1A7420120A5A123FAC2415F582EB1284
:103F33002E8AC0E07408120A5AD0E0F0EA241CF575
:103F430082EB123C1A7412120A5A123FAC2411F576
:103F530082EB122E8AC0E07409120A5AD0E0123F93
:103F6300A074FFF07401120A5A74FFF07402120A6B
:103F73005A74FFF09086261206997404120A5AACFA
:103F830082AD837407120A5AAA82AB83120B577449
:103F930004120834790074221208348025123FA4D5
:103FA30022F085188285198322E8F0A3E9F0EA223A
:103FB3001239BFA3123FBB22A3E0F8A3E0F92212F8
:103FC3004DF2D083D0820207CC74EC12038274EEDC
:103FD3001208988A128B13ECFEEDFF8909742612DE
:103FE3000A5A1252737428120A5AE0F510742912ED
:103FF3000A5A1240E7742B120A5AE0F50EA3E0F5B1
:104003000F7508107A1E7B0012120B7402120A5AE3
:10401300124A1B7402120A5A124A4370030240E006
:10402300851882851983AA82AB8379501248F612C8
:104033004DF27402120A5A124105A3124A1B74105C
:10404300120A5A125A507402120A5AE0240B1240EE
:10405300F27402F0120A5A1241057402F0120A5A5B
:104063001254B41253617402120A5A124E07E5092C
:10407300F07402120A5AE0240C1240F2E510F074B4
:1040830002120A5A1240EFE512F0A3E513F0740886
:10409300120A5AE50CF0A3E50DF0740A120A5AE568
:1040A30010F0850E82850F83C082C083740D120ABF
:1040B3005AAC82AD83D083D0827403120767F9743C
:1040C30002120A5AAA82AB83120CADE9640170058D
:1040D30075080080087402120A5A123C08A9087471
:1040E3001202528AE0F50CA3E0F50D22E0241C1223
:1040F30040F622F8A3E01240FD223400F9888289B9
:104103008322124DFAA3A3A3A3A32274EE12038264
:10411300EAFEEBFF8C088D098E828F83A37408124D
:104123004AD7E060088E828F83A37410F0122E8426
:1041330060098E828F83A3E02408F0EE2415122EEB
:104143008760088E828F83A3E004F08E828F83A31F
:10415300A3A3A3A3A3E060198E828F83A3A3A3A326
:10416300A3A3A3E0C3332402F88E828F83A3E028A2
:10417300F0EE2411122E876005750B0E8003750B6C
:10418300008E828F83A3C082C083EE240D122E87FC
:10419300D083D082F8E028250B8C828D83F0EE2427
:1041A30011122E87600512460228F08508828509C0
:1041B30083E0C3947540097508007509000242F055
:1041C300E0FA7B0012540F70030242F0EEFAEFFBA9
:1041D300120D13EA850882850983124A1CEE240214
:1041E300F8EF1230E41243EA12432CF0EE240408F1
:1041F30008EF1230E412482CA312432CA3A3F0EED1
:104203002413124312F0EE2414124312A3F0750A7E
:1042130008EE2416122E876010EE24181252F1E5D0
:104223000824081254F2750A10122E846016EE2424
:104233001A1252F1850A0CE508250C1254F274087F
:10424300250AF50A8E828F83A3A3A3A3A3A3E06009
:1042530059EE2407F510EF3400F511851082F5832C
:10426300E0C0E01242F9122DBDD0E012431CE0C0C1
:10427300E01242F9122DBDD0E012431CA3124305F4
:104283001207E8851082851183E0C333FCE433FD14
:10429300850A0CE508250C12526712083485108232
:1042A300851183E0C333250AF50AEE2415122E8700
:1042B300600BC0E01242F9122DBDD0E0F0122DB711
:1042C3001243051207E8EE240D122E87FC7D0085AC
:1042D3000B0A8E828F83A3E0F8E50828F8E50934FA
:1042E30000F9E8250AFAE912526A120834AA08AB5F
:1042F300097F0A02059D850A0CE508250CF582E570
:104303000922E0F50CA3E0F50D750E00780C2212DE
:104313003C0F124336A3A3A322F0050A8E828F8398
:10432300A3A3A3A3A3A3A3A322A3A312555DA31291
:10433300433622124830A3A32274F61203828A82E0
:104343008B83E0FC9003531243E374027808120951
:1043530027EC4508FCAD09EA24121243DD74067804
:1043630008120927EC4508FCED4509FDEA2415F57B
:1043730082EB122E8A6004780180027800E4C8F987
:10438300ED49FDEA2411F582EB122E8AF50888091E
:1043930074097808120927ED4509FDEA241612432A
:1043A300DD740B7808120927ED4509FDEA2417127D
:1043B30043DD740C7808120927ED4509FD8A828BC9
:1043C30083A3A3A3A3A3A31243E3740A7808120944
:1043D30027ECFAED4509FB024A4CF582EB123C123D
:1043E300E0F50875090022E085088285098322A388
:1043F300E0F98508828509832274EE1203828A0A12
:104403008B0BECFEEDFF750F01E9C39408500579A2
:10441300000245EF8E828F83E9F0124855E960036D
:10442300750F001248398E828F83124883EE125122
:10443300C1EF124878C0E0EE2411122DBAD0E01279
:104443004870C0E0EE2412122DBAD0E0123ED974A7
:104453000812527BA3A3A3E06015124821EE241394
:10446300F582EF124A8B8E828F83A3E02408F08EAD
:10447300828F83A3A3A3A3A3A3A3A3E060218E821C
:104483008F83A3858208858309124864EE2415F57A
:1044930082EF124A8B850882850983E02408F08E17
:1044A300828F83A3A3A3A3A3E0601A8E828F83A327
:1044B3008582088583091248488E828F83A3A3A32C
:1044C300A3A3124614EE2419123EC6EE241B123E79
:1044D300C6A3124ACFE07003024583EE2419F8EF16
:1044E3003400F98E828F83A3858208858309E0FADD
:1044F300E50A2AF582E50B122E8A88828983124601
:1045030014FAE50A2AF582E50B122E8AC0E0EE249E
:104513001A122DBAD0E012461488828983E06059BA
:10452300F8902396E493C398500575110C8008EE18
:104533002419122E87F5118E828F83A3E0F8E50AE2
:1045430028F50CE50B1245F81207E8E511C333FC17
:10455300E433FD7A3E7B0E1245F2120834EE241B3F
:10456300122DBA743EF0A3740EF0E511C333F8852F
:104573000882850983E0288006EE241812572CF060
:104583008E828F83A3E0F88E828F83E0C3985003DB
:10459300024412A3E0FA8A08E50A2508F8E50B3479
:1045A30000F9EE241DF582EF124B97124624C39AAD
:1045B300C0E0EE2417122DBAD0E0124A94602BEE1D
:1045C3002417F8EF3400F9880889098882F583E015
:1045D30024F2124B78240EFAA3E03400FB8882897C
:1045E30083124A1B124602C398F0A90F0242F41227
:1045F300116F7403223400F50D750E00780C2290B0
:10460300034EE0F9120A97E9F8850882850983E0E9
:1046130022F0850882850983E004F022A3A3A3A3E3
:10462300A3F08E828F83E02274F41203828A088BB4
:1046330009EA1246B9F0EA1313543F1246B2A3A390
:10464300A3F0EAC413131246B9A3A3F0EB1246ABCB
:104653001246C37409780A120A0C1246A91246C2FA
:10466300740A780A120A0CE50A5401C0E0EC241813
:10467300F582ED122DBDD0E01246C8740B780A12F4
:104683000A0C1246A9A31246C2740C780A120A0C29
:104693001246A9A3A3A3A3A3A3A3A3F0740D78080D
:1046A300120A0C0229E9E50A54018C828D832254F3
:1046B3000F8C828D832254038C828D83A3A322A328
:1046C300A3A3A3A3A3F08A0A8B0B22C082C083797E
:1046D300008A828B83A3A3A3A3A3A3E090034D60CB
:1046E3000FE070228A828B83A3A3E07019098016DE
:1046F300E060138A828B83124DE9900356E06A705F
:1047030003A3E06B70E7023FC574F01203828A0AC9
:104713008B0B890C8C088D09124855124839850872
:1047230082850983124883E5081251C1E5091248BD
:1047330078C0E0E5082411F582E509122DBDD0E02B
:10474300124870C0E01234BB122DBDD0E0124B9F53
:104753007408124BB86011124821E5082413124B58
:1047630093124B9FE02408F0850882850983A3A355
:10477300A3A3A3A3A3A3E06017850882850983A34A
:10478300124860E5082415124B931246242408F0BE
:10479300850882850983A3A3A3A3A3E060198508E1
:1047A30082850983A3AE82AF831248488508828538
:1047B300098312461F04F0AA08AB09120D25E9F577
:1047C3000D7056850882850983A3A3A3A3A3A3120F
:1047D300482C7014E0FA8A0EE50A250EF8E50B1250
:1047E3004A80E50CC39A8021124860E8240EF8E958
:1047F300124A8090034EE0F9120A978E828F83E06B
:10480300F8E50CC39824F2C399C0E0E5082417F532
:1048130082E509122DBDD0E0F0A90D0251B0E50AE1
:104823002408F8E50B3400F92212483022E0850809
:1048330082850983A322850A82850B83A3A3124859
:1048430099E0F9EA22E0F8E50A28F582E50B124A35
:10485300A7228A828B831251B5120D1F22AE82AF1B
:1048630083E0F8E50A28F8E50B3400F9221248AC96
:10487300A3A3A3E022123C12E81248A5A3A3E022BB
:10488300A3A3A3A3A3A3A3A3A31248A5124899A3D5
:10489300A3E0F9EAF822E0FA850A82850B83A3A351
:1048A300A322F0A3E91248AC22F0850A82850B8388
:1048B300A3A3A3A322C082C0837AC57B0379E21298
:1048C30019377AC57B03023FC5C082C08390035664
:1048D300023FC2C082C08374FE1208988518828585
:1048E3001983AA82AB83794B1248F6124DF27402F4
:1048F300023F9B12193785188285198322C082C013
:1049030083794A121937023FC574F6120382900362
:10491300CDE0FE04F0EEF9120CD78B09EA450970DD
:10492300EDEE60EAF9024A4C74F0120382EAFEEB00
:10493300FF8C088D09890A7410120A5AE0F50B746A
:1049430011120A5AE0F50C120DF7EA4B7013E50C3D
:104953007042A90AAC08AD09EEFAEFFB120E0F8004
:104963006EE50A6021EA2402F582EB122E8A850A9B
:10497300082508F8E4340013E813F070098A828BE1
:1049830083A3A37401F0E50C6045E50B70068A82EE
:104993008B83E4F07401650C7035E50B9003D470E0
:1049A30004E4F0802AE004F0900F97E0F89003D439
:1049B300E0C398401AE4F0900359E06E7003A3E05B
:1049C3006F700CEEFAEFFB7901120B7B1249D502E3
:1049D30051B07A017B009003B0E0F91212C522C0F6
:1049E30082C08374016A7001EB70077A01124A0C6A
:1049F3008012900F8E124A1BEA4B600512276580C6
:104A0300031249D5023FC57A207B009003B0E0F939
:104A13001211C9223400F583EAF0A3EBF022C0821D
:104A2300C083900F900235C5C082C083900F92025D
:104A330035C51254C322EE240CF582EF3400F583FE
:104A4300123FBCE849221208347F0202059DA2F0FE
:104A5300E433851882851983124A6D795212193D00
:104A630022124A6D794212193D22F0AA82AB8322A7
:104A7300AA08AB099003B0E0F912119F223400F9A0
:104A8300E508241DF582E509123C12E8F0A3E9F0DC
:104A93002212527FA3A3E022A3F0EE2415124AA40C
:104AA30022F582EF3400F583E022124AB12234006A
:104AB300F583E0F8A3E0F98882898322E0F8124ABB
:104AC300C522A3E0F98E828F83A3A322F0EE2418DC
:104AD300123C0F22F0EE2416123C0F2274F4120340
:104AE30082EAFEEBFF7A007B041249D9124B6E1265
:104AF3004A8E9003657409F0120D318A088B09AC54
:104B030008AD09EE2413122DBA124DF2124CC264F1
:104B13000170487A0F124B6160418A828B83740261
:104B2300124B78FAA3E0FB8A828B83A3E0FC8A8290
:104B33008B83A3A3E0FBEC850882850983A3A312DF
:104B43004A1C88828983124DF61243EA124A9BFA61
:104B5300A3E0FB794A12193D124A73022E7F7B00B0
:104B63001211938A088B09EA450922900336123FF2
:104B7300BC900F9222F0EE241DF8EF124B8222120A
:104B830040FDE022124B8B223400F5837401F022A6
:104B9300F582E509123C12E8F0A3E922124BA322A5
:104BA300124BA722F0850882850983A322124BA703
:104BB300A3A3A3A322124BB0A3A3E022124FC912B3
:104BC3000D8522EE2417F582EF124B8B120D31EE79
:104BD300241A123C0FEAF0A3EBF02274F4120382BE
:104BE30074F31208988908EAFEEBFF7C0D7D0079C7
:104BF30000851882851983AA82AB8312117BEE2468
:104C03001D122DBA1254B4A3E0F8741F58600A7928
:104C13000112190D7900024CB9E8A2E55008740C91
:104C2300120A5A7401F0E8A2E75008740B120A5AE8
:104C33007401F0E8A2E6740A5008120A5A7401F0EB
:104C43008008120A5AE064017005EE24138003EE13
:104C530024151252F17402120A5AAA82AB83121952
:104C630025122DB7124CC7124A8E740A120A5AE043
:104C730064017033122798703B120D3D8A0A8B0B27
:104C8300A80AA90BEE240B122E87687003A3E06910
:104C93007022120D31EAFCEBFD7402120A5AAA8249
:104CA300AB83124CC2600D851882851983AA82AB2F
:104CB30083120B75A908740D022E7CEEFAEFFB121A
:104CC300191FE922E0124CCC22F8A3E0F9851882DF
:104CD3008519832274F612038274F31208988A08E2
:104CE3008B09ECFEEDFF7C0D7D0079008518828534
:104CF3001983AA82AB83125659A3A3A3A3A3A3A385
:104D0300A3A3124D61124D6AF8A2E55008740B1269
:104D13000A5A7401F0E8A2E75008740A120A5A7496
:104D230001F0E8A2E6EE5004241380022415125287
:104D3300F17402120A5A124D53A3A3E0C0E0740C9B
:104D4300120A5AD0E0124FC1120B6F740D024A4976
:104D5300AA82AB8312192585088285098322E01272
:104D63004CCCE8F0A3E922F0123C0C1254B8A3E0B7
:104D73002274F712038274E1120898EAFEEBFF8EA5
:104D8300828F83124DF6A3A3A3E0A2E050518E823B
:104D93008F831228F88A828B83A3A3A3A3A3A3E000
:104DA30054FE124E0E8A828B83124E07E0F98A82DA
:104DB3008B83E0241CFAA3E0123828124DF2120D63
:104DC3002BE9701B741D120A5A124E0170118518BB
:104DD30082851983AC82AD83EEFAEFFB120D730269
:104DE30050338E828F83A3A3A3A3A3A3A3A3A3124E
:104DF3002E7522124DFA221254BCA3A3A322123CF5
:104E030044640422E0241B1240F622123FA4AC8225
:104E1300AD8322E9F87900740468600A740A686053
:104E2300057403687001090207CC74F61203828AC1
:104E3300828B837420F0A3A37401F0120B218A08E0
:104E43008B09AE08AF09EE4F60108E828F83740119
:104E5300F09003A3E07003124BC6EEFAEFFB024A95
:104E63004CC082C0839003B97401F0E9A2E35003FC
:104E73007403F0E9A2E15004E0D2E2F0023FC5740A
:104E8300F612038279007C008A088B0978081205E0
:104E9300E3F8FF07B54EB34EB34EB34EB34EAC4E2D
:104EA300B04EB54EA94E0C80097C0480050C80F6EB
:104EB3007C089003B9E05C6003098003EC6001099E
:104EC300024A4C74F61203828A828B83E07012A327
:104ED300124A43600C8A828B83124DF1121A1B8093
:104EE300047A007B00024A4C74F512038274F312B5
:104EF30008988A088B09ECFEEDFF750A12EA45094A
:104F030070057900024FBA900356E065087004A358
:104F1300E065097014120D31EAFCEBFD124CBE7012
:104F230005750A018003750A00851882851983E4D3
:104F3300F004120A5AE508F0A3E509124FC1120A58
:104F4300E5E960277403120A5AAA82AB83120AC7DF
:104F5300E964017016750A017403120A5AAC82AD32
:104F630083124CBE6021750A00801C7412650A709E
:104F7300169003A2E06402700EEEFCEFFDAA08ABEC
:104F830009120AFDE970DFEEFCEFFDAA08AB091276
:104F93000DFDE9F8740A687005750A01801774A09D
:104FA300687012EEFCEFFDAA08AB09120E09AA08FD
:104FB300AB09120E1BA90A740D0259C17402124FD8
:104FC300C522124FC922123FA4AA82AB832274F7CF
:104FD300120382EAFEEBFF8E828F83A3A3A3A3A314
:104FE300A3A3A3E06015EE2415122DBA122E6512A9
:104FF3000D9DE964017004790180258E828F83A35E
:10500300A3A3A3A3A3A3E06015EE2413122DBA1246
:105013005025FAA3E0FB120D9DE9640160D97900E4
:105023008013123914A3A3A3A3A3A3A3A3A3E022CE
:10503300741F1208347F0102059D74F012038274F9
:10504300FD1208988A088B09ECFEEDFF890B741397
:10505300120A5AE0F50C750A017401120A5A740413
:105063001254EC6048E50C601DEA2417F582EB123C
:10507300572F1254DA8A828B83E0D2E7F0EA2414A2
:10508300F582EB123EC91251C0EB124AAD74031202
:105093005A52EE88828983A3A3F0EF88828983A37F
:1050A300A31239BE1239C5120B1BE9F50AA90A74FA
:1050B300030251AD74EC12038274F51208988A0A44
:1050C3008B0B890C8C0E8D0F741F120A5AE0F50D91
:1050D3007420120A5AE0F510A3E0F5117E01EE12D6
:1050E3000A5A740AF0E97007E50DC333240AF01273
:1050F300529270030251941252A77409F0A3E50C63
:10510300C43354E0450D1252B9E50C702D7C008078
:1051130023ECC333F8E433F9E51028F8E51139F942
:10512300888289831251A1888289831230D7F0A3A0
:105133000EAF830CECC3950D40D7E5082417F58219
:10514300E509124B87120D31E508241AF582E509AA
:10515300124A177403120A5AAC82AD83AA0AAB0B24
:10516300120ACDE96019E5082416F582E509125102
:105173009B120A5AA882A983E5082418124A878534
:105183000882850983125A4EAA08AB09120B1BE940
:10519300FEEEF9740B02528A124B8B740322E08EDB
:1051A300828F83F0A3AE82AF83221208347F08027A
:1051B300059D123C6CF9EA2400E439FB22EA240B36
:1051C300F5822274EE1203828A0C8B0D890E8C08F1
:1051D3008D097412120A5AE0F50F7413120A5A1247
:1051E30052739005CC124A436077E50FC333F8E45A
:1051F30033F9E8240EFAE93400FB1211938A108B79
:1052030011AE10AF11EE4F60588E828F8374D4F0BD
:10521300A3A3E50CF0A3E50D12527BE50EF0AC0859
:10522300AD09EE2405FAEF1254F5EE240D122DBA52
:10523300E50FF0850A08850B09750A00780812073F
:10524300E8E50FC333FCE433FDEE240EFAEF12520C
:105253006A120834EEFAEFFB9005CC1254B4121A1A
:10526300E00242F4FAE5093400FB12116F740322E1
:10527300E0F50AA3E0F50B2212527F221252832299
:10528300123EDDA3A3A3221208347F0C02059D85E1
:105293001882851983AA82AB83120D858A088B092C
:1052A300EA450922EA240BF582EB124AA7FEA3E0A2
:1052B300FF8E828F8322F0A3AE82AF83AC0EAD0F3D
:1052C300EEFAEFFB1252CB221219251252D222EE22
:1052D3002408FEEF3400FF22E0FA8E828F83A3A31B
:1052E300E022FEA3E03400FF8E828F83E022123C93
:1052F3000F1252F822E0FCA3E0FD22122E75120DCC
:10530300192274F6120382EAFEEBFF9003BA8013AC
:1053130088828983E06E7003A3E06F603A88828994
:1053230083A3A3124A4370E87A047B0012120B8A08
:10533300088B09A808A909E849601C888289831297
:1053430053619003BA124DF288828983A3A3124A50
:105353001B9003BA124A8E024A4C8A828B83EEF068
:10536300A3EFF02274F41203827E009003BA800745
:105373000E88828983A3A3124A4370F4EEC333FADF
:10538300E433FB12540F607E7F009003BA802488BD
:105393008289831252F4EFC333FAE433FBE5082A1C
:1053A300F582E5093BF583ECF0A3EDF00F888289E4
:1053B30083A3A3124A4370D79003AB1227D270037F
:1053C300A3E069780870191207ECEEF50A780A125F
:1053D30007F07C777D0379009003AB12541A801A8F
:1053E3001207ECEEF50A780A1207F07C777D037951
:1053F300009003AB124DF2120DAF7403120834AADE
:1054030008AB09121211120B33022E7F12120B8AF0
:10541300088B09EA450922122E75120DB522C082A6
:10542300C08380128A828B83A3A3123C1D9003BA8C
:10543300124A8E1212119003BA123B2D70E6023FEC
:10544300C574F6120382900363123C499003CE1293
:1054530054A3124A8E7ACE7B03795012193D9003DE
:10546300CE1229F1FAEFFB120E159003CE123C492E
:105473009005CE124A4360257A067B00121193EA07
:105483004B601A8A828B8374D5F0A3A3E41254C9A8
:10549300041254DA9005CE1254B4121AE0024A4CA4
:1054A3001254A722E0F8A3E0F9900363228E828FBF
:1054B300831254B8221254BC22E0F81254C222A31D
:1054C300E0F5838882221254CD221254D122F08A2D
:1054D300828B83A3A3A3221254CDA3EEF0A3EFF0F8
:1054E30022F582EF124AA7F922124BBFEA4B22FAA6
:1054F300E5093400FB12192522124AC6A3A3A3A36C
:10550300A3A3A322902398E4932401F8E43400F99D
:105513007A027B002274F71203827E008004125BFE
:10552300050E12562940F77E00EE12554474FEF024
:10553300A304125559E4F00EEEC3940340EB02505A
:105543003875F003A4F8A9F074BC28F8740339F98A
:1055530088828983A32212555D22F088828983225F
:1055630074F71203827F0080010F9023A0E493F865
:10557300EFC3985026EF1257156A7003A3E06B70C0
:10558300E8125AB26C7003A3E06D600A74FF6C708A
:105593000374FF6D70D312562080047A007B0002DF
:1055A300503874F61203827CFF7DFF7AFE7BFF1274
:1055B3000DD9EA4B70407508008036E50875F01781
:1055C300A4F8A9F074D928F582740C125727600C3B
:1055D30074D828F582740C125727701374CA28FEE6
:1055E300740C39FF8E828F83125734EEFAEFFB056A
:1055F3000812568F40C5024A4C74F41203828A087B
:105603008B09ECFEEDFF800B120DEBEEFCEFFDAA18
:1056130008AB09120DD9EA4B70EE022E7F74CA282B
:10562300FA740C39FB229023A0E493F8EEC398227A
:1056330074F7120382EAFEEBFFEE4F60101256532B
:1056430074FEF0A304125A5814F0A304F002503865
:105653007C177D00790012117B8E828F832274F771
:10566300120382EAFEEBFF7508008018E50875F067
:1056730017A4F8A9F0125ABD7003A3E06F600312D8
:105683005B0D050812568F40E30250389023A0E4C7
:1056930093F8E508C3982274F6120382120DD98A8F
:1056A300088B09A808A909E849600AE8240DFAE962
:1056B3003400FB80047A007B00024A4C74F412032A
:1056C300828A0A8B0BECFEEDFF75080075090080DA
:1056D3002EE50975F017A4F8A9F0125AF8601EE533
:1056E30009125715650A7004A3E0650B700375086A
:1056F3000AEEFCEFFD1259B460034308A0050990BC
:1057030023A0E493F8E509C3985004E50860C202B6
:1057130029E975F017A4F8A9F01257202274CA28B2
:10572300F582740C39F583E022F582EF123C12E422
:1057330022122E75120C112212555DA3A3A3A3A34B
:10574300A3A3A32274F21203828A088B09ECFEED51
:10575300FF740E120A5A125273750C007C007D01FD
:10576300801012118DE50CF5F0EA84ACF0750C0095
:105773007D007800790080031258F112594D4003DF
:10578300025813E8FAE9FBEA75F017A4FA85F00D5D
:1057930075F017EBA4250D1259297003A3E0F460EB
:1057A300D712590765087004A3E0650960CA125946
:1057B300076E7003A3E06F60BF125907650A700498
:1057C300A3E0650B60B2E8FAE9FBEA75F017A4FA07
:1057D30075F017EBA4250DFB74D82AF582740C120F
:1057E30058E8509474016D050C608DE50CC39C4022
:1057F30087E875F017A4F8AAF075F017E9A42AF959
:1058030074CA28F582740C39F583124DF20258E5F7
:105813007800790080031258F112595A4003025854
:10582300CCE8FAE9FBEA75F012A4FA85F00D1259F7
:105833003964FE7003A3E0F460DC12592F6508702D
:1058430004A3E0650960CF12592F6E7003A3E06FC4
:1058530060C412592F650A7004A3E0650B60B7E8B2
:10586300FAE9FBEA75F012A4FA75F012EBA4250D20
:10587300FB74592AF582740B1258E85099E8FAE937
:10588300FBEA75F012A4FA75F012EBA4250D125879
:10589300FA64016081E06402700302581974016DB7
:1058A300050C7003025819E50CC39C5003025819E8
:1058B300E875F012A4F8AAF075F012E9A42AF974B5
:1058C3005028F582740B02580AE50C6011EC700E37
:1058D3007401650C60030257657C010257707AFE00
:1058E3007BFF0227DE3BF583E014C3940622E82402
:1058F3000108E93400F922FB74542AF582740B3B46
:10590300F583E022E8FAE9FBEA75F017A4FA75F0EB
:1059130017EBA4250D12591C22FB74CA2AF58274B5
:105923000C3BF583E02212591C64FE22E8FAE9FBE2
:10593300EA75F012A4FA75F012EBA4250DFB74506E
:105943002AF582740B3BF583E0229023A0E493FABB
:10595300C3E89AE994002290238FE493FA740193A5
:10596300FBC3E89AE99B2274F51203828A088B0928
:10597300ECFEEDFF750A008002050A9023A0E49374
:10598300F8E50AC3985028EEFCEFFDE50A75F01719
:10599300A4F8A9F01259B460E0E50A75F017A4F869
:1059A300A9F074CA28F582740C39F5831239C780BB
:1059B3001074CC28FA740C39FB12191FE92212084F
:1059C300347F0302059D74F01203828A088B098CCD
:1059D3000A8D0B890C120DDF8A0E8B0FAE0EAF0FE3
:1059E300EE4F6055125653E508F0A3E509125A58D5
:1059F300125A50E50C600AEE240F122DBAE50C8002
:105A030006EE240F125A48F09003D0124A43601A4C
:105A13009003AAE064017008EE240E12572C801044
:105A2300EE240E122DBA74078006EE240E125A4885
:105A330012330D120231125A3F0251B0EE240D12ED
:105A43003C0FE8F022123C0F740122A3A3E50AF0F5
:105A5300A3E50BF02212383EA32274F51203828AC7
:105A6300088B09ECFEEDFF750A00800F125ABD701A
:105A730003A3E06F6003125B0D050A9023A0E49378
:105A8300F8E50AC3985025E50A75F017A4F8A9F0BC
:105A9300125AB265087004A3E0650970CF74D42864
:105AA300F582740C39F58312536180CD0259C474A5
:105AB300D428F582740C1257272274D428F58274E3
:105AC3000C1257276E2274F7120382EAFEEBFF755E
:105AD30008008019E5081257156E7003A3E06F7074
:105AE3000A125AF87005E508125B06050812568F6C
:105AF30040E202503874CC28FA740C39FB120AC7FE
:105B0300E922EE75F017A4F8A9F0125620120DEB56
:105B13002212555D123FBCE84922C082C08374F84B
:105B2300120898851882851983AC82AD83758385A5
