:020000040000FA
:060000000209ED0201D52A
:03002B0002084E7A
:0300330002068240
:030043000207228F
:03004B00021ACACC
:03005300020106A1
:03006B0002066822
:1000830002016A0101FF050301B90FB90FB90FB9E5
:100093000F750E6F0EB90F27210000000089210094
:1000A3000000000C0000000C0001FFFF0400414CA5
:1000B300442057534E2D73797374656D000000000F
:1000C3000000010280402010102040800101010047
:1000D300A805000000F905E80364006400B8010204
:1000E3000200000002050207051E02051E0A03B8EE
:1000F3000B0201028816021F00E007965118000246
:10010300020612C0E074F21203EEA2AFE433FED291
:10011300AFE5A7FFE5A1F5085F5410600612169D31
:1001230075A1EFE5085F540860081216A375A1F7DF
:10013300802BEFA2E0C0D0E508A2E092F012093ACA
:10014300158182F05017906198E0F8900AD3E0C3CC
:1001530098A2D265D0335002E8F075A1FEEEA2E07A
:1001630092AF7F010204A5C0E074F21203EEA2AFC6
:10017300E433FED2AF9061A4E0F8759B00E591589B
:10018300540860087591F71216EB802AE5915854CC
:100193001060087591EF1216F1801BE8A2E0C0D041
:1001A300E591A2E092F012093A158182F05007E03E
:1001B300C2E0F01218359061A3E0F8E5E958540461
:1001C300600E12180B75E9FB906193E0A2E640F212
:1001D300808BC0E074F21203EEA2AFE433FED2AF21
:1001E3009061A5E0F8E5BF585404600675BFFB12A3
:1001F300184D020160C3E498F8E499F912023980BA
:1002030026C3E49AFAE49BFBE920E7E9120239E406
:1002130098F8E499F922C3E498F8E499F9120239B9
:10022300E498F8E499F9C3E49AFAE49BFB22EB20FF
:10023300E7CFE920E7E0B90010BB0008E88AF084C3
:10024300F8AAF022E4FBC8FA22EB70227B10C83331
:10025300C8C933C9335007C39AC3DBF280069A5027
:10026300012ADBEAC833F4C8C933F4C9FA2275F0AA
:1002730008E4C833C8C933C933C99AC99B5004C9F0
:100283002AC93BD5F0ECFBC833F4C8E4C9FA220809
:100293000808EAC0E0EBC0E086F0E7A4FA18098694
:1002A300F0E7A42AFA180986F0E7A42AFA180986BF
:1002B300F0E7A42AFA1986F0E7A4FBE5F02AFA1975
:1002C3000886F0E7A42BFBE5F03AFA190886F0E775
:1002D300A42BFBE5F03AFA18180986F0E7A4C5F059
:1002E3002BFBE43AFA1908E7C5F0C6A426F6E5F0B5
:1002F3003BFBE43AFA1886F0E7A4F6E5F00826F6A5
:10030300E43B08F6E43A08F6D0E0FBD0E0FA22E456
:10031300CFC0E0E4CEC0E0E4CDC0E0E4CCC0E07503
:10032300F020C3E633F608E633F608E633F608E6CC
:1003330033F6181818EC33FCED33FDEE33FEEF33D0
:10034300FFC3EC9709ED9709EE9709EF9719191970
:10035300400FFFEC97FC09ED97FD09EE97FE191985
:1003630006D5F0BEECF709EDF709EEF709EFF7193B
:100373001919D0E0FCD0E0FDD0E0FED0E0FF22254B
:1003830018C582C0E0E51934FFC583C0E0E518C392
:10039300958224F810AF0885831985821880088513
:1003A3008319858218D2AFCEF0A3E520F0A3780895
:1003B300E608F0A3DEFAEFF0A3E58124FAF8E608F5
:1003C300F0A3E608F0A3E608F0A30808E608F0A304
:1003D300E608F0A315811581D0E0FED0E0F8158181
:1003E30015811581E8C0E0EEC0E022C0D02518C514
:1003F30082C0E0E51934FFC583C0E0E518C39582E8
:1004030024F310AF08858319858218800885831922
:10041300858218D2AFC8F0A3E9F0A3EAF0A3EBF00A
:10042300A37908E709F0A3D8FAECF0A3EDF0A3EE63
:10043300F0A3EFF0A3D0E0F0A3D0E0F0A3D0E0F07E
:10044300A3E520F0A3E5F0F0A322120A4FB90003BD
:1004530002048FE4900301782A790D8002F0A3D877
:10046300FCD9FA900F2AAA82AB839000867881790F
:10047300018015E493A3AC82AD838A828B83F0A3BE
:10048300AA82AB838C828D83D8E9D9E775824B75B9
:1004930083EC74021207C67582C375831A74001243
:1004A30007C6851983851882E0C0E0A3E0F9A3E0BD
:1004B300FAA3E0FBA37808E0F608A3DFFAE0FCA3C5
:1004C300E0FDA3E0FEA3E0FFA3E0C0E0A3E0C0E003
:1004D300A3E0F5D0A3E0F520A3E0A3F5F010AF0867
:1004E3008583198582188008858319858218D2AF80
:1004F300D082D083D0E0F8D0E032E8030875F01062
:100503008E1A8F1B85821F85831E8518828519830A
:10051300E0CEA3E0CF851F82851E83EBC9EAC8ED39
:10052300CBECCAC3E833C8E933C9EA33CAEB33CBEC
:10053300C3EA9EF51DEB9FF51CB35004AB1CAA1D2B
:10054300EC33CCED33CDD5F0DAAE1AAF1B22D0832A
:10055300D082ECC0E0EDC0E0E493A3FCE493A3FD00
:10056300ED4C600D120629EC24FFFCED34FFFD80F9
:10057300EFE493A3FCE493A3FDED4C600D1206F7A7
:10058300EC24FFFCED34FFFD80EFD0E0FDD0E0FC78
:10059300E493A3C0E0E493C0E02285198385188225
:1005A300E0A3FEE0A3F5207808E0A3F608DFFAE075
:1005B300A3FFE0A3C0E0E0A3C0E0E0A3C0E0E0A3AA
:1005C300C0E0E0A3C0E010AF0885821885831980DE
:1005D30008858218858319D2AFD083D0820207CCD5
:1005E300D083D082E9C0E0E493A3C386F0C5F0953D
:1005F300F0F908E493A386F0C5F095F0700BE4934B
:10060300A3C3994005E9048002A3E475F002A4257D
:1006130082F582E5F03583F583D0E0F9E493A3C056
:10062300E0E493C0E022C0E0C3E49396087401932E
:100633009618400FE4936670080874019366187067
:10064300007019A3A3C3E49396087401939618A3A7
:10065300A3400DD0E0D0E0D0E002058DA3A3A3A377
:10066300A3A3D0E022C0E074F21203EEE589A2E175
:100673005003121559758900C2C57F010204A5C034
:10068300E074F21203EEE58BA2E0500312155975E4
:100693008B00C2E880E47404800474028000CCC040
:1006A300E0EDC0E0E518C39CCCAD1950011D10AFBF
:1006B300068C188D1980068C188D19D2AF12076716
:1006C300D0E0FDD0E0FC2274028000CCC0E0EDC09D
:1006D300E0E518C39CCCAD1950011D10AF068C1872
:1006E3008D1980068C188D19D2AF120745D0E0FD05
:1006F300D0E0FC22C0E0C0F088F0E4936670080804
:1007030074019366187000A8F0A3A3700BD0F0D007
:10071300E0D0E0D0E002058DA3A3D0F0D0E022C06A
:10072300E074F21203EEA2AFE433FED2AFC2C0E52F
:10073300D1A2E45003121619EEA2E092AF7F010298
:1007430004A5CAC0E0E493A3C582CCC582C583CD0A
:10075300C583F0A3C582CCC582C583CDC583DAE545
:10076300D0E0CA22CAC0E0E0A3C582CCC582C5835B
:10077300CDC583F0A3C582CCC582C583CDC583DA3D
:10078300E6D0E0CA22700908080822601618181873
:10079300C6C333C608C633C608C633C608C633C67F
:1007A300D5E0EA22C008C3E096F50808A3E0964224
:1007B3000808A3E096420808A3E09645087001D311
:1007C300D00822C09FF59FE473D09F22D083D082AC
:1007D300C09FE493C0E0740193C0E0740293F59F5B
:1007E300227404800A74038006740280027401C0B8
:1007F300E0F4041207FFD0E0120A2A222518F5823A
:1008030010AF08F518400215198008F518400215B5
:1008130019D2AF85198322BB0102E722C082C083AC
:1008230089828A83BB0003E08002E493D083D08271
:1008330022C0D0251810AF08F518500205198008FA
:10084300F51850020519D2AFD0D022C0E0C0D0E8CD
:10085300C0E0E5A8D2AFC2C7A2E792AFD0E0F8D01C
:10086300D0D0E0326016080808C6C313C618C613F2
:10087300C618C613C618C613C6D5E0EA22C3E0C617
:1008830096F608A3E0C696F608A3E0C696F608A374
:10089300E0C696F622251810AF08F5184002151980
:1008A3008008F51840021519D2AF22E066701008CF
:1008B300A3E066700A08A3E066700408A3E066225A
:1008C300C3E09608A3E09608A3E09608A3E096A2E7
:1008D300D265D03322E76670100809E766700A080C
:1008E30009E76670040809E76622C3E096F008A3E7
:1008F300E096F008A3E096F008A3E096F022E02645
:10090300F008A3E036F008A3E036F008A3E036F0E1
:1009130022E627F60809E637F60809E637F6080956
:10092300E637F622700422600D18C6C333C608C624
:1009330033C6D5E0F41822C0E0E8C0E0E58124FC2A
:10094300F8E6A2E7D0E0F8D0E022E657F60809E699
:1009530057F60809E657F60809E657F622E056F671
:1009630008A3E056F608A3E056F608A3E056F622DD
:10097300E056F008A3E056F008A3E056F008A3E021
:1009830056F022E647F60809E647F60809E647F671
:100993000809E647F622E026F608A3E036F608A3A0
:1009A300E036F608A3E036F622E4C396F608E496AA
:1009B300F608E496F608E496F622C6F4C608C6F4EA
:1009C300C608C6F4C608C6F4C622C3E7960809E7F4
:1009D300960809E7960809E79622C3E09608A3E07C
:1009E3009608A3E09608A3E0962275D0007581408F
:1009F3007518017519030002044DE0F608A3E0F62B
:100A030008A3E0F608A3E0F622600C08C6C313C6E9
:100A130018C613C6D5E0F422E6F008A3E6F008A34F
:100A2300E6F008A3E6F022CAC0E0E6F0A308DAFA8B
:100A3300D0E0FA22E0FAA3E0FBA3E0FCA3E0FD226E
:100A4300EAF0A3EBF0A3ECF0A3EDF022E5C754F832
:100A53004401F5C77901222518F582E43519F58398
:100A630022C2AF75D69F020000221207CFB0AF019A
:100A73001207CFF8AF011207CF67B0011207CFB645
:100A8300B2011207CF09B4011207CFACB4011207A8
:100A9300CFE4B5011207CF02B6011207CF3F5B00C7
:100AA3001207CF515B001207CFA35B001207CF04DD
:100AB3005C001207CF8E5C001207CF325D00120775
:100AC300CF865D001207CF9F5D001207CFC55D0083
:100AD3001207CF005E001207CF445E001207CF6BF0
:100AE3005E001207CFBC5E001207CF6C5F001207D7
:100AF300CF2460001207CFEC60001207CFC961005A
:100B03001207CF4F62001207CF5E62001207CF6950
:100B130062001207CF7263001207CF8363001207CC
:100B2300CFF963001207CF8B64001207CFE3640091
:100B33001207CFA965001207CFDA65001207CF1F8E
:100B430066001207CF2C66001207CFC0670012079A
:100B5300CF2369001207CF3F6A001207CFA96C00A9
:100B63001207CFB46C001207CFBE6C001207CFC9B7
:100B73006C001207CFD36C001207CFDD6C00120795
:100B8300CFE86C001207CFF36C001207CF246D007F
:100B93001207CF486D001207CF6C6D001207CFD13B
:100BA3006D001207CF156E001207CF316E001207CA
:100BB300CFA86E001207CFE06E001207CF2C6F0094
:100BC3001207CF896F001207CF6B71001207CFF1A5
:100BD30071001207CFC272001207CFD2750012073D
:100BE300CF2776001207CF5376001207CF9F7700E7
:100BF3001207CFEF77001207CF4478001207CF45D3
:100C030079001207CFDD79001207CF5F7A00120750
:100C1300CFFF7A001207CF8A23001207CFC3230026
:100C23001207CF9D25001207CFDC25001207CF2620
:100C330026001207CFCB26001207CF2A2700120760
:100C4300CF5E27001207CFCB27001207CFE828007B
:100C53001207CFF029001207CF862A001207CFCD43
:100C63002D001207CF762E001207CF522F00120746
:100C7300CFB32F001207CFD030001207CFFA3200C4
:100C83001207CFB133001207CFBB33001207CFEEE9
:100C930033001207CFB534001207CF5035001207C7
:100CA300CFB535001207CFDE35001207CF0036006F
:100CB3001207CF2F38001207CF0639001207CF4A89
:100CC30039001207CFB739001207CF723A00120763
:100CD300CFA43A001207CFE83A001207CF1B3B001C
:100CE3001207CF703B001207CFC53B001207CF5945
:100CF3003C001207CFBB3C001207CF233D00120775
:100D0300CFCC3E001207CFB43F001207CFF640000E
:100D13001207CF2443001207CFE443001207CF1377
:100D230046001207CFB646001207CFF4460012075B
:100D3300CFA048001207CFB448001207CFBE480027
:100D43001207CFE848001207CFF448001207CF1369
:100D530049001207CFCA49001207CF094A001207F8
:100D6300CF134A001207CFC74A001207CFC64B0062
:100D73001207CFBF4C001207CF5C4D001207CFFE06
:100D83004D001207CF154E001207CF4C4E0012072D
:100D9300CF6A4E001207CFAE4E001207CFD34E00DC
:100DA3001207CFB94F001207CF2550001207CF9F6C
:100DB30050001207CFAE51001207CFED52001207B9
:100DC300CF4F53001207CF0954001207CF2C540002
:100DD3001207CF0055001207CF4B55001207CF8DD6
:100DE30055001207CFE455001207CF1B5600120718
:100DF300CF4956001207CF8256001207CFA75600DD
:100E03001207CF2F57001207CF5259001207CFB145
:100E130059001207CF455A001207CFB15A001207E3
:100E2300CF055B001207CF3F8D031207CF7E8D03E3
:100E33001207CF47B7011207CFA1B7011207CFFDA2
:100E4300B7011207CF49B8011207CF64B8011207DF
:100E5300CF95B8011207CFB2B8011207CFBEB801C0
:100E63001207CF32BA011207CF4BBA011207CFB222
:100E7300BA011207CFC5BA011207CFD3BA011207BD
:100E8300CF87BB011207CF6BBC011207CF71BD0126
:100E93001207CFF7BD011207CF01BE011207CF6EB4
:100EA300BE011207CF85BE011207CFB7BE011207DD
:100EB300CFF0BE011207CF1ABF011207CF7BBF01CC
:100EC3001207CF9BBF011207CFB9BF011207CFFF94
:100ED300BF011207CF25C1011207CF72C10112074B
:100EE300CFA1C1011207CF17C2011207CF3FC20121
:100EF3001207CF78C2011207CF86C2011207CFDED5
:100F0300C2011207CF2DC3011207CF6CC301120711
:100F1300CF9CC3011207CFC8C3011207CFD3C301AC
:100F23001207CFF1C3011207CFB3C4011207CFBD1C
:100F3300C4011207CFF8C4011207CF0EC50112076F
:100F4300CF17C5011207CF6CC5011207CF80C501AA
:100F53001207CF8EC6011207CFA1C6011207CFB663
:100F6300C6011207CF58C7011207CFDBC70112070B
:100F7300CF99C8011207CFA4C8011207CFCAC9016C
:100F83001207CFE6C9011207CF38CA011207CF777C
:100F9300CA011207CF8CCA011207CFCECA011207AA
:100FA300CF1BCD011207CF99CD011207CF0CCE0174
:100FB3001207CF2ED0011207CF46D0011207CF4917
:100FC300D0011207CF55D0011207CF69D001120704
:100FD300CF71D0011207CFA4D0011207CF54D10192
:100FE3001207CFCAD1011207CF3DD2011207CFF1A9
:100FF300D2011207CFA6D3011207CFC5D30112071F
:10100300CF65D4011207CF71D4011207CF9CD4014D
:101013001207CF9FD4011207CF09D5011207CF3191
:10102300D6011207CF09D7011207CF94D7011207B0
:10103300CFADD8011207CF6AD9011207CFA3D901C7
:101043001207CFD4D9011207CF74DA011207CFA444
:10105300DA011207CF7FDB011207CF18DC01120779
:10106300CFA3DC011207CF54DD011207CFD6DD0178
:101073001207CF08DE011207CF49DE011207CF04A2
:10108300A5021207CF69A5021207CFA6A502120770
:10109300CFF5A5021207CF0BA8021207CFEEA902C4
:1010A3001207CF58AD021207CF93AD021207CFB587
:1010B300AD021207CF18AE021207CF4CAE021207D1
:1010C300CF6FAE021207CF9CAE021207CFF8AE026B
:1010D3001207CF7F8E021207CFFD8E021207CF3386
:1010E3008F021207CF9F8F021207CF1291021207AE
:1010F300CF2E91021207CF7391021207CF019202F2
:101103001207CF5A92021207CF8793021207CF9981
:1011130094021207CFF694021207CF6295021207C8
:10112300CFC395021207CF0496021207CFB19602DE
:101133001207CFC397021207CFEE97021207CF39D8
:1011430098021207CF8098021207CF129902120752
:10115300CFCD99021207CF80B8021207CF8AB80207
:101163001207CFD6B8021207CF44B9021207CF65D0
:10117300B9021207CF15BA021207CFA9BC02120790
:10118300CFB2BC021207CF05BD021207CF2EBD029C
:101193001207CF95BD021207CF26BE021207CF68F2
:1011A300BE021207CFB2BE021207CF11BF0212074F
:1011B300CFA2BF021207CFE1BF021207CF20C002A6
:1011C3001207CF55C0021207CF67C0021207CF79AB
:1011D300C0021207CF98C0021207CFA1C0021207A4
:1011E300CF69C1021207CF028B031207CF8FFC0214
:1011F3001207CFC8A2011207CF0EFD021207CF5E5E
:10120300FE021207CF7EDE011207CFBDDF011207F8
:10121300CFF9DF011207CFB8E1011207CFE1E101F6
:101223001207CF74E4011207CFB8E4011207CF41CC
:10123300E6011207CFD9E6011207CF41E7011207F2
:10124300CFE2E7011207CF24E8011207CF13AF0162
:101253001207CFEFE9011207CF5FEB011207CF842B
:10126300ED011207CFB2ED011207CFD9ED0112073D
:10127300CFE2ED011207CF69EE011207CF87F1012B
:101283001207CFDC8E031207CFB9FF011207CFE697
:10129300E8021207CFF9E8021207CF96E902120714
:1012A300CFD1E9021207CFECE9021207CF11EA020C
:1012B3001207CF56EA021207CF87EA021207CFB806
:1012C300EA021207CF3EEC021207CF808603120711
:1012D300CFB686031207CFD286031207CF14870334
:1012E3001207CF2487031207CFB987031207CFC38F
:1012F30087031207CF92C1021207CF68C3021207F6
:10130300CF3CC5021207CF65C7021207CF4BC802F5
:101313001207CFFDC9021207CF17CA021207CF4423
:10132300CA021207CF5FCA021207CF73CA0212079B
:10133300CF0080021207CF5580021207CFFF800231
:101343001207CFA781021207CF0482021207CF1818
:1013530082021207CFE283021207CF5D84021207D3
:10136300CF8784021207CF2486021207CF3F86025B
:101373001207CF8E86021207CFA486021207CFB1BF
:1013830086021207CFE586021207CFFB86021207F9
:10139300CF8687021207CFE087021207CF2E88027B
:1013A3001207CF3889021207CFBA8B021207CF5424
:1013B3008C021207CF968C021207CF2B8D021207D5
:1013C300CF488D021207CF4B8D021207CF4E8D02ED
:1013D3001207CFC18D021207CFDC8D021207CF088F
:1013E3008E021207CF438E021207CF468E021207D8
:1013F300CF6B8C031207CF778C031207CFB18C030B
:101403001207CF08F2011207CF33F2011207CFFF01
:10141300F2011207CF84F3011207CFEDF301120794
:10142300CF39F4011207CFB8F4011207CF4AF501FF
:101433001207CFD6F5011207CF18F6011207CF8492
:10144300FA011207CF04FC011207CF5BFD0112075B
:10145300CFE7FD011207CF449A021207CFFE9A028B
:101463001207CF709B021207CF0C9C021207CF7C8E
:101473009C021207CFB09D021207CF8C9E02120767
:10148300CFFD9E021207CF7AA0021207CF3CA10222
:101493001207CF53A2021207CFF2A2021207CFAF55
:1014A300A3021207CF9BF2021207CFEFF202120739
:1014B300CF47F3021207CF92F3021207CFF4F302DE
:1014C3001207CF8DF4021207CFF5F4021207CF01F2
:1014D300F5021207CF0080031207CF3180031207F2
:1014E300CFEB80031207CF5181031207CFCDEC025C
:1014F3001207CF59EE021207CF6B8E031207CF7C70
:101503008E031207CFDA81031207CFE88103120794
:10151300CFF28E031207CFD58B031207CFE58B03D0
:101523001207CF008C031207CF618C031207CF0081
:101533008A031207CF858A031207CFE98A031207AA
:10154300CFEE88031207CF1089031207CF7A8903DE
:101553001207CF8589031207CFC989031207CFA1C9
:10156300CA021207CFAFCA021207CFF0CA0212078C
:10157300CF11CB021207CF9BCB021207CFBDCB02F9
:101583001207CF29CC021207CF44CC021207CF5F38
:10159300CC021207CF69CC021207CF73CC02120719
:1015A300CF86CC021207CF9FCC021207CF3BCD02CE
:1015B3001207CFF7CD021207CF6ECE021207CFE884
:1015C300CE021207CF34CF021207CFDACF021207AF
:1015D300CFB6D0021207CFB27B001207CFC07B0079
:1015E3001207CF3A7C001207CF1E7D001207CFD718
:1015F3007E001207CFDC7F001207CF60D2021207F2
:10160300CFCCD2021207CF8BD3021207CF95D402CD
:101613001207CFEED5021207CF49D6021207CF9E8B
:10162300D6021207CFA7D6021207CFB9D6021207E6
:10163300CF23D7021207CF37D7021207CF41D702E2
:101643001207CF96D7021207CF92D9021207CFC43F
:10165300D9021207CFE6D9021207CFFFD902120728
:10166300CF18DA021207CF22DB021207CFBDDB024B
:101673001207CF1F85031207CF4385031207CF5CE1
:1016830085031207CF8F85031207CFC08503120787
:10169300CFEE85031207CF5086031207CF5F860371
:1016A3001207CF6986031207CF7686031207CF3C52
:1016B300F5021207CF62F5021207CF9FF502120758
:1016C300CFAEF5021207CFCDF5021207CF35F602E2
:1016D3001207CF3EF6021207CF9DF6021207CFC1C3
:1016E300F6021207CF80F7021207CF8DF702120717
:1016F300CF9EF7021207CFCC8D031207CFE98D03DC
:101703001207CF34DC021207CF92DD021207CF9FFC
:10171300DD021207CFB2DD021207CFD1DD021207BD
:10172300CFE7DD021207CFFBDD021207CF70DE0227
:101733001207CFD5DE021207CF85DF021207CF5A79
:10174300E0021207CF6AE0021207CF79E002120724
:10175300CF437F001207CF677F001207CF8F7F0031
:101763001207CFB77F001207CFCCF7021207CFF3D0
:10177300F7021207CF14F8021207CF79F802120703
:10178300CF32FA021207CF4BFA021207CF57FA02EF
:101793001207CF6BFA021207CF89FA021207CF930F
:1017A300FA021207CF9DFA021207CFB0FA0212070C
:1017B300CF03FB021207CF3CFB021207CF6BFB02E6
:1017C3001207CFB9FB021207CF08FC021207CF237F
:1017D300FC021207CF2DFC021207CF3EFC021207B8
:1017E300CF84FC021207CFEE8C031207CF44AF0263
:1017F3001207CF6EAF021207CF8AAF021207CF9D37
:10180300AF021207CFB3AF021207CF10B002120715
:10181300CF43B0021207CF7FB4021207CFA5B502A0
:101823001207CFD8B5021207CF24B6021207CF5042
:10183300B7021207CF78B7021207CF8DB70212078C
:10184300CF9DB7021207CFE1B7021207CF42B8020A
:101853001207CF52B8021207CFC1FE021207CFDC24
:10186300FE021207CF05FF021207CF1FFF02120766
:10187300CF44FF021207CF63FF021207CF7BFF02A1
:101883001207CFA9FF021207CFC3FF021207CF88A7
:101893008D031207CF66E5021207CF6DE50212072B
:1018A300CF79E6021207CFA9E6021207CFCFE602ED
:1018B3001207CFF2E6021207CF14E7021207CF4E48
:1018C300E7021207CFB4E7021207CFEDE7021207D0
:1018D300CF39E8021207CF66E8021207CF86E80283
:1018E3001207CF9283031207CFA483031207CF8F6C
:1018F30084031207CF1C85031207CFDB870312076C
:10190300CF4D88031207CF8B88031207CFCC8803F0
:101913001207CF7BEF021207CF97EF021207CFE632
:10192300EF021207CF02F0021207CF33F0021207C1
:10193300CF43F0021207CF2FF1021207CF39F10282
:101943001207CF46F1021207CF56F2021207CF6AEF
:10195300F2021207CF73F2021207CFB2E0021207AC
:10196300CFF7E4021207CFFCE4021207CF3E8E0347
:101973001207CF088E031207CF968E031207CFBE2E
:101983008E031207CF5CA2011207CF33A201120705
:10199300CF26A0011207CFF29F011207CFBF9F01ED
:1019A3001207CFA39F011207CFC99E011207CF8150
:1019B3009E011207CFB69C011207CF369C01120776
:1019C300CF339C011207CF3E9B011207CF0C9B0123
:1019D3001207CF499A011207CF7498011207CF0556
:1019E30098011207CFD797011207CFD49701120797
:1019F300CFC197011207CF5997011207CF4897011B
:101A03001207CF2996011207CF06AF011207CF1491
:101A1300AC011207CF66A9011207CF3AA80112073A
:101A2300CF8EA7011207CFF395011207CFB6950109
:101A33001207CF5795011207CFDFA5011207CF2653
:101A430095011207CFE191011207CFD2900112073E
:101A5300CF6190011207CF9AA3011207CF64E80167
:101A63001207CF2690011207CFF18F011207CFE59E
:101A73008F011207CF458F011207CF8C8E011207FA
:101A8300CF5F8C011207CFEB89011207CFA9890120
:101A93001207CF7488011207CF2988011207CF5B81
:101AA30087011207CFB286011207CF4E86011207B4
:101AB300CF8886011207CF21A3011207CFC5FC02ED
:101AC30000000080FBE4733200000000000000000F
:101AD30000000000000000001010101010100000A3
:101AE3003030000000142850000000000000000007
:101AF30000000000002828FC284850FC505000003B
:101B03000000103854543018145454381000000096
:101B13000044A8A8B0541A2A2A4400000000002058
:101B2300505060ACA898927C000000606020C00018
:101B3300000000000000000000040808101010104E
:101B430010100808040000004020100804081020AA
:101B5300400000000000001010D63838D6101000E6
:101B63000000000000101010FE1010100000000014
:101B730000000000000000000000606020C00000C2
:101B830000000000FC000000000000000000000056
:101B9300000000000000606000000002040404086C
:101BA3000810102020204000000000304884848466
:101BB30084844830000000000010701010101010D2
:101BC300107C000000000038444404081020447CCA
:101BD3000000000000384444180404444438000062
:101BE3000000080818284848887C081C00000000EA
:101BF300007C404078440444443800000000003C2A
:101C03004480B8C48484847800000000007C444885
:101C13000810101010100000000000788484487829
:101C2300848484780000000000788484848C7404A5
:101C330088F0000000000000003030000000303069
:101C43000000000000000000100000000010102041
:101C530000000408102040201008040000000000C9
:101C6300000000FC0000FC00000000000000402019
:101C730010080408102040000000000078848484C9
:101C8300081010003030000000000038449AAAAA5F
:101C9300AAB4423C00000000001010282828384451
:101CA30044EE0000000000F844447844444444F8FF
:101CB30000000000003C44848080808044380000A1
:101CC300000000F048444444444448F0000000004D
:101CD30000FC44404878484044FC0000000000FCFD
:101CE30042404878484040E000000000003C448403
:101CF30080808E8444380000000000EE4444447C1D
:101D0300444444EE00000000007C1010101010103A
:101D1300107C00000000007C101010101010101038
:101D230090E0000000EE44485070484844EE000044
:101D3300000000E040404040404044FC0000000000
:101D430000EE6C6C6C54545454D60000000000EE4A
:101D530064645454544C4CE4000000000030488444
:101D63008484848448300000000000F844444478AC
:101D7300404040E00000000000304884848484B484
:101D830048380C00000000F844447850484844E6C2
:101D930000000000003C4440201804044478000084
:101DA300000000FE92101010101010380000000008
:101DB30000EE44444444444444380000000000EE30
:101DC30044442828282810100000000000D654544A
:101DD30054546C2828280000000000EE44282810E2
:101DE300282844EE0000000000EE442828101010BC
:101DF300103800000000007C88081020204044FCBC
:101E03000000001C101010101010101010101C00F7
:101E130000701010101010101010101070000070CF
:101E23001010101010101010101070000010280067
:101E3300000000000000000000000000000000009F
:101E430000000000000000FE00606020C0000000F1
:101E530000000000000000000000000038441C24C3
:101E6300443E0000000000C04040784444444478AD
:101E730000000000000000003C44404044380000E3
:101E83000000000C04043C444444443E00000000B1
:101E93000000000038447C40443800000000001C6F
:101EA3002420F820202020780000000000000000FB
:101EB3003C48483040784438000000C040405864F3
:101EC300444444EE000000000010000070101010A5
:101ED300107C00000000000800003808080808080B
:101EE3000870000000C040405C48507048EC00009F
:101EF30000000070101010101010107C0000000083
:101F030000000000F854545454D6000000000000B0
:101F13000000D864444444EE0000000000000000C8
:101F23003844444444380000000000000000F844F2
:101F33004444447840E00000000000003C44444432
:101F4300443C040E000000000000EC30202020F888
:101F530000000000000000003C443008447800000A
:101F63000000000010107C101010100C0000000086
:101F730000000000CC444444443E00000000000044
:101F83000000EE4428282810000000000000000094
:101F9300D654545428280000000000000000DC48F8
:101FA300303048EC0000000000000000EE44282818
:101FB300101020E00000000000007C481010247C7A
:101FC300000010101010101010101010101010102E
:101FD3000001363601010001020100010301000185
:101FE3000401060605020000070100340801000F82
:101FF300090401010D0100FF0E0800001702000093
:10200300190100FF1A0100011B0100FE1C01000859
:102013001D0200001F010001200100012102000038
:102023002301000F240200002601000127010008FC
:10203300280200FF2A0100072B0102402C010000A7
:102043002D0100012E0100012F0100FF30010B1CA7
:10205300310800003A0100083B01000F2F01000086
:1020630001017101010101011101010131010101AD
:1020730001018001100161013B0014006301730140
:102083007201620143010001130106013D013500A4
:102093000401120100010001000100010401040117
:1020A300330133013C0144013201360000010001D8
:1020B30065010001350081010001050182018301F1
:1020C3000001030271023001600211027002010279
:1020D300020202028002100261023A00410063021E
:1020E300730272026202430200021302380000020A
:1020F30000020402120200020002000200020402B3
:102103000402370037003C02440200023900000297
:10211300000265020002350281020002050282020A
:10212300830200020300710030016000110070009F
:1021330031022003500480001000610000001400ED
:102143006300730072006200430000001300060086
:102153000000000004001200000000000000000066
:1021630004000400370037003C0244000000000074
:10217300000000006500000035008100000005003C
:102183000000830000000103710301030103010345
:1021930001030103220302030103100300030003ED
:1021A30000030003000300030003420300032403AE
:1021B300060300030003040312032503230325037B
:1021C3002303040304030003000300034403000385
:1021D3000003230300036503210035038103000388
:1021E3000503000300030003C9EEDBDACAD0B0B273
:1021F300C1AAB5C2BFC6BCBCD3C3BBA7B5C7C2BC0B
:10220300D5CABAC5C3DCC2EBC8B7B6A8C8A1CFFB51
:10221300D7A8D2B5D7A8D7A2CEDECFDFCDA8D1B667
:10222300B3CFD0C5C1A2D7E3B4B4D0C2D6C2D4B65B
:10223300C7BFB4F3D4ADA3BA003600010006000053
:10224300000F000000000000000000000000000379
:10225300FFFF00000403FFFF0000FFFF0FF4010076
:1022630005C4040320000100000B0000000000006F
:10227300000003010F01006F1402001B140300216F
:10228300140400271405002D1406003914FFFF0061
:102293000003EAF5E5D5D5C5B5A59595858575758D
:1022A30065655555454535352525151505CF0EFF6E
:1022B3000ED50EDB0EF90EED0EE70E050F0B0F110B
:1022C3000F1D0FE10EC90EC30E0A9B0C02650C0510
:1022D300770C076B0C0C470C0D590CFF0000001614
:1022E3000F00000B150B020002220F32000006B98B
:1022F3000FCB0FD10F990ED70F930E9F0E191037D7
:10230300103D101F102B102510000119161816165A
:10231300152303000C0E020B040B0A0708000F0021
:10232300034948424D181725050200383C3E363B09
:102333003B352B432C303016181920231A1C1E3022
:10234300303017181921301B1D1F300D10DD0FE31E
:102353000FEF0FE90FF30E170F3110230F290F02A1
:10236300040201010101090200000000000000BE97
:10237300040A040015000E0028000C0C0A030908C7
:10238300FF1E1E0F04040574F7120382E99003B0C5
:10239300F0900365E4F01218E39003B5E4F0A3F0C2
:1023A3009003B1F0A3F0120DD31218E9900334E4B3
:1023B300F0A3F090238693FA790212194902502070
:1023C30074F2120382EAFEEBFF548060699003B05B
:1023D300E0F91211938A088B09EA4509604F7C00E2
:1023E30080010CEC75F003A4F8A9F074CC28F582F5
:1023F300742239F583E493F4602CE493F88508821E
:102403008B83E06870DCAA08EC75F003A4F874CD44
:1024130028F582742239F583E493C0E0740193F5BF
:1024230083D082121AC8AA08AB09121187EEFAEFF9
:102433006480FB022590EF5420601D120CF58A087E
:102443008B09EA4509600A120C59AA08AB09121153
:1024530087EEFAEF642080DAEEA2E0501A90036A66
:10246300E0640F700B7900120C23E96003122593CB
:10247300EE6401FAEF80BB5420700302255E750CF5
:1024830000123A658B09EA450970107C027D007AD7
:10249300207B009003B0E0F91212AD7C0079047A3E
:1024A300007B00120CD18A088B098018850882856D
:1024B3000983A3A3A3A3A3A3A3A3A37401F0850ADE
:1024C30008850B09E5084509606D7C007904AA08B5
:1024D300AB09120CD18A0A8B0B750C01E508240495
:1024E300F8E50912380924FFF0A3E034FF125AFC7F
:1024F30070CC850882850983A3A3A3A3A3A3A3A365
:10250300A3A3E0640170A5850882850983A3A3A31F
:10251300A3A3A3E054047094850882850983A3A32D
:10252300A3A3A3A3A3A3A37406F07AB78508828504
:1025330009831226BF8087120CA17C0079017A00DF
:102543007B00120CD18B09EA45097009E50C700573
:102553007A201249BFEE6420022476EF5402600B06
:10256300120DCDEEFAEF6402022435EF5404601924
:10257300124B56124A767901900363124DDA120B0D
:1025830069EEFAEF64040224357A007B000227C661
:10259300900F7E122E5D120C3B22C082C08374EA20
:1025A300120898851882851983AA82AB83794B1206
:1025B300191F7408120A5A7402F07409120A5AAAEB
:1025C30082AB83795012191F7413120A5AE4124F03
:1025D300A912193D7416023F8374F712038274E142
:1025E300120898EAFEEBFFEE4F60338518828519D7
:1025F30083AC82AD83120D197406120A5AE0601E71
:102603007417120A5AE0FD7401120A5AE0FCEEFA3A
:10261300EFFB7900120A91E9600479A48002790042
:1026230002501B74F6120382EAFEEBFF8E828F8345
:10263300A3A3A3A3A3A3E05440601B12549812279F
:102643008D60067AFF7BFF801A8E828F83123C0F88
:10265300FAA3E0FB8003120D3D74FE6A700374FF5E
:102663006B6041125498124A03120D91E98E828FC6
:102673008360061226B8E480051226B87401F07C44
:10268300297D0C8E828F83124DDA121943E9F508E6
:102693007015EE4F60097901EEFAEFFB120CADA94C
:1026A30008024A347508CDAA088E828F831226BF8A
:1026B300E960DF80EAE0240D1240DE22E0240C1200
:1026C30040DEE0F9120C352274F6120382E9FEEAC9
:1026D300FF7A0F7B00121181EA4B60198A828B8388
:1026E300740CF0EEA3A3F0EF8A828B83A3F0124A5B
:1026F3005F7900802FEEF9120CD78A088B09A8089E
:10270300A909E849601C88828983A3A3A3A3A3A37F
:10271300A3A3A37406125723E0F9120BEDEEF912EB
:102723000CB37910024A34C082C08390036AE06418
:102733000F7014EA4B6010900365E064086005E0D5
:102743006404700312274D023FADEAFCEBFD7A01EE
:102753007B009003B0E0F91212A722C082C08379F4
:1027630000EA241DF582EB123C0C24FD600B14607F
:102773000824FD600424FD700109023FAD8E828FA1
:1027830083A3A3A3A3A3A3A3A3A312279122123CCE
:1027930054FB120D91E9228E828F83A3A3A3A3A3DB
:1027A300A3A3A3A31227916402228E828F83A3A3E0
:1027B300A3A3A3A3A3A3A3123FA4900356E0682259
:1027C3001208347F0602059D74F412038274FD120D
:1027D30008988A088B098A828B83A3A3E0F9120CD9
:1027E300D78A0A8B0BAE0AAF0BEE4F70030228D2C7
:1027F300850882850983A3E064F1603085088285BA
:102803000983A3E064CD6024850882850983A3E05E
:10281300641A6018850882850983A3E064E9600C63
:10282300850882850983A3E064E170087900120CAE
:10283300ADE9706C850882850983A3E0C0E074026A
:10284300120A5AD0E0123F88EEF0A3EF1232B3859A
:102853001882851983AA82AB837005120B518003FA
:10286300120D797402120A5AE064E970338E828F72
:10287300831228DE750A01780A1207F0750AE978CF
:102883000A1207F0E508240CF582E509122DA512BA
:102893003290FCA3E0FD8A828B831232AA120834A1
:1028A3008E828F83A3A3A3A3A3A3A3A3A3E0640202
:1028B30070108E828F83A3A3A3A3A3A3A3A3A37444
:1028C30006F0850882850983A3A3E0F9120CB312ED
:1028D3000CA1900F82122596022E62E0F8A3E0F974
:1028E300E8FAE9FB2274F4120382EAFEEBFF7508AF
:1028F300008E828F83A3A3A3A3A3E060427508087D
:102903008E828F83A3A3A3A3A3A3A3A3123EB78BF8
:102913000BEA450B601075082C8E828F83A3A3A34B
:10292300A3A3E0D2E0F08E828F83A3A3A3A3A3E0AB
:102933005403640160030229D14308110229D1EE33
:102943002418122E6F6033EE241A122E6F700F129A
:1029530027AD7003A3E06970757508228070EE24BB
:102963001BF582EF1229D6241AF582EF1232BBEE41
:1029730024191254CC120BDB805412279A7003755E
:1029830008011227AD7003A3E0697006E508D2E1E0
:10299300F508E50860158E828F83A3A3E07006E532
:1029A30008D2E58004E508D2E6F508122780640121
:1029B3007006E508D2E0F5088E828F83A3A3E0605A
:1029C3000D1229E464016006E508C2E0F508A908D0
:1029D300022E67123BFA1229DD22E0FCA3E0FDEE92
:1029E30022123BF4123C2CF9120D7FE922C082C063
:1029F3008379018A828B83A3A3E0C39402400119E4
:102A03008A828B83A3A3A3A3E0C394024002790029
:102A13008A828B83A3A3A3A3A3A3A3A3A3E064F8A2
:102A23007003A3E0F460458A828B83A3A3A3A3A3CB
:102A3300A3A3A3A3E064F97003A3E0F4602E8A8246
:102A43008B83A3A3A3A3A3A3A3A3A3E064FA700309
:102A5300A3E0F460178A828B83A3A3A3A3A3A3A3F6
:102A6300A3A3E064FB7003A3E0F4700279008A82FD
:102A73008B83A3A3A3E0F8900353E068600279007B
:102A8300023FAD74F012038274DE120898EAFEEB83
:102A9300FF8E828F83A3A3A3A3E0600E900F801207
:102AA3004A2B6006900F801225967403120A5AACC3
:102AB30082AD838E828F83A3A3A3124AAD1252E603
:102AC300E9600F7403120A5AAA82AB83120C53E90A
:102AD300700879011218F5022D9AEE241B123BFFA0
:102AE3007410120A5A124A767409120A5AE06021C3
:102AF300741A120A5AE0FD7404120A5AE0FC8E8218
:102B03008F83124DD87901120A91E960047902800A
:102B1300C37403120A5AAA82AB83120C4DE9F50A55
:102B23007409120A5AE0702A90034DE0602474225B
:102B3300550A6422601C7442550A644270CF7420A3
:102B4300120A5A122DB8600A7420120A5A122DB1B1
:102B530070BBE9A2E650417403120A5AAA82AB83FE
:102B6300120C41E97003022AD57420120A5A123C4E
:102B73000F6403700F7420120A5AA3124A1DA3E0B4
:102B8300640D60147403120A5AAA82AB83120DA354
:102B9300E964017003022D9AEE242C122DA2123047
:102BA300C67003A3E069701C75080078081207F06B
:102BB30078081207F0EE242E1254CC122DBE1232D6
:102BC300AA1208347409120A5AE07003022C77120D
:102BD3002DBE124DDA120DF78A088B09EA450970EA
:102BE30003022D147404120A5AE0F88E828F83A311
:102BF300A3E028F8A3E03400F9E8240D122DA98AF4
:102C0300828B83A3A3A3E068601CE88A828B83A3DF
:102C1300A3A3F090861F120A37850882850983A330
:102C2300A3A3A3120A437904E9120A5A1252C32A2C
:102C3300F8A3E034008882F583A3AA82AB83121140
:102C43006F8A0C8B0D8C0E8D0F850882850983A3EB
:102C5300A3A3A3780C1207A74003022D9A90863BE7
:102C6300780C120999850882850983A3A3A3A37805
:102C73000C120A1B900365E064046008E0640960B9
:102C830003022D9AE50AA2E54003022D52EE242EFB
:102C9300122E6F851882851983F0EE242F122E6F62
:102CA300C0E07401120A5AD0E0F0EE2430122E6F05
:102CB300C0E07402120A5AD0E0F07414120A5AE007
:102CC30064017027740E120A5A123C05EE24121284
:102CD3002E6F687003A3E0697011740C120A5A1204
:102CE30027A770077414120A5AE4F0EE2424122D55
:102CF300A21206997404120A5AAC82AD83740712A5
:102D03000A5AAA82AB83120B577404120834022D99
:102D13009A9003AAE064016003022C777420120ADC
:102D23005A122DB87009E50AA2E65003022C7774F3
:102D330010120A5AE0F47003A3E0F4605AEEFCEFB9
:102D4300FD7403120A5AAA82AB83120C5F8048A255
:102D5300E650447420120A5A124DE9701A741A127A
:102D63000A5AE0640270307403120A5AAA82AB83CF
:102D73007900120D6D80207420120A5A122DB17041
:102D830016741A120A5AE06404700C7403120A5A75
:102D9300AA82AB83120D677422025195EE240BF5C0
:102DA30082EF123BFA22F582E9124A8FF82212547B
:102DB300AAE0640722123C2C640622EE242A123B6A
:102DC300F71229DD2412123BF72274F4120382EA6C
:102DD300FEEBFF8C088D09900656E0600F1227ADBD
:102DE3007003A3E0697005120BC9804F7900124D7F
:102DF300CD120BF98A828B83E58245836035A3A3C9
:102E0300A3A3A3A3E05418602AE508241BF582E5D5
:102E130009122DA512069D1234A3122DA512069D8B
:102E2300EE24181254CC122E40120C0B7404120808
:102E33003480087900122E40120BCF80278E828FA8
:102E430083A3A3A3A3A3A3A3A3A31229DD240BF505
:102E530082EF122E59223400F583123C54FB227464
:102E6300031208347F0402059DEE2417F582EF1246
:102E73004A8F2274F712038274F7120898EAFEEB62
:102E8300FF900365E06403600DE064016008E064A3
:102E9300096003022F408E828F83A3E0707E7C0043
:102EA3007D007A027B001218EFEE2402FAEF12384B
:102EB30010123C05900356124A767953121925795C
:102EC30000122F45E0640960031232D88518828509
:102ED30019837401124A4C9003657404F07401124F
:102EE3000A5AAA82AB83794A12191F7401120A5A29
:102EF300AC82AD837A5B7B0312190D900356125299
:102F0300DC7A031232E2900350E0A2E35004D2F0E1
:102F13008002C2F0124A39122593801E8E828F835B
:102F2300A3AE82AF83FC7D007A037B101218EF8E71
:102F3300828F83E0F9122F45E4F0120C89740902A1
:102F4300501D900363122E5D120B6990036522C01E
:102F530082C083900334124A2B701F900365E014E0
:102F6300600924FC600A14600C800F90033C8032DB
:102F7300900338802D90033A8028E8496008900335
:102F83003512328A700C8A828B83A3E0F9120B5DAF
:102F9300801B90033512353F7005120DC1800E90D2
:102FA30003D2124A2B6006124A1D121AC8023FAD01
:102FB30074F412038274FB1208988A088B097A0F3F
:102FC3007B001211818A0A8B0BAE0AAF0BEE4F7096
:102FD300030230BA8E828F83124FA7795012191FC2
:102FE300850882850983A3E060030230A29003630E
:102FF300E0F47003A3E0F46034900363E064FE70D4
:1030030003A3E0F460278518828519831230C67004
:1030130003A3E0696017850882850983A374EA1214
:1030230032C07A637B037950121925807285188226
:1030330085198312548B124A767A567B037953127D
:10304300191F900356124AA7124A767A597B0379BD
:103053004B12191F7A587B0379E112191F90036AE7
:10306300E0C3940F5021900358E0C0E07402120AA9
:103073005AD0E0F07404120A5A7401F004120A5A86
:10308300AA82AB83121937750A00780A1207F078FF
:103093000A1207F0900FA8E0F91232A11208348542
:1030A30008828509831230BFA3F09003657403F08F
:1030B300EEFAEFFB124A5F7405022E64A3E08E82E0
:1030C3008F832212548FE068221240E52274F51296
:1030D300038274D81208988A088B098A828B83A387
:1030E300A3A3123C317415120A5AAC82AD838A82AF
:1030F3008B83A3A3A3A3A3A3A3A3123290FAA3E056
:10310300FB120C8F7415120A5AE0706B85088285C6
:103113000983A3A3A3A3A3A3A3A3E0C3940B40572F
:103123008E828F83A3A3A3A3A3A3A3A3E0640270AC
:1031330046EE240B122E6FF4703D900365E064029B
:10314300603AE064066035900334124A2B6005123E
:10315300328A604F900365E064086005E0640470A0
:10316300167417120A5AE0F9741C120A5AAC82AD8B
:1031730083124DCD120C9574280259A99003341271
:103183004A2B701F75080078081207F07808120799
:10319300F0EE2410122DA21254E41238F81232AABF
:1031A3001208348E828F83124D49123822123C0545
:1031B3007402120A5A124A76EE240D122E6FC0E0E0
:1031C3007404120A5AD0E01232B3F508A3E0F509E9
:1031D300740F7808120A0C7405120A5AE508F07481
:1031E30019120A5AE0C0E07406120A5AD0E0F074C9
:1031F3001B120A5AE0C0E07407120A5AD0E0F074B6
:1032030016120A5AE0C0E07409120A5AD0E0F074A8
:1032130017120A5AE0C0E07408120A5AD0E0F0EE1E
:103223002410122E6FC0E0740A120A5AD0E0F07410
:103233001A120A5AE0C0E0740B120A5AD0E0F07472
:1032430027120A5AE0C0E0740C120A5AD0E0F07454
:103253001C120A5AA982AA8389088A09750A007866
:10326300081207E87C087D007410120A5AAA82AB80
:10327300831245DA120834851882851983AA82AB32
:1032830083120B6302317A123545640122E0F98A15
:10329300828B83A3A3A3A3A3A3A3A3A3E02290034B
:1032A300631252E0900359122E5D120D4F740222E5
:1032B300F0EE240B124A8C22124A8FFA22F07A562D
:1032C3007B0379531232CB221219257A597B037966
:1032D3004B12192522900363122E5D120DF1227BEE
:1032E300001218EF9003591252E07A047B0012186F
:1032F300EF22F01254EF2274F212038274F81208D0
:1033030098EAFEEBFF8C0A8D0B890C8518828519D0
:1033130083AC82AD837583857582EB74081207676E
:10332300F50DEEFCEFFD851882851983AA82AB8328
:10333300124CAA7003750D019003B1803BEEFCEFB4
:10334300FDE508240BFAE5093400124CA9601E853B
:103353000882850983A3A3E0650C70118508828523
:103363000983E0650A7004A3E0650B6038E508246F
:1033730014F582E509122DA512381AE508450960EE
:1033830024E50DA2E040B6850882850983E0650A3D
:103393007004A3E0650B70D5850882850983A3A318
:1033A300E0650C70C8AA08AB0974080227C3C08281
:1033B300C0839003B1023FAA74F71203829003B152
:1033C300123C548012EA2414F582EB122DA5123C10
:1033D300311211FFEEFAEFFBEA4B70E99003B1E40F
:1033E300F0A3F00250207F0702059D74F1120382BF
:1033F300EAFEEBFF890A8C088D098E828F83E08CAD
:10340300828D83123EC1AE82AF83E012469A12468A
:103413000BC412469A1234ACE054038C828D83128F
:103423004609A2E2E4338C828D83124608131313F8
:10343300541F12469A124607A2E7E4338C828D8307
:10344300A3A3A3A31234AC8E0C8F0D750E00780CBE
:103453001207E87C087D00E508240712524F120882
:10346300341252BA8E0C8F0D780C1207E87C037D50
:1034730000E508240F12524F120834E50AC3940FD3
:1034830040148E828F83A3A3A3E0C0E01234A3125F
:103493002DA5D0E080061234A3125717F00233E9AA
:1034A300E5082412F582E50922A3A3123EC50EAF57
:1034B300832274F412038274F9120898EAFEEBFF74
:1034C3008908900334124A2B600E12353F7009EEBF
:1034D300FAEFFB120DBB805F900363E06E7003A3F2
:1034E300E06F70537401650860097A777B03124CAF
:1034F300AA70447A007B02123A698B0BEA450B707F
:1035030036900366120A37851882851983120A4397
:1035130090036CE0C0E07404120A5AD0E0F0740522
:10352300120A5A7401F07406120A5A124FA7120BA8
:103533002DE9609B120B337407022E641235456428
:1035430002221254ABA3A3A3A3A3A3E02274F512F4
:1035530003828A088B098A828B83A3AE82AF83E0BE
:10356300F9120B818E828F83E064EB600C850882F5
:10357300850983A3E064E17009850882850983A333
:10358300E4F0122593750A01780A1207F085088280
:10359300850983A3E0F50878081207F07900123251
:1035A300A1120834120CA10259ACEAF0A3EBF00209
:1035B3003FAD74F61203829003B4E0701B7C007974
:1035C300017A007B00120CD1EA4B600C8A828B8358
:1035D300124A2B6003120C2F024A34C082C083129A
:1035E3003A51401079FF120CCBE9F890237DE49314
:1035F300C3985004790180027900023FAD74F01240
:1036030003828A088B09890B750C008A828B83A33A
:10361300A3A3A3A3A3A3A3E0F9120CD78A0E8B0F32
:10362300AE0EAF0F750A01EE4F60030236DE85085A
:1036330082850983A3A3A3A3A3A31252DC850882D3
:10364300850983A3A3A3A3A3A3A31243DA124DDA89
:10365300120CBF8A0C8B0DAE0CAF0DEE4F70030234
:1036630038018E828F83A3A3A3A3E4F0A3F0E5081C
:10367300240B12380DE0C0E0122D9FD0E0F0120DA4
:1036830097EE240CF582EF1249FFE508240EF5822C
:10369300E509123C02EE240EF582EF124A73750C13
:1036A30001EE2406F8EF123809547FF0A3E054FC2E
:1036B300125541E054046003023764900F861243AD
:1036C300CB740778081209278E828F83A3A3A3A341
:1036D300A3A3E04508F0A3E04509F08E828F83A3FE
:1036E300A3A3A312381874077808120A0CE5085428
:1036F30007F508E50B607A8E828F83A3A3A3A3A3A8
:10370300A3A3A3A3740212460C240D1240DAE0A271
:10371300E2500B900351124AA7A3A3124A76E5087D
:1037230070030237D6EE2406F8EF3400F9E8FAE91D
:10373300FB8A828B83E0547FFCA3E054FCFDE50805
:1037430024FFF508E434FFF5097407780812092704
:10375300EC4508F8ED4509F98A828B83124A768095
:10376300728E828F83A3A3A3A3A3A3E04480023614
:10377300DDE5087005750A0080598E828F83A3A347
:10378300A3A3A3A3E05420601212117BEA547F2465
:103793005F8E828F83A3A3A3A380238E828F83A3B1
:1037A300A3A3A3A3A3E05410600A12117BEA540F4E
:1037B300240A80DD8E828F83A3A3A3A37401F0A3C5
:1037C300E41238227404123A608B09EA4509700343
:1037D3001249F2E50CA2E050288E828F83A3A3A3A3
:1037E300A312500DF9EEFAEFFB120CC5E9601212A9
:1037F3004A216003123BEAEEFAEFFB1211FF750A4E
:1038030000A90A025198124B6A22FAE5093400FB17
:103813008A828B8322A3A3E0F508A3E0F509221291
:1038230038262212526BA3A3A3A3A32274F4120378
:103833008274F71208987E00120CD7EA4B700302C9
:1038430038F18A828B83A3A3A3A3A3A3A3A3A3E097
:10385300640660030238F18A828B83A3A3A3A3A324
:10386300A3A3E0FF8A828B831240EDE0C0E07408DB
:10387300120A5AD0E0123C25124CB0124A76120CAE
:10388300E9EF540860668518828519831252DC7A41
:10389300007B00120CB98B0BEA450B704F9003634E
:1038A300123D1512194F7C007D007A007B008028A1
:1038B3008E828F83123C0FF47003A3E0F4602D908B
:1038C30003631238F8124DDA121643E9641A601CC6
:1038D3007C007D00EEFAEFFB120CB98A0A8B0BAE6B
:1038E3000AAF0BEE4F70C979001219557E01EEF93C
:1038F3007409022E641238FC22E0FCA3E0FD8E82E0
:103903008F8322C082C083EA4B70059003B5800683
:103913008A828B83A3A3123B1560258A828B83A3A0
:10392300A3A3A3A3A3A3E0540860E5EC4D60158A09
:10393300828B83123C0F6C7003A3E06D70D2800402
:103943007A007B00023FAD74F2120382EAFEEBFFC2
:10395300890A8C088D097A107B001211F9EA4B60F1
:103963003F8A828B83A3A3A3A3A3A3A3A3A3E4124A
:103973003C13A3E50A1254B1A31239AD8A828B8397
:10398300A3A3A3A3E4F0A3123C1FA3F0125345EA9D
:10399300240CF582EB123EB11239A6A3A3F0A3F0D7
:1039A3000227C6A3F08A828B8322A3A3E508F0A390
:1039B300E509F02274F4120382EAFEEBFF89088C16
:1039C3000A8D0BEE4F60557401650870147901126E
:1039D3000CCBE9F8902382E493C398500F791180BC
:1039E3006A74046508702F123A5140F18E828F83F6
:1039F300A3A3A3A3A3A3A3A3A3E508123EC1A31256
:103A03005A368E828F83A3A3E4F0A3F09003B512FA
:103A13004A2B6021800D7402650860D079C1802B28
:103A2300E0F8A3124AA0A3A3123B1588828983A3BB
:103A3300A370ED80039003B5EEF0A3EF123A608B11
:103A43000BEA450B70031249F27900022E677904E1
:103A5300120CCBE9F8902389E493C39822F0123A2D
:103A630065227A207B009003B0E0F91212B922C0DC
:103A730082C083E9F879009003B5801D8A828B8325
:103A8300A3A3A3A3A3A3A3A3A3E068600574FF68F0
:103A93007001098A828B83A3A3123B1570DE023F58
:103AA300AD74F7120382EA4B70059003B580068A62
:103AB300828B83A3A3123B1560248A828B83A3A3E7
:103AC300A3A3A3A3A3A3A3E06970E4EC60148A8275
:103AD3008B83E0240D1252CDA2E240D380047A00FE
:103AE3007B00025020C082C0839003B580068A8287
:103AF3008B83A3A3123B1560128A828B83A3A3A398
:103B0300A3A3A3A3A3E06970E580047A007B00026A
:103B13003FAD122E5DEA4B2274F21203828A0A8BA6
:103B23000B8C0C8D0D750800750900EA450B602E92
:103B33009003B580068E828F83A3A3123B68601E19
:103B4300AC0CAD0DEEFAEFFB850A82850B83121ADE
:103B5300C8E9640170DFEEF8EFF988088909AA085B
:103B6300AB090227C6E0FEA3E0FFEE4F2274F71273
:103B730003829003B5123C057C007D00800DE8FCB8
:103B8300E9FD88828983A3A3123C05E8496030EAF2
:103B9300687002EB6970E79003B5124DDAE86A705A
:103BA30002E96B88828983A3A37008123C05900302
:103BB300B58009123C058C828D83A3A3124A760239
:103BC300502074F7120382EAFEEBFFEE4F601512EA
:103BD3000CE3123C37124A216003123BEAEEFAEF80
:103BE300FB1211FF025020EE240C123BF7123C4C47
:103BF30022EE241DF582EF3400F58322F582EF12C5
:103C03003BFA123FA422F582EF123BFA123C2C221C
:103C1300123C17221254B9A3A3A3A322123C17A345
:103C2300A3221239A7123C2C221254A4E022E0FE54
:103C3300A3E0FF228E828F83E0241C1240DE123C1D
:103C43004C8E828F83123C4C22123C54FB1211FF88
:103C530022E0FAA3E022C082C083EAFCEBFDEC4D34
:103C6300700479058044EC24FBF582ED34FF124A9D
:103C7300297007123CB0E0F4600512118780E390CD
:103C830003B0E0C0E0123CB0D0E0F090237FE493B7
:103C9300F97AB77B031211B1E96401700B7A007BE7
:103CA300201249F6790080027904023FADEC24FF2B
:103CB300F582ED34FFF5832274F4120382A2AFE49C
:103CC30033F508C2AF9003B7123B686038EE24FBAC
:103CD300F582EF34FF124A297A007B209003B0600B
:103CE300051249F98005E0F91211BDE4F50AF50B57
:103CF300780A1207ECEEFCEFFD7AB77B031211ABE7
:103D03007402120834E508A2E092AFEEFAEFFB0268
:103D13002E671252E0851882851983AA82AB83220B
:103D230074F212038274FC120898EAFEEBFF750A20
:103D3300FE750BFF120CA7E960057911023EA6EE92
:103D43002415122E6F6037900F9AE0C43354E0F8B5
:103D5300E0333354FC48C0E0EE2415122DA2D0E02A
:103D6300123EC1123EB78B09EA45096011750AFF7D
:103D7300EE240F122E6F4404124A84D2E0F08E8296
:103D83008F8312278B6006EE2412123EAEEE2413AD
:103D9300122E6F7010902385E493C0E0EE2413126B
:103DA3002DA2D0E0F08E828F83E0A2E7500454036B
:103DB300801CEE2414122E6F7015900342E0C0E0B5
:103DC300EE2414122DA2D0E0F0900342E004F0EEB2
:103DD3002411122E6F6401701690064DE0600D9051
:103DE300034DE0700A8E828F83E07003123EAB8E28
:103DF300828F83E064017013EE240B123C0964028A
:103E03007009EE240F122E6F4440F0851882851935
:103E130083AC82AD83EEFAEFFB120D0D8A088B099A
:103E230074FE650A700374FFF470098E828F83A396
:103E3300A312525BEA450960668E828F83E0C0E07D
:103E43007401120A5AD0E0F07402120A5A1253494A
:103E53007401120A5A85820C85830D780C1207ECC3
:103E6300EE240F122DA212069DEE240E122E6FF5D4
:103E73000C780C1207F090035612069D7407120A71
:103E83005AE0F9AC0AAD0B120D077407120834E9B6
:103E9300FE74106E700BAA08AB091211FF80027E2C
:103EA30010EEF974040227C3EE2411F582EF123BDE
:103EB300FAE4F022A3122E5D79FF120A6D22123E5C
:103EC300C522F08E828F83A322C082C08374DE1248
:103ED30008988A828B83A3A3A3A3123C05740E12B2
:103EE3000A5AE8F0A3E9123F9B740C120A5A123FD4
:103EF30094240DF582EB122E72C0E0741A120A5A42
:103F0300D0E0F01251A8EB123C027420120A5A12AC
:103F13003F942415F582EB122E72C0E07408120A46
:103F23005AD0E0F0EA241CF582EB123C0274121220
:103F33000A5A123F942411F582EB122E72C0E074D8
:103F430009120A5AD0E0123F8874FFF07401120A72
:103F53005A74FFF07402120A5A74FFF090861F120B
:103F630006997404120A5AAC82AD837407120A5A72
:103F7300AA82AB83120B577404120834790074229B
:103F83001208348025123F8C22F08518828519830C
:103F930022E8F0A3E9F0EA221239A7A3123FA322F1
:103FA300A3E0F8A3E0F922124DDAD083D08202070E
:103FB300CC74EC12038274EE1208988A128B13EC01
:103FC300FEEDFF89097426120A5A12525B742812F5
:103FD3000A5AE0F5107429120A5A1240CF742B12B0
:103FE3000A5AE0F50EA3E0F50F7508107A1E7B0060
:103FF3001211F97402120A5A124A037402120A5A6B
:10400300124A2B70030240C8851882851983AA823D
:10401300AB8379501248DE124DDA7402120A5A1237
:1040230040EDA3124A037410120A5A125A3874024A
:10403300120A5AE0240B1240DA7402F0120A5A12DE
:1040430040ED7402F0120A5A12549C12534974023E
:10405300120A5A124DEFE509F07402120A5AE024CB
:104063000C1240DAE510F07402120A5A1240D7E536
:1040730012F0A3E513F07408120A5AE50CF0A3E555
:104083000DF0740A120A5AE510F0850E82850F832B
:10409300C082C083740D120A5AAC82AD83D083D020
:1040A300827403120767F97402120A5AAA82AB8355
:1040B300120CADE9640170057508008008740212E2
:1040C3000A5A123BF0A9087412025272E0F50CA3CB
:1040D300E0F50D22E0241C1240DE22F8A3E012409A
:1040E300E5223400F98882898322124DE2A3A3A337
:1040F300A3A32274EE120382EAFEEBFF8C088D0960
:104103008E828F83A37408124ABFE060088E828F69
:1041130083A37410F0122E6C60098E828F83A3E048
:104123002408F0EE2415122E6F60088E828F83A36D
:10413300E004F08E828F83A3A3A3A3A3A3E060195B
:104143008E828F83A3A3A3A3A3A3A3E0C3332402D9
:10415300F88E828F83A3E028F0EE2411122E6F6075
:1041630005750B0E8003750B008E828F83A3C082AF
:10417300C083EE240D122E6FD083D082F8E0282561
:104183000B8C828D83F0EE2411122E6F6005124585
:10419300EA28F0850882850983E0C3947540097590
:1041A30008007509000242D8E0FA7B001253F77049
:1041B300030242D8EEFAEFFB120D13EA850882855B
:1041C3000983124A04EE2402F8EF1230CC1243D2D0
:1041D300124314F0EE24040808EF1230CC124814F2
:1041E300A3124314A3A3F0EE24131242FAF0EE2415
:1041F300141242FAA3F0750A08EE2416122E6F6009
:1042030010EE24181252D9E50824081254DA750A5C
:1042130010122E6C6016EE241A1252D9850A0CE580
:1042230008250C1254DA7408250AF50A8E828F8346
:10423300A3A3A3A3A3A3E06059EE2407F510EF34CF
:1042430000F511851082F583E0C0E01242E1122DE2
:10425300A5D0E0124304E0C0E01242E1122DA5D044
:10426300E0124304A31242ED1207E8851082851180
:1042730083E0C333FCE433FD850A0CE508250C1207
:10428300524F120834851082851183E0C333250A07
:10429300F50AEE2415122E6F600BC0E01242E112F4
:1042A3002DA5D0E0F0122D9F1242ED1207E8EE2467
:1042B3000D122E6FFC7D00850B0A8E828F83A3E087
:1042C300F8E50828F8E5093400F9E8250AFAE912BF
:1042D3005252120834AA08AB097F0A02059D850AC7
:1042E3000CE508250CF582E50922E0F50CA3E0F5C1
:1042F3000D750E00780C22123BF712431EA3A3A3E5
:1043030022F0050A8E828F83A3A3A3A3A3A3A3A34F
:1043130022A3A3125545A312431E22124818A3A396
:104323002274F61203828A828B83E0FC9003531279
:1043330043CB74027808120927EC4508FCAD09EA5F
:1043430024121243C574067808120927EC4508FCA9
:10435300ED4509FDEA2415F582EB122E726004780F
:104363000180027800E4C8F9ED49FDEA2411F582E1
:10437300EB122E72F508880974097808120927EDE3
:104383004509FDEA24161243C5740B780812092760
:10439300ED4509FDEA24171243C5740C7808120988
:1043A30027ED4509FD8A828B83A3A3A3A3A3A312AD
:1043B30043CB740A7808120927ECFAED4509FB028E
:1043C3004A34F582EB123BFAE0F50875090022E066
:1043D30085088285098322A3E0F9850882850983FC
:1043E3002274EE1203828A0A8B0BECFEEDFF750F2B
:1043F30001E9C39408500579000245D78E828F8363
:10440300E9F012483DE96003750F001248218E82DE
:104413008F8312486BEE1251A9EF124860C0E0EE91
:104423002411122DA2D0E0124858C0E0EE2412123B
:104433002DA2D0E0123EC17408125263A3A3A3E0DD
:104443006015124809EE2413F582EF124A738E8227
:104453008F83A3E02408F08E828F83A3A3A3A3A357
:10446300A3A3A3E060218E828F83A3858208858323
:104473000912484CEE2415F582EF124A738508821F
:10448300850983E02408F08E828F83A3A3A3A3A3CB
:10449300E0601A8E828F83A3858208858309124880
:1044A300308E828F83A3A3A3A3A31245FCEE24190A
:1044B300123EAEEE241B123EAEA3124AB7E07003C7
:1044C30002456BEE2419F8EF3400F98E828F83A333
:1044D300858208858309E0FAE50A2AF582E50B124D
:1044E3002E72888289831245FCFAE50A2AF582E551
:1044F3000B122E72C0E0EE241A122DA2D0E0124548
:10450300FC88828983E06059F890237EE493C39802
:10451300500575110C8008EE2419122E6FF5118EBB
:10452300828F83A3E0F8E50A28F50CE50B1245E03A
:104533001207E8E511C333FCE433FD7A2E7B0E1238
:1045430045DA120834EE241B122DA2742EF0A37444
:104553000EF0E511C333F8850882850983E02880CE
:1045630006EE2418125714F08E828F83A3E0F88E80
:10457300828F83E0C39850030243FAA3E0FA8A08C8
:10458300E50A2508F8E50B3400F9EE241DF582EF62
:10459300124B7F12460CC39AC0E0EE2417122DA2D1
:1045A300D0E0124A7C602BEE2417F8EF3400F98830
:1045B3000889098882F583E024F2124B60240EFAFD
:1045C300A3E03400FB88828983124A031245EAC3BD
:1045D30098F0A90F0242DC12115D7403223400F536
:1045E3000D750E00780C2290034EE0F9120A97E93C
:1045F300F8850882850983E022F08508828509838E
:10460300E004F022A3A3A3A3A3F08E828F83E0226E
:1046130074F41203828A088B09EA1246A1F0EA13A2
:1046230013543F12469AA3A3A3F0EAC413131246EA
:10463300A1A3A3F0EB1246931246AB7409780A12B6
:104643000A0C1246911246AA740A780A120A0CE559
:104653000A5401C0E0EC2418F582ED122DA5D0E038
:104663001246B0740B780A120A0C124691A3124632
:10467300AA740C780A120A0C124691A3A3A3A3A34B
:10468300A3A3A3F0740D7808120A0C0229D1E50A3A
:1046930054018C828D8322540F8C828D8322540388
:1046A3008C828D83A3A322A3A3A3A3A3A3F08A0A2B
:1046B3008B0B22C082C08379008A828B83A3A3A33E
:1046C300A3A3A3E090034D600FE070228A828B8343
:1046D300A3A3E07019098016E060138A828B83120A
:1046E3004DD1900356E06A7003A3E06B70E7023F7D
:1046F300AD74F01203828A0A8B0B890C8C088D0926
:1047030012483D12482185088285098312486BE5CA
:10471300081251A9E509124860C0E0E5082411F523
:1047230082E509122DA5D0E0124858C0E01234A347
:10473300122DA5D0E0124B877408124BA060111202
:104743004809E5082413124B7B124B87E02408F039
:10475300850882850983A3A3A3A3A3A3A3A3E060DE
:1047630017850882850983A3124848E50824151292
:104773004B7B12460C2408F0850882850983A3A38A
:10478300A3A3A3E06019850882850983A3AE82AF42
:104793008312483085088285098312460704F0AAEC
:1047A30008AB09120D25E9F50D70568508828509B8
:1047B30083A3A3A3A3A3A31248147014E0FA8A0E3D
:1047C300E50A250EF8E50B124A68E50CC39A802129
:1047D300124848E8240EF8E9124A6890034EE0F9BB
:1047E300120A978E828F83E0F8E50CC39824F2C3F4
:1047F30099C0E0E5082417F582E509122DA5D0E05C
:10480300F0A90D025198E50A2408F8E50B3400F9E4
:104813002212481822E0850882850983A322850A8B
:1048230082850B83A3A3124881E0F9EA22E0F8E52D
:104833000A28F582E50B124A8F228A828B83125152
:104843009D120D1F22AE82AF83E0F8E50A28F8E53A
:104853000B3400F922124894A3A3A3E022123BFADB
:10486300E812488DA3A3E022A3A3A3A3A3A3A3A316
:10487300A312488D124881A3A3E0F9EAF822E0FAD3
:10488300850A82850B83A3A3A322F0A3E91248948C
:1048930022F0850A82850B83A3A3A3A322C082C02F
:1048A300837AC57B0379E212191F7AC57B03023F22
:1048B300ADC082C083900356023FAAC082C08374F6
:1048C300FE120898851882851983AA82AB83794BD7
:1048D3001248DE124DDA7402023F8312191F851843
:1048E3008285198322C082C083794A12191F023F2D
:1048F300AD74F61203829003CDE0FE04F0EEF912DC
:104903000CD78B09EA450970EDEE60EAF9024A34E7
:1049130074F0120382EAFEEBFF8C088D09890A7496
:1049230010120A5AE0F50B7411120A5AE0F50C1230
:104933000DF7EA4B7013E50C7042A90AAC08AD09F8
:10494300EEFAEFFB120E0F806EE50A6021EA2402F5
:10495300F582EB122E72850A082508F8E434001359
:10496300E813F070098A828B83A3A37401F0E50C2A
:104973006045E50B70068A828B83E4F07401650C55
:104983007035E50B9003D47004E4F0802AE004F062
:10499300900F87E0F89003D4E0C398401AE4F090B6
:1049A3000359E06E7003A3E06F700CEEFAEFFB792E
:1049B30001120B7B1249BD0251987A017B009003CF
:1049C300B0E0F91212B322C082C08374016A70018D
:1049D300EB70077A011249F48012900F7E124A039A
:1049E300EA4B600512274D80031249BD023FAD7AA1
:1049F300207B009003B0E0F91211B7223400F58355
:104A0300EAF0A3EBF022C082C083900F800235ADA1
:104A1300C082C083900F820235AD1254AB22EE24C4
:104A23000CF582EF3400F583123FA4E84922120803
:104A3300347F0202059DA2F0E43385188285198331
:104A4300124A55795212192522124A5579421219DE
:104A53002522F0AA82AB8322AA08AB099003B0E017
:104A6300F912118D223400F9E508241DF582E509B8
:104A7300123BFAE8F0A3E9F022125267A3A3E02263
:104A8300A3F0EE2415124A8C22F582EF3400F5834D
:104A9300E022124A99223400F583E0F8A3E0F98872
:104AA30082898322E0F8124AAD22A3E0F98E828F35
:104AB30083A3A322F0EE2418123BF722F0EE241670
:104AC300123BF72274F4120382EAFEEBFF7A007BB7
:104AD300041249C1124B56124A769003657409F0C9
:104AE300120D318A088B09AC08AD09EE2413122D7F
:104AF300A2124DDA124CAA640170487A0F124B4984
:104B030060418A828B837402124B60FAA3E0FB8AB2
:104B1300828B83A3E0FC8A828B83A3A3E0FBEC85D7
:104B23000882850983A3A3124A0488828983124DCC
:104B3300DE1243D2124A83FAA3E0FB794A12192503
:104B4300124A5B022E677B001211818A088B09EAE5
:104B5300450922900336123FA4900F8222F0EE24DF
:104B63001DF8EF124B6A221240E5E022124B73222A
:104B73003400F5837401F022F582E509123BFAE86B
:104B8300F0A3E922124B8B22124B8F22F08508826D
:104B9300850983A322124B8FA3A3A3A322124B98AD
:104BA300A3A3E022124FB1120D8522EE2417F58242
:104BB300EF124B73120D31EE241A123BF7EAF0A3F6
:104BC300EBF02274F412038274F31208988908EA52
:104BD300FEEBFF7C0D7D007900851882851983AA81
:104BE30082AB83121169EE241D122DA212549CA3D1
:104BF300E0F8741F58600A79011218F57900024C25
:104C0300A1E8A2E55008740C120A5A7401F0E8A254
:104C1300E75008740B120A5A7401F0E8A2E6740A0A
:104C23005008120A5A7401F08008120A5AE064010B
:104C33007005EE24138003EE24151252D974021268
:104C43000A5AAA82AB8312190D122D9F124CAF126E
:104C53004A76740A120A5AE064017033122780708C
:104C63003B120D3D8A0A8B0BA80AA90BEE240B12EB
:104C73002E6F687003A3E0697022120D31EAFCEB1A
:104C8300FD7402120A5AAA82AB83124CAA600D85E4
:104C93001882851983AA82AB83120B75A908740D38
:104CA300022E64EEFAEFFB121907E922E0124CB46C
:104CB30022F8A3E0F98518828519832274F612037A
:104CC3008274F31208988A088B09ECFEEDFF7C0DC1
:104CD3007D007900851882851983AA82AB831256D9
:104CE30041A3A3A3A3A3A3A3A3A3124D49124D526C
:104CF300F8A2E55008740B120A5A7401F0E8A2E70F
:104D03005008740A120A5A7401F0E8A2E6EE50043D
:104D13002413800224151252D97402120A5A124D16
:104D23003BA3A3E0C0E0740C120A5AD0E0124FA9CF
:104D3300120B6F740D024A31AA82AB8312190D85CF
:104D4300088285098322E0124CB4E8F0A3E922F03B
:104D5300123BF41254A0A3E02274F712038274E10D
:104D6300120898EAFEEBFF8E828F83124DDEA3A317
:104D7300A3E0A2E050518E828F831228E08A828BB7
:104D830083A3A3A3A3A3A3E054FE124DF68A828BAD
:104D930083124DEFE0F98A828B83E0241CFAA3E0AF
:104DA300123810124DDA120D2BE9701B741D120A02
:104DB3005A124DE97011851882851983AC82AD832F
:104DC300EEFAEFFB120D7302501B8E828F83A3A3A7
:104DD300A3A3A3A3A3A3A3122E5D22124DE2221227
:104DE30054A4A3A3A322123C2C640422E0241B1288
:104DF30040DE22123F8CAC82AD8322E9F879007445
:104E03000468600A740A6860057403687001090223
:104E130007CC74F61203828A828B837420F0A3A3D7
:104E23007401F0120B218A088B09AE08AF09EE4F0B
:104E330060108E828F837401F09003A3E0700312DD
:104E43004BAEEEFAEFFB024A34C082C0839003B943
:104E53007401F0E9A2E350037403F0E9A2E1500402
:104E6300E0D2E2F0023FAD74F612038279007C00D7
:104E73008A088B0978081205E3F8FF079D4E9B4EBD
:104E83009B4E9B4E9B4E944E984E9D4E914E0C8046
:104E9300097C0480050C80F67C089003B9E05C6013
:104EA30003098003EC600109024A3474F612038299
:104EB3008A828B83E07012A3124A2B600C8A828B46
:104EC30083124DD9121A0380047A007B00024A34FC
:104ED30074F512038274F31208988A088B09ECFEA6
:104EE300EDFF750A12EA450970057900024FA29099
:104EF3000356E065087004A3E065097014120D31D0
:104F0300EAFCEBFD124CA67005750A018003750AD5
:104F130000851882851983E4F004120A5AE508F023
:104F2300A3E509124FA9120AE5E960277403120ADF
:104F33005AAA82AB83120AC7E964017016750A0183
:104F43007403120A5AAC82AD83124CA66021750A0F
:104F530000801C7412650A70169003A2E06402704C
:104F63000EEEFCEFFDAA08AB09120AFDE970DFEEB5
:104F7300FCEFFDAA08AB09120DFDE9F8740A68708D
:104F830005750A01801774A0687012EEFCEFFDAA84
:104F930008AB09120E09AA08AB09120E1BA90A7461
:104FA3000D0259A97402124FAD22124FB122123FC2
:104FB3008CAA82AB832274F7120382EAFEEBFF8E84
:104FC300828F83A3A3A3A3A3A3A3A3E06015EE24CB
:104FD30015122DA2122E4D120D9DE9640170047954
:104FE3000180258E828F83A3A3A3A3A3A3A3E06041
:104FF30015EE2413122DA212500DFAA3E0FB120D8D
:105003009DE9640160D9790080131238FCA3A3A33E
:10501300A3A3A3A3A3A3E022741F1208347F010256
:10502300059D74F012038274FD1208988A088B0997
:10503300ECFEEDFF890B7413120A5AE0F50C750AA6
:10504300017401120A5A74041254D46048E50C60C6
:105053001DEA2417F582EB1257171254C28A828B6A
:1050630083E0D2E7F0EA2414F582EB123EB1125149
:10507300A8EB124A957403125A3AEE88828983A3E5
:10508300A3F0EF88828983A3A31239A61239AD1244
:105093000B1BE9F50AA90A740302519574EC120378
:1050A3008274F51208988A0A8B0B890C8C0E8D0F6B
:1050B300741F120A5AE0F50D7420120A5AE0F51013
:1050C300A3E0F5117E01EE120A5A740AF0E97007A3
:1050D300E50DC333240AF012527A700302517C1295
:1050E300528F7409F0A3E50CC43354E0450D1252FA
:1050F300A1E50C702D7C008023ECC333F8E433F975
:10510300E51028F8E51139F98882898312518988D5
:105113008289831230BFF0A30EAF830CECC3950DCD
:1051230040D7E5082417F582E509124B6F120D31BC
:10513300E508241AF582E5091249FF7403120A5A95
:10514300AC82AD83AA0AAB0B120ACDE96019E5085C
:105153002416F582E509125183120A5AA882A983FB
:10516300E5082418124A6F850882850983125A3686
:10517300AA08AB09120B1BE9FEEEF9740B0252727B
:10518300124B73740322E08E828F83F0A3AE82AF3F
:1051930083221208347F0802059D123C54F9EA2445
:1051A30000E439FB22EA240BF5822274EE12038217
:1051B3008A0C8B0D890E8C088D097412120A5AE021
:1051C300F50F7413120A5A12525B9005BC124A2B44
:1051D3006077E50FC333F8E433F9E8240EFAE934D2
:1051E30000FB1211818A108B11AE10AF11EE4F60CC
:1051F300588E828F8374D4F0A3A3E50CF0A3E50D3E
:10520300125263E50EF0AC08AD09EE2405FAEF1275
:1052130054DDEE240D122DA2E50FF0850A08850B4F
:1052230009750A0078081207E8E50FC333FCE43375
:10523300FDEE240EFAEF125252120834EEFAEFFB8F
:105243009005BC12549C121AC80242DCFAE50934D8
:1052530000FB12115D740322E0F50AA3E0F50B22B3
:105263001252672212526B22123EC5A3A3A322122B
:1052730008347F0C02059D851882851983AA82ABA9
:1052830083120D858A088B09EA450922EA240BF566
:1052930082EB124A8FFEA3E0FF8E828F8322F0A35C
:1052A300AE82AF83AC0EAD0FEEFAEFFB1252B32218
:1052B30012190D1252BA22EE2408FEEF3400FF2217
:1052C300E0FA8E828F83A3A3E022FEA3E03400FFE3
:1052D3008E828F83E022123BF71252E022E0FCA37E
:1052E300E0FD22122E5D120D192274F6120382EADA
:1052F300FEEBFF9003BA801388828983E06E70030C
:10530300A3E06F603A88828983A3A3124A2B70E8D3
:105313007A047B001211F98A088B09A808A909E805
:1053230049601C888289831253499003BA124DDA6B
:1053330088828983A3A3124A039003BA124A76028E
:105343004A348A828B83EEF0A3EFF02274F41203C3
:10535300827E009003BA80070E88828983A3A312FA
:105363004A2B70F4EEC333FAE433FB1253F7607E37
:105373007F009003BA8024888289831252DCEFC3B2
:1053830033FAE433FBE5082AF582E5093BF583ECC0
:10539300F0A3EDF00F88828983A3A3124A2B70D761
:1053A3009003AB1227BA7003A3E06978087019124F
:1053B30007ECEEF50A780A1207F07C777D03790093
:1053C3009003AB125402801A1207ECEEF50A780A26
:1053D3001207F07C777D0379009003AB124DDA124C
:1053E3000DAF7403120834AA08AB091211FF120B94
:1053F30033022E671211F98A088B09EA4509221232
:105403002E5D120DB522C082C08380128A828B83E7
:10541300A3A3123C059003BA124A761211FF90031C
:10542300BA123B1570E6023FAD74F6120382900385
:1054330063123C319003CE12548B124A767ACE7BA0
:105443000379501219259003CE1229D9FAEFFB12D2
:105453000E159003CE123C319005BE124A2B6025E7
:105463007A067B00121181EA4B601A8A828B83745D
:10547300D5F0A3A3E41254B1041254C29005BE1292
:10548300549C121AC8024A3412548F22E0F8A3E043
:10549300F9900363228E828F831254A0221254A4A4
:1054A30022E0F81254AA22A3E0F583888222125440
:1054B300B5221254B922F08A828B83A3A3A32212AA
:1054C30054B5A3EEF0A3EFF022F582EF124A8FF961
:1054D30022124BA7EA4B22FAE5093400FB12190DFD
:1054E30022124AAEA3A3A3A3A3A3A322902380E4DF
:1054F300932401F8E43400F97A027B002274F71252
:1055030003827E008004125AED0E12561140F77E7C
:1055130000EE12552C74FEF0A304125541E4F00E74
:10552300EEC3940340EB02502075F003A4F8A9F0F6
:1055330074BC28F8740339F988828983A32212552D
:105543004522F0888289832274F71203827F0080C8
:10555300010F902388E493F8EFC3985026EF125677
:10556300FD6A7003A3E06B70E8125A9A6C7003A390
:10557300E06D600A74FF6C700374FF6D70D3125694
:105583000880047A007B0002502074F61203827CA8
:10559300FF7DFF7AFE7BFF120DD9EA4B7040750841
:1055A300008036E50875F017A4F8A9F074C928F54A
:1055B30082740C12570F600C74C828F582740C1295
:1055C300570F701374BA28FE740C39FF8E828F83C1
:1055D30012571CEEFAEFFB050812567740C5024A34
:1055E3003474F41203828A088B09ECFEEDFF800BFE
:1055F300120DEBEEFCEFFDAA08AB09120DD9EA4B35
:1056030070EE022E6774BA28FA740C39FB229023C9
:1056130088E493F8EEC3982274F7120382EAFEEB50
:10562300FFEE4F601012563B74FEF0A304125A4073
:1056330014F0A304F00250207C177D0079001211AE
:10564300698E828F832274F7120382EAFEEBFF7561
:1056530008008018E50875F017A4F8A9F0125AA5F8
:105663007003A3E06F6003125AF5050812567740E2
:10567300E3025020902388E493F8E508C39822744A
:10568300F6120382120DD98A088B09A808A909E822
:1056930049600AE8240DFAE93400FB80047A007BB0
:1056A30000024A3474F41203828A0A8B0BECFEED77
:1056B300FF750800750900802EE50975F017A4F839
:1056C300A9F0125AE0601EE5091256FD650A70043E
:1056D300A3E0650B700375080AEEFCEFFD12599CFD
:1056E30060034308A00509902388E493F8E509C300
:1056F300985004E50860C20229D175F017A4F8A9EF
:10570300F01257082274BA28F582740C39F583E035
:1057130022F582EF123BFAE422122E5D120C1122C3
:10572300125545A3A3A3A3A3A3A3A32274F2120315
:10573300828A088B09ECFEEDFF740E120A5A12528C
:105743005B750C007C007D01801012117BE50CF56C
:10575300F0EA84ACF0750C007D00780079008003DA
:105763001258D912593540030257FBE8FAE9FBEA0C
:1057730075F017A4FA85F00D75F017EBA4250D123B
:1057830059117003A3E0F460D71258EF6508700451
:10579300A3E0650960CA1258EF6E7003A3E06F605F
:1057A300BF1258EF650A7004A3E0650B60B2E8FA14
:1057B300E9FBEA75F017A4FA75F017EBA4250DFBC6
:1057C30074C82AF582740C1258D0509474016D0574
:1057D3000C608DE50CC39C4087E875F017A4F8AA0C
:1057E300F075F017E9A42AF974BA28F582740C3914
:1057F300F583124DDA0258CD7800790080031258F0
:10580300D912594240030258B4E8FAE9FBEA75F0A9
:1058130012A4FA85F00D12592164FE7003A3E0F47B
:1058230060DC12591765087004A3E0650960CF12A4
:1058330059176E7003A3E06F60C4125917650A709D
:1058430004A3E0650B60B7E8FAE9FBEA75F012A47C
:10585300FA75F012EBA4250DFB74492AF582740B3B
:105863001258D05099E8FAE9FBEA75F012A4FA75D8
:10587300F012EBA4250D1258E264016081E064028A
:10588300700302580174016D050C7003025801E5A1
:105893000CC39C5003025801E875F012A4F8AAF057
:1058A30075F012E9A42AF9744028F582740B0257A3
:1058B300F2E50C6011EC700E7401650C6003025785
:1058C3004D7C010257587AFE7BFF0227C63BF583C6
:1058D300E014C3940622E8240108E93400F922FB0A
:1058E30074442AF582740B3BF583E022E8FAE9FB62
:1058F300EA75F017A4FA75F017EBA4250D125904F5
:1059030022FB74BA2AF582740C3BF583E022125908
:105913000464FE22E8FAE9FBEA75F012A4FA75F0D2
:1059230012EBA4250DFB74402AF582740B3BF5831F
:10593300E022902388E493FAC3E89AE99400229042
:105943002377E493FA740193FBC3E89AE99B2274E7
:10595300F51203828A088B09ECFEEDFF750A0080BD
:1059630002050A902388E493F8E50AC3985028EEC9
:10597300FCEFFDE50A75F017A4F8A9F012599C6035
:10598300E0E50A75F017A4F8A9F074BA28F5827453
:105993000C39F5831239AF801074BC28FA740C39B2
:1059A300FB121907E9221208347F0302059D74F0E4
:1059B3001203828A088B098C0A8D0B890C120DDF66
:1059C3008A0E8B0FAE0EAF0FEE4F605512563BE5AE
:1059D30008F0A3E509125A40125A38E50C600AEEA2
:1059E300240F122DA2E50C8006EE240F125A30F07C
:1059F3009003D0124A2B601A9003AAE06401700846
:105A0300EE240E1257148010EE240E122DA27407EA
:105A13008006EE240E125A301232F5120231125A57
:105A230027025198EE240D123BF7E8F022123BF7C0
:105A3300740122A3A3E50AF0A3E50BF02212382692
:105A4300A32274F51203828A088B09ECFEEDFF751D
:105A53000A00800F125AA57003A3E06F6003125A65
:105A6300F5050A902388E493F8E50AC3985025E5E1
:105A73000A75F017A4F8A9F0125A9A65087004A3DE
:105A8300E0650970CF74C428F582740C39F583126C
:105A9300534980CD0259AC74C428F582740C125753
:105AA3000F2274C428F582740C12570F6E2274F7F8
:105AB300120382EAFEEBFF7508008019E50812560F
:105AC300FD6E7003A3E06F700A125AE07005E508DB
:105AD300125AEE050812567740E202502074BC2891
:105AE300FA740C39FB120AC7E922EE75F017A4F811
:105AF300A9F0125608120DEB22125545123FA4E8E5
:105B03004922C082C08374F81208988518828519C7
:105B130083AC82AD837583857582E374081207674E
:105B2300851882851983AC82AD83124CAA640170F7
